{
  "abi": [
    {
      "inputs": [
        {
          "internalType": "contract ConfigContract",
          "name": "_configContract",
          "type": "address"
        },
        {
          "internalType": "contract FeeBankContract",
          "name": "_feeBankContract",
          "type": "address"
        }
      ],
      "stateMutability": "nonpayable",
      "type": "constructor"
    },
    {
      "anonymous": false,
      "inputs": [
        {
          "indexed": true,
          "internalType": "address",
          "name": "previousOwner",
          "type": "address"
        },
        {
          "indexed": true,
          "internalType": "address",
          "name": "newOwner",
          "type": "address"
        }
      ],
      "name": "OwnershipTransferred",
      "type": "event"
    },
    {
      "anonymous": false,
      "inputs": [
        {
          "indexed": false,
          "internalType": "uint64",
          "name": "batchIndex",
          "type": "uint64"
        },
        {
          "indexed": false,
          "internalType": "enum TransactionType",
          "name": "transactionType",
          "type": "uint8"
        },
        {
          "indexed": false,
          "internalType": "bytes",
          "name": "transaction",
          "type": "bytes"
        },
        {
          "indexed": false,
          "internalType": "bytes32",
          "name": "batchHash",
          "type": "bytes32"
        }
      ],
      "name": "TransactionAdded",
      "type": "event"
    },
    {
      "inputs": [
        {
          "internalType": "uint64",
          "name": "_batchIndex",
          "type": "uint64"
        },
        {
          "internalType": "enum TransactionType",
          "name": "_type",
          "type": "uint8"
        },
        {
          "internalType": "bytes",
          "name": "_transaction",
          "type": "bytes"
        }
      ],
      "name": "addTransaction",
      "outputs": [],
      "stateMutability": "payable",
      "type": "function"
    },
    {
      "inputs": [
        {
          "internalType": "uint64",
          "name": "",
          "type": "uint64"
        },
        {
          "internalType": "enum TransactionType",
          "name": "",
          "type": "uint8"
        }
      ],
      "name": "batchHashes",
      "outputs": [
        {
          "internalType": "bytes32",
          "name": "",
          "type": "bytes32"
        }
      ],
      "stateMutability": "view",
      "type": "function"
    },
    {
      "inputs": [
        {
          "internalType": "uint64",
          "name": "",
          "type": "uint64"
        }
      ],
      "name": "batchSizes",
      "outputs": [
        {
          "internalType": "uint64",
          "name": "",
          "type": "uint64"
        }
      ],
      "stateMutability": "view",
      "type": "function"
    },
    {
      "inputs": [],
      "name": "configContract",
      "outputs": [
        {
          "internalType": "contract ConfigContract",
          "name": "",
          "type": "address"
        }
      ],
      "stateMutability": "view",
      "type": "function"
    },
    {
      "inputs": [],
      "name": "feeBankContract",
      "outputs": [
        {
          "internalType": "contract FeeBankContract",
          "name": "",
          "type": "address"
        }
      ],
      "stateMutability": "view",
      "type": "function"
    },
    {
      "inputs": [],
      "name": "minFee",
      "outputs": [
        {
          "internalType": "uint64",
          "name": "",
          "type": "uint64"
        }
      ],
      "stateMutability": "view",
      "type": "function"
    },
    {
      "inputs": [],
      "name": "owner",
      "outputs": [
        {
          "internalType": "address",
          "name": "",
          "type": "address"
        }
      ],
      "stateMutability": "view",
      "type": "function"
    },
    {
      "inputs": [],
      "name": "renounceOwnership",
      "outputs": [],
      "stateMutability": "nonpayable",
      "type": "function"
    },
    {
      "inputs": [
        {
          "internalType": "uint64",
          "name": "_minFee",
          "type": "uint64"
        }
      ],
      "name": "setMinFee",
      "outputs": [],
      "stateMutability": "nonpayable",
      "type": "function"
    },
    {
      "inputs": [
        {
          "internalType": "address",
          "name": "newOwner",
          "type": "address"
        }
      ],
      "name": "transferOwnership",
      "outputs": [],
      "stateMutability": "nonpayable",
      "type": "function"
    }
  ],
  "bytecode": "608060405234801561001057600080fd5b50604051610f81380380610f8183398101604081905261002f916100b8565b60006100396100b4565b600080546001600160a01b0319166001600160a01b0383169081178255604051929350917f8be0079c531659141344cd1fd0a4f28419497f9722a3daafe3b4186f6b6457e0908290a350600180546001600160a01b039384166001600160a01b03199182161790915560028054929093169116179055610109565b3390565b600080604083850312156100ca578182fd5b82516100d5816100f1565b60208401519092506100e6816100f1565b809150509250929050565b6001600160a01b038116811461010657600080fd5b50565b610e69806101186000396000f3fe6080604052600436106100915760003560e01c80638da5cb5b116100595780638da5cb5b1461012d578063bf66a18214610142578063bfd260ca14610157578063c87afa8a14610177578063f2fde38b146101a457610091565b8063246673dc1461009657806324ec7590146100ab57806336e1290d146100d657806348fd5acc146100f8578063715018a614610118575b600080fd5b6100a96100a4366004610ac6565b6101c4565b005b3480156100b757600080fd5b506100c0610593565b6040516100cd9190610d50565b60405180910390f35b3480156100e257600080fd5b506100eb6105a2565b6040516100cd9190610b65565b34801561010457600080fd5b506100a9610113366004610a76565b6105b1565b34801561012457600080fd5b506100a961063e565b34801561013957600080fd5b506100eb6106f2565b34801561014e57600080fd5b506100eb610701565b34801561016357600080fd5b506100c0610172366004610a76565b610710565b34801561018357600080fd5b50610197610192366004610a92565b61072b565b6040516100cd9190610b79565b3480156101b057600080fd5b506100a96101bf36600461091c565b610748565b60015460405163700465b160e11b81526000916001600160a01b03169063e008cb62906101f5908890600401610d50565b60006040518083038186803b15801561020d57600080fd5b505afa158015610221573d6000803e3d6000fd5b505050506040513d6000823e601f3d908101601f19168201604052610249919081019061093f565b9050600081608001516001600160401b0316116102815760405162461bcd60e51b815260040161027890610bc7565b60405180910390fd5b80600001516001600160401b0316856001600160401b031610156102a157fe5b80516080820151602083015191870391818302019081016001600160401b0382164310156102e15760405162461bcd60e51b815260040161027890610cc6565b806001600160401b031643106103095760405162461bcd60e51b815260040161027890610d0c565b846103265760405162461bcd60e51b815260040161027890610b82565b60c08401516001600160401b03168511156103535760405162461bcd60e51b815260040161027890610c08565b60a08401516001600160401b038981166000908152600360205260409020549181169116860111156103975760405162461bcd60e51b815260040161027890610c83565b6005546001600160401b03163410156103c25760405162461bcd60e51b815260040161027890610c4c565b6001600160401b038816600090815260046020526040812087908790838b60018111156103eb57fe5b60018111156103f657fe5b81526020019081526020016000205460405160200161041793929190610b50565b604051602081830303815290604052905060008180519060200120905080600460008c6001600160401b03166001600160401b0316815260200190815260200160002060008b600181111561046857fe5b600181111561047357fe5b815260208082019290925260409081016000908120939093556001600160401b038d811684526003909252909120805467ffffffffffffffff1981169083168a0190921691909117905534158015906104d957506101008601516001600160a01b031615155b156105485760025461010087015160405163f340fa0160e01b81526001600160a01b039092169163f340fa019134916105159190600401610b65565b6000604051808303818588803b15801561052e57600080fd5b505af1158015610542573d6000803e3d6000fd5b50505050505b7ffc285e0b48a09e92ec4acb05226c557c0af1c3976d350d24b4fd4fa104f82c988a8a8a8a8560405161057f959493929190610d64565b60405180910390a150505050505050505050565b6005546001600160401b031681565b6002546001600160a01b031681565b6105b9610852565b6000546001600160a01b0390811691161461061b576040805162461bcd60e51b815260206004820181905260248201527f4f776e61626c653a2063616c6c6572206973206e6f7420746865206f776e6572604482015290519081900360640190fd5b6005805467ffffffffffffffff19166001600160401b0392909216919091179055565b610646610852565b6000546001600160a01b039081169116146106a8576040805162461bcd60e51b815260206004820181905260248201527f4f776e61626c653a2063616c6c6572206973206e6f7420746865206f776e6572604482015290519081900360640190fd5b600080546040516001600160a01b03909116907f8be0079c531659141344cd1fd0a4f28419497f9722a3daafe3b4186f6b6457e0908390a3600080546001600160a01b0319169055565b6000546001600160a01b031690565b6001546001600160a01b031681565b6003602052600090815260409020546001600160401b031681565b600460209081526000928352604080842090915290825290205481565b610750610852565b6000546001600160a01b039081169116146107b2576040805162461bcd60e51b815260206004820181905260248201527f4f776e61626c653a2063616c6c6572206973206e6f7420746865206f776e6572604482015290519081900360640190fd5b6001600160a01b0381166107f75760405162461bcd60e51b8152600401808060200182810382526026815260200180610e0e6026913960400191505060405180910390fd5b600080546040516001600160a01b03808516939216917f8be0079c531659141344cd1fd0a4f28419497f9722a3daafe3b4186f6b6457e091a3600080546001600160a01b0319166001600160a01b0392909216919091179055565b3390565b805161086181610de0565b919050565b600082601f830112610876578081fd5b815160206001600160401b0382111561088b57fe5b808202610899828201610dbd565b8381528281019086840183880185018910156108b3578687fd5b8693505b858410156108de5780516108ca81610de0565b8352600193909301929184019184016108b7565b50979650505050505050565b80516001600160e01b03198116811461086157600080fd5b80356002811061086157600080fd5b805161086181610df8565b60006020828403121561092d578081fd5b813561093881610de0565b9392505050565b600060208284031215610950578081fd5b81516001600160401b0380821115610966578283fd5b818401915061018080838703121561097c578384fd5b61098581610dbd565b905061099083610911565b815261099e60208401610911565b60208201526040830151828111156109b4578485fd5b6109c087828601610866565b6040830152506109d260608401610911565b60608201526109e360808401610911565b60808201526109f460a08401610911565b60a0820152610a0560c08401610911565b60c0820152610a1660e08401610911565b60e08201526101009150610a2b828401610856565b828201526101209150610a3f828401610856565b828201526101409150610a538284016108ea565b828201526101609150610a67828401610911565b91810191909152949350505050565b600060208284031215610a87578081fd5b813561093881610df8565b60008060408385031215610aa4578081fd5b8235610aaf81610df8565b9150610abd60208401610902565b90509250929050565b60008060008060608587031215610adb578182fd5b8435610ae681610df8565b9350610af460208601610902565b925060408501356001600160401b0380821115610b0f578384fd5b818701915087601f830112610b22578384fd5b813581811115610b30578485fd5b886020828501011115610b41578485fd5b95989497505060200194505050565b60008385833750909101908152602001919050565b6001600160a01b0391909116815260200190565b90815260200190565b60208082526025908201527f42617463686572436f6e74726163743a207472616e73616374696f6e20697320604082015264656d70747960d81b606082015260800190565b60208082526021908201527f42617463686572436f6e74726163743a206261746368206e6f742061637469766040820152606560f81b606082015260800190565b60208082526024908201527f42617463686572436f6e74726163743a207472616e73616374696f6e20746f6f6040820152632062696760e01b606082015260800190565b6020808252601e908201527f42617463686572436f6e74726163743a2066656520746f6f20736d616c6c0000604082015260600190565b60208082526023908201527f42617463686572436f6e74726163743a20626174636820616c726561647920666040820152621d5b1b60ea1b606082015260800190565b60208082526026908201527f42617463686572436f6e74726163743a206261746368206e6f742073746172746040820152651959081e595d60d21b606082015260800190565b60208082526024908201527f42617463686572436f6e74726163743a20626174636820616c726561647920656040820152631b99195960e21b606082015260800190565b6001600160401b0391909116815260200190565b60006001600160401b038716825260028610610d7c57fe5b85602083015260806040830152836080830152838560a08401378060a0858401015260a0601f19601f86011683010190508260608301529695505050505050565b6040518181016001600160401b0381118282101715610dd857fe5b604052919050565b6001600160a01b0381168114610df557600080fd5b50565b6001600160401b0381168114610df557600080fdfe4f776e61626c653a206e6577206f776e657220697320746865207a65726f2061646472657373a264697066735822122058db6a358f3b75b84579e3a572a53dce9f50456a54d4ee2fd4494b3651c638c964736f6c63430007060033",
  "bytecodeSha1": "c56738c3c5cfb5151500c348f0a2ef971cddbddc",
  "compiler": {
    "evm_version": "istanbul",
    "optimizer": {
      "enabled": true,
      "runs": 200
    },
    "version": "0.7.6+commit.7338295f"
  },
  "contractName": "BatcherContract",
  "language": "Solidity",
  "natspec": {
    "kind": "dev",
    "methods": {
      "addTransaction(uint64,uint8,bytes)": {
        "notice": "Add a transaction to a batch.",
        "params": {
          "_batchIndex": "The index of the batch to which the transaction should be added. Note     that this must match the batch corresponding to the current block number.",
          "_transaction": "The encrypted or plaintext transaction (depending on `_type`).",
          "_type": "The type of the transaction (either cipher or plain)."
        }
      },
      "owner()": {
        "details": "Returns the address of the current owner."
      },
      "renounceOwnership()": {
        "details": "Leaves the contract without owner. It will not be possible to call `onlyOwner` functions anymore. Can only be called by the current owner. NOTE: Renouncing ownership will leave the contract without an owner, thereby removing any functionality that is only available to the owner."
      },
      "setMinFee(uint64)": {
        "notice": "Set the minimum fee required to add a transaction to the batch.",
        "params": {
          "_minFee": "The new value for the minimum fee."
        }
      },
      "transferOwnership(address)": {
        "details": "Transfers ownership of the contract to a new account (`newOwner`). Can only be called by the current owner."
      }
    },
    "title": "A contract that batches transactions.",
    "version": 1
  },
  "opcodes": "PUSH1 0x80 PUSH1 0x40 MSTORE PUSH1 0x4 CALLDATASIZE LT PUSH2 0x91 JUMPI PUSH1 0x0 CALLDATALOAD PUSH1 0xE0 SHR DUP1 PUSH4 0x8DA5CB5B GT PUSH2 0x59 JUMPI DUP1 PUSH4 0x8DA5CB5B EQ PUSH2 0x12D JUMPI DUP1 PUSH4 0xBF66A182 EQ PUSH2 0x142 JUMPI DUP1 PUSH4 0xBFD260CA EQ PUSH2 0x157 JUMPI DUP1 PUSH4 0xC87AFA8A EQ PUSH2 0x177 JUMPI DUP1 PUSH4 0xF2FDE38B EQ PUSH2 0x1A4 JUMPI PUSH2 0x91 JUMP JUMPDEST DUP1 PUSH4 0x246673DC EQ PUSH2 0x96 JUMPI DUP1 PUSH4 0x24EC7590 EQ PUSH2 0xAB JUMPI DUP1 PUSH4 0x36E1290D EQ PUSH2 0xD6 JUMPI DUP1 PUSH4 0x48FD5ACC EQ PUSH2 0xF8 JUMPI DUP1 PUSH4 0x715018A6 EQ PUSH2 0x118 JUMPI JUMPDEST PUSH1 0x0 DUP1 REVERT JUMPDEST PUSH2 0xA9 PUSH2 0xA4 CALLDATASIZE PUSH1 0x4 PUSH2 0xAC6 JUMP JUMPDEST PUSH2 0x1C4 JUMP JUMPDEST STOP JUMPDEST CALLVALUE DUP1 ISZERO PUSH2 0xB7 JUMPI PUSH1 0x0 DUP1 REVERT JUMPDEST POP PUSH2 0xC0 PUSH2 0x593 JUMP JUMPDEST PUSH1 0x40 MLOAD PUSH2 0xCD SWAP2 SWAP1 PUSH2 0xD50 JUMP JUMPDEST PUSH1 0x40 MLOAD DUP1 SWAP2 SUB SWAP1 RETURN JUMPDEST CALLVALUE DUP1 ISZERO PUSH2 0xE2 JUMPI PUSH1 0x0 DUP1 REVERT JUMPDEST POP PUSH2 0xEB PUSH2 0x5A2 JUMP JUMPDEST PUSH1 0x40 MLOAD PUSH2 0xCD SWAP2 SWAP1 PUSH2 0xB65 JUMP JUMPDEST CALLVALUE DUP1 ISZERO PUSH2 0x104 JUMPI PUSH1 0x0 DUP1 REVERT JUMPDEST POP PUSH2 0xA9 PUSH2 0x113 CALLDATASIZE PUSH1 0x4 PUSH2 0xA76 JUMP JUMPDEST PUSH2 0x5B1 JUMP JUMPDEST CALLVALUE DUP1 ISZERO PUSH2 0x124 JUMPI PUSH1 0x0 DUP1 REVERT JUMPDEST POP PUSH2 0xA9 PUSH2 0x63E JUMP JUMPDEST CALLVALUE DUP1 ISZERO PUSH2 0x139 JUMPI PUSH1 0x0 DUP1 REVERT JUMPDEST POP PUSH2 0xEB PUSH2 0x6F2 JUMP JUMPDEST CALLVALUE DUP1 ISZERO PUSH2 0x14E JUMPI PUSH1 0x0 DUP1 REVERT JUMPDEST POP PUSH2 0xEB PUSH2 0x701 JUMP JUMPDEST CALLVALUE DUP1 ISZERO PUSH2 0x163 JUMPI PUSH1 0x0 DUP1 REVERT JUMPDEST POP PUSH2 0xC0 PUSH2 0x172 CALLDATASIZE PUSH1 0x4 PUSH2 0xA76 JUMP JUMPDEST PUSH2 0x710 JUMP JUMPDEST CALLVALUE DUP1 ISZERO PUSH2 0x183 JUMPI PUSH1 0x0 DUP1 REVERT JUMPDEST POP PUSH2 0x197 PUSH2 0x192 CALLDATASIZE PUSH1 0x4 PUSH2 0xA92 JUMP JUMPDEST PUSH2 0x72B JUMP JUMPDEST PUSH1 0x40 MLOAD PUSH2 0xCD SWAP2 SWAP1 PUSH2 0xB79 JUMP JUMPDEST CALLVALUE DUP1 ISZERO PUSH2 0x1B0 JUMPI PUSH1 0x0 DUP1 REVERT JUMPDEST POP PUSH2 0xA9 PUSH2 0x1BF CALLDATASIZE PUSH1 0x4 PUSH2 0x91C JUMP JUMPDEST PUSH2 0x748 JUMP JUMPDEST PUSH1 0x1 SLOAD PUSH1 0x40 MLOAD PUSH4 0x700465B1 PUSH1 0xE1 SHL DUP2 MSTORE PUSH1 0x0 SWAP2 PUSH1 0x1 PUSH1 0x1 PUSH1 0xA0 SHL SUB AND SWAP1 PUSH4 0xE008CB62 SWAP1 PUSH2 0x1F5 SWAP1 DUP9 SWAP1 PUSH1 0x4 ADD PUSH2 0xD50 JUMP JUMPDEST PUSH1 0x0 PUSH1 0x40 MLOAD DUP1 DUP4 SUB DUP2 DUP7 DUP1 EXTCODESIZE ISZERO DUP1 ISZERO PUSH2 0x20D JUMPI PUSH1 0x0 DUP1 REVERT JUMPDEST POP GAS STATICCALL ISZERO DUP1 ISZERO PUSH2 0x221 JUMPI RETURNDATASIZE PUSH1 0x0 DUP1 RETURNDATACOPY RETURNDATASIZE PUSH1 0x0 REVERT JUMPDEST POP POP POP POP PUSH1 0x40 MLOAD RETURNDATASIZE PUSH1 0x0 DUP3 RETURNDATACOPY PUSH1 0x1F RETURNDATASIZE SWAP1 DUP2 ADD PUSH1 0x1F NOT AND DUP3 ADD PUSH1 0x40 MSTORE PUSH2 0x249 SWAP2 SWAP1 DUP2 ADD SWAP1 PUSH2 0x93F JUMP JUMPDEST SWAP1 POP PUSH1 0x0 DUP2 PUSH1 0x80 ADD MLOAD PUSH1 0x1 PUSH1 0x1 PUSH1 0x40 SHL SUB AND GT PUSH2 0x281 JUMPI PUSH1 0x40 MLOAD PUSH3 0x461BCD PUSH1 0xE5 SHL DUP2 MSTORE PUSH1 0x4 ADD PUSH2 0x278 SWAP1 PUSH2 0xBC7 JUMP JUMPDEST PUSH1 0x40 MLOAD DUP1 SWAP2 SUB SWAP1 REVERT JUMPDEST DUP1 PUSH1 0x0 ADD MLOAD PUSH1 0x1 PUSH1 0x1 PUSH1 0x40 SHL SUB AND DUP6 PUSH1 0x1 PUSH1 0x1 PUSH1 0x40 SHL SUB AND LT ISZERO PUSH2 0x2A1 JUMPI INVALID JUMPDEST DUP1 MLOAD PUSH1 0x80 DUP3 ADD MLOAD PUSH1 0x20 DUP4 ADD MLOAD SWAP2 DUP8 SUB SWAP2 DUP2 DUP4 MUL ADD SWAP1 DUP2 ADD PUSH1 0x1 PUSH1 0x1 PUSH1 0x40 SHL SUB DUP3 AND NUMBER LT ISZERO PUSH2 0x2E1 JUMPI PUSH1 0x40 MLOAD PUSH3 0x461BCD PUSH1 0xE5 SHL DUP2 MSTORE PUSH1 0x4 ADD PUSH2 0x278 SWAP1 PUSH2 0xCC6 JUMP JUMPDEST DUP1 PUSH1 0x1 PUSH1 0x1 PUSH1 0x40 SHL SUB AND NUMBER LT PUSH2 0x309 JUMPI PUSH1 0x40 MLOAD PUSH3 0x461BCD PUSH1 0xE5 SHL DUP2 MSTORE PUSH1 0x4 ADD PUSH2 0x278 SWAP1 PUSH2 0xD0C JUMP JUMPDEST DUP5 PUSH2 0x326 JUMPI PUSH1 0x40 MLOAD PUSH3 0x461BCD PUSH1 0xE5 SHL DUP2 MSTORE PUSH1 0x4 ADD PUSH2 0x278 SWAP1 PUSH2 0xB82 JUMP JUMPDEST PUSH1 0xC0 DUP5 ADD MLOAD PUSH1 0x1 PUSH1 0x1 PUSH1 0x40 SHL SUB AND DUP6 GT ISZERO PUSH2 0x353 JUMPI PUSH1 0x40 MLOAD PUSH3 0x461BCD PUSH1 0xE5 SHL DUP2 MSTORE PUSH1 0x4 ADD PUSH2 0x278 SWAP1 PUSH2 0xC08 JUMP JUMPDEST PUSH1 0xA0 DUP5 ADD MLOAD PUSH1 0x1 PUSH1 0x1 PUSH1 0x40 SHL SUB DUP10 DUP2 AND PUSH1 0x0 SWAP1 DUP2 MSTORE PUSH1 0x3 PUSH1 0x20 MSTORE PUSH1 0x40 SWAP1 KECCAK256 SLOAD SWAP2 DUP2 AND SWAP2 AND DUP7 ADD GT ISZERO PUSH2 0x397 JUMPI PUSH1 0x40 MLOAD PUSH3 0x461BCD PUSH1 0xE5 SHL DUP2 MSTORE PUSH1 0x4 ADD PUSH2 0x278 SWAP1 PUSH2 0xC83 JUMP JUMPDEST PUSH1 0x5 SLOAD PUSH1 0x1 PUSH1 0x1 PUSH1 0x40 SHL SUB AND CALLVALUE LT ISZERO PUSH2 0x3C2 JUMPI PUSH1 0x40 MLOAD PUSH3 0x461BCD PUSH1 0xE5 SHL DUP2 MSTORE PUSH1 0x4 ADD PUSH2 0x278 SWAP1 PUSH2 0xC4C JUMP JUMPDEST PUSH1 0x1 PUSH1 0x1 PUSH1 0x40 SHL SUB DUP9 AND PUSH1 0x0 SWAP1 DUP2 MSTORE PUSH1 0x4 PUSH1 0x20 MSTORE PUSH1 0x40 DUP2 KECCAK256 DUP8 SWAP1 DUP8 SWAP1 DUP4 DUP12 PUSH1 0x1 DUP2 GT ISZERO PUSH2 0x3EB JUMPI INVALID JUMPDEST PUSH1 0x1 DUP2 GT ISZERO PUSH2 0x3F6 JUMPI INVALID JUMPDEST DUP2 MSTORE PUSH1 0x20 ADD SWAP1 DUP2 MSTORE PUSH1 0x20 ADD PUSH1 0x0 KECCAK256 SLOAD PUSH1 0x40 MLOAD PUSH1 0x20 ADD PUSH2 0x417 SWAP4 SWAP3 SWAP2 SWAP1 PUSH2 0xB50 JUMP JUMPDEST PUSH1 0x40 MLOAD PUSH1 0x20 DUP2 DUP4 SUB SUB DUP2 MSTORE SWAP1 PUSH1 0x40 MSTORE SWAP1 POP PUSH1 0x0 DUP2 DUP1 MLOAD SWAP1 PUSH1 0x20 ADD KECCAK256 SWAP1 POP DUP1 PUSH1 0x4 PUSH1 0x0 DUP13 PUSH1 0x1 PUSH1 0x1 PUSH1 0x40 SHL SUB AND PUSH1 0x1 PUSH1 0x1 PUSH1 0x40 SHL SUB AND DUP2 MSTORE PUSH1 0x20 ADD SWAP1 DUP2 MSTORE PUSH1 0x20 ADD PUSH1 0x0 KECCAK256 PUSH1 0x0 DUP12 PUSH1 0x1 DUP2 GT ISZERO PUSH2 0x468 JUMPI INVALID JUMPDEST PUSH1 0x1 DUP2 GT ISZERO PUSH2 0x473 JUMPI INVALID JUMPDEST DUP2 MSTORE PUSH1 0x20 DUP1 DUP3 ADD SWAP3 SWAP1 SWAP3 MSTORE PUSH1 0x40 SWAP1 DUP2 ADD PUSH1 0x0 SWAP1 DUP2 KECCAK256 SWAP4 SWAP1 SWAP4 SSTORE PUSH1 0x1 PUSH1 0x1 PUSH1 0x40 SHL SUB DUP14 DUP2 AND DUP5 MSTORE PUSH1 0x3 SWAP1 SWAP3 MSTORE SWAP1 SWAP2 KECCAK256 DUP1 SLOAD PUSH8 0xFFFFFFFFFFFFFFFF NOT DUP2 AND SWAP1 DUP4 AND DUP11 ADD SWAP1 SWAP3 AND SWAP2 SWAP1 SWAP2 OR SWAP1 SSTORE CALLVALUE ISZERO DUP1 ISZERO SWAP1 PUSH2 0x4D9 JUMPI POP PUSH2 0x100 DUP7 ADD MLOAD PUSH1 0x1 PUSH1 0x1 PUSH1 0xA0 SHL SUB AND ISZERO ISZERO JUMPDEST ISZERO PUSH2 0x548 JUMPI PUSH1 0x2 SLOAD PUSH2 0x100 DUP8 ADD MLOAD PUSH1 0x40 MLOAD PUSH4 0xF340FA01 PUSH1 0xE0 SHL DUP2 MSTORE PUSH1 0x1 PUSH1 0x1 PUSH1 0xA0 SHL SUB SWAP1 SWAP3 AND SWAP2 PUSH4 0xF340FA01 SWAP2 CALLVALUE SWAP2 PUSH2 0x515 SWAP2 SWAP1 PUSH1 0x4 ADD PUSH2 0xB65 JUMP JUMPDEST PUSH1 0x0 PUSH1 0x40 MLOAD DUP1 DUP4 SUB DUP2 DUP6 DUP9 DUP1 EXTCODESIZE ISZERO DUP1 ISZERO PUSH2 0x52E JUMPI PUSH1 0x0 DUP1 REVERT JUMPDEST POP GAS CALL ISZERO DUP1 ISZERO PUSH2 0x542 JUMPI RETURNDATASIZE PUSH1 0x0 DUP1 RETURNDATACOPY RETURNDATASIZE PUSH1 0x0 REVERT JUMPDEST POP POP POP POP POP JUMPDEST PUSH32 0xFC285E0B48A09E92EC4ACB05226C557C0AF1C3976D350D24B4FD4FA104F82C98 DUP11 DUP11 DUP11 DUP11 DUP6 PUSH1 0x40 MLOAD PUSH2 0x57F SWAP6 SWAP5 SWAP4 SWAP3 SWAP2 SWAP1 PUSH2 0xD64 JUMP JUMPDEST PUSH1 0x40 MLOAD DUP1 SWAP2 SUB SWAP1 LOG1 POP POP POP POP POP POP POP POP POP POP JUMP JUMPDEST PUSH1 0x5 SLOAD PUSH1 0x1 PUSH1 0x1 PUSH1 0x40 SHL SUB AND DUP2 JUMP JUMPDEST PUSH1 0x2 SLOAD PUSH1 0x1 PUSH1 0x1 PUSH1 0xA0 SHL SUB AND DUP2 JUMP JUMPDEST PUSH2 0x5B9 PUSH2 0x852 JUMP JUMPDEST PUSH1 0x0 SLOAD PUSH1 0x1 PUSH1 0x1 PUSH1 0xA0 SHL SUB SWAP1 DUP2 AND SWAP2 AND EQ PUSH2 0x61B JUMPI PUSH1 0x40 DUP1 MLOAD PUSH3 0x461BCD PUSH1 0xE5 SHL DUP2 MSTORE PUSH1 0x20 PUSH1 0x4 DUP3 ADD DUP2 SWAP1 MSTORE PUSH1 0x24 DUP3 ADD MSTORE PUSH32 0x4F776E61626C653A2063616C6C6572206973206E6F7420746865206F776E6572 PUSH1 0x44 DUP3 ADD MSTORE SWAP1 MLOAD SWAP1 DUP2 SWAP1 SUB PUSH1 0x64 ADD SWAP1 REVERT JUMPDEST PUSH1 0x5 DUP1 SLOAD PUSH8 0xFFFFFFFFFFFFFFFF NOT AND PUSH1 0x1 PUSH1 0x1 PUSH1 0x40 SHL SUB SWAP3 SWAP1 SWAP3 AND SWAP2 SWAP1 SWAP2 OR SWAP1 SSTORE JUMP JUMPDEST PUSH2 0x646 PUSH2 0x852 JUMP JUMPDEST PUSH1 0x0 SLOAD PUSH1 0x1 PUSH1 0x1 PUSH1 0xA0 SHL SUB SWAP1 DUP2 AND SWAP2 AND EQ PUSH2 0x6A8 JUMPI PUSH1 0x40 DUP1 MLOAD PUSH3 0x461BCD PUSH1 0xE5 SHL DUP2 MSTORE PUSH1 0x20 PUSH1 0x4 DUP3 ADD DUP2 SWAP1 MSTORE PUSH1 0x24 DUP3 ADD MSTORE PUSH32 0x4F776E61626C653A2063616C6C6572206973206E6F7420746865206F776E6572 PUSH1 0x44 DUP3 ADD MSTORE SWAP1 MLOAD SWAP1 DUP2 SWAP1 SUB PUSH1 0x64 ADD SWAP1 REVERT JUMPDEST PUSH1 0x0 DUP1 SLOAD PUSH1 0x40 MLOAD PUSH1 0x1 PUSH1 0x1 PUSH1 0xA0 SHL SUB SWAP1 SWAP2 AND SWAP1 PUSH32 0x8BE0079C531659141344CD1FD0A4F28419497F9722A3DAAFE3B4186F6B6457E0 SWAP1 DUP4 SWAP1 LOG3 PUSH1 0x0 DUP1 SLOAD PUSH1 0x1 PUSH1 0x1 PUSH1 0xA0 SHL SUB NOT AND SWAP1 SSTORE JUMP JUMPDEST PUSH1 0x0 SLOAD PUSH1 0x1 PUSH1 0x1 PUSH1 0xA0 SHL SUB AND SWAP1 JUMP JUMPDEST PUSH1 0x1 SLOAD PUSH1 0x1 PUSH1 0x1 PUSH1 0xA0 SHL SUB AND DUP2 JUMP JUMPDEST PUSH1 0x3 PUSH1 0x20 MSTORE PUSH1 0x0 SWAP1 DUP2 MSTORE PUSH1 0x40 SWAP1 KECCAK256 SLOAD PUSH1 0x1 PUSH1 0x1 PUSH1 0x40 SHL SUB AND DUP2 JUMP JUMPDEST PUSH1 0x4 PUSH1 0x20 SWAP1 DUP2 MSTORE PUSH1 0x0 SWAP3 DUP4 MSTORE PUSH1 0x40 DUP1 DUP5 KECCAK256 SWAP1 SWAP2 MSTORE SWAP1 DUP3 MSTORE SWAP1 KECCAK256 SLOAD DUP2 JUMP JUMPDEST PUSH2 0x750 PUSH2 0x852 JUMP JUMPDEST PUSH1 0x0 SLOAD PUSH1 0x1 PUSH1 0x1 PUSH1 0xA0 SHL SUB SWAP1 DUP2 AND SWAP2 AND EQ PUSH2 0x7B2 JUMPI PUSH1 0x40 DUP1 MLOAD PUSH3 0x461BCD PUSH1 0xE5 SHL DUP2 MSTORE PUSH1 0x20 PUSH1 0x4 DUP3 ADD DUP2 SWAP1 MSTORE PUSH1 0x24 DUP3 ADD MSTORE PUSH32 0x4F776E61626C653A2063616C6C6572206973206E6F7420746865206F776E6572 PUSH1 0x44 DUP3 ADD MSTORE SWAP1 MLOAD SWAP1 DUP2 SWAP1 SUB PUSH1 0x64 ADD SWAP1 REVERT JUMPDEST PUSH1 0x1 PUSH1 0x1 PUSH1 0xA0 SHL SUB DUP2 AND PUSH2 0x7F7 JUMPI PUSH1 0x40 MLOAD PUSH3 0x461BCD PUSH1 0xE5 SHL DUP2 MSTORE PUSH1 0x4 ADD DUP1 DUP1 PUSH1 0x20 ADD DUP3 DUP2 SUB DUP3 MSTORE PUSH1 0x26 DUP2 MSTORE PUSH1 0x20 ADD DUP1 PUSH2 0xE0E PUSH1 0x26 SWAP2 CODECOPY PUSH1 0x40 ADD SWAP2 POP POP PUSH1 0x40 MLOAD DUP1 SWAP2 SUB SWAP1 REVERT JUMPDEST PUSH1 0x0 DUP1 SLOAD PUSH1 0x40 MLOAD PUSH1 0x1 PUSH1 0x1 PUSH1 0xA0 SHL SUB DUP1 DUP6 AND SWAP4 SWAP3 AND SWAP2 PUSH32 0x8BE0079C531659141344CD1FD0A4F28419497F9722A3DAAFE3B4186F6B6457E0 SWAP2 LOG3 PUSH1 0x0 DUP1 SLOAD PUSH1 0x1 PUSH1 0x1 PUSH1 0xA0 SHL SUB NOT AND PUSH1 0x1 PUSH1 0x1 PUSH1 0xA0 SHL SUB SWAP3 SWAP1 SWAP3 AND SWAP2 SWAP1 SWAP2 OR SWAP1 SSTORE JUMP JUMPDEST CALLER SWAP1 JUMP JUMPDEST DUP1 MLOAD PUSH2 0x861 DUP2 PUSH2 0xDE0 JUMP JUMPDEST SWAP2 SWAP1 POP JUMP JUMPDEST PUSH1 0x0 DUP3 PUSH1 0x1F DUP4 ADD SLT PUSH2 0x876 JUMPI DUP1 DUP2 REVERT JUMPDEST DUP2 MLOAD PUSH1 0x20 PUSH1 0x1 PUSH1 0x1 PUSH1 0x40 SHL SUB DUP3 GT ISZERO PUSH2 0x88B JUMPI INVALID JUMPDEST DUP1 DUP3 MUL PUSH2 0x899 DUP3 DUP3 ADD PUSH2 0xDBD JUMP JUMPDEST DUP4 DUP2 MSTORE DUP3 DUP2 ADD SWAP1 DUP7 DUP5 ADD DUP4 DUP9 ADD DUP6 ADD DUP10 LT ISZERO PUSH2 0x8B3 JUMPI DUP7 DUP8 REVERT JUMPDEST DUP7 SWAP4 POP JUMPDEST DUP6 DUP5 LT ISZERO PUSH2 0x8DE JUMPI DUP1 MLOAD PUSH2 0x8CA DUP2 PUSH2 0xDE0 JUMP JUMPDEST DUP4 MSTORE PUSH1 0x1 SWAP4 SWAP1 SWAP4 ADD SWAP3 SWAP2 DUP5 ADD SWAP2 DUP5 ADD PUSH2 0x8B7 JUMP JUMPDEST POP SWAP8 SWAP7 POP POP POP POP POP POP POP JUMP JUMPDEST DUP1 MLOAD PUSH1 0x1 PUSH1 0x1 PUSH1 0xE0 SHL SUB NOT DUP2 AND DUP2 EQ PUSH2 0x861 JUMPI PUSH1 0x0 DUP1 REVERT JUMPDEST DUP1 CALLDATALOAD PUSH1 0x2 DUP2 LT PUSH2 0x861 JUMPI PUSH1 0x0 DUP1 REVERT JUMPDEST DUP1 MLOAD PUSH2 0x861 DUP2 PUSH2 0xDF8 JUMP JUMPDEST PUSH1 0x0 PUSH1 0x20 DUP3 DUP5 SUB SLT ISZERO PUSH2 0x92D JUMPI DUP1 DUP2 REVERT JUMPDEST DUP2 CALLDATALOAD PUSH2 0x938 DUP2 PUSH2 0xDE0 JUMP JUMPDEST SWAP4 SWAP3 POP POP POP JUMP JUMPDEST PUSH1 0x0 PUSH1 0x20 DUP3 DUP5 SUB SLT ISZERO PUSH2 0x950 JUMPI DUP1 DUP2 REVERT JUMPDEST DUP2 MLOAD PUSH1 0x1 PUSH1 0x1 PUSH1 0x40 SHL SUB DUP1 DUP3 GT ISZERO PUSH2 0x966 JUMPI DUP3 DUP4 REVERT JUMPDEST DUP2 DUP5 ADD SWAP2 POP PUSH2 0x180 DUP1 DUP4 DUP8 SUB SLT ISZERO PUSH2 0x97C JUMPI DUP4 DUP5 REVERT JUMPDEST PUSH2 0x985 DUP2 PUSH2 0xDBD JUMP JUMPDEST SWAP1 POP PUSH2 0x990 DUP4 PUSH2 0x911 JUMP JUMPDEST DUP2 MSTORE PUSH2 0x99E PUSH1 0x20 DUP5 ADD PUSH2 0x911 JUMP JUMPDEST PUSH1 0x20 DUP3 ADD MSTORE PUSH1 0x40 DUP4 ADD MLOAD DUP3 DUP2 GT ISZERO PUSH2 0x9B4 JUMPI DUP5 DUP6 REVERT JUMPDEST PUSH2 0x9C0 DUP8 DUP3 DUP7 ADD PUSH2 0x866 JUMP JUMPDEST PUSH1 0x40 DUP4 ADD MSTORE POP PUSH2 0x9D2 PUSH1 0x60 DUP5 ADD PUSH2 0x911 JUMP JUMPDEST PUSH1 0x60 DUP3 ADD MSTORE PUSH2 0x9E3 PUSH1 0x80 DUP5 ADD PUSH2 0x911 JUMP JUMPDEST PUSH1 0x80 DUP3 ADD MSTORE PUSH2 0x9F4 PUSH1 0xA0 DUP5 ADD PUSH2 0x911 JUMP JUMPDEST PUSH1 0xA0 DUP3 ADD MSTORE PUSH2 0xA05 PUSH1 0xC0 DUP5 ADD PUSH2 0x911 JUMP JUMPDEST PUSH1 0xC0 DUP3 ADD MSTORE PUSH2 0xA16 PUSH1 0xE0 DUP5 ADD PUSH2 0x911 JUMP JUMPDEST PUSH1 0xE0 DUP3 ADD MSTORE PUSH2 0x100 SWAP2 POP PUSH2 0xA2B DUP3 DUP5 ADD PUSH2 0x856 JUMP JUMPDEST DUP3 DUP3 ADD MSTORE PUSH2 0x120 SWAP2 POP PUSH2 0xA3F DUP3 DUP5 ADD PUSH2 0x856 JUMP JUMPDEST DUP3 DUP3 ADD MSTORE PUSH2 0x140 SWAP2 POP PUSH2 0xA53 DUP3 DUP5 ADD PUSH2 0x8EA JUMP JUMPDEST DUP3 DUP3 ADD MSTORE PUSH2 0x160 SWAP2 POP PUSH2 0xA67 DUP3 DUP5 ADD PUSH2 0x911 JUMP JUMPDEST SWAP2 DUP2 ADD SWAP2 SWAP1 SWAP2 MSTORE SWAP5 SWAP4 POP POP POP POP JUMP JUMPDEST PUSH1 0x0 PUSH1 0x20 DUP3 DUP5 SUB SLT ISZERO PUSH2 0xA87 JUMPI DUP1 DUP2 REVERT JUMPDEST DUP2 CALLDATALOAD PUSH2 0x938 DUP2 PUSH2 0xDF8 JUMP JUMPDEST PUSH1 0x0 DUP1 PUSH1 0x40 DUP4 DUP6 SUB SLT ISZERO PUSH2 0xAA4 JUMPI DUP1 DUP2 REVERT JUMPDEST DUP3 CALLDATALOAD PUSH2 0xAAF DUP2 PUSH2 0xDF8 JUMP JUMPDEST SWAP2 POP PUSH2 0xABD PUSH1 0x20 DUP5 ADD PUSH2 0x902 JUMP JUMPDEST SWAP1 POP SWAP3 POP SWAP3 SWAP1 POP JUMP JUMPDEST PUSH1 0x0 DUP1 PUSH1 0x0 DUP1 PUSH1 0x60 DUP6 DUP8 SUB SLT ISZERO PUSH2 0xADB JUMPI DUP2 DUP3 REVERT JUMPDEST DUP5 CALLDATALOAD PUSH2 0xAE6 DUP2 PUSH2 0xDF8 JUMP JUMPDEST SWAP4 POP PUSH2 0xAF4 PUSH1 0x20 DUP7 ADD PUSH2 0x902 JUMP JUMPDEST SWAP3 POP PUSH1 0x40 DUP6 ADD CALLDATALOAD PUSH1 0x1 PUSH1 0x1 PUSH1 0x40 SHL SUB DUP1 DUP3 GT ISZERO PUSH2 0xB0F JUMPI DUP4 DUP5 REVERT JUMPDEST DUP2 DUP8 ADD SWAP2 POP DUP8 PUSH1 0x1F DUP4 ADD SLT PUSH2 0xB22 JUMPI DUP4 DUP5 REVERT JUMPDEST DUP2 CALLDATALOAD DUP2 DUP2 GT ISZERO PUSH2 0xB30 JUMPI DUP5 DUP6 REVERT JUMPDEST DUP9 PUSH1 0x20 DUP3 DUP6 ADD ADD GT ISZERO PUSH2 0xB41 JUMPI DUP5 DUP6 REVERT JUMPDEST SWAP6 SWAP9 SWAP5 SWAP8 POP POP PUSH1 0x20 ADD SWAP5 POP POP POP JUMP JUMPDEST PUSH1 0x0 DUP4 DUP6 DUP4 CALLDATACOPY POP SWAP1 SWAP2 ADD SWAP1 DUP2 MSTORE PUSH1 0x20 ADD SWAP2 SWAP1 POP JUMP JUMPDEST PUSH1 0x1 PUSH1 0x1 PUSH1 0xA0 SHL SUB SWAP2 SWAP1 SWAP2 AND DUP2 MSTORE PUSH1 0x20 ADD SWAP1 JUMP JUMPDEST SWAP1 DUP2 MSTORE PUSH1 0x20 ADD SWAP1 JUMP JUMPDEST PUSH1 0x20 DUP1 DUP3 MSTORE PUSH1 0x25 SWAP1 DUP3 ADD MSTORE PUSH32 0x42617463686572436F6E74726163743A207472616E73616374696F6E20697320 PUSH1 0x40 DUP3 ADD MSTORE PUSH5 0x656D707479 PUSH1 0xD8 SHL PUSH1 0x60 DUP3 ADD MSTORE PUSH1 0x80 ADD SWAP1 JUMP JUMPDEST PUSH1 0x20 DUP1 DUP3 MSTORE PUSH1 0x21 SWAP1 DUP3 ADD MSTORE PUSH32 0x42617463686572436F6E74726163743A206261746368206E6F74206163746976 PUSH1 0x40 DUP3 ADD MSTORE PUSH1 0x65 PUSH1 0xF8 SHL PUSH1 0x60 DUP3 ADD MSTORE PUSH1 0x80 ADD SWAP1 JUMP JUMPDEST PUSH1 0x20 DUP1 DUP3 MSTORE PUSH1 0x24 SWAP1 DUP3 ADD MSTORE PUSH32 0x42617463686572436F6E74726163743A207472616E73616374696F6E20746F6F PUSH1 0x40 DUP3 ADD MSTORE PUSH4 0x20626967 PUSH1 0xE0 SHL PUSH1 0x60 DUP3 ADD MSTORE PUSH1 0x80 ADD SWAP1 JUMP JUMPDEST PUSH1 0x20 DUP1 DUP3 MSTORE PUSH1 0x1E SWAP1 DUP3 ADD MSTORE PUSH32 0x42617463686572436F6E74726163743A2066656520746F6F20736D616C6C0000 PUSH1 0x40 DUP3 ADD MSTORE PUSH1 0x60 ADD SWAP1 JUMP JUMPDEST PUSH1 0x20 DUP1 DUP3 MSTORE PUSH1 0x23 SWAP1 DUP3 ADD MSTORE PUSH32 0x42617463686572436F6E74726163743A20626174636820616C72656164792066 PUSH1 0x40 DUP3 ADD MSTORE PUSH3 0x1D5B1B PUSH1 0xEA SHL PUSH1 0x60 DUP3 ADD MSTORE PUSH1 0x80 ADD SWAP1 JUMP JUMPDEST PUSH1 0x20 DUP1 DUP3 MSTORE PUSH1 0x26 SWAP1 DUP3 ADD MSTORE PUSH32 0x42617463686572436F6E74726163743A206261746368206E6F74207374617274 PUSH1 0x40 DUP3 ADD MSTORE PUSH6 0x1959081E595D PUSH1 0xD2 SHL PUSH1 0x60 DUP3 ADD MSTORE PUSH1 0x80 ADD SWAP1 JUMP JUMPDEST PUSH1 0x20 DUP1 DUP3 MSTORE PUSH1 0x24 SWAP1 DUP3 ADD MSTORE PUSH32 0x42617463686572436F6E74726163743A20626174636820616C72656164792065 PUSH1 0x40 DUP3 ADD MSTORE PUSH4 0x1B991959 PUSH1 0xE2 SHL PUSH1 0x60 DUP3 ADD MSTORE PUSH1 0x80 ADD SWAP1 JUMP JUMPDEST PUSH1 0x1 PUSH1 0x1 PUSH1 0x40 SHL SUB SWAP2 SWAP1 SWAP2 AND DUP2 MSTORE PUSH1 0x20 ADD SWAP1 JUMP JUMPDEST PUSH1 0x0 PUSH1 0x1 PUSH1 0x1 PUSH1 0x40 SHL SUB DUP8 AND DUP3 MSTORE PUSH1 0x2 DUP7 LT PUSH2 0xD7C JUMPI INVALID JUMPDEST DUP6 PUSH1 0x20 DUP4 ADD MSTORE PUSH1 0x80 PUSH1 0x40 DUP4 ADD MSTORE DUP4 PUSH1 0x80 DUP4 ADD MSTORE DUP4 DUP6 PUSH1 0xA0 DUP5 ADD CALLDATACOPY DUP1 PUSH1 0xA0 DUP6 DUP5 ADD ADD MSTORE PUSH1 0xA0 PUSH1 0x1F NOT PUSH1 0x1F DUP7 ADD AND DUP4 ADD ADD SWAP1 POP DUP3 PUSH1 0x60 DUP4 ADD MSTORE SWAP7 SWAP6 POP POP POP POP POP POP JUMP JUMPDEST PUSH1 0x40 MLOAD DUP2 DUP2 ADD PUSH1 0x1 PUSH1 0x1 PUSH1 0x40 SHL SUB DUP2 GT DUP3 DUP3 LT OR ISZERO PUSH2 0xDD8 JUMPI INVALID JUMPDEST PUSH1 0x40 MSTORE SWAP2 SWAP1 POP JUMP JUMPDEST PUSH1 0x1 PUSH1 0x1 PUSH1 0xA0 SHL SUB DUP2 AND DUP2 EQ PUSH2 0xDF5 JUMPI PUSH1 0x0 DUP1 REVERT JUMPDEST POP JUMP JUMPDEST PUSH1 0x1 PUSH1 0x1 PUSH1 0x40 SHL SUB DUP2 AND DUP2 EQ PUSH2 0xDF5 JUMPI PUSH1 0x0 DUP1 REVERT INVALID 0x4F PUSH24 0x6E61626C653A206E6577206F776E65722069732074686520 PUSH27 0x65726F2061646472657373A264697066735822122058DB6A358F3B PUSH22 0xB84579E3A572A53DCE9F50456A54D4EE2FD4494B3651 0xC6 CODESIZE 0xC9 PUSH5 0x736F6C6343 STOP SMOD MOD STOP CALLER ",
  "sha1": "8d475e4899cf3d4ee25b8732db608e799211df10",
  "source": "// SPDX-License-Identifier: MIT\n\npragma solidity >=0.7.0 <0.8.0;\npragma experimental ABIEncoderV2;\n\nimport {\n    Ownable\n} from \"OpenZeppelin/openzeppelin-contracts@3.3.0/contracts/access/Ownable.sol\";\nimport {ConfigContract, BatchConfig} from \"./ConfigContract.sol\";\nimport {FeeBankContract} from \"./FeeBankContract.sol\";\n\nenum TransactionType {Cipher, Plain}\n\n/// @title A contract that batches transactions.\ncontract BatcherContract is Ownable {\n    /// @notice The event emitted whenever a transaction is added to a batch.\n    /// @param batchIndex The index of the batch to which the transaction has been added.\n    /// @param transactionType The type of the transaction (cipher or plain).\n    /// @param transaction The encrypted or plaintext transaction (depending on the type).\n    /// @param batchHash The batch hash after adding the transaction.\n    event TransactionAdded(\n        uint64 batchIndex,\n        TransactionType transactionType,\n        bytes transaction,\n        bytes32 batchHash\n    );\n\n    // The contract from which batch configs are fetched.\n    ConfigContract public configContract;\n    // The contract to which fees are sent.\n    FeeBankContract public feeBankContract;\n\n    // Stores the current size of the batches by batch index. Note that cipher and plain batches\n    // are not tracked separately but in sum.\n    mapping(uint64 => uint64) public batchSizes;\n    // The current batch hashes by index and type (cipher or plain).\n    mapping(uint64 => mapping(TransactionType => bytes32)) public batchHashes;\n\n    // The minimum fee required to add a transaction to a batch.\n    uint64 public minFee;\n\n    constructor(\n        ConfigContract _configContract,\n        FeeBankContract _feeBankContract\n    ) {\n        configContract = _configContract;\n        feeBankContract = _feeBankContract;\n    }\n\n    /// @notice Add a transaction to a batch.\n    /// @param _batchIndex The index of the batch to which the transaction should be added. Note\n    ///     that this must match the batch corresponding to the current block number.\n    /// @param _type The type of the transaction (either cipher or plain).\n    /// @param _transaction The encrypted or plaintext transaction (depending on `_type`).\n    function addTransaction(\n        uint64 _batchIndex,\n        TransactionType _type,\n        bytes calldata _transaction\n    ) external payable {\n        BatchConfig memory config = configContract.getConfig(_batchIndex);\n\n        // check batching is active\n        require(config.batchSpan > 0, \"BatcherContract: batch not active\");\n\n        // check given batch is current\n        assert(_batchIndex >= config.startBatchIndex); // ensured by configContract.getConfig\n        uint64 _relativeBatchIndex = _batchIndex - config.startBatchIndex;\n        uint64 _batchStartBlock = config.startBlockNumber +\n            _relativeBatchIndex *\n            config.batchSpan;\n        uint64 _batchEndBlock = _batchStartBlock + config.batchSpan;\n        require(\n            block.number >= _batchStartBlock,\n            \"BatcherContract: batch not started yet\"\n        );\n        require(\n            block.number < _batchEndBlock,\n            \"BatcherContract: batch already ended\"\n        );\n\n        // check tx and batch size limits\n        require(\n            _transaction.length > 0,\n            \"BatcherContract: transaction is empty\"\n        );\n        require(\n            _transaction.length <= config.transactionSizeLimit,\n            \"BatcherContract: transaction too big\"\n        );\n        require(\n            batchSizes[_batchIndex] + _transaction.length <=\n                config.batchSizeLimit,\n            \"BatcherContract: batch already full\"\n        ); // overflow can be ignored here because number of txs and their sizes are both small\n\n        // check fee\n        require(msg.value >= minFee, \"BatcherContract: fee too small\");\n\n        // add tx to batch\n        bytes memory _batchHashPreimage = abi.encodePacked(\n            _transaction,\n            batchHashes[_batchIndex][_type]\n        );\n        bytes32 _newBatchHash = keccak256(_batchHashPreimage);\n        batchHashes[_batchIndex][_type] = _newBatchHash;\n        batchSizes[_batchIndex] += uint64(_transaction.length);\n\n        // pay fee to fee bank and emit event\n        if (msg.value > 0 && config.feeReceiver != address(0)) {\n            feeBankContract.deposit{value: msg.value}(config.feeReceiver);\n        }\n        emit TransactionAdded(_batchIndex, _type, _transaction, _newBatchHash);\n    }\n\n    /// @notice Set the minimum fee required to add a transaction to the batch.\n    /// @param _minFee The new value for the minimum fee.\n    function setMinFee(uint64 _minFee) external onlyOwner {\n        minFee = _minFee;\n    }\n}\n",
  "sourcePath": "contracts/BatcherContract.sol",
  "type": "contract"
}