{
  "abi": [
    {
      "inputs": [
        {
          "internalType": "uint64",
          "name": "_configChangeHeadsUpBlocks",
          "type": "uint64"
        }
      ],
      "stateMutability": "nonpayable",
      "type": "constructor"
    },
    {
      "anonymous": false,
      "inputs": [
        {
          "indexed": false,
          "internalType": "uint64",
          "name": "numConfigs",
          "type": "uint64"
        }
      ],
      "name": "ConfigScheduled",
      "type": "event"
    },
    {
      "anonymous": false,
      "inputs": [
        {
          "indexed": false,
          "internalType": "uint64",
          "name": "numConfigs",
          "type": "uint64"
        }
      ],
      "name": "ConfigUnscheduled",
      "type": "event"
    },
    {
      "anonymous": false,
      "inputs": [
        {
          "indexed": true,
          "internalType": "address",
          "name": "previousOwner",
          "type": "address"
        },
        {
          "indexed": true,
          "internalType": "address",
          "name": "newOwner",
          "type": "address"
        }
      ],
      "name": "OwnershipTransferred",
      "type": "event"
    },
    {
      "inputs": [],
      "name": "configChangeHeadsUpBlocks",
      "outputs": [
        {
          "internalType": "uint64",
          "name": "",
          "type": "uint64"
        }
      ],
      "stateMutability": "view",
      "type": "function"
    },
    {
      "inputs": [
        {
          "internalType": "uint64",
          "name": "_configIndex",
          "type": "uint64"
        },
        {
          "internalType": "uint64",
          "name": "_keyperIndex",
          "type": "uint64"
        }
      ],
      "name": "configKeypers",
      "outputs": [
        {
          "internalType": "address",
          "name": "",
          "type": "address"
        }
      ],
      "stateMutability": "view",
      "type": "function"
    },
    {
      "inputs": [
        {
          "internalType": "uint64",
          "name": "_configIndex",
          "type": "uint64"
        }
      ],
      "name": "configNumKeypers",
      "outputs": [
        {
          "internalType": "uint64",
          "name": "",
          "type": "uint64"
        }
      ],
      "stateMutability": "view",
      "type": "function"
    },
    {
      "inputs": [
        {
          "internalType": "uint256",
          "name": "",
          "type": "uint256"
        }
      ],
      "name": "configs",
      "outputs": [
        {
          "internalType": "uint64",
          "name": "startBatchIndex",
          "type": "uint64"
        },
        {
          "internalType": "uint64",
          "name": "startBlockNumber",
          "type": "uint64"
        },
        {
          "internalType": "uint64",
          "name": "threshold",
          "type": "uint64"
        },
        {
          "internalType": "uint64",
          "name": "batchSpan",
          "type": "uint64"
        },
        {
          "internalType": "uint64",
          "name": "batchSizeLimit",
          "type": "uint64"
        },
        {
          "internalType": "uint64",
          "name": "transactionSizeLimit",
          "type": "uint64"
        },
        {
          "internalType": "uint64",
          "name": "transactionGasLimit",
          "type": "uint64"
        },
        {
          "internalType": "address",
          "name": "feeReceiver",
          "type": "address"
        },
        {
          "internalType": "address",
          "name": "targetAddress",
          "type": "address"
        },
        {
          "internalType": "bytes4",
          "name": "targetFunctionSelector",
          "type": "bytes4"
        },
        {
          "internalType": "uint64",
          "name": "executionTimeout",
          "type": "uint64"
        }
      ],
      "stateMutability": "view",
      "type": "function"
    },
    {
      "inputs": [
        {
          "internalType": "uint64",
          "name": "_batchIndex",
          "type": "uint64"
        }
      ],
      "name": "getConfig",
      "outputs": [
        {
          "components": [
            {
              "internalType": "uint64",
              "name": "startBatchIndex",
              "type": "uint64"
            },
            {
              "internalType": "uint64",
              "name": "startBlockNumber",
              "type": "uint64"
            },
            {
              "internalType": "address[]",
              "name": "keypers",
              "type": "address[]"
            },
            {
              "internalType": "uint64",
              "name": "threshold",
              "type": "uint64"
            },
            {
              "internalType": "uint64",
              "name": "batchSpan",
              "type": "uint64"
            },
            {
              "internalType": "uint64",
              "name": "batchSizeLimit",
              "type": "uint64"
            },
            {
              "internalType": "uint64",
              "name": "transactionSizeLimit",
              "type": "uint64"
            },
            {
              "internalType": "uint64",
              "name": "transactionGasLimit",
              "type": "uint64"
            },
            {
              "internalType": "address",
              "name": "feeReceiver",
              "type": "address"
            },
            {
              "internalType": "address",
              "name": "targetAddress",
              "type": "address"
            },
            {
              "internalType": "bytes4",
              "name": "targetFunctionSelector",
              "type": "bytes4"
            },
            {
              "internalType": "uint64",
              "name": "executionTimeout",
              "type": "uint64"
            }
          ],
          "internalType": "struct BatchConfig",
          "name": "",
          "type": "tuple"
        }
      ],
      "stateMutability": "view",
      "type": "function"
    },
    {
      "inputs": [],
      "name": "nextConfig",
      "outputs": [
        {
          "internalType": "uint64",
          "name": "startBatchIndex",
          "type": "uint64"
        },
        {
          "internalType": "uint64",
          "name": "startBlockNumber",
          "type": "uint64"
        },
        {
          "internalType": "uint64",
          "name": "threshold",
          "type": "uint64"
        },
        {
          "internalType": "uint64",
          "name": "batchSpan",
          "type": "uint64"
        },
        {
          "internalType": "uint64",
          "name": "batchSizeLimit",
          "type": "uint64"
        },
        {
          "internalType": "uint64",
          "name": "transactionSizeLimit",
          "type": "uint64"
        },
        {
          "internalType": "uint64",
          "name": "transactionGasLimit",
          "type": "uint64"
        },
        {
          "internalType": "address",
          "name": "feeReceiver",
          "type": "address"
        },
        {
          "internalType": "address",
          "name": "targetAddress",
          "type": "address"
        },
        {
          "internalType": "bytes4",
          "name": "targetFunctionSelector",
          "type": "bytes4"
        },
        {
          "internalType": "uint64",
          "name": "executionTimeout",
          "type": "uint64"
        }
      ],
      "stateMutability": "view",
      "type": "function"
    },
    {
      "inputs": [
        {
          "internalType": "address[]",
          "name": "_newKeypers",
          "type": "address[]"
        }
      ],
      "name": "nextConfigAddKeypers",
      "outputs": [],
      "stateMutability": "nonpayable",
      "type": "function"
    },
    {
      "inputs": [
        {
          "internalType": "uint64",
          "name": "_index",
          "type": "uint64"
        }
      ],
      "name": "nextConfigKeypers",
      "outputs": [
        {
          "internalType": "address",
          "name": "",
          "type": "address"
        }
      ],
      "stateMutability": "view",
      "type": "function"
    },
    {
      "inputs": [],
      "name": "nextConfigNumKeypers",
      "outputs": [
        {
          "internalType": "uint64",
          "name": "",
          "type": "uint64"
        }
      ],
      "stateMutability": "view",
      "type": "function"
    },
    {
      "inputs": [
        {
          "internalType": "uint64",
          "name": "n",
          "type": "uint64"
        }
      ],
      "name": "nextConfigRemoveKeypers",
      "outputs": [],
      "stateMutability": "nonpayable",
      "type": "function"
    },
    {
      "inputs": [
        {
          "internalType": "uint64",
          "name": "_batchSizeLimit",
          "type": "uint64"
        }
      ],
      "name": "nextConfigSetBatchSizeLimit",
      "outputs": [],
      "stateMutability": "nonpayable",
      "type": "function"
    },
    {
      "inputs": [
        {
          "internalType": "uint64",
          "name": "_batchSpan",
          "type": "uint64"
        }
      ],
      "name": "nextConfigSetBatchSpan",
      "outputs": [],
      "stateMutability": "nonpayable",
      "type": "function"
    },
    {
      "inputs": [
        {
          "internalType": "uint64",
          "name": "_executionTimeout",
          "type": "uint64"
        }
      ],
      "name": "nextConfigSetExecutionTimeout",
      "outputs": [],
      "stateMutability": "nonpayable",
      "type": "function"
    },
    {
      "inputs": [
        {
          "internalType": "address",
          "name": "_feeReceiver",
          "type": "address"
        }
      ],
      "name": "nextConfigSetFeeReceiver",
      "outputs": [],
      "stateMutability": "nonpayable",
      "type": "function"
    },
    {
      "inputs": [
        {
          "internalType": "uint64",
          "name": "_startBatchIndex",
          "type": "uint64"
        }
      ],
      "name": "nextConfigSetStartBatchIndex",
      "outputs": [],
      "stateMutability": "nonpayable",
      "type": "function"
    },
    {
      "inputs": [
        {
          "internalType": "uint64",
          "name": "_startBlockNumber",
          "type": "uint64"
        }
      ],
      "name": "nextConfigSetStartBlockNumber",
      "outputs": [],
      "stateMutability": "nonpayable",
      "type": "function"
    },
    {
      "inputs": [
        {
          "internalType": "address",
          "name": "_targetAddress",
          "type": "address"
        }
      ],
      "name": "nextConfigSetTargetAddress",
      "outputs": [],
      "stateMutability": "nonpayable",
      "type": "function"
    },
    {
      "inputs": [
        {
          "internalType": "bytes4",
          "name": "_targetFunctionSelector",
          "type": "bytes4"
        }
      ],
      "name": "nextConfigSetTargetFunctionSelector",
      "outputs": [],
      "stateMutability": "nonpayable",
      "type": "function"
    },
    {
      "inputs": [
        {
          "internalType": "uint64",
          "name": "_threshold",
          "type": "uint64"
        }
      ],
      "name": "nextConfigSetThreshold",
      "outputs": [],
      "stateMutability": "nonpayable",
      "type": "function"
    },
    {
      "inputs": [
        {
          "internalType": "uint64",
          "name": "_transactionGasLimit",
          "type": "uint64"
        }
      ],
      "name": "nextConfigSetTransactionGasLimit",
      "outputs": [],
      "stateMutability": "nonpayable",
      "type": "function"
    },
    {
      "inputs": [
        {
          "internalType": "uint64",
          "name": "_transactionSizeLimit",
          "type": "uint64"
        }
      ],
      "name": "nextConfigSetTransactionSizeLimit",
      "outputs": [],
      "stateMutability": "nonpayable",
      "type": "function"
    },
    {
      "inputs": [],
      "name": "numConfigs",
      "outputs": [
        {
          "internalType": "uint64",
          "name": "",
          "type": "uint64"
        }
      ],
      "stateMutability": "view",
      "type": "function"
    },
    {
      "inputs": [],
      "name": "owner",
      "outputs": [
        {
          "internalType": "address",
          "name": "",
          "type": "address"
        }
      ],
      "stateMutability": "view",
      "type": "function"
    },
    {
      "inputs": [],
      "name": "renounceOwnership",
      "outputs": [],
      "stateMutability": "nonpayable",
      "type": "function"
    },
    {
      "inputs": [],
      "name": "scheduleNextConfig",
      "outputs": [],
      "stateMutability": "nonpayable",
      "type": "function"
    },
    {
      "inputs": [
        {
          "internalType": "address",
          "name": "newOwner",
          "type": "address"
        }
      ],
      "name": "transferOwnership",
      "outputs": [],
      "stateMutability": "nonpayable",
      "type": "function"
    },
    {
      "inputs": [
        {
          "internalType": "uint64",
          "name": "_fromStartBlockNumber",
          "type": "uint64"
        }
      ],
      "name": "unscheduleConfigs",
      "outputs": [],
      "stateMutability": "nonpayable",
      "type": "function"
    }
  ],
  "bytecode": "60a06040523480156200001157600080fd5b506040516200250e3803806200250e8339810160408190526200003491620003ae565b60006200004062000249565b600080546001600160a01b0319166001600160a01b0383169081178255604051929350917f8be0079c531659141344cd1fd0a4f28419497f9722a3daafe3b4186f6b6457e0908290a3506001620000966200024d565b815460018181018455600093845260209384902083516005909302018054858501516001600160401b039081166801000000000000000002600160401b600160801b0319919095166001600160401b0319909216919091171692909217825560408301518051939492936200011493928501929190910190620002c8565b50606082015160028201805460808086015160a087015160c0808901516001600160401b03199586166001600160401b0398891617600160401b600160801b03191668010000000000000000948916850217600160801b600160c01b031916600160801b93891693909302929092176001600160c01b03908116600160c01b93891684021790965560e0808a015160038a0180546101008d01519816918a1691909117600160401b600160e01b0319166001600160a01b0397881690950294909417909355610120890151600490980180546101408b0151610160909b01516001600160a01b0319909116999096169890981763ffffffff60a01b1916600160a01b9990931c989098029190911790931691909316909102179091556001600160c01b03199290911b919091169052620003de565b3390565b6200025762000332565b506040805161018081018252600080825260208083018290528351828152908101845292820192909252606081018290526080810182905260a0810182905260c0810182905260e0810182905261010081018290526101208101829052610140810182905261016081019190915290565b82805482825590600052602060002090810192821562000320579160200282015b828111156200032057825182546001600160a01b0319166001600160a01b03909116178255602090920191600190910190620002e9565b506200032e92915062000397565b5090565b604080516101808101825260008082526020820181905260609282018390529181018290526080810182905260a0810182905260c0810182905260e0810182905261010081018290526101208101829052610140810182905261016081019190915290565b5b808211156200032e576000815560010162000398565b600060208284031215620003c0578081fd5b81516001600160401b0381168114620003d7578182fd5b9392505050565b60805160c01c6121036200040b6000398061061c5280610c095280611307528061148c52506121036000f3fe608060405234801561001057600080fd5b50600436106101a85760003560e01c806373ed43db116100f9578063cd21aee711610097578063d9a58f2411610071578063d9a58f2414610351578063e008cb6214610364578063f2fde38b14610384578063fa84ea0214610397576101a8565b8063cd21aee714610323578063ce9919b81461032b578063d1ac2e521461033e576101a8565b80639d63753e116100d35780639d63753e146102d7578063bcf67268146102ea578063c7c6e9f4146102fd578063c9515c5814610310576101a8565b806373ed43db146102a957806381e905a3146102bc5780638da5cb5b146102cf576101a8565b80635dc6fdb81161016657806364e9f6711161014057806364e9f67114610266578063660744dc1461026e578063715018a61461028e578063719f2e1714610296576101a8565b80635dc6fdb81461022d578063606df5141461024057806362fced0e14610253576101a8565b806298fa22146101ad5780630f0aae6f146101e057806318b5e830146101f5578063287447c4146101ff5780632b2cc6c414610207578063564093fc1461021a575b600080fd5b6101c06101bb366004611b3e565b6103aa565b6040516101d79b9a99989796959493929190611fff565b60405180910390f35b6101e861043a565b6040516101d79190611feb565b6101fd610440565b005b6101e8610aaa565b6101fd610215366004611a7a565b610ab0565b6101fd610228366004611b56565b610b34565b6101fd61023b366004611b56565b610baf565b6101fd61024e366004611b56565b610c85565b6101fd610261366004611aa8565b610d05565b6101c0610e06565b61028161027c366004611b56565b610e72565b6040516101d79190611c0d565b6101fd610eaa565b6101fd6102a4366004611b56565b610f4c565b6101fd6102b7366004611b56565b610fcc565b6101fd6102ca366004611b56565b611047565b6102816110cc565b6101fd6102e5366004611b56565b6110db565b6101fd6102f8366004611a7a565b6111ae565b6101fd61030b366004611b56565b611228565b6101fd61031e366004611b56565b6112ad565b6101e861148a565b6101fd610339366004611b56565b6114ae565b6101fd61034c366004611b16565b611529565b6101e861035f366004611b56565b6115a5565b610377610372366004611b56565b6115d7565b6040516101d79190611eef565b6101fd610392366004611a7a565b611755565b6102816103a5366004611b70565b61184d565b600181815481106103ba57600080fd5b600091825260209091206005909102018054600282015460038301546004909301546001600160401b038084169550600160401b9384900481169483821694808504831694600160801b8104841694600160c01b91829004851694848116946001600160a01b03949004841693821692600160a01b830460e01b9204168b565b60015490565b6104486118a6565b6000546001600160a01b03908116911614610498576040805162461bcd60e51b815260206004820181905260248201526000805160206120ae833981519152604482015290519081900360640190fd5b60015467fffffffffffffffe116104ca5760405162461bcd60e51b81526004016104c190611c75565b60405180910390fd5b600180546000919060001981019081106104e057fe5b60009182526020918290206040805161018081018252600590930290910180546001600160401b038082168552600160401b9091041683850152600181018054835181870281018701855281815294959294938601939283018282801561057057602002820191906000526020600020905b81546001600160a01b03168152600190910190602001808311610552575b50505091835250506002828101546001600160401b038082166020850152600160401b80830482166040860152600160801b830482166060860152600160c01b9283900482166080860152600386015480831660a08701528190046001600160a01b0390811660c087015260049096015495861660e080870191909152600160a01b8704901b6001600160e01b03191661010086015291909404841661012090930192909252549293507f0000000000000000000000000000000000000000000000000000000000000000821643019204161161065f5760405162461bcd60e51b81526004016104c190611d81565b60808101516001600160401b0316156106f25780516002546001600160401b039182169116116106a15760405162461bcd60e51b81526004016104c190611ea4565b8051600254608083015160208401516001600160401b038084169490940393918402018116600160401b90920416146106ec5760405162461bcd60e51b81526004016104c190611e56565b50610721565b80516002546001600160401b039081169116146107215760405162461bcd60e51b81526004016104c190611cc5565b6001805480820182556000919091526002805460059092027fb10e2d527612073b26eecdfd717e6a320cf44b4afac2b0732d9fcbe2b7fa0cf68101805467ffffffffffffffff19166001600160401b03948516178082558354600160401b9081900490951690940267ffffffffffffffff60401b19909416939093178355600380549293926107d3927fb10e2d527612073b26eecdfd717e6a320cf44b4afac2b0732d9fcbe2b7fa0cf7019190611923565b5060028281018054918301805467ffffffffffffffff199081166001600160401b03948516178083558354600160401b908190048616810267ffffffffffffffff60401b19909216919091178084558454600160801b9081900487160267ffffffffffffffff60801b19909116178084559354600160c01b90819004861681026001600160c01b03958616179093556003808801805491880180549094169187169190911780845590546001600160a01b03908390048116909202600160401b600160e01b031990911617909155600495860180549690950180546001600160a01b0319169690911695909517808655845463ffffffff600160a01b91829004160263ffffffff60a01b1990911617808655935481900490921690910291161790556108fd6118aa565b80516002805460208085015167ffffffffffffffff199092166001600160401b039485161767ffffffffffffffff60401b1916600160401b94909216939093021781556040830151805191926109599260039290910190611973565b506060820151600282018054608085015160a086015160c087015167ffffffffffffffff199384166001600160401b039687161767ffffffffffffffff60401b1916600160401b93871684021767ffffffffffffffff60801b1916600160801b92871692909202919091176001600160c01b03908116600160c01b92871683021790945560e0808801516003880180546101008b0151961691881691909117600160401b600160e01b0319166001600160a01b039586169094029390931790925561012087015160049096018054610140890151610160909901516001600160a01b0319909116979094169690961763ffffffff60a01b1916600160a01b9790921c969096021790911691169092029190911790556001546040517f38889ef980014448a73b6e5dc5579ba1a4b7bd213a586b3f4832351448c48ae691610a9f91611feb565b60405180910390a150565b60035490565b610ab86118a6565b6000546001600160a01b03908116911614610b08576040805162461bcd60e51b815260206004820181905260248201526000805160206120ae833981519152604482015290519081900360640190fd5b600580546001600160a01b03909216600160401b02600160401b600160e01b0319909216919091179055565b610b3c6118a6565b6000546001600160a01b03908116911614610b8c576040805162461bcd60e51b815260206004820181905260248201526000805160206120ae833981519152604482015290519081900360640190fd5b6005805467ffffffffffffffff19166001600160401b0392909216919091179055565b610bb76118a6565b6000546001600160a01b03908116911614610c07576040805162461bcd60e51b815260206004820181905260248201526000805160206120ae833981519152604482015290519081900360640190fd5b7f00000000000000000000000000000000000000000000000000000000000000006001600160401b0316816001600160401b031610610c585760405162461bcd60e51b81526004016104c190611c21565b600480546001600160401b03909216600160401b0267ffffffffffffffff60401b19909216919091179055565b610c8d6118a6565b6000546001600160a01b03908116911614610cdd576040805162461bcd60e51b815260206004820181905260248201526000805160206120ae833981519152604482015290519081900360640190fd5b600480546001600160401b03909216600160c01b026001600160c01b03909216919091179055565b610d0d6118a6565b6000546001600160a01b03908116911614610d5d576040805162461bcd60e51b815260206004820181905260248201526000805160206120ae833981519152604482015290519081900360640190fd5b6003546001600160401b038290031015610d895760405162461bcd60e51b81526004016104c190611d31565b60005b6001600160401b038116821115610e0157600383836001600160401b038416818110610db457fe5b9050602002016020810190610dc99190611a7a565b815460018082018455600093845260209093200180546001600160a01b0319166001600160a01b039290921691909117905501610d8c565b505050565b6002546004546005546006546001600160401b0380851694600160401b9081900482169482811694828204841694600160801b8304851694600160c01b938490048116948184169493046001600160a01b039081169390831692600160a01b810460e01b92919004168b565b60006002600101826001600160401b031681548110610e8d57fe5b6000918252602090912001546001600160a01b031690505b919050565b610eb26118a6565b6000546001600160a01b03908116911614610f02576040805162461bcd60e51b815260206004820181905260248201526000805160206120ae833981519152604482015290519081900360640190fd5b600080546040516001600160a01b03909116907f8be0079c531659141344cd1fd0a4f28419497f9722a3daafe3b4186f6b6457e0908390a3600080546001600160a01b0319169055565b610f546118a6565b6000546001600160a01b03908116911614610fa4576040805162461bcd60e51b815260206004820181905260248201526000805160206120ae833981519152604482015290519081900360640190fd5b600680546001600160401b03909216600160c01b026001600160c01b03909216919091179055565b610fd46118a6565b6000546001600160a01b03908116911614611024576040805162461bcd60e51b815260206004820181905260248201526000805160206120ae833981519152604482015290519081900360640190fd5b6004805467ffffffffffffffff19166001600160401b0392909216919091179055565b61104f6118a6565b6000546001600160a01b0390811691161461109f576040805162461bcd60e51b815260206004820181905260248201526000805160206120ae833981519152604482015290519081900360640190fd5b600280546001600160401b03909216600160401b0267ffffffffffffffff60401b19909216919091179055565b6000546001600160a01b031690565b6110e36118a6565b6000546001600160a01b03908116911614611133576040805162461bcd60e51b815260206004820181905260248201526000805160206120ae833981519152604482015290519081900360640190fd5b6003546001600160401b038216811061119e5760005b826001600160401b0316816001600160401b0316101561119857600380548061116e57fe5b600082815260209020810160001990810180546001600160a01b0319169055019055600101611149565b506111aa565b6111aa600360006119c8565b5050565b6111b66118a6565b6000546001600160a01b03908116911614611206576040805162461bcd60e51b815260206004820181905260248201526000805160206120ae833981519152604482015290519081900360640190fd5b600680546001600160a01b0319166001600160a01b0392909216919091179055565b6112306118a6565b6000546001600160a01b03908116911614611280576040805162461bcd60e51b815260206004820181905260248201526000805160206120ae833981519152604482015290519081900360640190fd5b600480546001600160401b03909216600160801b0267ffffffffffffffff60801b19909216919091179055565b6112b56118a6565b6000546001600160a01b03908116911614611305576040805162461bcd60e51b815260206004820181905260248201526000805160206120ae833981519152604482015290519081900360640190fd5b7f00000000000000000000000000000000000000000000000000000000000000006001600160401b03164301816001600160401b0316116113585760405162461bcd60e51b81526004016104c190611e0c565b60015460001981015b80156114225760006001828154811061137657fe5b6000918252602090912060059091020180549091506001600160401b03808616600160401b90920416106114125760018054806113af57fe5b60008281526020812060056000199093019283020180546fffffffffffffffffffffffffffffffff19168155906113e960018301826119c8565b506000600282018190556003820180546001600160e01b03191690556004909101559055611418565b50611422565b5060001901611361565b506001546001600160401b0382161161144d5760405162461bcd60e51b81526004016104c190611dc6565b6001546040517f202adac5e4f5fa65a6e6ec3afc99da8986c020c2799f4e0aee50552a05a0bfdf9161147e91611feb565b60405180910390a15050565b7f000000000000000000000000000000000000000000000000000000000000000081565b6114b66118a6565b6000546001600160a01b03908116911614611506576040805162461bcd60e51b815260206004820181905260248201526000805160206120ae833981519152604482015290519081900360640190fd5b6002805467ffffffffffffffff19166001600160401b0392909216919091179055565b6115316118a6565b6000546001600160a01b03908116911614611581576040805162461bcd60e51b815260206004820181905260248201526000805160206120ae833981519152604482015290519081900360640190fd5b6006805460e09290921c600160a01b0263ffffffff60a01b19909216919091179055565b60006001826001600160401b0316815481106115bd57fe5b600091825260209091206001600590920201015492915050565b6115df6119e9565b600154600019015b6000600182815481106115f657fe5b6000918252602090912060059091020180549091506001600160401b0380861691161161174b57604080516101808101825282546001600160401b038082168352600160401b9091041660208083019190915260018401805484518184028101840186528181529394869490860193909291908301828280156116a257602002820191906000526020600020905b81546001600160a01b03168152600190910190602001808311611684575b505050918352505060028201546001600160401b038082166020840152600160401b80830482166040850152600160801b830482166060850152600160c01b9283900482166080850152600385015480831660a0860152046001600160a01b0390811660c085015260049094015493841660e080850191909152600160a01b8504901b6001600160e01b0319166101008401529204909116610120909101529250610ea5915050565b50600019016115e7565b61175d6118a6565b6000546001600160a01b039081169116146117ad576040805162461bcd60e51b815260206004820181905260248201526000805160206120ae833981519152604482015290519081900360640190fd5b6001600160a01b0381166117f25760405162461bcd60e51b81526004018080602001828103825260268152602001806120886026913960400191505060405180910390fd5b600080546040516001600160a01b03808516939216917f8be0079c531659141344cd1fd0a4f28419497f9722a3daafe3b4186f6b6457e091a3600080546001600160a01b0319166001600160a01b0392909216919091179055565b60006001836001600160401b03168154811061186557fe5b9060005260206000209060050201600101826001600160401b03168154811061188a57fe5b6000918252602090912001546001600160a01b03169392505050565b3390565b6118b26119e9565b506040805161018081018252600080825260208083018290528351828152908101845292820192909252606081018290526080810182905260a0810182905260c0810182905260e0810182905261010081018290526101208101829052610140810182905261016081019190915290565b8280548282559060005260206000209081019282156119635760005260206000209182015b82811115611963578254825591600101919060010190611948565b5061196f929150611a4e565b5090565b828054828255906000526020600020908101928215611963579160200282015b8281111561196357825182546001600160a01b0319166001600160a01b03909116178255602090920191600190910190611993565b50805460008255906000526020600020908101906119e69190611a4e565b50565b604080516101808101825260008082526020820181905260609282018390529181018290526080810182905260a0810182905260c0810182905260e0810182905261010081018290526101208101829052610140810182905261016081019190915290565b5b8082111561196f5760008155600101611a4f565b80356001600160401b0381168114610ea557600080fd5b600060208284031215611a8b578081fd5b81356001600160a01b0381168114611aa1578182fd5b9392505050565b60008060208385031215611aba578081fd5b82356001600160401b0380821115611ad0578283fd5b818501915085601f830112611ae3578283fd5b813581811115611af1578384fd5b8660208083028501011115611b04578384fd5b60209290920196919550909350505050565b600060208284031215611b27578081fd5b81356001600160e01b031981168114611aa1578182fd5b600060208284031215611b4f578081fd5b5035919050565b600060208284031215611b67578081fd5b611aa182611a63565b60008060408385031215611b82578182fd5b611b8b83611a63565b9150611b9960208401611a63565b90509250929050565b6001600160a01b03169052565b6000815180845260208085019450808401835b83811015611be75781516001600160a01b031687529582019590820190600101611bc2565b509495945050505050565b6001600160e01b0319169052565b6001600160401b03169052565b6001600160a01b0391909116815260200190565b60208082526034908201527f436f6e666967436f6e74726163743a206261746368207370616e206e6f7420736040820152730686f72746572207468616e2068656164732075760641b606082015260800190565b60208082526030908201527f436f6e666967436f6e74726163743a206e756d626572206f6620636f6e66696760408201526f1cc8195e18d959591cc81d5a5b9d0d8d60821b606082015260800190565b60208082526046908201527f436f6e666967436f6e74726163743a207472616e736974696f6e2066726f6d2060408201527f696e61637469766520636f6e66696720776974682077726f6e67207374617274606082015265040d2dcc8caf60d31b608082015260a00190565b60208082526030908201527f436f6e666967436f6e74726163743a206e756d626572206f66206b657970657260408201526f1cc8195e18d959591cc81d5a5b9d0d8d60821b606082015260800190565b60208082526025908201527f436f6e666967436f6e74726163743a20737461727420626c6f636b20746f6f206040820152646561726c7960d81b606082015260800190565b60208082526026908201527f436f6e666967436f6e74726163743a206e6f20636f6e6669677320756e73636860408201526519591d5b195960d21b606082015260800190565b6020808252602a908201527f436f6e666967436f6e74726163743a2066726f6d20737461727420626c6f636b60408201526920746f6f206561726c7960b01b606082015260800190565b6020808252602e908201527f436f6e666967436f6e74726163743a20636f6e666967207472616e736974696f60408201526d6e206e6f74207365616d6c65737360901b606082015260800190565b6020808252602b908201527f436f6e666967436f6e74726163743a20737461727420626174636820696e646560408201526a1e081d1bdbc81cdb585b1b60aa1b606082015260800190565b600060208252611f03602083018451611c00565b6020830151611f156040840182611c00565b506040830151610180806060850152611f326101a0850183611baf565b91506060850151611f466080860182611c00565b506080850151611f5960a0860182611c00565b5060a0850151611f6c60c0860182611c00565b5060c0850151611f7f60e0860182611c00565b5060e0850151610100611f9481870183611c00565b8601519050610120611fa886820183611ba2565b8601519050610140611fbc86820183611ba2565b8601519050610160611fd086820183611bf2565b8601519050611fe185830182611c00565b5090949350505050565b6001600160401b0391909116815260200190565b6001600160401b038c811682528b811660208301528a811660408301528981166060830152888116608083015287811660a0830152861660c08201526001600160a01b0385811660e083015284166101008201526001600160e01b031983166101208201526101608101612077610140830184611c00565b9c9b50505050505050505050505056fe4f776e61626c653a206e6577206f776e657220697320746865207a65726f20616464726573734f776e61626c653a2063616c6c6572206973206e6f7420746865206f776e6572a2646970667358221220b278579041921abc3cbefc7c9b99b068ef0d85090c8ddcf24c07c9879925088864736f6c63430007060033",
  "bytecodeSha1": "7c7bef0b8929601005bea9bb3b3ce7100a8132bd",
  "compiler": {
    "evm_version": "istanbul",
    "optimizer": {
      "enabled": true,
      "runs": 200
    },
    "version": "0.7.6+commit.7338295f"
  },
  "contractName": "ConfigContract",
  "language": "Solidity",
  "natspec": {
    "details": "The config objects are stored in sequence, with configs applicable to later batches being     lined up behind configs applicable to earlier batches (according to     `config.startBlockNumber`). The contract owner is entitled to add or remove configs at the     end at will as long as a notice of at least `configChangeHeadsUpBlocks` is given.To add a new config, first populate the `nextConfig` object accordingly and then schedule     it with `scheduleNextConfig`.",
    "kind": "dev",
    "methods": {
      "getConfig(uint64)": {
        "notice": "Get the config for a certain batch.",
        "params": {
          "_batchIndex": "The index of the batch."
        }
      },
      "owner()": {
        "details": "Returns the address of the current owner."
      },
      "renounceOwnership()": {
        "details": "Leaves the contract without owner. It will not be possible to call `onlyOwner` functions anymore. Can only be called by the current owner. NOTE: Renouncing ownership will leave the contract without an owner, thereby removing any functionality that is only available to the owner."
      },
      "scheduleNextConfig()": {
        "notice": "Finalize the `nextConfig` object and add it to the end of the config sequence.`startBlockNumber` of the next config must be `configChangeHeadsUpBlocks`     blocks in the future. Note that the batch spans are smaller than or equal to     `configChangeHeadsUpBlocks`, so the heads up corresponds to at least one batch.The transition between the next config and the config currently at the end of the     config sequence must be seamless, i.e., there batches must not be cut short."
      },
      "transferOwnership(address)": {
        "details": "Transfers ownership of the contract to a new account (`newOwner`). Can only be called by the current owner."
      },
      "unscheduleConfigs(uint64)": {
        "notice": "Remove configs from the end.`_fromStartBlockNumber` must be `configChangeHeadsUpBlocks` blocks in the future.This method can remove one or more configs. If no config would be removed, an error     is thrown.",
        "params": {
          "_fromStartBlockNumber": "All configs with a start block number greater than or equal     to this will be removed."
        }
      }
    },
    "title": "A contract that manages `BatchConfig` objects.",
    "version": 1
  },
  "opcodes": "PUSH1 0x80 PUSH1 0x40 MSTORE CALLVALUE DUP1 ISZERO PUSH2 0x10 JUMPI PUSH1 0x0 DUP1 REVERT JUMPDEST POP PUSH1 0x4 CALLDATASIZE LT PUSH2 0x1A8 JUMPI PUSH1 0x0 CALLDATALOAD PUSH1 0xE0 SHR DUP1 PUSH4 0x73ED43DB GT PUSH2 0xF9 JUMPI DUP1 PUSH4 0xCD21AEE7 GT PUSH2 0x97 JUMPI DUP1 PUSH4 0xD9A58F24 GT PUSH2 0x71 JUMPI DUP1 PUSH4 0xD9A58F24 EQ PUSH2 0x351 JUMPI DUP1 PUSH4 0xE008CB62 EQ PUSH2 0x364 JUMPI DUP1 PUSH4 0xF2FDE38B EQ PUSH2 0x384 JUMPI DUP1 PUSH4 0xFA84EA02 EQ PUSH2 0x397 JUMPI PUSH2 0x1A8 JUMP JUMPDEST DUP1 PUSH4 0xCD21AEE7 EQ PUSH2 0x323 JUMPI DUP1 PUSH4 0xCE9919B8 EQ PUSH2 0x32B JUMPI DUP1 PUSH4 0xD1AC2E52 EQ PUSH2 0x33E JUMPI PUSH2 0x1A8 JUMP JUMPDEST DUP1 PUSH4 0x9D63753E GT PUSH2 0xD3 JUMPI DUP1 PUSH4 0x9D63753E EQ PUSH2 0x2D7 JUMPI DUP1 PUSH4 0xBCF67268 EQ PUSH2 0x2EA JUMPI DUP1 PUSH4 0xC7C6E9F4 EQ PUSH2 0x2FD JUMPI DUP1 PUSH4 0xC9515C58 EQ PUSH2 0x310 JUMPI PUSH2 0x1A8 JUMP JUMPDEST DUP1 PUSH4 0x73ED43DB EQ PUSH2 0x2A9 JUMPI DUP1 PUSH4 0x81E905A3 EQ PUSH2 0x2BC JUMPI DUP1 PUSH4 0x8DA5CB5B EQ PUSH2 0x2CF JUMPI PUSH2 0x1A8 JUMP JUMPDEST DUP1 PUSH4 0x5DC6FDB8 GT PUSH2 0x166 JUMPI DUP1 PUSH4 0x64E9F671 GT PUSH2 0x140 JUMPI DUP1 PUSH4 0x64E9F671 EQ PUSH2 0x266 JUMPI DUP1 PUSH4 0x660744DC EQ PUSH2 0x26E JUMPI DUP1 PUSH4 0x715018A6 EQ PUSH2 0x28E JUMPI DUP1 PUSH4 0x719F2E17 EQ PUSH2 0x296 JUMPI PUSH2 0x1A8 JUMP JUMPDEST DUP1 PUSH4 0x5DC6FDB8 EQ PUSH2 0x22D JUMPI DUP1 PUSH4 0x606DF514 EQ PUSH2 0x240 JUMPI DUP1 PUSH4 0x62FCED0E EQ PUSH2 0x253 JUMPI PUSH2 0x1A8 JUMP JUMPDEST DUP1 PUSH3 0x98FA22 EQ PUSH2 0x1AD JUMPI DUP1 PUSH4 0xF0AAE6F EQ PUSH2 0x1E0 JUMPI DUP1 PUSH4 0x18B5E830 EQ PUSH2 0x1F5 JUMPI DUP1 PUSH4 0x287447C4 EQ PUSH2 0x1FF JUMPI DUP1 PUSH4 0x2B2CC6C4 EQ PUSH2 0x207 JUMPI DUP1 PUSH4 0x564093FC EQ PUSH2 0x21A JUMPI JUMPDEST PUSH1 0x0 DUP1 REVERT JUMPDEST PUSH2 0x1C0 PUSH2 0x1BB CALLDATASIZE PUSH1 0x4 PUSH2 0x1B3E JUMP JUMPDEST PUSH2 0x3AA JUMP JUMPDEST PUSH1 0x40 MLOAD PUSH2 0x1D7 SWAP12 SWAP11 SWAP10 SWAP9 SWAP8 SWAP7 SWAP6 SWAP5 SWAP4 SWAP3 SWAP2 SWAP1 PUSH2 0x1FFF JUMP JUMPDEST PUSH1 0x40 MLOAD DUP1 SWAP2 SUB SWAP1 RETURN JUMPDEST PUSH2 0x1E8 PUSH2 0x43A JUMP JUMPDEST PUSH1 0x40 MLOAD PUSH2 0x1D7 SWAP2 SWAP1 PUSH2 0x1FEB JUMP JUMPDEST PUSH2 0x1FD PUSH2 0x440 JUMP JUMPDEST STOP JUMPDEST PUSH2 0x1E8 PUSH2 0xAAA JUMP JUMPDEST PUSH2 0x1FD PUSH2 0x215 CALLDATASIZE PUSH1 0x4 PUSH2 0x1A7A JUMP JUMPDEST PUSH2 0xAB0 JUMP JUMPDEST PUSH2 0x1FD PUSH2 0x228 CALLDATASIZE PUSH1 0x4 PUSH2 0x1B56 JUMP JUMPDEST PUSH2 0xB34 JUMP JUMPDEST PUSH2 0x1FD PUSH2 0x23B CALLDATASIZE PUSH1 0x4 PUSH2 0x1B56 JUMP JUMPDEST PUSH2 0xBAF JUMP JUMPDEST PUSH2 0x1FD PUSH2 0x24E CALLDATASIZE PUSH1 0x4 PUSH2 0x1B56 JUMP JUMPDEST PUSH2 0xC85 JUMP JUMPDEST PUSH2 0x1FD PUSH2 0x261 CALLDATASIZE PUSH1 0x4 PUSH2 0x1AA8 JUMP JUMPDEST PUSH2 0xD05 JUMP JUMPDEST PUSH2 0x1C0 PUSH2 0xE06 JUMP JUMPDEST PUSH2 0x281 PUSH2 0x27C CALLDATASIZE PUSH1 0x4 PUSH2 0x1B56 JUMP JUMPDEST PUSH2 0xE72 JUMP JUMPDEST PUSH1 0x40 MLOAD PUSH2 0x1D7 SWAP2 SWAP1 PUSH2 0x1C0D JUMP JUMPDEST PUSH2 0x1FD PUSH2 0xEAA JUMP JUMPDEST PUSH2 0x1FD PUSH2 0x2A4 CALLDATASIZE PUSH1 0x4 PUSH2 0x1B56 JUMP JUMPDEST PUSH2 0xF4C JUMP JUMPDEST PUSH2 0x1FD PUSH2 0x2B7 CALLDATASIZE PUSH1 0x4 PUSH2 0x1B56 JUMP JUMPDEST PUSH2 0xFCC JUMP JUMPDEST PUSH2 0x1FD PUSH2 0x2CA CALLDATASIZE PUSH1 0x4 PUSH2 0x1B56 JUMP JUMPDEST PUSH2 0x1047 JUMP JUMPDEST PUSH2 0x281 PUSH2 0x10CC JUMP JUMPDEST PUSH2 0x1FD PUSH2 0x2E5 CALLDATASIZE PUSH1 0x4 PUSH2 0x1B56 JUMP JUMPDEST PUSH2 0x10DB JUMP JUMPDEST PUSH2 0x1FD PUSH2 0x2F8 CALLDATASIZE PUSH1 0x4 PUSH2 0x1A7A JUMP JUMPDEST PUSH2 0x11AE JUMP JUMPDEST PUSH2 0x1FD PUSH2 0x30B CALLDATASIZE PUSH1 0x4 PUSH2 0x1B56 JUMP JUMPDEST PUSH2 0x1228 JUMP JUMPDEST PUSH2 0x1FD PUSH2 0x31E CALLDATASIZE PUSH1 0x4 PUSH2 0x1B56 JUMP JUMPDEST PUSH2 0x12AD JUMP JUMPDEST PUSH2 0x1E8 PUSH2 0x148A JUMP JUMPDEST PUSH2 0x1FD PUSH2 0x339 CALLDATASIZE PUSH1 0x4 PUSH2 0x1B56 JUMP JUMPDEST PUSH2 0x14AE JUMP JUMPDEST PUSH2 0x1FD PUSH2 0x34C CALLDATASIZE PUSH1 0x4 PUSH2 0x1B16 JUMP JUMPDEST PUSH2 0x1529 JUMP JUMPDEST PUSH2 0x1E8 PUSH2 0x35F CALLDATASIZE PUSH1 0x4 PUSH2 0x1B56 JUMP JUMPDEST PUSH2 0x15A5 JUMP JUMPDEST PUSH2 0x377 PUSH2 0x372 CALLDATASIZE PUSH1 0x4 PUSH2 0x1B56 JUMP JUMPDEST PUSH2 0x15D7 JUMP JUMPDEST PUSH1 0x40 MLOAD PUSH2 0x1D7 SWAP2 SWAP1 PUSH2 0x1EEF JUMP JUMPDEST PUSH2 0x1FD PUSH2 0x392 CALLDATASIZE PUSH1 0x4 PUSH2 0x1A7A JUMP JUMPDEST PUSH2 0x1755 JUMP JUMPDEST PUSH2 0x281 PUSH2 0x3A5 CALLDATASIZE PUSH1 0x4 PUSH2 0x1B70 JUMP JUMPDEST PUSH2 0x184D JUMP JUMPDEST PUSH1 0x1 DUP2 DUP2 SLOAD DUP2 LT PUSH2 0x3BA JUMPI PUSH1 0x0 DUP1 REVERT JUMPDEST PUSH1 0x0 SWAP2 DUP3 MSTORE PUSH1 0x20 SWAP1 SWAP2 KECCAK256 PUSH1 0x5 SWAP1 SWAP2 MUL ADD DUP1 SLOAD PUSH1 0x2 DUP3 ADD SLOAD PUSH1 0x3 DUP4 ADD SLOAD PUSH1 0x4 SWAP1 SWAP4 ADD SLOAD PUSH1 0x1 PUSH1 0x1 PUSH1 0x40 SHL SUB DUP1 DUP5 AND SWAP6 POP PUSH1 0x1 PUSH1 0x40 SHL SWAP4 DUP5 SWAP1 DIV DUP2 AND SWAP5 DUP4 DUP3 AND SWAP5 DUP1 DUP6 DIV DUP4 AND SWAP5 PUSH1 0x1 PUSH1 0x80 SHL DUP2 DIV DUP5 AND SWAP5 PUSH1 0x1 PUSH1 0xC0 SHL SWAP2 DUP3 SWAP1 DIV DUP6 AND SWAP5 DUP5 DUP2 AND SWAP5 PUSH1 0x1 PUSH1 0x1 PUSH1 0xA0 SHL SUB SWAP5 SWAP1 DIV DUP5 AND SWAP4 DUP3 AND SWAP3 PUSH1 0x1 PUSH1 0xA0 SHL DUP4 DIV PUSH1 0xE0 SHL SWAP3 DIV AND DUP12 JUMP JUMPDEST PUSH1 0x1 SLOAD SWAP1 JUMP JUMPDEST PUSH2 0x448 PUSH2 0x18A6 JUMP JUMPDEST PUSH1 0x0 SLOAD PUSH1 0x1 PUSH1 0x1 PUSH1 0xA0 SHL SUB SWAP1 DUP2 AND SWAP2 AND EQ PUSH2 0x498 JUMPI PUSH1 0x40 DUP1 MLOAD PUSH3 0x461BCD PUSH1 0xE5 SHL DUP2 MSTORE PUSH1 0x20 PUSH1 0x4 DUP3 ADD DUP2 SWAP1 MSTORE PUSH1 0x24 DUP3 ADD MSTORE PUSH1 0x0 DUP1 MLOAD PUSH1 0x20 PUSH2 0x20AE DUP4 CODECOPY DUP2 MLOAD SWAP2 MSTORE PUSH1 0x44 DUP3 ADD MSTORE SWAP1 MLOAD SWAP1 DUP2 SWAP1 SUB PUSH1 0x64 ADD SWAP1 REVERT JUMPDEST PUSH1 0x1 SLOAD PUSH8 0xFFFFFFFFFFFFFFFE GT PUSH2 0x4CA JUMPI PUSH1 0x40 MLOAD PUSH3 0x461BCD PUSH1 0xE5 SHL DUP2 MSTORE PUSH1 0x4 ADD PUSH2 0x4C1 SWAP1 PUSH2 0x1C75 JUMP JUMPDEST PUSH1 0x40 MLOAD DUP1 SWAP2 SUB SWAP1 REVERT JUMPDEST PUSH1 0x1 DUP1 SLOAD PUSH1 0x0 SWAP2 SWAP1 PUSH1 0x0 NOT DUP2 ADD SWAP1 DUP2 LT PUSH2 0x4E0 JUMPI INVALID JUMPDEST PUSH1 0x0 SWAP2 DUP3 MSTORE PUSH1 0x20 SWAP2 DUP3 SWAP1 KECCAK256 PUSH1 0x40 DUP1 MLOAD PUSH2 0x180 DUP2 ADD DUP3 MSTORE PUSH1 0x5 SWAP1 SWAP4 MUL SWAP1 SWAP2 ADD DUP1 SLOAD PUSH1 0x1 PUSH1 0x1 PUSH1 0x40 SHL SUB DUP1 DUP3 AND DUP6 MSTORE PUSH1 0x1 PUSH1 0x40 SHL SWAP1 SWAP2 DIV AND DUP4 DUP6 ADD MSTORE PUSH1 0x1 DUP2 ADD DUP1 SLOAD DUP4 MLOAD DUP2 DUP8 MUL DUP2 ADD DUP8 ADD DUP6 MSTORE DUP2 DUP2 MSTORE SWAP5 SWAP6 SWAP3 SWAP5 SWAP4 DUP7 ADD SWAP4 SWAP3 DUP4 ADD DUP3 DUP3 DUP1 ISZERO PUSH2 0x570 JUMPI PUSH1 0x20 MUL DUP3 ADD SWAP2 SWAP1 PUSH1 0x0 MSTORE PUSH1 0x20 PUSH1 0x0 KECCAK256 SWAP1 JUMPDEST DUP2 SLOAD PUSH1 0x1 PUSH1 0x1 PUSH1 0xA0 SHL SUB AND DUP2 MSTORE PUSH1 0x1 SWAP1 SWAP2 ADD SWAP1 PUSH1 0x20 ADD DUP1 DUP4 GT PUSH2 0x552 JUMPI JUMPDEST POP POP POP SWAP2 DUP4 MSTORE POP POP PUSH1 0x2 DUP3 DUP2 ADD SLOAD PUSH1 0x1 PUSH1 0x1 PUSH1 0x40 SHL SUB DUP1 DUP3 AND PUSH1 0x20 DUP6 ADD MSTORE PUSH1 0x1 PUSH1 0x40 SHL DUP1 DUP4 DIV DUP3 AND PUSH1 0x40 DUP7 ADD MSTORE PUSH1 0x1 PUSH1 0x80 SHL DUP4 DIV DUP3 AND PUSH1 0x60 DUP7 ADD MSTORE PUSH1 0x1 PUSH1 0xC0 SHL SWAP3 DUP4 SWAP1 DIV DUP3 AND PUSH1 0x80 DUP7 ADD MSTORE PUSH1 0x3 DUP7 ADD SLOAD DUP1 DUP4 AND PUSH1 0xA0 DUP8 ADD MSTORE DUP2 SWAP1 DIV PUSH1 0x1 PUSH1 0x1 PUSH1 0xA0 SHL SUB SWAP1 DUP2 AND PUSH1 0xC0 DUP8 ADD MSTORE PUSH1 0x4 SWAP1 SWAP7 ADD SLOAD SWAP6 DUP7 AND PUSH1 0xE0 DUP1 DUP8 ADD SWAP2 SWAP1 SWAP2 MSTORE PUSH1 0x1 PUSH1 0xA0 SHL DUP8 DIV SWAP1 SHL PUSH1 0x1 PUSH1 0x1 PUSH1 0xE0 SHL SUB NOT AND PUSH2 0x100 DUP7 ADD MSTORE SWAP2 SWAP1 SWAP5 DIV DUP5 AND PUSH2 0x120 SWAP1 SWAP4 ADD SWAP3 SWAP1 SWAP3 MSTORE SLOAD SWAP3 SWAP4 POP PUSH32 0x0 DUP3 AND NUMBER ADD SWAP3 DIV AND GT PUSH2 0x65F JUMPI PUSH1 0x40 MLOAD PUSH3 0x461BCD PUSH1 0xE5 SHL DUP2 MSTORE PUSH1 0x4 ADD PUSH2 0x4C1 SWAP1 PUSH2 0x1D81 JUMP JUMPDEST PUSH1 0x80 DUP2 ADD MLOAD PUSH1 0x1 PUSH1 0x1 PUSH1 0x40 SHL SUB AND ISZERO PUSH2 0x6F2 JUMPI DUP1 MLOAD PUSH1 0x2 SLOAD PUSH1 0x1 PUSH1 0x1 PUSH1 0x40 SHL SUB SWAP2 DUP3 AND SWAP2 AND GT PUSH2 0x6A1 JUMPI PUSH1 0x40 MLOAD PUSH3 0x461BCD PUSH1 0xE5 SHL DUP2 MSTORE PUSH1 0x4 ADD PUSH2 0x4C1 SWAP1 PUSH2 0x1EA4 JUMP JUMPDEST DUP1 MLOAD PUSH1 0x2 SLOAD PUSH1 0x80 DUP4 ADD MLOAD PUSH1 0x20 DUP5 ADD MLOAD PUSH1 0x1 PUSH1 0x1 PUSH1 0x40 SHL SUB DUP1 DUP5 AND SWAP5 SWAP1 SWAP5 SUB SWAP4 SWAP2 DUP5 MUL ADD DUP2 AND PUSH1 0x1 PUSH1 0x40 SHL SWAP1 SWAP3 DIV AND EQ PUSH2 0x6EC JUMPI PUSH1 0x40 MLOAD PUSH3 0x461BCD PUSH1 0xE5 SHL DUP2 MSTORE PUSH1 0x4 ADD PUSH2 0x4C1 SWAP1 PUSH2 0x1E56 JUMP JUMPDEST POP PUSH2 0x721 JUMP JUMPDEST DUP1 MLOAD PUSH1 0x2 SLOAD PUSH1 0x1 PUSH1 0x1 PUSH1 0x40 SHL SUB SWAP1 DUP2 AND SWAP2 AND EQ PUSH2 0x721 JUMPI PUSH1 0x40 MLOAD PUSH3 0x461BCD PUSH1 0xE5 SHL DUP2 MSTORE PUSH1 0x4 ADD PUSH2 0x4C1 SWAP1 PUSH2 0x1CC5 JUMP JUMPDEST PUSH1 0x1 DUP1 SLOAD DUP1 DUP3 ADD DUP3 SSTORE PUSH1 0x0 SWAP2 SWAP1 SWAP2 MSTORE PUSH1 0x2 DUP1 SLOAD PUSH1 0x5 SWAP1 SWAP3 MUL PUSH32 0xB10E2D527612073B26EECDFD717E6A320CF44B4AFAC2B0732D9FCBE2B7FA0CF6 DUP2 ADD DUP1 SLOAD PUSH8 0xFFFFFFFFFFFFFFFF NOT AND PUSH1 0x1 PUSH1 0x1 PUSH1 0x40 SHL SUB SWAP5 DUP6 AND OR DUP1 DUP3 SSTORE DUP4 SLOAD PUSH1 0x1 PUSH1 0x40 SHL SWAP1 DUP2 SWAP1 DIV SWAP1 SWAP6 AND SWAP1 SWAP5 MUL PUSH8 0xFFFFFFFFFFFFFFFF PUSH1 0x40 SHL NOT SWAP1 SWAP5 AND SWAP4 SWAP1 SWAP4 OR DUP4 SSTORE PUSH1 0x3 DUP1 SLOAD SWAP3 SWAP4 SWAP3 PUSH2 0x7D3 SWAP3 PUSH32 0xB10E2D527612073B26EECDFD717E6A320CF44B4AFAC2B0732D9FCBE2B7FA0CF7 ADD SWAP2 SWAP1 PUSH2 0x1923 JUMP JUMPDEST POP PUSH1 0x2 DUP3 DUP2 ADD DUP1 SLOAD SWAP2 DUP4 ADD DUP1 SLOAD PUSH8 0xFFFFFFFFFFFFFFFF NOT SWAP1 DUP2 AND PUSH1 0x1 PUSH1 0x1 PUSH1 0x40 SHL SUB SWAP5 DUP6 AND OR DUP1 DUP4 SSTORE DUP4 SLOAD PUSH1 0x1 PUSH1 0x40 SHL SWAP1 DUP2 SWAP1 DIV DUP7 AND DUP2 MUL PUSH8 0xFFFFFFFFFFFFFFFF PUSH1 0x40 SHL NOT SWAP1 SWAP3 AND SWAP2 SWAP1 SWAP2 OR DUP1 DUP5 SSTORE DUP5 SLOAD PUSH1 0x1 PUSH1 0x80 SHL SWAP1 DUP2 SWAP1 DIV DUP8 AND MUL PUSH8 0xFFFFFFFFFFFFFFFF PUSH1 0x80 SHL NOT SWAP1 SWAP2 AND OR DUP1 DUP5 SSTORE SWAP4 SLOAD PUSH1 0x1 PUSH1 0xC0 SHL SWAP1 DUP2 SWAP1 DIV DUP7 AND DUP2 MUL PUSH1 0x1 PUSH1 0x1 PUSH1 0xC0 SHL SUB SWAP6 DUP7 AND OR SWAP1 SWAP4 SSTORE PUSH1 0x3 DUP1 DUP9 ADD DUP1 SLOAD SWAP2 DUP9 ADD DUP1 SLOAD SWAP1 SWAP5 AND SWAP2 DUP8 AND SWAP2 SWAP1 SWAP2 OR DUP1 DUP5 SSTORE SWAP1 SLOAD PUSH1 0x1 PUSH1 0x1 PUSH1 0xA0 SHL SUB SWAP1 DUP4 SWAP1 DIV DUP2 AND SWAP1 SWAP3 MUL PUSH1 0x1 PUSH1 0x40 SHL PUSH1 0x1 PUSH1 0xE0 SHL SUB NOT SWAP1 SWAP2 AND OR SWAP1 SWAP2 SSTORE PUSH1 0x4 SWAP6 DUP7 ADD DUP1 SLOAD SWAP7 SWAP1 SWAP6 ADD DUP1 SLOAD PUSH1 0x1 PUSH1 0x1 PUSH1 0xA0 SHL SUB NOT AND SWAP7 SWAP1 SWAP2 AND SWAP6 SWAP1 SWAP6 OR DUP1 DUP7 SSTORE DUP5 SLOAD PUSH4 0xFFFFFFFF PUSH1 0x1 PUSH1 0xA0 SHL SWAP2 DUP3 SWAP1 DIV AND MUL PUSH4 0xFFFFFFFF PUSH1 0xA0 SHL NOT SWAP1 SWAP2 AND OR DUP1 DUP7 SSTORE SWAP4 SLOAD DUP2 SWAP1 DIV SWAP1 SWAP3 AND SWAP1 SWAP2 MUL SWAP2 AND OR SWAP1 SSTORE PUSH2 0x8FD PUSH2 0x18AA JUMP JUMPDEST DUP1 MLOAD PUSH1 0x2 DUP1 SLOAD PUSH1 0x20 DUP1 DUP6 ADD MLOAD PUSH8 0xFFFFFFFFFFFFFFFF NOT SWAP1 SWAP3 AND PUSH1 0x1 PUSH1 0x1 PUSH1 0x40 SHL SUB SWAP5 DUP6 AND OR PUSH8 0xFFFFFFFFFFFFFFFF PUSH1 0x40 SHL NOT AND PUSH1 0x1 PUSH1 0x40 SHL SWAP5 SWAP1 SWAP3 AND SWAP4 SWAP1 SWAP4 MUL OR DUP2 SSTORE PUSH1 0x40 DUP4 ADD MLOAD DUP1 MLOAD SWAP2 SWAP3 PUSH2 0x959 SWAP3 PUSH1 0x3 SWAP3 SWAP1 SWAP2 ADD SWAP1 PUSH2 0x1973 JUMP JUMPDEST POP PUSH1 0x60 DUP3 ADD MLOAD PUSH1 0x2 DUP3 ADD DUP1 SLOAD PUSH1 0x80 DUP6 ADD MLOAD PUSH1 0xA0 DUP7 ADD MLOAD PUSH1 0xC0 DUP8 ADD MLOAD PUSH8 0xFFFFFFFFFFFFFFFF NOT SWAP4 DUP5 AND PUSH1 0x1 PUSH1 0x1 PUSH1 0x40 SHL SUB SWAP7 DUP8 AND OR PUSH8 0xFFFFFFFFFFFFFFFF PUSH1 0x40 SHL NOT AND PUSH1 0x1 PUSH1 0x40 SHL SWAP4 DUP8 AND DUP5 MUL OR PUSH8 0xFFFFFFFFFFFFFFFF PUSH1 0x80 SHL NOT AND PUSH1 0x1 PUSH1 0x80 SHL SWAP3 DUP8 AND SWAP3 SWAP1 SWAP3 MUL SWAP2 SWAP1 SWAP2 OR PUSH1 0x1 PUSH1 0x1 PUSH1 0xC0 SHL SUB SWAP1 DUP2 AND PUSH1 0x1 PUSH1 0xC0 SHL SWAP3 DUP8 AND DUP4 MUL OR SWAP1 SWAP5 SSTORE PUSH1 0xE0 DUP1 DUP9 ADD MLOAD PUSH1 0x3 DUP9 ADD DUP1 SLOAD PUSH2 0x100 DUP12 ADD MLOAD SWAP7 AND SWAP2 DUP9 AND SWAP2 SWAP1 SWAP2 OR PUSH1 0x1 PUSH1 0x40 SHL PUSH1 0x1 PUSH1 0xE0 SHL SUB NOT AND PUSH1 0x1 PUSH1 0x1 PUSH1 0xA0 SHL SUB SWAP6 DUP7 AND SWAP1 SWAP5 MUL SWAP4 SWAP1 SWAP4 OR SWAP1 SWAP3 SSTORE PUSH2 0x120 DUP8 ADD MLOAD PUSH1 0x4 SWAP1 SWAP7 ADD DUP1 SLOAD PUSH2 0x140 DUP10 ADD MLOAD PUSH2 0x160 SWAP1 SWAP10 ADD MLOAD PUSH1 0x1 PUSH1 0x1 PUSH1 0xA0 SHL SUB NOT SWAP1 SWAP2 AND SWAP8 SWAP1 SWAP5 AND SWAP7 SWAP1 SWAP7 OR PUSH4 0xFFFFFFFF PUSH1 0xA0 SHL NOT AND PUSH1 0x1 PUSH1 0xA0 SHL SWAP8 SWAP1 SWAP3 SHR SWAP7 SWAP1 SWAP7 MUL OR SWAP1 SWAP2 AND SWAP2 AND SWAP1 SWAP3 MUL SWAP2 SWAP1 SWAP2 OR SWAP1 SSTORE PUSH1 0x1 SLOAD PUSH1 0x40 MLOAD PUSH32 0x38889EF980014448A73B6E5DC5579BA1A4B7BD213A586B3F4832351448C48AE6 SWAP2 PUSH2 0xA9F SWAP2 PUSH2 0x1FEB JUMP JUMPDEST PUSH1 0x40 MLOAD DUP1 SWAP2 SUB SWAP1 LOG1 POP JUMP JUMPDEST PUSH1 0x3 SLOAD SWAP1 JUMP JUMPDEST PUSH2 0xAB8 PUSH2 0x18A6 JUMP JUMPDEST PUSH1 0x0 SLOAD PUSH1 0x1 PUSH1 0x1 PUSH1 0xA0 SHL SUB SWAP1 DUP2 AND SWAP2 AND EQ PUSH2 0xB08 JUMPI PUSH1 0x40 DUP1 MLOAD PUSH3 0x461BCD PUSH1 0xE5 SHL DUP2 MSTORE PUSH1 0x20 PUSH1 0x4 DUP3 ADD DUP2 SWAP1 MSTORE PUSH1 0x24 DUP3 ADD MSTORE PUSH1 0x0 DUP1 MLOAD PUSH1 0x20 PUSH2 0x20AE DUP4 CODECOPY DUP2 MLOAD SWAP2 MSTORE PUSH1 0x44 DUP3 ADD MSTORE SWAP1 MLOAD SWAP1 DUP2 SWAP1 SUB PUSH1 0x64 ADD SWAP1 REVERT JUMPDEST PUSH1 0x5 DUP1 SLOAD PUSH1 0x1 PUSH1 0x1 PUSH1 0xA0 SHL SUB SWAP1 SWAP3 AND PUSH1 0x1 PUSH1 0x40 SHL MUL PUSH1 0x1 PUSH1 0x40 SHL PUSH1 0x1 PUSH1 0xE0 SHL SUB NOT SWAP1 SWAP3 AND SWAP2 SWAP1 SWAP2 OR SWAP1 SSTORE JUMP JUMPDEST PUSH2 0xB3C PUSH2 0x18A6 JUMP JUMPDEST PUSH1 0x0 SLOAD PUSH1 0x1 PUSH1 0x1 PUSH1 0xA0 SHL SUB SWAP1 DUP2 AND SWAP2 AND EQ PUSH2 0xB8C JUMPI PUSH1 0x40 DUP1 MLOAD PUSH3 0x461BCD PUSH1 0xE5 SHL DUP2 MSTORE PUSH1 0x20 PUSH1 0x4 DUP3 ADD DUP2 SWAP1 MSTORE PUSH1 0x24 DUP3 ADD MSTORE PUSH1 0x0 DUP1 MLOAD PUSH1 0x20 PUSH2 0x20AE DUP4 CODECOPY DUP2 MLOAD SWAP2 MSTORE PUSH1 0x44 DUP3 ADD MSTORE SWAP1 MLOAD SWAP1 DUP2 SWAP1 SUB PUSH1 0x64 ADD SWAP1 REVERT JUMPDEST PUSH1 0x5 DUP1 SLOAD PUSH8 0xFFFFFFFFFFFFFFFF NOT AND PUSH1 0x1 PUSH1 0x1 PUSH1 0x40 SHL SUB SWAP3 SWAP1 SWAP3 AND SWAP2 SWAP1 SWAP2 OR SWAP1 SSTORE JUMP JUMPDEST PUSH2 0xBB7 PUSH2 0x18A6 JUMP JUMPDEST PUSH1 0x0 SLOAD PUSH1 0x1 PUSH1 0x1 PUSH1 0xA0 SHL SUB SWAP1 DUP2 AND SWAP2 AND EQ PUSH2 0xC07 JUMPI PUSH1 0x40 DUP1 MLOAD PUSH3 0x461BCD PUSH1 0xE5 SHL DUP2 MSTORE PUSH1 0x20 PUSH1 0x4 DUP3 ADD DUP2 SWAP1 MSTORE PUSH1 0x24 DUP3 ADD MSTORE PUSH1 0x0 DUP1 MLOAD PUSH1 0x20 PUSH2 0x20AE DUP4 CODECOPY DUP2 MLOAD SWAP2 MSTORE PUSH1 0x44 DUP3 ADD MSTORE SWAP1 MLOAD SWAP1 DUP2 SWAP1 SUB PUSH1 0x64 ADD SWAP1 REVERT JUMPDEST PUSH32 0x0 PUSH1 0x1 PUSH1 0x1 PUSH1 0x40 SHL SUB AND DUP2 PUSH1 0x1 PUSH1 0x1 PUSH1 0x40 SHL SUB AND LT PUSH2 0xC58 JUMPI PUSH1 0x40 MLOAD PUSH3 0x461BCD PUSH1 0xE5 SHL DUP2 MSTORE PUSH1 0x4 ADD PUSH2 0x4C1 SWAP1 PUSH2 0x1C21 JUMP JUMPDEST PUSH1 0x4 DUP1 SLOAD PUSH1 0x1 PUSH1 0x1 PUSH1 0x40 SHL SUB SWAP1 SWAP3 AND PUSH1 0x1 PUSH1 0x40 SHL MUL PUSH8 0xFFFFFFFFFFFFFFFF PUSH1 0x40 SHL NOT SWAP1 SWAP3 AND SWAP2 SWAP1 SWAP2 OR SWAP1 SSTORE JUMP JUMPDEST PUSH2 0xC8D PUSH2 0x18A6 JUMP JUMPDEST PUSH1 0x0 SLOAD PUSH1 0x1 PUSH1 0x1 PUSH1 0xA0 SHL SUB SWAP1 DUP2 AND SWAP2 AND EQ PUSH2 0xCDD JUMPI PUSH1 0x40 DUP1 MLOAD PUSH3 0x461BCD PUSH1 0xE5 SHL DUP2 MSTORE PUSH1 0x20 PUSH1 0x4 DUP3 ADD DUP2 SWAP1 MSTORE PUSH1 0x24 DUP3 ADD MSTORE PUSH1 0x0 DUP1 MLOAD PUSH1 0x20 PUSH2 0x20AE DUP4 CODECOPY DUP2 MLOAD SWAP2 MSTORE PUSH1 0x44 DUP3 ADD MSTORE SWAP1 MLOAD SWAP1 DUP2 SWAP1 SUB PUSH1 0x64 ADD SWAP1 REVERT JUMPDEST PUSH1 0x4 DUP1 SLOAD PUSH1 0x1 PUSH1 0x1 PUSH1 0x40 SHL SUB SWAP1 SWAP3 AND PUSH1 0x1 PUSH1 0xC0 SHL MUL PUSH1 0x1 PUSH1 0x1 PUSH1 0xC0 SHL SUB SWAP1 SWAP3 AND SWAP2 SWAP1 SWAP2 OR SWAP1 SSTORE JUMP JUMPDEST PUSH2 0xD0D PUSH2 0x18A6 JUMP JUMPDEST PUSH1 0x0 SLOAD PUSH1 0x1 PUSH1 0x1 PUSH1 0xA0 SHL SUB SWAP1 DUP2 AND SWAP2 AND EQ PUSH2 0xD5D JUMPI PUSH1 0x40 DUP1 MLOAD PUSH3 0x461BCD PUSH1 0xE5 SHL DUP2 MSTORE PUSH1 0x20 PUSH1 0x4 DUP3 ADD DUP2 SWAP1 MSTORE PUSH1 0x24 DUP3 ADD MSTORE PUSH1 0x0 DUP1 MLOAD PUSH1 0x20 PUSH2 0x20AE DUP4 CODECOPY DUP2 MLOAD SWAP2 MSTORE PUSH1 0x44 DUP3 ADD MSTORE SWAP1 MLOAD SWAP1 DUP2 SWAP1 SUB PUSH1 0x64 ADD SWAP1 REVERT JUMPDEST PUSH1 0x3 SLOAD PUSH1 0x1 PUSH1 0x1 PUSH1 0x40 SHL SUB DUP3 SWAP1 SUB LT ISZERO PUSH2 0xD89 JUMPI PUSH1 0x40 MLOAD PUSH3 0x461BCD PUSH1 0xE5 SHL DUP2 MSTORE PUSH1 0x4 ADD PUSH2 0x4C1 SWAP1 PUSH2 0x1D31 JUMP JUMPDEST PUSH1 0x0 JUMPDEST PUSH1 0x1 PUSH1 0x1 PUSH1 0x40 SHL SUB DUP2 AND DUP3 GT ISZERO PUSH2 0xE01 JUMPI PUSH1 0x3 DUP4 DUP4 PUSH1 0x1 PUSH1 0x1 PUSH1 0x40 SHL SUB DUP5 AND DUP2 DUP2 LT PUSH2 0xDB4 JUMPI INVALID JUMPDEST SWAP1 POP PUSH1 0x20 MUL ADD PUSH1 0x20 DUP2 ADD SWAP1 PUSH2 0xDC9 SWAP2 SWAP1 PUSH2 0x1A7A JUMP JUMPDEST DUP2 SLOAD PUSH1 0x1 DUP1 DUP3 ADD DUP5 SSTORE PUSH1 0x0 SWAP4 DUP5 MSTORE PUSH1 0x20 SWAP1 SWAP4 KECCAK256 ADD DUP1 SLOAD PUSH1 0x1 PUSH1 0x1 PUSH1 0xA0 SHL SUB NOT AND PUSH1 0x1 PUSH1 0x1 PUSH1 0xA0 SHL SUB SWAP3 SWAP1 SWAP3 AND SWAP2 SWAP1 SWAP2 OR SWAP1 SSTORE ADD PUSH2 0xD8C JUMP JUMPDEST POP POP POP JUMP JUMPDEST PUSH1 0x2 SLOAD PUSH1 0x4 SLOAD PUSH1 0x5 SLOAD PUSH1 0x6 SLOAD PUSH1 0x1 PUSH1 0x1 PUSH1 0x40 SHL SUB DUP1 DUP6 AND SWAP5 PUSH1 0x1 PUSH1 0x40 SHL SWAP1 DUP2 SWAP1 DIV DUP3 AND SWAP5 DUP3 DUP2 AND SWAP5 DUP3 DUP3 DIV DUP5 AND SWAP5 PUSH1 0x1 PUSH1 0x80 SHL DUP4 DIV DUP6 AND SWAP5 PUSH1 0x1 PUSH1 0xC0 SHL SWAP4 DUP5 SWAP1 DIV DUP2 AND SWAP5 DUP2 DUP5 AND SWAP5 SWAP4 DIV PUSH1 0x1 PUSH1 0x1 PUSH1 0xA0 SHL SUB SWAP1 DUP2 AND SWAP4 SWAP1 DUP4 AND SWAP3 PUSH1 0x1 PUSH1 0xA0 SHL DUP2 DIV PUSH1 0xE0 SHL SWAP3 SWAP2 SWAP1 DIV AND DUP12 JUMP JUMPDEST PUSH1 0x0 PUSH1 0x2 PUSH1 0x1 ADD DUP3 PUSH1 0x1 PUSH1 0x1 PUSH1 0x40 SHL SUB AND DUP2 SLOAD DUP2 LT PUSH2 0xE8D JUMPI INVALID JUMPDEST PUSH1 0x0 SWAP2 DUP3 MSTORE PUSH1 0x20 SWAP1 SWAP2 KECCAK256 ADD SLOAD PUSH1 0x1 PUSH1 0x1 PUSH1 0xA0 SHL SUB AND SWAP1 POP JUMPDEST SWAP2 SWAP1 POP JUMP JUMPDEST PUSH2 0xEB2 PUSH2 0x18A6 JUMP JUMPDEST PUSH1 0x0 SLOAD PUSH1 0x1 PUSH1 0x1 PUSH1 0xA0 SHL SUB SWAP1 DUP2 AND SWAP2 AND EQ PUSH2 0xF02 JUMPI PUSH1 0x40 DUP1 MLOAD PUSH3 0x461BCD PUSH1 0xE5 SHL DUP2 MSTORE PUSH1 0x20 PUSH1 0x4 DUP3 ADD DUP2 SWAP1 MSTORE PUSH1 0x24 DUP3 ADD MSTORE PUSH1 0x0 DUP1 MLOAD PUSH1 0x20 PUSH2 0x20AE DUP4 CODECOPY DUP2 MLOAD SWAP2 MSTORE PUSH1 0x44 DUP3 ADD MSTORE SWAP1 MLOAD SWAP1 DUP2 SWAP1 SUB PUSH1 0x64 ADD SWAP1 REVERT JUMPDEST PUSH1 0x0 DUP1 SLOAD PUSH1 0x40 MLOAD PUSH1 0x1 PUSH1 0x1 PUSH1 0xA0 SHL SUB SWAP1 SWAP2 AND SWAP1 PUSH32 0x8BE0079C531659141344CD1FD0A4F28419497F9722A3DAAFE3B4186F6B6457E0 SWAP1 DUP4 SWAP1 LOG3 PUSH1 0x0 DUP1 SLOAD PUSH1 0x1 PUSH1 0x1 PUSH1 0xA0 SHL SUB NOT AND SWAP1 SSTORE JUMP JUMPDEST PUSH2 0xF54 PUSH2 0x18A6 JUMP JUMPDEST PUSH1 0x0 SLOAD PUSH1 0x1 PUSH1 0x1 PUSH1 0xA0 SHL SUB SWAP1 DUP2 AND SWAP2 AND EQ PUSH2 0xFA4 JUMPI PUSH1 0x40 DUP1 MLOAD PUSH3 0x461BCD PUSH1 0xE5 SHL DUP2 MSTORE PUSH1 0x20 PUSH1 0x4 DUP3 ADD DUP2 SWAP1 MSTORE PUSH1 0x24 DUP3 ADD MSTORE PUSH1 0x0 DUP1 MLOAD PUSH1 0x20 PUSH2 0x20AE DUP4 CODECOPY DUP2 MLOAD SWAP2 MSTORE PUSH1 0x44 DUP3 ADD MSTORE SWAP1 MLOAD SWAP1 DUP2 SWAP1 SUB PUSH1 0x64 ADD SWAP1 REVERT JUMPDEST PUSH1 0x6 DUP1 SLOAD PUSH1 0x1 PUSH1 0x1 PUSH1 0x40 SHL SUB SWAP1 SWAP3 AND PUSH1 0x1 PUSH1 0xC0 SHL MUL PUSH1 0x1 PUSH1 0x1 PUSH1 0xC0 SHL SUB SWAP1 SWAP3 AND SWAP2 SWAP1 SWAP2 OR SWAP1 SSTORE JUMP JUMPDEST PUSH2 0xFD4 PUSH2 0x18A6 JUMP JUMPDEST PUSH1 0x0 SLOAD PUSH1 0x1 PUSH1 0x1 PUSH1 0xA0 SHL SUB SWAP1 DUP2 AND SWAP2 AND EQ PUSH2 0x1024 JUMPI PUSH1 0x40 DUP1 MLOAD PUSH3 0x461BCD PUSH1 0xE5 SHL DUP2 MSTORE PUSH1 0x20 PUSH1 0x4 DUP3 ADD DUP2 SWAP1 MSTORE PUSH1 0x24 DUP3 ADD MSTORE PUSH1 0x0 DUP1 MLOAD PUSH1 0x20 PUSH2 0x20AE DUP4 CODECOPY DUP2 MLOAD SWAP2 MSTORE PUSH1 0x44 DUP3 ADD MSTORE SWAP1 MLOAD SWAP1 DUP2 SWAP1 SUB PUSH1 0x64 ADD SWAP1 REVERT JUMPDEST PUSH1 0x4 DUP1 SLOAD PUSH8 0xFFFFFFFFFFFFFFFF NOT AND PUSH1 0x1 PUSH1 0x1 PUSH1 0x40 SHL SUB SWAP3 SWAP1 SWAP3 AND SWAP2 SWAP1 SWAP2 OR SWAP1 SSTORE JUMP JUMPDEST PUSH2 0x104F PUSH2 0x18A6 JUMP JUMPDEST PUSH1 0x0 SLOAD PUSH1 0x1 PUSH1 0x1 PUSH1 0xA0 SHL SUB SWAP1 DUP2 AND SWAP2 AND EQ PUSH2 0x109F JUMPI PUSH1 0x40 DUP1 MLOAD PUSH3 0x461BCD PUSH1 0xE5 SHL DUP2 MSTORE PUSH1 0x20 PUSH1 0x4 DUP3 ADD DUP2 SWAP1 MSTORE PUSH1 0x24 DUP3 ADD MSTORE PUSH1 0x0 DUP1 MLOAD PUSH1 0x20 PUSH2 0x20AE DUP4 CODECOPY DUP2 MLOAD SWAP2 MSTORE PUSH1 0x44 DUP3 ADD MSTORE SWAP1 MLOAD SWAP1 DUP2 SWAP1 SUB PUSH1 0x64 ADD SWAP1 REVERT JUMPDEST PUSH1 0x2 DUP1 SLOAD PUSH1 0x1 PUSH1 0x1 PUSH1 0x40 SHL SUB SWAP1 SWAP3 AND PUSH1 0x1 PUSH1 0x40 SHL MUL PUSH8 0xFFFFFFFFFFFFFFFF PUSH1 0x40 SHL NOT SWAP1 SWAP3 AND SWAP2 SWAP1 SWAP2 OR SWAP1 SSTORE JUMP JUMPDEST PUSH1 0x0 SLOAD PUSH1 0x1 PUSH1 0x1 PUSH1 0xA0 SHL SUB AND SWAP1 JUMP JUMPDEST PUSH2 0x10E3 PUSH2 0x18A6 JUMP JUMPDEST PUSH1 0x0 SLOAD PUSH1 0x1 PUSH1 0x1 PUSH1 0xA0 SHL SUB SWAP1 DUP2 AND SWAP2 AND EQ PUSH2 0x1133 JUMPI PUSH1 0x40 DUP1 MLOAD PUSH3 0x461BCD PUSH1 0xE5 SHL DUP2 MSTORE PUSH1 0x20 PUSH1 0x4 DUP3 ADD DUP2 SWAP1 MSTORE PUSH1 0x24 DUP3 ADD MSTORE PUSH1 0x0 DUP1 MLOAD PUSH1 0x20 PUSH2 0x20AE DUP4 CODECOPY DUP2 MLOAD SWAP2 MSTORE PUSH1 0x44 DUP3 ADD MSTORE SWAP1 MLOAD SWAP1 DUP2 SWAP1 SUB PUSH1 0x64 ADD SWAP1 REVERT JUMPDEST PUSH1 0x3 SLOAD PUSH1 0x1 PUSH1 0x1 PUSH1 0x40 SHL SUB DUP3 AND DUP2 LT PUSH2 0x119E JUMPI PUSH1 0x0 JUMPDEST DUP3 PUSH1 0x1 PUSH1 0x1 PUSH1 0x40 SHL SUB AND DUP2 PUSH1 0x1 PUSH1 0x1 PUSH1 0x40 SHL SUB AND LT ISZERO PUSH2 0x1198 JUMPI PUSH1 0x3 DUP1 SLOAD DUP1 PUSH2 0x116E JUMPI INVALID JUMPDEST PUSH1 0x0 DUP3 DUP2 MSTORE PUSH1 0x20 SWAP1 KECCAK256 DUP2 ADD PUSH1 0x0 NOT SWAP1 DUP2 ADD DUP1 SLOAD PUSH1 0x1 PUSH1 0x1 PUSH1 0xA0 SHL SUB NOT AND SWAP1 SSTORE ADD SWAP1 SSTORE PUSH1 0x1 ADD PUSH2 0x1149 JUMP JUMPDEST POP PUSH2 0x11AA JUMP JUMPDEST PUSH2 0x11AA PUSH1 0x3 PUSH1 0x0 PUSH2 0x19C8 JUMP JUMPDEST POP POP JUMP JUMPDEST PUSH2 0x11B6 PUSH2 0x18A6 JUMP JUMPDEST PUSH1 0x0 SLOAD PUSH1 0x1 PUSH1 0x1 PUSH1 0xA0 SHL SUB SWAP1 DUP2 AND SWAP2 AND EQ PUSH2 0x1206 JUMPI PUSH1 0x40 DUP1 MLOAD PUSH3 0x461BCD PUSH1 0xE5 SHL DUP2 MSTORE PUSH1 0x20 PUSH1 0x4 DUP3 ADD DUP2 SWAP1 MSTORE PUSH1 0x24 DUP3 ADD MSTORE PUSH1 0x0 DUP1 MLOAD PUSH1 0x20 PUSH2 0x20AE DUP4 CODECOPY DUP2 MLOAD SWAP2 MSTORE PUSH1 0x44 DUP3 ADD MSTORE SWAP1 MLOAD SWAP1 DUP2 SWAP1 SUB PUSH1 0x64 ADD SWAP1 REVERT JUMPDEST PUSH1 0x6 DUP1 SLOAD PUSH1 0x1 PUSH1 0x1 PUSH1 0xA0 SHL SUB NOT AND PUSH1 0x1 PUSH1 0x1 PUSH1 0xA0 SHL SUB SWAP3 SWAP1 SWAP3 AND SWAP2 SWAP1 SWAP2 OR SWAP1 SSTORE JUMP JUMPDEST PUSH2 0x1230 PUSH2 0x18A6 JUMP JUMPDEST PUSH1 0x0 SLOAD PUSH1 0x1 PUSH1 0x1 PUSH1 0xA0 SHL SUB SWAP1 DUP2 AND SWAP2 AND EQ PUSH2 0x1280 JUMPI PUSH1 0x40 DUP1 MLOAD PUSH3 0x461BCD PUSH1 0xE5 SHL DUP2 MSTORE PUSH1 0x20 PUSH1 0x4 DUP3 ADD DUP2 SWAP1 MSTORE PUSH1 0x24 DUP3 ADD MSTORE PUSH1 0x0 DUP1 MLOAD PUSH1 0x20 PUSH2 0x20AE DUP4 CODECOPY DUP2 MLOAD SWAP2 MSTORE PUSH1 0x44 DUP3 ADD MSTORE SWAP1 MLOAD SWAP1 DUP2 SWAP1 SUB PUSH1 0x64 ADD SWAP1 REVERT JUMPDEST PUSH1 0x4 DUP1 SLOAD PUSH1 0x1 PUSH1 0x1 PUSH1 0x40 SHL SUB SWAP1 SWAP3 AND PUSH1 0x1 PUSH1 0x80 SHL MUL PUSH8 0xFFFFFFFFFFFFFFFF PUSH1 0x80 SHL NOT SWAP1 SWAP3 AND SWAP2 SWAP1 SWAP2 OR SWAP1 SSTORE JUMP JUMPDEST PUSH2 0x12B5 PUSH2 0x18A6 JUMP JUMPDEST PUSH1 0x0 SLOAD PUSH1 0x1 PUSH1 0x1 PUSH1 0xA0 SHL SUB SWAP1 DUP2 AND SWAP2 AND EQ PUSH2 0x1305 JUMPI PUSH1 0x40 DUP1 MLOAD PUSH3 0x461BCD PUSH1 0xE5 SHL DUP2 MSTORE PUSH1 0x20 PUSH1 0x4 DUP3 ADD DUP2 SWAP1 MSTORE PUSH1 0x24 DUP3 ADD MSTORE PUSH1 0x0 DUP1 MLOAD PUSH1 0x20 PUSH2 0x20AE DUP4 CODECOPY DUP2 MLOAD SWAP2 MSTORE PUSH1 0x44 DUP3 ADD MSTORE SWAP1 MLOAD SWAP1 DUP2 SWAP1 SUB PUSH1 0x64 ADD SWAP1 REVERT JUMPDEST PUSH32 0x0 PUSH1 0x1 PUSH1 0x1 PUSH1 0x40 SHL SUB AND NUMBER ADD DUP2 PUSH1 0x1 PUSH1 0x1 PUSH1 0x40 SHL SUB AND GT PUSH2 0x1358 JUMPI PUSH1 0x40 MLOAD PUSH3 0x461BCD PUSH1 0xE5 SHL DUP2 MSTORE PUSH1 0x4 ADD PUSH2 0x4C1 SWAP1 PUSH2 0x1E0C JUMP JUMPDEST PUSH1 0x1 SLOAD PUSH1 0x0 NOT DUP2 ADD JUMPDEST DUP1 ISZERO PUSH2 0x1422 JUMPI PUSH1 0x0 PUSH1 0x1 DUP3 DUP2 SLOAD DUP2 LT PUSH2 0x1376 JUMPI INVALID JUMPDEST PUSH1 0x0 SWAP2 DUP3 MSTORE PUSH1 0x20 SWAP1 SWAP2 KECCAK256 PUSH1 0x5 SWAP1 SWAP2 MUL ADD DUP1 SLOAD SWAP1 SWAP2 POP PUSH1 0x1 PUSH1 0x1 PUSH1 0x40 SHL SUB DUP1 DUP7 AND PUSH1 0x1 PUSH1 0x40 SHL SWAP1 SWAP3 DIV AND LT PUSH2 0x1412 JUMPI PUSH1 0x1 DUP1 SLOAD DUP1 PUSH2 0x13AF JUMPI INVALID JUMPDEST PUSH1 0x0 DUP3 DUP2 MSTORE PUSH1 0x20 DUP2 KECCAK256 PUSH1 0x5 PUSH1 0x0 NOT SWAP1 SWAP4 ADD SWAP3 DUP4 MUL ADD DUP1 SLOAD PUSH16 0xFFFFFFFFFFFFFFFFFFFFFFFFFFFFFFFF NOT AND DUP2 SSTORE SWAP1 PUSH2 0x13E9 PUSH1 0x1 DUP4 ADD DUP3 PUSH2 0x19C8 JUMP JUMPDEST POP PUSH1 0x0 PUSH1 0x2 DUP3 ADD DUP2 SWAP1 SSTORE PUSH1 0x3 DUP3 ADD DUP1 SLOAD PUSH1 0x1 PUSH1 0x1 PUSH1 0xE0 SHL SUB NOT AND SWAP1 SSTORE PUSH1 0x4 SWAP1 SWAP2 ADD SSTORE SWAP1 SSTORE PUSH2 0x1418 JUMP JUMPDEST POP PUSH2 0x1422 JUMP JUMPDEST POP PUSH1 0x0 NOT ADD PUSH2 0x1361 JUMP JUMPDEST POP PUSH1 0x1 SLOAD PUSH1 0x1 PUSH1 0x1 PUSH1 0x40 SHL SUB DUP3 AND GT PUSH2 0x144D JUMPI PUSH1 0x40 MLOAD PUSH3 0x461BCD PUSH1 0xE5 SHL DUP2 MSTORE PUSH1 0x4 ADD PUSH2 0x4C1 SWAP1 PUSH2 0x1DC6 JUMP JUMPDEST PUSH1 0x1 SLOAD PUSH1 0x40 MLOAD PUSH32 0x202ADAC5E4F5FA65A6E6EC3AFC99DA8986C020C2799F4E0AEE50552A05A0BFDF SWAP2 PUSH2 0x147E SWAP2 PUSH2 0x1FEB JUMP JUMPDEST PUSH1 0x40 MLOAD DUP1 SWAP2 SUB SWAP1 LOG1 POP POP JUMP JUMPDEST PUSH32 0x0 DUP2 JUMP JUMPDEST PUSH2 0x14B6 PUSH2 0x18A6 JUMP JUMPDEST PUSH1 0x0 SLOAD PUSH1 0x1 PUSH1 0x1 PUSH1 0xA0 SHL SUB SWAP1 DUP2 AND SWAP2 AND EQ PUSH2 0x1506 JUMPI PUSH1 0x40 DUP1 MLOAD PUSH3 0x461BCD PUSH1 0xE5 SHL DUP2 MSTORE PUSH1 0x20 PUSH1 0x4 DUP3 ADD DUP2 SWAP1 MSTORE PUSH1 0x24 DUP3 ADD MSTORE PUSH1 0x0 DUP1 MLOAD PUSH1 0x20 PUSH2 0x20AE DUP4 CODECOPY DUP2 MLOAD SWAP2 MSTORE PUSH1 0x44 DUP3 ADD MSTORE SWAP1 MLOAD SWAP1 DUP2 SWAP1 SUB PUSH1 0x64 ADD SWAP1 REVERT JUMPDEST PUSH1 0x2 DUP1 SLOAD PUSH8 0xFFFFFFFFFFFFFFFF NOT AND PUSH1 0x1 PUSH1 0x1 PUSH1 0x40 SHL SUB SWAP3 SWAP1 SWAP3 AND SWAP2 SWAP1 SWAP2 OR SWAP1 SSTORE JUMP JUMPDEST PUSH2 0x1531 PUSH2 0x18A6 JUMP JUMPDEST PUSH1 0x0 SLOAD PUSH1 0x1 PUSH1 0x1 PUSH1 0xA0 SHL SUB SWAP1 DUP2 AND SWAP2 AND EQ PUSH2 0x1581 JUMPI PUSH1 0x40 DUP1 MLOAD PUSH3 0x461BCD PUSH1 0xE5 SHL DUP2 MSTORE PUSH1 0x20 PUSH1 0x4 DUP3 ADD DUP2 SWAP1 MSTORE PUSH1 0x24 DUP3 ADD MSTORE PUSH1 0x0 DUP1 MLOAD PUSH1 0x20 PUSH2 0x20AE DUP4 CODECOPY DUP2 MLOAD SWAP2 MSTORE PUSH1 0x44 DUP3 ADD MSTORE SWAP1 MLOAD SWAP1 DUP2 SWAP1 SUB PUSH1 0x64 ADD SWAP1 REVERT JUMPDEST PUSH1 0x6 DUP1 SLOAD PUSH1 0xE0 SWAP3 SWAP1 SWAP3 SHR PUSH1 0x1 PUSH1 0xA0 SHL MUL PUSH4 0xFFFFFFFF PUSH1 0xA0 SHL NOT SWAP1 SWAP3 AND SWAP2 SWAP1 SWAP2 OR SWAP1 SSTORE JUMP JUMPDEST PUSH1 0x0 PUSH1 0x1 DUP3 PUSH1 0x1 PUSH1 0x1 PUSH1 0x40 SHL SUB AND DUP2 SLOAD DUP2 LT PUSH2 0x15BD JUMPI INVALID JUMPDEST PUSH1 0x0 SWAP2 DUP3 MSTORE PUSH1 0x20 SWAP1 SWAP2 KECCAK256 PUSH1 0x1 PUSH1 0x5 SWAP1 SWAP3 MUL ADD ADD SLOAD SWAP3 SWAP2 POP POP JUMP JUMPDEST PUSH2 0x15DF PUSH2 0x19E9 JUMP JUMPDEST PUSH1 0x1 SLOAD PUSH1 0x0 NOT ADD JUMPDEST PUSH1 0x0 PUSH1 0x1 DUP3 DUP2 SLOAD DUP2 LT PUSH2 0x15F6 JUMPI INVALID JUMPDEST PUSH1 0x0 SWAP2 DUP3 MSTORE PUSH1 0x20 SWAP1 SWAP2 KECCAK256 PUSH1 0x5 SWAP1 SWAP2 MUL ADD DUP1 SLOAD SWAP1 SWAP2 POP PUSH1 0x1 PUSH1 0x1 PUSH1 0x40 SHL SUB DUP1 DUP7 AND SWAP2 AND GT PUSH2 0x174B JUMPI PUSH1 0x40 DUP1 MLOAD PUSH2 0x180 DUP2 ADD DUP3 MSTORE DUP3 SLOAD PUSH1 0x1 PUSH1 0x1 PUSH1 0x40 SHL SUB DUP1 DUP3 AND DUP4 MSTORE PUSH1 0x1 PUSH1 0x40 SHL SWAP1 SWAP2 DIV AND PUSH1 0x20 DUP1 DUP4 ADD SWAP2 SWAP1 SWAP2 MSTORE PUSH1 0x1 DUP5 ADD DUP1 SLOAD DUP5 MLOAD DUP2 DUP5 MUL DUP2 ADD DUP5 ADD DUP7 MSTORE DUP2 DUP2 MSTORE SWAP4 SWAP5 DUP7 SWAP5 SWAP1 DUP7 ADD SWAP4 SWAP1 SWAP3 SWAP2 SWAP1 DUP4 ADD DUP3 DUP3 DUP1 ISZERO PUSH2 0x16A2 JUMPI PUSH1 0x20 MUL DUP3 ADD SWAP2 SWAP1 PUSH1 0x0 MSTORE PUSH1 0x20 PUSH1 0x0 KECCAK256 SWAP1 JUMPDEST DUP2 SLOAD PUSH1 0x1 PUSH1 0x1 PUSH1 0xA0 SHL SUB AND DUP2 MSTORE PUSH1 0x1 SWAP1 SWAP2 ADD SWAP1 PUSH1 0x20 ADD DUP1 DUP4 GT PUSH2 0x1684 JUMPI JUMPDEST POP POP POP SWAP2 DUP4 MSTORE POP POP PUSH1 0x2 DUP3 ADD SLOAD PUSH1 0x1 PUSH1 0x1 PUSH1 0x40 SHL SUB DUP1 DUP3 AND PUSH1 0x20 DUP5 ADD MSTORE PUSH1 0x1 PUSH1 0x40 SHL DUP1 DUP4 DIV DUP3 AND PUSH1 0x40 DUP6 ADD MSTORE PUSH1 0x1 PUSH1 0x80 SHL DUP4 DIV DUP3 AND PUSH1 0x60 DUP6 ADD MSTORE PUSH1 0x1 PUSH1 0xC0 SHL SWAP3 DUP4 SWAP1 DIV DUP3 AND PUSH1 0x80 DUP6 ADD MSTORE PUSH1 0x3 DUP6 ADD SLOAD DUP1 DUP4 AND PUSH1 0xA0 DUP7 ADD MSTORE DIV PUSH1 0x1 PUSH1 0x1 PUSH1 0xA0 SHL SUB SWAP1 DUP2 AND PUSH1 0xC0 DUP6 ADD MSTORE PUSH1 0x4 SWAP1 SWAP5 ADD SLOAD SWAP4 DUP5 AND PUSH1 0xE0 DUP1 DUP6 ADD SWAP2 SWAP1 SWAP2 MSTORE PUSH1 0x1 PUSH1 0xA0 SHL DUP6 DIV SWAP1 SHL PUSH1 0x1 PUSH1 0x1 PUSH1 0xE0 SHL SUB NOT AND PUSH2 0x100 DUP5 ADD MSTORE SWAP3 DIV SWAP1 SWAP2 AND PUSH2 0x120 SWAP1 SWAP2 ADD MSTORE SWAP3 POP PUSH2 0xEA5 SWAP2 POP POP JUMP JUMPDEST POP PUSH1 0x0 NOT ADD PUSH2 0x15E7 JUMP JUMPDEST PUSH2 0x175D PUSH2 0x18A6 JUMP JUMPDEST PUSH1 0x0 SLOAD PUSH1 0x1 PUSH1 0x1 PUSH1 0xA0 SHL SUB SWAP1 DUP2 AND SWAP2 AND EQ PUSH2 0x17AD JUMPI PUSH1 0x40 DUP1 MLOAD PUSH3 0x461BCD PUSH1 0xE5 SHL DUP2 MSTORE PUSH1 0x20 PUSH1 0x4 DUP3 ADD DUP2 SWAP1 MSTORE PUSH1 0x24 DUP3 ADD MSTORE PUSH1 0x0 DUP1 MLOAD PUSH1 0x20 PUSH2 0x20AE DUP4 CODECOPY DUP2 MLOAD SWAP2 MSTORE PUSH1 0x44 DUP3 ADD MSTORE SWAP1 MLOAD SWAP1 DUP2 SWAP1 SUB PUSH1 0x64 ADD SWAP1 REVERT JUMPDEST PUSH1 0x1 PUSH1 0x1 PUSH1 0xA0 SHL SUB DUP2 AND PUSH2 0x17F2 JUMPI PUSH1 0x40 MLOAD PUSH3 0x461BCD PUSH1 0xE5 SHL DUP2 MSTORE PUSH1 0x4 ADD DUP1 DUP1 PUSH1 0x20 ADD DUP3 DUP2 SUB DUP3 MSTORE PUSH1 0x26 DUP2 MSTORE PUSH1 0x20 ADD DUP1 PUSH2 0x2088 PUSH1 0x26 SWAP2 CODECOPY PUSH1 0x40 ADD SWAP2 POP POP PUSH1 0x40 MLOAD DUP1 SWAP2 SUB SWAP1 REVERT JUMPDEST PUSH1 0x0 DUP1 SLOAD PUSH1 0x40 MLOAD PUSH1 0x1 PUSH1 0x1 PUSH1 0xA0 SHL SUB DUP1 DUP6 AND SWAP4 SWAP3 AND SWAP2 PUSH32 0x8BE0079C531659141344CD1FD0A4F28419497F9722A3DAAFE3B4186F6B6457E0 SWAP2 LOG3 PUSH1 0x0 DUP1 SLOAD PUSH1 0x1 PUSH1 0x1 PUSH1 0xA0 SHL SUB NOT AND PUSH1 0x1 PUSH1 0x1 PUSH1 0xA0 SHL SUB SWAP3 SWAP1 SWAP3 AND SWAP2 SWAP1 SWAP2 OR SWAP1 SSTORE JUMP JUMPDEST PUSH1 0x0 PUSH1 0x1 DUP4 PUSH1 0x1 PUSH1 0x1 PUSH1 0x40 SHL SUB AND DUP2 SLOAD DUP2 LT PUSH2 0x1865 JUMPI INVALID JUMPDEST SWAP1 PUSH1 0x0 MSTORE PUSH1 0x20 PUSH1 0x0 KECCAK256 SWAP1 PUSH1 0x5 MUL ADD PUSH1 0x1 ADD DUP3 PUSH1 0x1 PUSH1 0x1 PUSH1 0x40 SHL SUB AND DUP2 SLOAD DUP2 LT PUSH2 0x188A JUMPI INVALID JUMPDEST PUSH1 0x0 SWAP2 DUP3 MSTORE PUSH1 0x20 SWAP1 SWAP2 KECCAK256 ADD SLOAD PUSH1 0x1 PUSH1 0x1 PUSH1 0xA0 SHL SUB AND SWAP4 SWAP3 POP POP POP JUMP JUMPDEST CALLER SWAP1 JUMP JUMPDEST PUSH2 0x18B2 PUSH2 0x19E9 JUMP JUMPDEST POP PUSH1 0x40 DUP1 MLOAD PUSH2 0x180 DUP2 ADD DUP3 MSTORE PUSH1 0x0 DUP1 DUP3 MSTORE PUSH1 0x20 DUP1 DUP4 ADD DUP3 SWAP1 MSTORE DUP4 MLOAD DUP3 DUP2 MSTORE SWAP1 DUP2 ADD DUP5 MSTORE SWAP3 DUP3 ADD SWAP3 SWAP1 SWAP3 MSTORE PUSH1 0x60 DUP2 ADD DUP3 SWAP1 MSTORE PUSH1 0x80 DUP2 ADD DUP3 SWAP1 MSTORE PUSH1 0xA0 DUP2 ADD DUP3 SWAP1 MSTORE PUSH1 0xC0 DUP2 ADD DUP3 SWAP1 MSTORE PUSH1 0xE0 DUP2 ADD DUP3 SWAP1 MSTORE PUSH2 0x100 DUP2 ADD DUP3 SWAP1 MSTORE PUSH2 0x120 DUP2 ADD DUP3 SWAP1 MSTORE PUSH2 0x140 DUP2 ADD DUP3 SWAP1 MSTORE PUSH2 0x160 DUP2 ADD SWAP2 SWAP1 SWAP2 MSTORE SWAP1 JUMP JUMPDEST DUP3 DUP1 SLOAD DUP3 DUP3 SSTORE SWAP1 PUSH1 0x0 MSTORE PUSH1 0x20 PUSH1 0x0 KECCAK256 SWAP1 DUP2 ADD SWAP3 DUP3 ISZERO PUSH2 0x1963 JUMPI PUSH1 0x0 MSTORE PUSH1 0x20 PUSH1 0x0 KECCAK256 SWAP2 DUP3 ADD JUMPDEST DUP3 DUP2 GT ISZERO PUSH2 0x1963 JUMPI DUP3 SLOAD DUP3 SSTORE SWAP2 PUSH1 0x1 ADD SWAP2 SWAP1 PUSH1 0x1 ADD SWAP1 PUSH2 0x1948 JUMP JUMPDEST POP PUSH2 0x196F SWAP3 SWAP2 POP PUSH2 0x1A4E JUMP JUMPDEST POP SWAP1 JUMP JUMPDEST DUP3 DUP1 SLOAD DUP3 DUP3 SSTORE SWAP1 PUSH1 0x0 MSTORE PUSH1 0x20 PUSH1 0x0 KECCAK256 SWAP1 DUP2 ADD SWAP3 DUP3 ISZERO PUSH2 0x1963 JUMPI SWAP2 PUSH1 0x20 MUL DUP3 ADD JUMPDEST DUP3 DUP2 GT ISZERO PUSH2 0x1963 JUMPI DUP3 MLOAD DUP3 SLOAD PUSH1 0x1 PUSH1 0x1 PUSH1 0xA0 SHL SUB NOT AND PUSH1 0x1 PUSH1 0x1 PUSH1 0xA0 SHL SUB SWAP1 SWAP2 AND OR DUP3 SSTORE PUSH1 0x20 SWAP1 SWAP3 ADD SWAP2 PUSH1 0x1 SWAP1 SWAP2 ADD SWAP1 PUSH2 0x1993 JUMP JUMPDEST POP DUP1 SLOAD PUSH1 0x0 DUP3 SSTORE SWAP1 PUSH1 0x0 MSTORE PUSH1 0x20 PUSH1 0x0 KECCAK256 SWAP1 DUP2 ADD SWAP1 PUSH2 0x19E6 SWAP2 SWAP1 PUSH2 0x1A4E JUMP JUMPDEST POP JUMP JUMPDEST PUSH1 0x40 DUP1 MLOAD PUSH2 0x180 DUP2 ADD DUP3 MSTORE PUSH1 0x0 DUP1 DUP3 MSTORE PUSH1 0x20 DUP3 ADD DUP2 SWAP1 MSTORE PUSH1 0x60 SWAP3 DUP3 ADD DUP4 SWAP1 MSTORE SWAP2 DUP2 ADD DUP3 SWAP1 MSTORE PUSH1 0x80 DUP2 ADD DUP3 SWAP1 MSTORE PUSH1 0xA0 DUP2 ADD DUP3 SWAP1 MSTORE PUSH1 0xC0 DUP2 ADD DUP3 SWAP1 MSTORE PUSH1 0xE0 DUP2 ADD DUP3 SWAP1 MSTORE PUSH2 0x100 DUP2 ADD DUP3 SWAP1 MSTORE PUSH2 0x120 DUP2 ADD DUP3 SWAP1 MSTORE PUSH2 0x140 DUP2 ADD DUP3 SWAP1 MSTORE PUSH2 0x160 DUP2 ADD SWAP2 SWAP1 SWAP2 MSTORE SWAP1 JUMP JUMPDEST JUMPDEST DUP1 DUP3 GT ISZERO PUSH2 0x196F JUMPI PUSH1 0x0 DUP2 SSTORE PUSH1 0x1 ADD PUSH2 0x1A4F JUMP JUMPDEST DUP1 CALLDATALOAD PUSH1 0x1 PUSH1 0x1 PUSH1 0x40 SHL SUB DUP2 AND DUP2 EQ PUSH2 0xEA5 JUMPI PUSH1 0x0 DUP1 REVERT JUMPDEST PUSH1 0x0 PUSH1 0x20 DUP3 DUP5 SUB SLT ISZERO PUSH2 0x1A8B JUMPI DUP1 DUP2 REVERT JUMPDEST DUP2 CALLDATALOAD PUSH1 0x1 PUSH1 0x1 PUSH1 0xA0 SHL SUB DUP2 AND DUP2 EQ PUSH2 0x1AA1 JUMPI DUP2 DUP3 REVERT JUMPDEST SWAP4 SWAP3 POP POP POP JUMP JUMPDEST PUSH1 0x0 DUP1 PUSH1 0x20 DUP4 DUP6 SUB SLT ISZERO PUSH2 0x1ABA JUMPI DUP1 DUP2 REVERT JUMPDEST DUP3 CALLDATALOAD PUSH1 0x1 PUSH1 0x1 PUSH1 0x40 SHL SUB DUP1 DUP3 GT ISZERO PUSH2 0x1AD0 JUMPI DUP3 DUP4 REVERT JUMPDEST DUP2 DUP6 ADD SWAP2 POP DUP6 PUSH1 0x1F DUP4 ADD SLT PUSH2 0x1AE3 JUMPI DUP3 DUP4 REVERT JUMPDEST DUP2 CALLDATALOAD DUP2 DUP2 GT ISZERO PUSH2 0x1AF1 JUMPI DUP4 DUP5 REVERT JUMPDEST DUP7 PUSH1 0x20 DUP1 DUP4 MUL DUP6 ADD ADD GT ISZERO PUSH2 0x1B04 JUMPI DUP4 DUP5 REVERT JUMPDEST PUSH1 0x20 SWAP3 SWAP1 SWAP3 ADD SWAP7 SWAP2 SWAP6 POP SWAP1 SWAP4 POP POP POP POP JUMP JUMPDEST PUSH1 0x0 PUSH1 0x20 DUP3 DUP5 SUB SLT ISZERO PUSH2 0x1B27 JUMPI DUP1 DUP2 REVERT JUMPDEST DUP2 CALLDATALOAD PUSH1 0x1 PUSH1 0x1 PUSH1 0xE0 SHL SUB NOT DUP2 AND DUP2 EQ PUSH2 0x1AA1 JUMPI DUP2 DUP3 REVERT JUMPDEST PUSH1 0x0 PUSH1 0x20 DUP3 DUP5 SUB SLT ISZERO PUSH2 0x1B4F JUMPI DUP1 DUP2 REVERT JUMPDEST POP CALLDATALOAD SWAP2 SWAP1 POP JUMP JUMPDEST PUSH1 0x0 PUSH1 0x20 DUP3 DUP5 SUB SLT ISZERO PUSH2 0x1B67 JUMPI DUP1 DUP2 REVERT JUMPDEST PUSH2 0x1AA1 DUP3 PUSH2 0x1A63 JUMP JUMPDEST PUSH1 0x0 DUP1 PUSH1 0x40 DUP4 DUP6 SUB SLT ISZERO PUSH2 0x1B82 JUMPI DUP2 DUP3 REVERT JUMPDEST PUSH2 0x1B8B DUP4 PUSH2 0x1A63 JUMP JUMPDEST SWAP2 POP PUSH2 0x1B99 PUSH1 0x20 DUP5 ADD PUSH2 0x1A63 JUMP JUMPDEST SWAP1 POP SWAP3 POP SWAP3 SWAP1 POP JUMP JUMPDEST PUSH1 0x1 PUSH1 0x1 PUSH1 0xA0 SHL SUB AND SWAP1 MSTORE JUMP JUMPDEST PUSH1 0x0 DUP2 MLOAD DUP1 DUP5 MSTORE PUSH1 0x20 DUP1 DUP6 ADD SWAP5 POP DUP1 DUP5 ADD DUP4 JUMPDEST DUP4 DUP2 LT ISZERO PUSH2 0x1BE7 JUMPI DUP2 MLOAD PUSH1 0x1 PUSH1 0x1 PUSH1 0xA0 SHL SUB AND DUP8 MSTORE SWAP6 DUP3 ADD SWAP6 SWAP1 DUP3 ADD SWAP1 PUSH1 0x1 ADD PUSH2 0x1BC2 JUMP JUMPDEST POP SWAP5 SWAP6 SWAP5 POP POP POP POP POP JUMP JUMPDEST PUSH1 0x1 PUSH1 0x1 PUSH1 0xE0 SHL SUB NOT AND SWAP1 MSTORE JUMP JUMPDEST PUSH1 0x1 PUSH1 0x1 PUSH1 0x40 SHL SUB AND SWAP1 MSTORE JUMP JUMPDEST PUSH1 0x1 PUSH1 0x1 PUSH1 0xA0 SHL SUB SWAP2 SWAP1 SWAP2 AND DUP2 MSTORE PUSH1 0x20 ADD SWAP1 JUMP JUMPDEST PUSH1 0x20 DUP1 DUP3 MSTORE PUSH1 0x34 SWAP1 DUP3 ADD MSTORE PUSH32 0x436F6E666967436F6E74726163743A206261746368207370616E206E6F742073 PUSH1 0x40 DUP3 ADD MSTORE PUSH20 0x686F72746572207468616E20686561647320757 PUSH1 0x64 SHL PUSH1 0x60 DUP3 ADD MSTORE PUSH1 0x80 ADD SWAP1 JUMP JUMPDEST PUSH1 0x20 DUP1 DUP3 MSTORE PUSH1 0x30 SWAP1 DUP3 ADD MSTORE PUSH32 0x436F6E666967436F6E74726163743A206E756D626572206F6620636F6E666967 PUSH1 0x40 DUP3 ADD MSTORE PUSH16 0x1CC8195E18D959591CC81D5A5B9D0D8D PUSH1 0x82 SHL PUSH1 0x60 DUP3 ADD MSTORE PUSH1 0x80 ADD SWAP1 JUMP JUMPDEST PUSH1 0x20 DUP1 DUP3 MSTORE PUSH1 0x46 SWAP1 DUP3 ADD MSTORE PUSH32 0x436F6E666967436F6E74726163743A207472616E736974696F6E2066726F6D20 PUSH1 0x40 DUP3 ADD MSTORE PUSH32 0x696E61637469766520636F6E66696720776974682077726F6E67207374617274 PUSH1 0x60 DUP3 ADD MSTORE PUSH6 0x40D2DCC8CAF PUSH1 0xD3 SHL PUSH1 0x80 DUP3 ADD MSTORE PUSH1 0xA0 ADD SWAP1 JUMP JUMPDEST PUSH1 0x20 DUP1 DUP3 MSTORE PUSH1 0x30 SWAP1 DUP3 ADD MSTORE PUSH32 0x436F6E666967436F6E74726163743A206E756D626572206F66206B6579706572 PUSH1 0x40 DUP3 ADD MSTORE PUSH16 0x1CC8195E18D959591CC81D5A5B9D0D8D PUSH1 0x82 SHL PUSH1 0x60 DUP3 ADD MSTORE PUSH1 0x80 ADD SWAP1 JUMP JUMPDEST PUSH1 0x20 DUP1 DUP3 MSTORE PUSH1 0x25 SWAP1 DUP3 ADD MSTORE PUSH32 0x436F6E666967436F6E74726163743A20737461727420626C6F636B20746F6F20 PUSH1 0x40 DUP3 ADD MSTORE PUSH5 0x6561726C79 PUSH1 0xD8 SHL PUSH1 0x60 DUP3 ADD MSTORE PUSH1 0x80 ADD SWAP1 JUMP JUMPDEST PUSH1 0x20 DUP1 DUP3 MSTORE PUSH1 0x26 SWAP1 DUP3 ADD MSTORE PUSH32 0x436F6E666967436F6E74726163743A206E6F20636F6E6669677320756E736368 PUSH1 0x40 DUP3 ADD MSTORE PUSH6 0x19591D5B1959 PUSH1 0xD2 SHL PUSH1 0x60 DUP3 ADD MSTORE PUSH1 0x80 ADD SWAP1 JUMP JUMPDEST PUSH1 0x20 DUP1 DUP3 MSTORE PUSH1 0x2A SWAP1 DUP3 ADD MSTORE PUSH32 0x436F6E666967436F6E74726163743A2066726F6D20737461727420626C6F636B PUSH1 0x40 DUP3 ADD MSTORE PUSH10 0x20746F6F206561726C79 PUSH1 0xB0 SHL PUSH1 0x60 DUP3 ADD MSTORE PUSH1 0x80 ADD SWAP1 JUMP JUMPDEST PUSH1 0x20 DUP1 DUP3 MSTORE PUSH1 0x2E SWAP1 DUP3 ADD MSTORE PUSH32 0x436F6E666967436F6E74726163743A20636F6E666967207472616E736974696F PUSH1 0x40 DUP3 ADD MSTORE PUSH14 0x6E206E6F74207365616D6C657373 PUSH1 0x90 SHL PUSH1 0x60 DUP3 ADD MSTORE PUSH1 0x80 ADD SWAP1 JUMP JUMPDEST PUSH1 0x20 DUP1 DUP3 MSTORE PUSH1 0x2B SWAP1 DUP3 ADD MSTORE PUSH32 0x436F6E666967436F6E74726163743A20737461727420626174636820696E6465 PUSH1 0x40 DUP3 ADD MSTORE PUSH11 0x1E081D1BDBC81CDB585B1B PUSH1 0xAA SHL PUSH1 0x60 DUP3 ADD MSTORE PUSH1 0x80 ADD SWAP1 JUMP JUMPDEST PUSH1 0x0 PUSH1 0x20 DUP3 MSTORE PUSH2 0x1F03 PUSH1 0x20 DUP4 ADD DUP5 MLOAD PUSH2 0x1C00 JUMP JUMPDEST PUSH1 0x20 DUP4 ADD MLOAD PUSH2 0x1F15 PUSH1 0x40 DUP5 ADD DUP3 PUSH2 0x1C00 JUMP JUMPDEST POP PUSH1 0x40 DUP4 ADD MLOAD PUSH2 0x180 DUP1 PUSH1 0x60 DUP6 ADD MSTORE PUSH2 0x1F32 PUSH2 0x1A0 DUP6 ADD DUP4 PUSH2 0x1BAF JUMP JUMPDEST SWAP2 POP PUSH1 0x60 DUP6 ADD MLOAD PUSH2 0x1F46 PUSH1 0x80 DUP7 ADD DUP3 PUSH2 0x1C00 JUMP JUMPDEST POP PUSH1 0x80 DUP6 ADD MLOAD PUSH2 0x1F59 PUSH1 0xA0 DUP7 ADD DUP3 PUSH2 0x1C00 JUMP JUMPDEST POP PUSH1 0xA0 DUP6 ADD MLOAD PUSH2 0x1F6C PUSH1 0xC0 DUP7 ADD DUP3 PUSH2 0x1C00 JUMP JUMPDEST POP PUSH1 0xC0 DUP6 ADD MLOAD PUSH2 0x1F7F PUSH1 0xE0 DUP7 ADD DUP3 PUSH2 0x1C00 JUMP JUMPDEST POP PUSH1 0xE0 DUP6 ADD MLOAD PUSH2 0x100 PUSH2 0x1F94 DUP2 DUP8 ADD DUP4 PUSH2 0x1C00 JUMP JUMPDEST DUP7 ADD MLOAD SWAP1 POP PUSH2 0x120 PUSH2 0x1FA8 DUP7 DUP3 ADD DUP4 PUSH2 0x1BA2 JUMP JUMPDEST DUP7 ADD MLOAD SWAP1 POP PUSH2 0x140 PUSH2 0x1FBC DUP7 DUP3 ADD DUP4 PUSH2 0x1BA2 JUMP JUMPDEST DUP7 ADD MLOAD SWAP1 POP PUSH2 0x160 PUSH2 0x1FD0 DUP7 DUP3 ADD DUP4 PUSH2 0x1BF2 JUMP JUMPDEST DUP7 ADD MLOAD SWAP1 POP PUSH2 0x1FE1 DUP6 DUP4 ADD DUP3 PUSH2 0x1C00 JUMP JUMPDEST POP SWAP1 SWAP5 SWAP4 POP POP POP POP JUMP JUMPDEST PUSH1 0x1 PUSH1 0x1 PUSH1 0x40 SHL SUB SWAP2 SWAP1 SWAP2 AND DUP2 MSTORE PUSH1 0x20 ADD SWAP1 JUMP JUMPDEST PUSH1 0x1 PUSH1 0x1 PUSH1 0x40 SHL SUB DUP13 DUP2 AND DUP3 MSTORE DUP12 DUP2 AND PUSH1 0x20 DUP4 ADD MSTORE DUP11 DUP2 AND PUSH1 0x40 DUP4 ADD MSTORE DUP10 DUP2 AND PUSH1 0x60 DUP4 ADD MSTORE DUP9 DUP2 AND PUSH1 0x80 DUP4 ADD MSTORE DUP8 DUP2 AND PUSH1 0xA0 DUP4 ADD MSTORE DUP7 AND PUSH1 0xC0 DUP3 ADD MSTORE PUSH1 0x1 PUSH1 0x1 PUSH1 0xA0 SHL SUB DUP6 DUP2 AND PUSH1 0xE0 DUP4 ADD MSTORE DUP5 AND PUSH2 0x100 DUP3 ADD MSTORE PUSH1 0x1 PUSH1 0x1 PUSH1 0xE0 SHL SUB NOT DUP4 AND PUSH2 0x120 DUP3 ADD MSTORE PUSH2 0x160 DUP2 ADD PUSH2 0x2077 PUSH2 0x140 DUP4 ADD DUP5 PUSH2 0x1C00 JUMP JUMPDEST SWAP13 SWAP12 POP POP POP POP POP POP POP POP POP POP POP POP JUMP INVALID 0x4F PUSH24 0x6E61626C653A206E6577206F776E65722069732074686520 PUSH27 0x65726F20616464726573734F776E61626C653A2063616C6C657220 PUSH10 0x73206E6F742074686520 PUSH16 0x776E6572A2646970667358221220B278 JUMPI SWAP1 COINBASE SWAP3 BYTE 0xBC EXTCODECOPY 0xBE 0xFC PUSH29 0x9B99B068EF0D85090C8DDCF24C07C9879925088864736F6C6343000706 STOP CALLER ",
  "sha1": "471407208ccafaa89b795fef2f16139f29702e46",
  "source": "// SPDX-License-Identifier: MIT\n\npragma solidity >=0.7.0 <0.8.0;\npragma experimental ABIEncoderV2;\n\nimport {\n    Ownable\n} from \"OpenZeppelin/openzeppelin-contracts@3.3.0/contracts/access/Ownable.sol\";\n\nstruct BatchConfig {\n    uint64 startBatchIndex; // the index of the first batch using this config\n    uint64 startBlockNumber; // the block number from which on this config is applicable\n    address[] keypers; // the keyper addresses\n    uint64 threshold; // the threshold parameter\n    uint64 batchSpan; // the duration of one batch in blocks\n    uint64 batchSizeLimit; // the maximum size of a batch in bytes\n    uint64 transactionSizeLimit; // the maximum size of each transaction in the batch in bytes\n    uint64 transactionGasLimit; // the maximum amount of gas each transaction may use\n    address feeReceiver; // the address receiving the collected fees\n    address targetAddress; // the address of the contract responsible of executing transactions\n    bytes4 targetFunctionSelector; // function of the target contract that executes transactions\n    uint64 executionTimeout; // the number of blocks after which execution can be skipped\n}\n\n/// @title A contract that manages `BatchConfig` objects.\n/// @dev The config objects are stored in sequence, with configs applicable to later batches being\n///     lined up behind configs applicable to earlier batches (according to\n///     `config.startBlockNumber`). The contract owner is entitled to add or remove configs at the\n///     end at will as long as a notice of at least `configChangeHeadsUpBlocks` is given.\n/// @dev To add a new config, first populate the `nextConfig` object accordingly and then schedule\n///     it with `scheduleNextConfig`.\ncontract ConfigContract is Ownable {\n    /// @notice The event emitted after a new config object has been scheduled.\n    /// @param numConfigs The new number of configs stored.\n    event ConfigScheduled(uint64 numConfigs);\n\n    /// @notice The event emitted after the owner has unscheduled one or more config objects.\n    /// @param numConfigs The new number of configs stored.\n    event ConfigUnscheduled(uint64 numConfigs);\n\n    BatchConfig[] public configs;\n    BatchConfig public nextConfig;\n\n    uint64 public immutable configChangeHeadsUpBlocks;\n\n    constructor(uint64 _configChangeHeadsUpBlocks) {\n        configs.push(zeroConfig());\n\n        configChangeHeadsUpBlocks = _configChangeHeadsUpBlocks;\n    }\n\n    function zeroConfig() internal pure returns (BatchConfig memory) {\n        return\n            BatchConfig({\n                startBatchIndex: 0,\n                startBlockNumber: 0,\n                keypers: new address[](0),\n                threshold: 0,\n                batchSpan: 0,\n                batchSizeLimit: 0,\n                transactionSizeLimit: 0,\n                transactionGasLimit: 0,\n                feeReceiver: address(0),\n                targetAddress: address(0),\n                targetFunctionSelector: bytes4(0),\n                executionTimeout: 0\n            });\n    }\n\n    function numConfigs() external view returns (uint64) {\n        return uint64(configs.length);\n    }\n\n    /// @notice Get the config for a certain batch.\n    /// @param _batchIndex The index of the batch.\n    function getConfig(uint64 _batchIndex)\n        external\n        view\n        returns (BatchConfig memory)\n    {\n        for (uint256 i = configs.length - 1; i >= 0; i--) {\n            BatchConfig storage config = configs[i];\n            if (config.startBatchIndex <= _batchIndex) {\n                return config;\n            }\n        }\n        assert(false);\n    }\n\n    //\n    // Config keyper getters\n    //\n    function configKeypers(uint64 _configIndex, uint64 _keyperIndex)\n        external\n        view\n        returns (address)\n    {\n        return configs[_configIndex].keypers[_keyperIndex];\n    }\n\n    function configNumKeypers(uint64 _configIndex)\n        external\n        view\n        returns (uint64)\n    {\n        return uint64(configs[_configIndex].keypers.length);\n    }\n\n    //\n    // next config setters\n    //\n    function nextConfigSetStartBatchIndex(uint64 _startBatchIndex)\n        external\n        onlyOwner\n    {\n        nextConfig.startBatchIndex = _startBatchIndex;\n    }\n\n    function nextConfigSetStartBlockNumber(uint64 _startBlockNumber)\n        external\n        onlyOwner\n    {\n        nextConfig.startBlockNumber = _startBlockNumber;\n    }\n\n    function nextConfigSetThreshold(uint64 _threshold) external onlyOwner {\n        nextConfig.threshold = _threshold;\n    }\n\n    function nextConfigSetBatchSpan(uint64 _batchSpan) external onlyOwner {\n        // make sure the heads up is at least one batch\n        require(\n            _batchSpan < configChangeHeadsUpBlocks,\n            \"ConfigContract: batch span not shorter than heads up\"\n        );\n        nextConfig.batchSpan = _batchSpan;\n    }\n\n    function nextConfigSetBatchSizeLimit(uint64 _batchSizeLimit)\n        external\n        onlyOwner\n    {\n        nextConfig.batchSizeLimit = _batchSizeLimit;\n    }\n\n    function nextConfigSetTransactionSizeLimit(uint64 _transactionSizeLimit)\n        external\n        onlyOwner\n    {\n        nextConfig.transactionSizeLimit = _transactionSizeLimit;\n    }\n\n    function nextConfigSetTransactionGasLimit(uint64 _transactionGasLimit)\n        external\n        onlyOwner\n    {\n        nextConfig.transactionGasLimit = _transactionGasLimit;\n    }\n\n    function nextConfigSetFeeReceiver(address _feeReceiver) external onlyOwner {\n        nextConfig.feeReceiver = _feeReceiver;\n    }\n\n    function nextConfigSetTargetAddress(address _targetAddress)\n        external\n        onlyOwner\n    {\n        nextConfig.targetAddress = _targetAddress;\n    }\n\n    function nextConfigSetTargetFunctionSelector(bytes4 _targetFunctionSelector)\n        external\n        onlyOwner\n    {\n        nextConfig.targetFunctionSelector = _targetFunctionSelector;\n    }\n\n    function nextConfigSetExecutionTimeout(uint64 _executionTimeout)\n        external\n        onlyOwner\n    {\n        nextConfig.executionTimeout = _executionTimeout;\n    }\n\n    function nextConfigAddKeypers(address[] calldata _newKeypers)\n        external\n        onlyOwner\n    {\n        require(\n            nextConfig.keypers.length <= type(uint64).max - _newKeypers.length,\n            \"ConfigContract: number of keypers exceeds uint64\"\n        );\n        for (uint64 i = 0; i < _newKeypers.length; i++) {\n            nextConfig.keypers.push(_newKeypers[i]);\n        }\n    }\n\n    function nextConfigRemoveKeypers(uint64 n) external onlyOwner {\n        uint256 currentLength = nextConfig.keypers.length;\n        if (n <= currentLength) {\n            for (uint64 i = 0; i < n; i++) {\n                nextConfig.keypers.pop();\n            }\n        } else {\n            delete nextConfig.keypers;\n        }\n    }\n\n    //\n    // nextConfig keyper getters\n    //\n    function nextConfigKeypers(uint64 _index) external view returns (address) {\n        return nextConfig.keypers[_index];\n    }\n\n    function nextConfigNumKeypers() external view returns (uint64) {\n        return uint64(nextConfig.keypers.length);\n    }\n\n    //\n    // Scheduling\n    //\n\n    /// @notice Finalize the `nextConfig` object and add it to the end of the config sequence.\n    /// @notice `startBlockNumber` of the next config must be `configChangeHeadsUpBlocks`\n    ///     blocks in the future. Note that the batch spans are smaller than or equal to\n    ///     `configChangeHeadsUpBlocks`, so the heads up corresponds to at least one batch.\n    /// @notice The transition between the next config and the config currently at the end of the\n    ///     config sequence must be seamless, i.e., there batches must not be cut short.\n    function scheduleNextConfig() external onlyOwner {\n        require(\n            configs.length < type(uint64).max - 1,\n            \"ConfigContract: number of configs exceeds uint64\"\n        );\n        BatchConfig memory _config = configs[configs.length - 1];\n\n        require(\n            nextConfig.startBlockNumber >\n                block.number + configChangeHeadsUpBlocks,\n            \"ConfigContract: start block too early\"\n        );\n\n        if (_config.batchSpan > 0) {\n            require(\n                nextConfig.startBatchIndex > _config.startBatchIndex,\n                \"ConfigContract: start batch index too small\"\n            );\n            uint64 _batchDelta = nextConfig.startBatchIndex -\n                _config.startBatchIndex;\n            require(\n                _config.startBlockNumber + _config.batchSpan * _batchDelta ==\n                    nextConfig.startBlockNumber,\n                \"ConfigContract: config transition not seamless\"\n            );\n        } else {\n            require(\n                nextConfig.startBatchIndex == _config.startBatchIndex,\n                \"ConfigContract: transition from inactive config with wrong start index\"\n            );\n        }\n\n        configs.push(nextConfig);\n        nextConfig = zeroConfig();\n\n        emit ConfigScheduled(uint64(configs.length));\n    }\n\n    /// @notice Remove configs from the end.\n    /// @param _fromStartBlockNumber All configs with a start block number greater than or equal\n    ///     to this will be removed.\n    /// @notice `_fromStartBlockNumber` must be `configChangeHeadsUpBlocks` blocks in the future.\n    /// @notice This method can remove one or more configs. If no config would be removed, an error\n    ///     is thrown.\n    function unscheduleConfigs(uint64 _fromStartBlockNumber)\n        external\n        onlyOwner\n    {\n        require(\n            _fromStartBlockNumber > block.number + configChangeHeadsUpBlocks,\n            \"ConfigContract: from start block too early\"\n        );\n\n        uint64 _lengthBefore = uint64(configs.length);\n\n        for (uint256 i = configs.length - 1; i > 0; i--) {\n            BatchConfig storage config = configs[i];\n            if (config.startBlockNumber >= _fromStartBlockNumber) {\n                configs.pop();\n            } else {\n                break;\n            }\n        }\n\n        require(\n            configs.length < _lengthBefore,\n            \"ConfigContract: no configs unscheduled\"\n        );\n        emit ConfigUnscheduled(uint64(configs.length));\n    }\n}\n",
  "sourcePath": "contracts/ConfigContract.sol",
  "type": "contract"
}