{
  "abi": [
    {
      "inputs": [
        {
          "internalType": "uint64",
          "name": "headsUp",
          "type": "uint64"
        }
      ],
      "stateMutability": "nonpayable",
      "type": "constructor"
    },
    {
      "anonymous": false,
      "inputs": [
        {
          "indexed": false,
          "internalType": "uint64",
          "name": "numConfigs",
          "type": "uint64"
        }
      ],
      "name": "ConfigScheduled",
      "type": "event"
    },
    {
      "anonymous": false,
      "inputs": [
        {
          "indexed": false,
          "internalType": "uint64",
          "name": "numConfigs",
          "type": "uint64"
        }
      ],
      "name": "ConfigUnscheduled",
      "type": "event"
    },
    {
      "anonymous": false,
      "inputs": [
        {
          "indexed": true,
          "internalType": "address",
          "name": "previousOwner",
          "type": "address"
        },
        {
          "indexed": true,
          "internalType": "address",
          "name": "newOwner",
          "type": "address"
        }
      ],
      "name": "OwnershipTransferred",
      "type": "event"
    },
    {
      "inputs": [
        {
          "internalType": "uint64",
          "name": "configIndex",
          "type": "uint64"
        },
        {
          "internalType": "uint64",
          "name": "batchIndex",
          "type": "uint64"
        }
      ],
      "name": "batchBoundaryBlocks",
      "outputs": [
        {
          "internalType": "uint64",
          "name": "",
          "type": "uint64"
        },
        {
          "internalType": "uint64",
          "name": "",
          "type": "uint64"
        },
        {
          "internalType": "uint64",
          "name": "",
          "type": "uint64"
        }
      ],
      "stateMutability": "view",
      "type": "function"
    },
    {
      "inputs": [
        {
          "internalType": "uint64",
          "name": "configIndex",
          "type": "uint64"
        }
      ],
      "name": "batchingActive",
      "outputs": [
        {
          "internalType": "bool",
          "name": "",
          "type": "bool"
        }
      ],
      "stateMutability": "view",
      "type": "function"
    },
    {
      "inputs": [
        {
          "internalType": "uint64",
          "name": "configIndex",
          "type": "uint64"
        }
      ],
      "name": "configBatchSizeLimit",
      "outputs": [
        {
          "internalType": "uint64",
          "name": "",
          "type": "uint64"
        }
      ],
      "stateMutability": "view",
      "type": "function"
    },
    {
      "inputs": [
        {
          "internalType": "uint64",
          "name": "configIndex",
          "type": "uint64"
        }
      ],
      "name": "configBatchSpan",
      "outputs": [
        {
          "internalType": "uint64",
          "name": "",
          "type": "uint64"
        }
      ],
      "stateMutability": "view",
      "type": "function"
    },
    {
      "inputs": [],
      "name": "configChangeHeadsUpBlocks",
      "outputs": [
        {
          "internalType": "uint64",
          "name": "",
          "type": "uint64"
        }
      ],
      "stateMutability": "view",
      "type": "function"
    },
    {
      "inputs": [
        {
          "internalType": "uint64",
          "name": "configIndex",
          "type": "uint64"
        }
      ],
      "name": "configExecutionTimeout",
      "outputs": [
        {
          "internalType": "uint64",
          "name": "",
          "type": "uint64"
        }
      ],
      "stateMutability": "view",
      "type": "function"
    },
    {
      "inputs": [
        {
          "internalType": "uint64",
          "name": "configIndex",
          "type": "uint64"
        }
      ],
      "name": "configFeeReceiver",
      "outputs": [
        {
          "internalType": "address",
          "name": "",
          "type": "address"
        }
      ],
      "stateMutability": "view",
      "type": "function"
    },
    {
      "inputs": [
        {
          "internalType": "uint64",
          "name": "batchIndex",
          "type": "uint64"
        }
      ],
      "name": "configForBatchIndex",
      "outputs": [
        {
          "components": [
            {
              "internalType": "uint64",
              "name": "startBatchIndex",
              "type": "uint64"
            },
            {
              "internalType": "uint64",
              "name": "startBlockNumber",
              "type": "uint64"
            },
            {
              "internalType": "address[]",
              "name": "keypers",
              "type": "address[]"
            },
            {
              "internalType": "uint64",
              "name": "threshold",
              "type": "uint64"
            },
            {
              "internalType": "uint64",
              "name": "batchSpan",
              "type": "uint64"
            },
            {
              "internalType": "uint64",
              "name": "batchSizeLimit",
              "type": "uint64"
            },
            {
              "internalType": "uint64",
              "name": "transactionSizeLimit",
              "type": "uint64"
            },
            {
              "internalType": "uint64",
              "name": "transactionGasLimit",
              "type": "uint64"
            },
            {
              "internalType": "address",
              "name": "feeReceiver",
              "type": "address"
            },
            {
              "internalType": "address",
              "name": "targetAddress",
              "type": "address"
            },
            {
              "internalType": "bytes4",
              "name": "targetFunctionSelector",
              "type": "bytes4"
            },
            {
              "internalType": "uint64",
              "name": "executionTimeout",
              "type": "uint64"
            }
          ],
          "internalType": "struct BatchConfig",
          "name": "",
          "type": "tuple"
        }
      ],
      "stateMutability": "view",
      "type": "function"
    },
    {
      "inputs": [
        {
          "internalType": "uint64",
          "name": "configIndex",
          "type": "uint64"
        }
      ],
      "name": "configForConfigIndex",
      "outputs": [
        {
          "components": [
            {
              "internalType": "uint64",
              "name": "startBatchIndex",
              "type": "uint64"
            },
            {
              "internalType": "uint64",
              "name": "startBlockNumber",
              "type": "uint64"
            },
            {
              "internalType": "address[]",
              "name": "keypers",
              "type": "address[]"
            },
            {
              "internalType": "uint64",
              "name": "threshold",
              "type": "uint64"
            },
            {
              "internalType": "uint64",
              "name": "batchSpan",
              "type": "uint64"
            },
            {
              "internalType": "uint64",
              "name": "batchSizeLimit",
              "type": "uint64"
            },
            {
              "internalType": "uint64",
              "name": "transactionSizeLimit",
              "type": "uint64"
            },
            {
              "internalType": "uint64",
              "name": "transactionGasLimit",
              "type": "uint64"
            },
            {
              "internalType": "address",
              "name": "feeReceiver",
              "type": "address"
            },
            {
              "internalType": "address",
              "name": "targetAddress",
              "type": "address"
            },
            {
              "internalType": "bytes4",
              "name": "targetFunctionSelector",
              "type": "bytes4"
            },
            {
              "internalType": "uint64",
              "name": "executionTimeout",
              "type": "uint64"
            }
          ],
          "internalType": "struct BatchConfig",
          "name": "",
          "type": "tuple"
        }
      ],
      "stateMutability": "view",
      "type": "function"
    },
    {
      "inputs": [
        {
          "internalType": "uint64",
          "name": "batchIndex",
          "type": "uint64"
        }
      ],
      "name": "configIndexForBatchIndex",
      "outputs": [
        {
          "internalType": "uint64",
          "name": "",
          "type": "uint64"
        }
      ],
      "stateMutability": "view",
      "type": "function"
    },
    {
      "inputs": [
        {
          "internalType": "uint64",
          "name": "configIndex",
          "type": "uint64"
        },
        {
          "internalType": "uint64",
          "name": "keyperIndex",
          "type": "uint64"
        }
      ],
      "name": "configKeypers",
      "outputs": [
        {
          "internalType": "address",
          "name": "",
          "type": "address"
        }
      ],
      "stateMutability": "view",
      "type": "function"
    },
    {
      "inputs": [
        {
          "internalType": "uint64",
          "name": "configIndex",
          "type": "uint64"
        }
      ],
      "name": "configNumKeypers",
      "outputs": [
        {
          "internalType": "uint64",
          "name": "",
          "type": "uint64"
        }
      ],
      "stateMutability": "view",
      "type": "function"
    },
    {
      "inputs": [
        {
          "internalType": "uint64",
          "name": "configIndex",
          "type": "uint64"
        }
      ],
      "name": "configStartBatchIndex",
      "outputs": [
        {
          "internalType": "uint64",
          "name": "",
          "type": "uint64"
        }
      ],
      "stateMutability": "view",
      "type": "function"
    },
    {
      "inputs": [
        {
          "internalType": "uint64",
          "name": "configIndex",
          "type": "uint64"
        }
      ],
      "name": "configStartBlockNumber",
      "outputs": [
        {
          "internalType": "uint64",
          "name": "",
          "type": "uint64"
        }
      ],
      "stateMutability": "view",
      "type": "function"
    },
    {
      "inputs": [
        {
          "internalType": "uint64",
          "name": "configIndex",
          "type": "uint64"
        }
      ],
      "name": "configTargetAddress",
      "outputs": [
        {
          "internalType": "address",
          "name": "",
          "type": "address"
        }
      ],
      "stateMutability": "view",
      "type": "function"
    },
    {
      "inputs": [
        {
          "internalType": "uint64",
          "name": "configIndex",
          "type": "uint64"
        }
      ],
      "name": "configTargetFunctionSelector",
      "outputs": [
        {
          "internalType": "bytes4",
          "name": "",
          "type": "bytes4"
        }
      ],
      "stateMutability": "view",
      "type": "function"
    },
    {
      "inputs": [
        {
          "internalType": "uint64",
          "name": "configIndex",
          "type": "uint64"
        }
      ],
      "name": "configThreshold",
      "outputs": [
        {
          "internalType": "uint64",
          "name": "",
          "type": "uint64"
        }
      ],
      "stateMutability": "view",
      "type": "function"
    },
    {
      "inputs": [
        {
          "internalType": "uint64",
          "name": "configIndex",
          "type": "uint64"
        }
      ],
      "name": "configTransactionGasLimit",
      "outputs": [
        {
          "internalType": "uint64",
          "name": "",
          "type": "uint64"
        }
      ],
      "stateMutability": "view",
      "type": "function"
    },
    {
      "inputs": [
        {
          "internalType": "uint64",
          "name": "configIndex",
          "type": "uint64"
        }
      ],
      "name": "configTransactionSizeLimit",
      "outputs": [
        {
          "internalType": "uint64",
          "name": "",
          "type": "uint64"
        }
      ],
      "stateMutability": "view",
      "type": "function"
    },
    {
      "inputs": [],
      "name": "lastScheduledConfig",
      "outputs": [
        {
          "components": [
            {
              "internalType": "uint64",
              "name": "startBatchIndex",
              "type": "uint64"
            },
            {
              "internalType": "uint64",
              "name": "startBlockNumber",
              "type": "uint64"
            },
            {
              "internalType": "address[]",
              "name": "keypers",
              "type": "address[]"
            },
            {
              "internalType": "uint64",
              "name": "threshold",
              "type": "uint64"
            },
            {
              "internalType": "uint64",
              "name": "batchSpan",
              "type": "uint64"
            },
            {
              "internalType": "uint64",
              "name": "batchSizeLimit",
              "type": "uint64"
            },
            {
              "internalType": "uint64",
              "name": "transactionSizeLimit",
              "type": "uint64"
            },
            {
              "internalType": "uint64",
              "name": "transactionGasLimit",
              "type": "uint64"
            },
            {
              "internalType": "address",
              "name": "feeReceiver",
              "type": "address"
            },
            {
              "internalType": "address",
              "name": "targetAddress",
              "type": "address"
            },
            {
              "internalType": "bytes4",
              "name": "targetFunctionSelector",
              "type": "bytes4"
            },
            {
              "internalType": "uint64",
              "name": "executionTimeout",
              "type": "uint64"
            }
          ],
          "internalType": "struct BatchConfig",
          "name": "",
          "type": "tuple"
        }
      ],
      "stateMutability": "view",
      "type": "function"
    },
    {
      "inputs": [],
      "name": "lastScheduledConfigIndex",
      "outputs": [
        {
          "internalType": "uint64",
          "name": "",
          "type": "uint64"
        }
      ],
      "stateMutability": "view",
      "type": "function"
    },
    {
      "inputs": [],
      "name": "nextConfig",
      "outputs": [
        {
          "components": [
            {
              "internalType": "uint64",
              "name": "startBatchIndex",
              "type": "uint64"
            },
            {
              "internalType": "uint64",
              "name": "startBlockNumber",
              "type": "uint64"
            },
            {
              "internalType": "address[]",
              "name": "keypers",
              "type": "address[]"
            },
            {
              "internalType": "uint64",
              "name": "threshold",
              "type": "uint64"
            },
            {
              "internalType": "uint64",
              "name": "batchSpan",
              "type": "uint64"
            },
            {
              "internalType": "uint64",
              "name": "batchSizeLimit",
              "type": "uint64"
            },
            {
              "internalType": "uint64",
              "name": "transactionSizeLimit",
              "type": "uint64"
            },
            {
              "internalType": "uint64",
              "name": "transactionGasLimit",
              "type": "uint64"
            },
            {
              "internalType": "address",
              "name": "feeReceiver",
              "type": "address"
            },
            {
              "internalType": "address",
              "name": "targetAddress",
              "type": "address"
            },
            {
              "internalType": "bytes4",
              "name": "targetFunctionSelector",
              "type": "bytes4"
            },
            {
              "internalType": "uint64",
              "name": "executionTimeout",
              "type": "uint64"
            }
          ],
          "internalType": "struct BatchConfig",
          "name": "",
          "type": "tuple"
        }
      ],
      "stateMutability": "view",
      "type": "function"
    },
    {
      "inputs": [
        {
          "internalType": "address[]",
          "name": "newKeypers",
          "type": "address[]"
        }
      ],
      "name": "nextConfigAddKeypers",
      "outputs": [],
      "stateMutability": "nonpayable",
      "type": "function"
    },
    {
      "inputs": [],
      "name": "nextConfigBatchSizeLimit",
      "outputs": [
        {
          "internalType": "uint64",
          "name": "",
          "type": "uint64"
        }
      ],
      "stateMutability": "view",
      "type": "function"
    },
    {
      "inputs": [],
      "name": "nextConfigBatchSpan",
      "outputs": [
        {
          "internalType": "uint64",
          "name": "",
          "type": "uint64"
        }
      ],
      "stateMutability": "view",
      "type": "function"
    },
    {
      "inputs": [],
      "name": "nextConfigExecutionTimeout",
      "outputs": [
        {
          "internalType": "uint64",
          "name": "",
          "type": "uint64"
        }
      ],
      "stateMutability": "view",
      "type": "function"
    },
    {
      "inputs": [],
      "name": "nextConfigFeeReceiver",
      "outputs": [
        {
          "internalType": "address",
          "name": "",
          "type": "address"
        }
      ],
      "stateMutability": "view",
      "type": "function"
    },
    {
      "inputs": [],
      "name": "nextConfigIndex",
      "outputs": [
        {
          "internalType": "uint64",
          "name": "",
          "type": "uint64"
        }
      ],
      "stateMutability": "view",
      "type": "function"
    },
    {
      "inputs": [
        {
          "internalType": "uint64",
          "name": "keyperIndex",
          "type": "uint64"
        }
      ],
      "name": "nextConfigKeypers",
      "outputs": [
        {
          "internalType": "address",
          "name": "",
          "type": "address"
        }
      ],
      "stateMutability": "view",
      "type": "function"
    },
    {
      "inputs": [],
      "name": "nextConfigNumKeypers",
      "outputs": [
        {
          "internalType": "uint64",
          "name": "",
          "type": "uint64"
        }
      ],
      "stateMutability": "view",
      "type": "function"
    },
    {
      "inputs": [
        {
          "internalType": "uint64",
          "name": "n",
          "type": "uint64"
        }
      ],
      "name": "nextConfigRemoveKeypers",
      "outputs": [],
      "stateMutability": "nonpayable",
      "type": "function"
    },
    {
      "inputs": [
        {
          "internalType": "uint64",
          "name": "batchSizeLimit",
          "type": "uint64"
        }
      ],
      "name": "nextConfigSetBatchSizeLimit",
      "outputs": [],
      "stateMutability": "nonpayable",
      "type": "function"
    },
    {
      "inputs": [
        {
          "internalType": "uint64",
          "name": "batchSpan",
          "type": "uint64"
        }
      ],
      "name": "nextConfigSetBatchSpan",
      "outputs": [],
      "stateMutability": "nonpayable",
      "type": "function"
    },
    {
      "inputs": [
        {
          "internalType": "uint64",
          "name": "executionTimeout",
          "type": "uint64"
        }
      ],
      "name": "nextConfigSetExecutionTimeout",
      "outputs": [],
      "stateMutability": "nonpayable",
      "type": "function"
    },
    {
      "inputs": [
        {
          "internalType": "address",
          "name": "feeReceiver",
          "type": "address"
        }
      ],
      "name": "nextConfigSetFeeReceiver",
      "outputs": [],
      "stateMutability": "nonpayable",
      "type": "function"
    },
    {
      "inputs": [
        {
          "internalType": "uint64",
          "name": "startBatchIndex",
          "type": "uint64"
        }
      ],
      "name": "nextConfigSetStartBatchIndex",
      "outputs": [],
      "stateMutability": "nonpayable",
      "type": "function"
    },
    {
      "inputs": [
        {
          "internalType": "uint64",
          "name": "startBlockNumber",
          "type": "uint64"
        }
      ],
      "name": "nextConfigSetStartBlockNumber",
      "outputs": [],
      "stateMutability": "nonpayable",
      "type": "function"
    },
    {
      "inputs": [
        {
          "internalType": "address",
          "name": "targetAddress",
          "type": "address"
        }
      ],
      "name": "nextConfigSetTargetAddress",
      "outputs": [],
      "stateMutability": "nonpayable",
      "type": "function"
    },
    {
      "inputs": [
        {
          "internalType": "bytes4",
          "name": "targetFunctionSelector",
          "type": "bytes4"
        }
      ],
      "name": "nextConfigSetTargetFunctionSelector",
      "outputs": [],
      "stateMutability": "nonpayable",
      "type": "function"
    },
    {
      "inputs": [
        {
          "internalType": "uint64",
          "name": "threshold",
          "type": "uint64"
        }
      ],
      "name": "nextConfigSetThreshold",
      "outputs": [],
      "stateMutability": "nonpayable",
      "type": "function"
    },
    {
      "inputs": [
        {
          "internalType": "uint64",
          "name": "transactionGasLimit",
          "type": "uint64"
        }
      ],
      "name": "nextConfigSetTransactionGasLimit",
      "outputs": [],
      "stateMutability": "nonpayable",
      "type": "function"
    },
    {
      "inputs": [
        {
          "internalType": "uint64",
          "name": "transactionSizeLimit",
          "type": "uint64"
        }
      ],
      "name": "nextConfigSetTransactionSizeLimit",
      "outputs": [],
      "stateMutability": "nonpayable",
      "type": "function"
    },
    {
      "inputs": [],
      "name": "nextConfigStartBatchIndex",
      "outputs": [
        {
          "internalType": "uint64",
          "name": "",
          "type": "uint64"
        }
      ],
      "stateMutability": "view",
      "type": "function"
    },
    {
      "inputs": [],
      "name": "nextConfigStartBlockNumber",
      "outputs": [
        {
          "internalType": "uint64",
          "name": "",
          "type": "uint64"
        }
      ],
      "stateMutability": "view",
      "type": "function"
    },
    {
      "inputs": [],
      "name": "nextConfigTargetAddress",
      "outputs": [
        {
          "internalType": "address",
          "name": "",
          "type": "address"
        }
      ],
      "stateMutability": "view",
      "type": "function"
    },
    {
      "inputs": [],
      "name": "nextConfigTargetFunctionSelector",
      "outputs": [
        {
          "internalType": "bytes4",
          "name": "",
          "type": "bytes4"
        }
      ],
      "stateMutability": "view",
      "type": "function"
    },
    {
      "inputs": [],
      "name": "nextConfigThreshold",
      "outputs": [
        {
          "internalType": "uint64",
          "name": "",
          "type": "uint64"
        }
      ],
      "stateMutability": "view",
      "type": "function"
    },
    {
      "inputs": [],
      "name": "nextConfigTransactionGasLimit",
      "outputs": [
        {
          "internalType": "uint64",
          "name": "",
          "type": "uint64"
        }
      ],
      "stateMutability": "view",
      "type": "function"
    },
    {
      "inputs": [],
      "name": "nextConfigTransactionSizeLimit",
      "outputs": [
        {
          "internalType": "uint64",
          "name": "",
          "type": "uint64"
        }
      ],
      "stateMutability": "view",
      "type": "function"
    },
    {
      "inputs": [],
      "name": "numConfigs",
      "outputs": [
        {
          "internalType": "uint64",
          "name": "",
          "type": "uint64"
        }
      ],
      "stateMutability": "view",
      "type": "function"
    },
    {
      "inputs": [],
      "name": "owner",
      "outputs": [
        {
          "internalType": "address",
          "name": "",
          "type": "address"
        }
      ],
      "stateMutability": "view",
      "type": "function"
    },
    {
      "inputs": [],
      "name": "renounceOwnership",
      "outputs": [],
      "stateMutability": "nonpayable",
      "type": "function"
    },
    {
      "inputs": [],
      "name": "scheduleNextConfig",
      "outputs": [],
      "stateMutability": "nonpayable",
      "type": "function"
    },
    {
      "inputs": [
        {
          "internalType": "address",
          "name": "newOwner",
          "type": "address"
        }
      ],
      "name": "transferOwnership",
      "outputs": [],
      "stateMutability": "nonpayable",
      "type": "function"
    },
    {
      "inputs": [
        {
          "internalType": "uint64",
          "name": "fromStartBlockNumber",
          "type": "uint64"
        }
      ],
      "name": "unscheduleConfigs",
      "outputs": [],
      "stateMutability": "nonpayable",
      "type": "function"
    }
  ],
  "bytecode": "60a06040523480156200001157600080fd5b506040516200370038038062003700833981016040819052620000349162000565565b600080546001600160a01b031916339081178255604051909182917f8be0079c531659141344cd1fd0a4f28419497f9722a3daafe3b4186f6b6457e0908290a35060016200013d604080516101808082018352600080835260208084018290526060848601819052808501839052608080860184905260a080870185905260c080880186905260e0808901879052610100808a01889052610120808b01899052610140808c018a90526101609b8c018a90528c519a8b018d52898b528a89018a90528c518a81529889018d529b8a019790975294880187905292870186905290860185905285018490528401839052830182905282018190529281018390529081019190915290565b815460018181018455600093845260209384902083516005909302018054858501516001600160401b0390811668010000000000000000026001600160801b03199092169416939093179290921782556040830151805193949293620001ac93928501929190910190620004e4565b506060820151600282018054608085015160a086015160c08701516001600160401b039586166001600160801b031990941693909317680100000000000000009286168302176001600160801b0316600160801b918616919091026001600160c01b0390811691909117600160c01b93861684021790935560e0808701516003870180546101008a01519288166001600160e01b0319909116176001600160a01b03928316909402939093179092556101208701516004909601805461014089015161016090990151979093166001600160c01b031990931692909217600160a01b9790911c9690960295909517909116929091160217905560016200036d604080516101808082018352600080835260208084018290526060848601819052808501839052608080860184905260a080870185905260c080880186905260e0808901879052610100808a01889052610120808b01899052610140808c018a90526101609b8c018a90528c519a8b018d52898b528a89018a90528c518a81529889018d529b8a019790975294880187905292870186905290860185905285018490528401839052830182905282018190529281018390529081019190915290565b815460018181018455600093845260209384902083516005909302018054858501516001600160401b0390811668010000000000000000026001600160801b03199092169416939093179290921782556040830151805193949293620003dc93928501929190910190620004e4565b50606082015160028201805460808086015160a087015160c0808901516001600160401b039788166001600160801b031990961695909517680100000000000000009388168402176001600160801b0316600160801b928816929092026001600160c01b0390811692909217600160c01b95881686021790955560e0808901516003890180546101008c0151928a166001600160e01b0319909116176001600160a01b0392831690950294909417909355610120890151600490980180546101408b0151610160909b0151999094166001600160c01b031994851617600160a01b9a90921c99909902171695909416909102939093179093559290911b909116905262000595565b8280548282559060005260206000209081019282156200053c579160200282015b828111156200053c57825182546001600160a01b0319166001600160a01b0390911617825560209092019160019091019062000505565b506200054a9291506200054e565b5090565b5b808211156200054a57600081556001016200054f565b60006020828403121562000577578081fd5b81516001600160401b03811681146200058e578182fd5b9392505050565b60805160c01c61313e620005c2600039600081816106570152818161095e01526121c7015261313e6000f3fe608060405234801561001057600080fd5b506004361061035d5760003560e01c80638da5cb5b116101d3578063cd21aee711610104578063ede71604116100a2578063f7ff384a1161007c578063f7ff384a14610711578063fa84ea0214610719578063fad07bfb1461072c578063fda17adf1461073f57600080fd5b8063ede71604146106ca578063f2fde38b146106f6578063f464ba631461070957600080fd5b8063d9a58f24116100de578063d9a58f241461069f578063db293e51146106b2578063e0b70ed1146106ba578063eb8b5209146106c257600080fd5b8063cd21aee714610652578063ce9919b814610679578063d1ac2e521461068c57600080fd5b8063b8deafcc11610171578063c25e1f241161014b578063c25e1f2414610606578063c7c6e9f414610619578063c9515c581461062c578063cab61fb91461063f57600080fd5b8063b8deafcc146105d8578063b99fd57c146105eb578063bcf67268146105f357600080fd5b80639d63753e116101ad5780639d63753e1461059f578063ab38348e146105b2578063ac91afd5146103a5578063b5a43cef146105c557600080fd5b80638da5cb5b146105735780639bfb9f40146105845780639c7cf8e31461059757600080fd5b80635dc6fdb8116102ad5780636a53e51e1161024b578063719f2e1711610225578063719f2e171461052757806373ed43db1461053a57806381e905a31461054d57806386404b7f1461056057600080fd5b80636a53e51e146105045780636c52838b1461050c578063715018a61461051f57600080fd5b806362fced0e1161028757806362fced0e1461049957806364e9f671146104ac578063660744dc146104b457806368080ea7146104c757600080fd5b80635dc6fdb8146104605780635df1683e14610473578063606df5141461048657600080fd5b80632b2cc6c41161031a578063437cf24e116102f4578063437cf24e146103f757806345f5119014610422578063564093fc1461042a57806359d6accd1461043d57600080fd5b80632b2cc6c4146103c75780632b6cfe68146103da578063420ecaa8146103e257600080fd5b80630415b00c146103625780630b884fa8146103925780630f0aae6f146103a5578063175cbda9146103ad57806318b5e830146103b5578063287447c4146103bf575b600080fd5b610375610370366004612dbd565b610747565b6040516001600160401b0390911681526020015b60405180910390f35b6103756103a0366004612dbd565b6107db565b610375610869565b61037561087e565b6103bd610891565b005b610375610dab565b6103bd6103d5366004612cf8565b610dbf565b610375610e53565b6103ea610e67565b6040516103899190612eca565b61040a610405366004612dbd565b610fd4565b6040516001600160a01b039091168152602001610389565b610375611062565b6103bd610438366004612dbd565b611074565b61045061044b366004612dbd565b611108565b6040519015158152602001610389565b6103bd61046e366004612dbd565b611160565b6103ea610481366004612dbd565b6111f4565b6103bd610494366004612dbd565b611369565b6103bd6104a7366004612d26565b6113fd565b6103ea6115c2565b61040a6104c2366004612dbd565b6115d4565b6104da6104d5366004612dd7565b611619565b604080516001600160401b0394851681529284166020840152921691810191909152606001610389565b610375611823565b6103ea61051a366004612dbd565b611836565b6103bd61199d565b6103bd610535366004612dbd565b611a11565b6103bd610548366004612dbd565b611aa5565b6103bd61055b366004612dbd565b611b39565b61037561056e366004612dbd565b611bcd565b6000546001600160a01b031661040a565b610375610592366004612dbd565b611c5b565b610375611ce9565b6103bd6105ad366004612dbd565b611cfc565b6103756105c0366004612dbd565b611e49565b6103756105d3366004612dbd565b611ecd565b6103756105e6366004612dbd565b611f54565b61040a611fcd565b6103bd610601366004612cf8565b611fe1565b61040a610614366004612dbd565b612075565b6103bd610627366004612dbd565b6120fc565b6103bd61063a366004612dbd565b612190565b61037561064d366004612dbd565b61261b565b6103757f000000000000000000000000000000000000000000000000000000000000000081565b6103bd610687366004612dbd565b6126a9565b6103bd61069a366004612d95565b612737565b6103756106ad366004612dbd565b6127c2565b61040a612840565b610375612854565b610375612864565b6106dd6106d8366004612dbd565b612877565b6040516001600160e01b03199091168152602001610389565b6103bd610704366004612cf8565b6128ff565b6103756129e9565b6106dd6129fc565b61040a610727366004612dd7565b612a10565b61037561073a366004612dbd565b612ac9565b610375612b50565b6000610751610869565b6001600160401b0316826001600160401b03161061078a5760405162461bcd60e51b815260040161078190612e4c565b60405180910390fd5b6001826001600160401b0316815481106107b457634e487b7160e01b600052603260045260246000fd5b6000918252602090912060059091020154600160401b90046001600160401b031692915050565b60006107e5610869565b6001600160401b0316826001600160401b0316106108155760405162461bcd60e51b815260040161078190612e4c565b6001826001600160401b03168154811061083f57634e487b7160e01b600052603260045260246000fd5b6000918252602090912060059091020160020154600160401b90046001600160401b031692915050565b600180546000916108799161308c565b905090565b60006108886115c2565b60e00151905090565b6000546001600160a01b031633146108bb5760405162461bcd60e51b815260040161078190612e95565b6108cd60016001600160401b0361308c565b6001600160401b0316600180549050106109425760405162461bcd60e51b815260206004820152603060248201527f436f6e666967436f6e74726163743a206e756d626572206f6620636f6e66696760448201526f1cc8195e18d959591cc81d5a5b9d0d8d60821b6064820152608401610781565b600061094c610e67565b905060006109586115c2565b905060007f00000000000000000000000000000000000000000000000000000000000000009050806001600160401b031683608001516001600160401b031611156109a4575060808201515b60006109b0824361301b565b6109bb90600161301b565b9050806001600160401b031683602001516001600160401b03161015610a315760405162461bcd60e51b815260206004820152602560248201527f436f6e666967436f6e74726163743a20737461727420626c6f636b20746f6f206044820152646561726c7960d81b6064820152608401610781565b60808401516001600160401b031615610b6857835183516001600160401b03918216911611610ab65760405162461bcd60e51b815260206004820152602b60248201527f436f6e666967436f6e74726163743a20737461727420626174636820696e646560448201526a1e081d1bdbc81cdb585b1b60aa1b6064820152608401610781565b83518351600091610ac69161308c565b905083602001516001600160401b0316818660800151610ae69190613046565b8660200151610af5919061301b565b6001600160401b031614610b625760405162461bcd60e51b815260206004820152602e60248201527f436f6e666967436f6e74726163743a20636f6e666967207472616e736974696f60448201526d6e206e6f74207365616d6c65737360901b6064820152608401610781565b50610bfb565b835183516001600160401b03908116911614610bfb5760405162461bcd60e51b815260206004820152604660248201527f436f6e666967436f6e74726163743a207472616e736974696f6e2066726f6d2060448201527f696e61637469766520636f6e66696720776974682077726f6e67207374617274606482015265040d2dcc8caf60d31b608482015260a401610781565b6001610c05612b63565b815460018181018455600093845260209384902083516005909302018054858501516001600160401b03908116600160401b026001600160801b03199092169416939093179290921782556040830151805193949293610c6d93928501929190910190612bdc565b506060820151600282018054608085015160a086015160c08701516001600160401b039586166001600160801b031990941693909317600160401b9286168302176001600160801b0316600160801b918616919091026001600160c01b0390811691909117600160c01b93861684021790935560e0808701516003870180546101008a01519288166001600160e01b0319909116176001600160a01b03928316909402939093179092556101208701516004909601805461014089015161016090990151979093166001600160c01b031990931692909217600160a01b9790911c969096029590951790911692909116021790557f38889ef980014448a73b6e5dc5579ba1a4b7bd213a586b3f4832351448c48ae6610d8a610869565b6040516001600160401b03909116815260200160405180910390a150505050565b6000610db56115c2565b6040015151905090565b6000546001600160a01b03163314610de95760405162461bcd60e51b815260040161078190612e95565b806001610df4610869565b6001600160401b031681548110610e1b57634e487b7160e01b600052603260045260246000fd5b906000526020600020906005020160030160086101000a8154816001600160a01b0302191690836001600160a01b0316021790555050565b6000610e5d6115c2565b6101600151905090565b610e6f612c41565b6001610e79611062565b6001600160401b031681548110610ea057634e487b7160e01b600052603260045260246000fd5b60009182526020918290206040805161018081018252600590930290910180546001600160401b038082168552600160401b90910416838501526001810180548351818702810187018552818152949592949386019392830182828015610f3057602002820191906000526020600020905b81546001600160a01b03168152600190910190602001808311610f12575b505050918352505060028201546001600160401b038082166020840152600160401b80830482166040850152600160801b830482166060850152600160c01b9283900482166080850152600385015480831660a0860152046001600160a01b0390811660c085015260049094015493841660e080850191909152600160a01b8504901b6001600160e01b031916610100840152920490911661012090910152919050565b6000610fde610869565b6001600160401b0316826001600160401b03161061100e5760405162461bcd60e51b815260040161078190612e4c565b6001826001600160401b03168154811061103857634e487b7160e01b600052603260045260246000fd5b6000918252602090912060059091020160030154600160401b90046001600160a01b031692915050565b6001546000906108799060029061308c565b6000546001600160a01b0316331461109e5760405162461bcd60e51b815260040161078190612e95565b8060016110a9610869565b6001600160401b0316815481106110d057634e487b7160e01b600052603260045260246000fd5b906000526020600020906005020160030160006101000a8154816001600160401b0302191690836001600160401b0316021790555050565b6000806001836001600160401b03168154811061113557634e487b7160e01b600052603260045260246000fd5b6000918252602090912060059091020160020154600160401b90046001600160401b03161192915050565b6000546001600160a01b0316331461118a5760405162461bcd60e51b815260040161078190612e95565b806001611195610869565b6001600160401b0316815481106111bc57634e487b7160e01b600052603260045260246000fd5b906000526020600020906005020160020160086101000a8154816001600160401b0302191690836001600160401b0316021790555050565b6111fc612c41565b600061120783611f54565b90506001816001600160401b03168154811061123357634e487b7160e01b600052603260045260246000fd5b60009182526020918290206040805161018081018252600590930290910180546001600160401b038082168552600160401b909104168385015260018101805483518187028101870185528181529495929493860193928301828280156112c357602002820191906000526020600020905b81546001600160a01b031681526001909101906020018083116112a5575b505050918352505060028201546001600160401b038082166020840152600160401b80830482166040850152600160801b830482166060850152600160c01b9283900482166080850152600385015480831660a0860152046001600160a01b0390811660c085015260049094015493841660e080850191909152600160a01b8504901b6001600160e01b0319166101008401529204909116610120909101529392505050565b6000546001600160a01b031633146113935760405162461bcd60e51b815260040161078190612e95565b80600161139e610869565b6001600160401b0316815481106113c557634e487b7160e01b600052603260045260246000fd5b906000526020600020906005020160020160186101000a8154816001600160401b0302191690836001600160401b0316021790555050565b6000546001600160a01b031633146114275760405162461bcd60e51b815260040161078190612e95565b611438816001600160401b03613075565b6001611442610869565b6001600160401b03168154811061146957634e487b7160e01b600052603260045260246000fd5b90600052602060002090600502016001018054905011156114e55760405162461bcd60e51b815260206004820152603060248201527f436f6e666967436f6e74726163743a206e756d626572206f66206b657970657260448201526f1cc8195e18d959591cc81d5a5b9d0d8d60821b6064820152608401610781565b60005b6001600160401b0381168211156115bd576001611503610869565b6001600160401b03168154811061152a57634e487b7160e01b600052603260045260246000fd5b90600052602060002090600502016001018383836001600160401b031681811061156457634e487b7160e01b600052603260045260246000fd5b90506020020160208101906115799190612cf8565b81546001810183556000928352602090922090910180546001600160a01b0319166001600160a01b03909216919091179055806115b5816130cb565b9150506114e8565b505050565b6115ca612c41565b6001610e79610869565b60006115de6115c2565b60400151826001600160401b03168151811061160a57634e487b7160e01b600052603260045260246000fd5b60200260200101519050919050565b6000806000806001866001600160401b03168154811061164957634e487b7160e01b600052603260045260246000fd5b60009182526020822060059091020154600180546001600160401b03600160401b909304831694509091891690811061169257634e487b7160e01b600052603260045260246000fd5b60009182526020822060059091020154600180546001600160401b03928316945090918a169081106116d457634e487b7160e01b600052603260045260246000fd5b906000526020600020906005020160020160089054906101000a90046001600160401b0316905060006001896001600160401b03168154811061172757634e487b7160e01b600052603260045260246000fd5b906000526020600020906005020160040160189054906101000a90046001600160401b031690506000826001600160401b03161161177557634e487b7160e01b600052600160045260246000fd5b826001600160401b0316886001600160401b031610156117a557634e487b7160e01b600052600160045260246000fd5b60006117b1848a61308c565b90506000836117c08184613046565b6117ca908861301b565b6117d4919061301b565b905060006117e2858361308c565b90506001836001600160401b031610611802576117ff858261308c565b90505b600061180e858461301b565b919a5091985096505050505050509250925092565b600061182d6115c2565b60800151905090565b61183e612c41565b6001826001600160401b03168154811061186857634e487b7160e01b600052603260045260246000fd5b60009182526020918290206040805161018081018252600590930290910180546001600160401b038082168552600160401b909104168385015260018101805483518187028101870185528181529495929493860193928301828280156118f857602002820191906000526020600020905b81546001600160a01b031681526001909101906020018083116118da575b505050918352505060028201546001600160401b038082166020840152600160401b80830482166040850152600160801b830482166060850152600160c01b9283900482166080850152600385015480831660a0860152046001600160a01b0390811660c085015260049094015493841660e080850191909152600160a01b8504901b6001600160e01b03191661010084015292049091166101209091015292915050565b6000546001600160a01b031633146119c75760405162461bcd60e51b815260040161078190612e95565b600080546040516001600160a01b03909116907f8be0079c531659141344cd1fd0a4f28419497f9722a3daafe3b4186f6b6457e0908390a3600080546001600160a01b0319169055565b6000546001600160a01b03163314611a3b5760405162461bcd60e51b815260040161078190612e95565b806001611a46610869565b6001600160401b031681548110611a6d57634e487b7160e01b600052603260045260246000fd5b906000526020600020906005020160040160186101000a8154816001600160401b0302191690836001600160401b0316021790555050565b6000546001600160a01b03163314611acf5760405162461bcd60e51b815260040161078190612e95565b806001611ada610869565b6001600160401b031681548110611b0157634e487b7160e01b600052603260045260246000fd5b906000526020600020906005020160020160006101000a8154816001600160401b0302191690836001600160401b0316021790555050565b6000546001600160a01b03163314611b635760405162461bcd60e51b815260040161078190612e95565b806001611b6e610869565b6001600160401b031681548110611b9557634e487b7160e01b600052603260045260246000fd5b906000526020600020906005020160000160086101000a8154816001600160401b0302191690836001600160401b0316021790555050565b6000611bd7610869565b6001600160401b0316826001600160401b031610611c075760405162461bcd60e51b815260040161078190612e4c565b6001826001600160401b031681548110611c3157634e487b7160e01b600052603260045260246000fd5b6000918252602090912060059091020160040154600160c01b90046001600160401b031692915050565b6000611c65610869565b6001600160401b0316826001600160401b031610611c955760405162461bcd60e51b815260040161078190612e4c565b6001826001600160401b031681548110611cbf57634e487b7160e01b600052603260045260246000fd5b6000918252602090912060059091020160020154600160801b90046001600160401b031692915050565b6000611cf36115c2565b60600151905090565b6000546001600160a01b03163314611d265760405162461bcd60e51b815260040161078190612e95565b6000611d306115c2565b6040015151905080826001600160401b031611611df75760005b826001600160401b0316816001600160401b031610156115bd576001611d6e610869565b6001600160401b031681548110611d9557634e487b7160e01b600052603260045260246000fd5b9060005260206000209060050201600101805480611dc357634e487b7160e01b600052603160045260246000fd5b600082815260209020810160001990810180546001600160a01b031916905501905580611def816130cb565b915050611d4a565b6001611e01610869565b6001600160401b031681548110611e2857634e487b7160e01b600052603260045260246000fd5b90600052602060002090600502016001016000611e459190612ca6565b5050565b6000611e53610869565b6001600160401b0316826001600160401b031610611e835760405162461bcd60e51b815260040161078190612e4c565b6001826001600160401b031681548110611ead57634e487b7160e01b600052603260045260246000fd5b60009182526020909120600590910201546001600160401b031692915050565b6000611ed7610869565b6001600160401b0316826001600160401b031610611f075760405162461bcd60e51b815260040161078190612e4c565b6001826001600160401b031681548110611f3157634e487b7160e01b600052603260045260246000fd5b60009182526020909120600360059092020101546001600160401b031692915050565b6001546000908190611f6890600290613075565b90505b826001600160401b031660018281548110611f9657634e487b7160e01b600052603260045260246000fd5b60009182526020909120600590910201546001600160401b031611611fbb5792915050565b80611fc5816130b4565b915050611f6b565b6000611fd76115c2565b6101200151905090565b6000546001600160a01b0316331461200b5760405162461bcd60e51b815260040161078190612e95565b806001612016610869565b6001600160401b03168154811061203d57634e487b7160e01b600052603260045260246000fd5b906000526020600020906005020160040160006101000a8154816001600160a01b0302191690836001600160a01b0316021790555050565b600061207f610869565b6001600160401b0316826001600160401b0316106120af5760405162461bcd60e51b815260040161078190612e4c565b6001826001600160401b0316815481106120d957634e487b7160e01b600052603260045260246000fd5b60009182526020909120600460059092020101546001600160a01b031692915050565b6000546001600160a01b031633146121265760405162461bcd60e51b815260040161078190612e95565b806001612131610869565b6001600160401b03168154811061215857634e487b7160e01b600052603260045260246000fd5b906000526020600020906005020160020160106101000a8154816001600160401b0302191690836001600160401b0316021790555050565b6000546001600160a01b031633146121ba5760405162461bcd60e51b815260040161078190612e95565b6121ed6001600160401b037f00000000000000000000000000000000000000000000000000000000000000001643613003565b816001600160401b0316116122575760405162461bcd60e51b815260206004820152602a60248201527f436f6e666967436f6e74726163743a2066726f6d20737461727420626c6f636b60448201526920746f6f206561726c7960b01b6064820152608401610781565b60015460006122646115c2565b9050600180548061228557634e487b7160e01b600052603160045260246000fd5b60008281526020812060056000199093019283020180546001600160801b0319168155906122b66001830182612ca6565b506000600282018190556003820180546001600160e01b031916905560049091018190559155600180546122ea9190613075565b90505b80156123d65760006001828154811061231657634e487b7160e01b600052603260045260246000fd5b6000918252602090912060059091020180549091506001600160401b03808716600160401b90920416106123bd57600180548061236357634e487b7160e01b600052603160045260246000fd5b60008281526020812060056000199093019283020180546001600160801b0319168155906123946001830182612ca6565b506000600282018190556003820180546001600160e01b031916905560049091015590556123c3565b506123d6565b50806123ce816130b4565b9150506122ed565b50600180548082018255600091909152815160059091027fb10e2d527612073b26eecdfd717e6a320cf44b4afac2b0732d9fcbe2b7fa0cf6810180546020808601516001600160401b03908116600160401b026001600160801b03199093169516949094171781556040840151805185949293612479937fb10e2d527612073b26eecdfd717e6a320cf44b4afac2b0732d9fcbe2b7fa0cf7909101920190612bdc565b506060820151600282018054608085015160a086015160c08701516001600160401b039586166001600160801b031990941693909317600160401b9286168302176001600160801b0316600160801b918616919091026001600160c01b0390811691909117600160c01b93861684021790935560e0808701516003870180546101008a01519288166001600160e01b0319909116176001600160a01b03928316909402939093179092556101208701516004909601805461014089015161016090990151979093166001600160c01b031990931692909217600160a01b9790911c96909602959095179091169282160291909117909155600154908316116125d25760405162461bcd60e51b815260206004820152602660248201527f436f6e666967436f6e74726163743a206e6f20636f6e6669677320756e73636860448201526519591d5b195960d21b6064820152608401610781565b7f202adac5e4f5fa65a6e6ec3afc99da8986c020c2799f4e0aee50552a05a0bfdf6125fb610869565b6040516001600160401b03909116815260200160405180910390a1505050565b6000612625610869565b6001600160401b0316826001600160401b0316106126555760405162461bcd60e51b815260040161078190612e4c565b6001826001600160401b03168154811061267f57634e487b7160e01b600052603260045260246000fd5b6000918252602090912060059091020160020154600160c01b90046001600160401b031692915050565b6000546001600160a01b031633146126d35760405162461bcd60e51b815260040161078190612e95565b8060016126de610869565b6001600160401b03168154811061270557634e487b7160e01b600052603260045260246000fd5b60009182526020909120600590910201805467ffffffffffffffff19166001600160401b039290921691909117905550565b6000546001600160a01b031633146127615760405162461bcd60e51b815260040161078190612e95565b80600161276c610869565b6001600160401b03168154811061279357634e487b7160e01b600052603260045260246000fd5b906000526020600020906005020160040160146101000a81548163ffffffff021916908360e01c021790555050565b60006127cc610869565b6001600160401b0316826001600160401b0316106127fc5760405162461bcd60e51b815260040161078190612e4c565b6001826001600160401b03168154811061282657634e487b7160e01b600052603260045260246000fd5b600091825260209091206001600590920201015492915050565b600061284a6115c2565b6101000151905090565b600061285e6115c2565b51919050565b600061286e6115c2565b60c00151905090565b6000612881610869565b6001600160401b0316826001600160401b0316106128b15760405162461bcd60e51b815260040161078190612e4c565b6001826001600160401b0316815481106128db57634e487b7160e01b600052603260045260246000fd5b6000918252602090912060046005909202010154600160a01b900460e01b92915050565b6000546001600160a01b031633146129295760405162461bcd60e51b815260040161078190612e95565b6001600160a01b03811661298e5760405162461bcd60e51b815260206004820152602660248201527f4f776e61626c653a206e6577206f776e657220697320746865207a65726f206160448201526564647265737360d01b6064820152608401610781565b600080546040516001600160a01b03808516939216917f8be0079c531659141344cd1fd0a4f28419497f9722a3daafe3b4186f6b6457e091a3600080546001600160a01b0319166001600160a01b0392909216919091179055565b60006129f36115c2565b60a00151905090565b6000612a066115c2565b6101400151905090565b6000612a1a610869565b6001600160401b0316836001600160401b031610612a4a5760405162461bcd60e51b815260040161078190612e4c565b6001836001600160401b031681548110612a7457634e487b7160e01b600052603260045260246000fd5b9060005260206000209060050201600101826001600160401b031681548110612aad57634e487b7160e01b600052603260045260246000fd5b6000918252602090912001546001600160a01b03169392505050565b6000612ad3610869565b6001600160401b0316826001600160401b031610612b035760405162461bcd60e51b815260040161078190612e4c565b6001826001600160401b031681548110612b2d57634e487b7160e01b600052603260045260246000fd5b60009182526020909120600260059092020101546001600160401b031692915050565b6000612b5a6115c2565b60200151905090565b612b6b612c41565b506040805161018081018252600080825260208083018290528351828152908101845292820192909252606081018290526080810182905260a0810182905260c0810182905260e0810182905261010081018290526101208101829052610140810182905261016081019190915290565b828054828255906000526020600020908101928215612c31579160200282015b82811115612c3157825182546001600160a01b0319166001600160a01b03909116178255602090920191600190910190612bfc565b50612c3d929150612cc7565b5090565b604080516101808101825260008082526020820181905260609282018390529181018290526080810182905260a0810182905260c0810182905260e0810182905261010081018290526101208101829052610140810182905261016081019190915290565b5080546000825590600052602060002090810190612cc49190612cc7565b50565b5b80821115612c3d5760008155600101612cc8565b80356001600160401b0381168114612cf357600080fd5b919050565b600060208284031215612d09578081fd5b81356001600160a01b0381168114612d1f578182fd5b9392505050565b60008060208385031215612d38578081fd5b82356001600160401b0380821115612d4e578283fd5b818501915085601f830112612d61578283fd5b813581811115612d6f578384fd5b8660208260051b8501011115612d83578384fd5b60209290920196919550909350505050565b600060208284031215612da6578081fd5b81356001600160e01b031981168114612d1f578182fd5b600060208284031215612dce578081fd5b612d1f82612cdc565b60008060408385031215612de9578182fd5b612df283612cdc565b9150612e0060208401612cdc565b90509250929050565b6000815180845260208085019450808401835b83811015612e415781516001600160a01b031687529582019590820190600101612e1c565b509495945050505050565b60208082526029908201527f436f6e666967436f6e74726163743a20636f6e66696720696e646578206f7574604082015268206f662072616e676560b81b606082015260800190565b6020808252818101527f4f776e61626c653a2063616c6c6572206973206e6f7420746865206f776e6572604082015260600190565b60208152612ee46020820183516001600160401b03169052565b60006020830151612f0060408401826001600160401b03169052565b506040830151610180806060850152612f1d6101a0850183612e09565b91506060850151612f3960808601826001600160401b03169052565b5060808501516001600160401b03811660a08601525060a08501516001600160401b03811660c08601525060c08501516001600160401b03811660e08601525060e0850151610100612f95818701836001600160401b03169052565b8601519050610120612fb1868201836001600160a01b03169052565b8601519050610140612fcd868201836001600160a01b03169052565b8601519050610160612fea868201836001600160e01b0319169052565b909501516001600160401b031693019290925250919050565b60008219821115613016576130166130f2565b500190565b60006001600160401b0380831681851680830382111561303d5761303d6130f2565b01949350505050565b60006001600160401b038083168185168183048111821515161561306c5761306c6130f2565b02949350505050565b600082821015613087576130876130f2565b500390565b60006001600160401b03838116908316818110156130ac576130ac6130f2565b039392505050565b6000816130c3576130c36130f2565b506000190190565b60006001600160401b03808316818114156130e8576130e86130f2565b6001019392505050565b634e487b7160e01b600052601160045260246000fdfea26469706673582212201561f9a40fcbdcdd9e331e3a5d73d3cb51f4042e778872732a4c61b6077c642864736f6c63430008040033",
  "bytecodeSha1": "606d204306513e66eccaf757429b50588279acf3",
  "compiler": {
    "evm_version": "istanbul",
    "optimizer": {
      "enabled": true,
      "runs": 200
    },
    "version": "0.8.4+commit.c7e474f2"
  },
  "contractName": "ConfigContract",
  "language": "Solidity",
  "natspec": {
    "details": "The config objects are stored in sequence, with configs applicable to later batches being     lined up behind configs applicable to earlier batches (according to     `config.startBlockNumber`). The contract owner is entitled to add or remove configs at the     end at will as long as a notice of at least `configChangeHeadsUpBlocks` is given.To add a new config, first populate the `nextConfig` object accordingly and then schedule     it with `scheduleNextConfig`.",
    "kind": "dev",
    "methods": {
      "configForBatchIndex(uint64)": {
        "notice": "Get the config for a certain batch.",
        "params": {
          "batchIndex": "The index of the batch."
        }
      },
      "configIndexForBatchIndex(uint64)": {
        "notice": "Get the index of the config for the batch with the given index.",
        "params": {
          "batchIndex": "The index of the batch."
        }
      },
      "owner()": {
        "details": "Returns the address of the current owner."
      },
      "renounceOwnership()": {
        "details": "Leaves the contract without owner. It will not be possible to call `onlyOwner` functions anymore. Can only be called by the current owner. NOTE: Renouncing ownership will leave the contract without an owner, thereby removing any functionality that is only available to the owner."
      },
      "scheduleNextConfig()": {
        "notice": "Finalize the `nextConfig` object and add it to the end of the config sequence.`startBlockNumber` of the next config must be at least `configChangeHeadsUpBlocks`     blocks or the batch span of the current config in the future, whatever is greater.The transition between the next config and the config currently at the end of the     config sequence must be seamless, i.e., the batches must not be cut short."
      },
      "transferOwnership(address)": {
        "details": "Transfers ownership of the contract to a new account (`newOwner`). Can only be called by the current owner."
      },
      "unscheduleConfigs(uint64)": {
        "notice": "Remove configs from the end.`fromStartBlockNumber` must be `configChangeHeadsUpBlocks` blocks in the future.This method can remove one or more configs. If no config would be removed, an error     is thrown.This invalidates the currently set next config.",
        "params": {
          "fromStartBlockNumber": "All configs with a start block number greater than or equal     to this will be removed."
        }
      }
    },
    "title": "A contract that manages `BatchConfig` objects.",
    "version": 1
  },
  "opcodes": "PUSH1 0x80 PUSH1 0x40 MSTORE CALLVALUE DUP1 ISZERO PUSH2 0x10 JUMPI PUSH1 0x0 DUP1 REVERT JUMPDEST POP PUSH1 0x4 CALLDATASIZE LT PUSH2 0x35D JUMPI PUSH1 0x0 CALLDATALOAD PUSH1 0xE0 SHR DUP1 PUSH4 0x8DA5CB5B GT PUSH2 0x1D3 JUMPI DUP1 PUSH4 0xCD21AEE7 GT PUSH2 0x104 JUMPI DUP1 PUSH4 0xEDE71604 GT PUSH2 0xA2 JUMPI DUP1 PUSH4 0xF7FF384A GT PUSH2 0x7C JUMPI DUP1 PUSH4 0xF7FF384A EQ PUSH2 0x711 JUMPI DUP1 PUSH4 0xFA84EA02 EQ PUSH2 0x719 JUMPI DUP1 PUSH4 0xFAD07BFB EQ PUSH2 0x72C JUMPI DUP1 PUSH4 0xFDA17ADF EQ PUSH2 0x73F JUMPI PUSH1 0x0 DUP1 REVERT JUMPDEST DUP1 PUSH4 0xEDE71604 EQ PUSH2 0x6CA JUMPI DUP1 PUSH4 0xF2FDE38B EQ PUSH2 0x6F6 JUMPI DUP1 PUSH4 0xF464BA63 EQ PUSH2 0x709 JUMPI PUSH1 0x0 DUP1 REVERT JUMPDEST DUP1 PUSH4 0xD9A58F24 GT PUSH2 0xDE JUMPI DUP1 PUSH4 0xD9A58F24 EQ PUSH2 0x69F JUMPI DUP1 PUSH4 0xDB293E51 EQ PUSH2 0x6B2 JUMPI DUP1 PUSH4 0xE0B70ED1 EQ PUSH2 0x6BA JUMPI DUP1 PUSH4 0xEB8B5209 EQ PUSH2 0x6C2 JUMPI PUSH1 0x0 DUP1 REVERT JUMPDEST DUP1 PUSH4 0xCD21AEE7 EQ PUSH2 0x652 JUMPI DUP1 PUSH4 0xCE9919B8 EQ PUSH2 0x679 JUMPI DUP1 PUSH4 0xD1AC2E52 EQ PUSH2 0x68C JUMPI PUSH1 0x0 DUP1 REVERT JUMPDEST DUP1 PUSH4 0xB8DEAFCC GT PUSH2 0x171 JUMPI DUP1 PUSH4 0xC25E1F24 GT PUSH2 0x14B JUMPI DUP1 PUSH4 0xC25E1F24 EQ PUSH2 0x606 JUMPI DUP1 PUSH4 0xC7C6E9F4 EQ PUSH2 0x619 JUMPI DUP1 PUSH4 0xC9515C58 EQ PUSH2 0x62C JUMPI DUP1 PUSH4 0xCAB61FB9 EQ PUSH2 0x63F JUMPI PUSH1 0x0 DUP1 REVERT JUMPDEST DUP1 PUSH4 0xB8DEAFCC EQ PUSH2 0x5D8 JUMPI DUP1 PUSH4 0xB99FD57C EQ PUSH2 0x5EB JUMPI DUP1 PUSH4 0xBCF67268 EQ PUSH2 0x5F3 JUMPI PUSH1 0x0 DUP1 REVERT JUMPDEST DUP1 PUSH4 0x9D63753E GT PUSH2 0x1AD JUMPI DUP1 PUSH4 0x9D63753E EQ PUSH2 0x59F JUMPI DUP1 PUSH4 0xAB38348E EQ PUSH2 0x5B2 JUMPI DUP1 PUSH4 0xAC91AFD5 EQ PUSH2 0x3A5 JUMPI DUP1 PUSH4 0xB5A43CEF EQ PUSH2 0x5C5 JUMPI PUSH1 0x0 DUP1 REVERT JUMPDEST DUP1 PUSH4 0x8DA5CB5B EQ PUSH2 0x573 JUMPI DUP1 PUSH4 0x9BFB9F40 EQ PUSH2 0x584 JUMPI DUP1 PUSH4 0x9C7CF8E3 EQ PUSH2 0x597 JUMPI PUSH1 0x0 DUP1 REVERT JUMPDEST DUP1 PUSH4 0x5DC6FDB8 GT PUSH2 0x2AD JUMPI DUP1 PUSH4 0x6A53E51E GT PUSH2 0x24B JUMPI DUP1 PUSH4 0x719F2E17 GT PUSH2 0x225 JUMPI DUP1 PUSH4 0x719F2E17 EQ PUSH2 0x527 JUMPI DUP1 PUSH4 0x73ED43DB EQ PUSH2 0x53A JUMPI DUP1 PUSH4 0x81E905A3 EQ PUSH2 0x54D JUMPI DUP1 PUSH4 0x86404B7F EQ PUSH2 0x560 JUMPI PUSH1 0x0 DUP1 REVERT JUMPDEST DUP1 PUSH4 0x6A53E51E EQ PUSH2 0x504 JUMPI DUP1 PUSH4 0x6C52838B EQ PUSH2 0x50C JUMPI DUP1 PUSH4 0x715018A6 EQ PUSH2 0x51F JUMPI PUSH1 0x0 DUP1 REVERT JUMPDEST DUP1 PUSH4 0x62FCED0E GT PUSH2 0x287 JUMPI DUP1 PUSH4 0x62FCED0E EQ PUSH2 0x499 JUMPI DUP1 PUSH4 0x64E9F671 EQ PUSH2 0x4AC JUMPI DUP1 PUSH4 0x660744DC EQ PUSH2 0x4B4 JUMPI DUP1 PUSH4 0x68080EA7 EQ PUSH2 0x4C7 JUMPI PUSH1 0x0 DUP1 REVERT JUMPDEST DUP1 PUSH4 0x5DC6FDB8 EQ PUSH2 0x460 JUMPI DUP1 PUSH4 0x5DF1683E EQ PUSH2 0x473 JUMPI DUP1 PUSH4 0x606DF514 EQ PUSH2 0x486 JUMPI PUSH1 0x0 DUP1 REVERT JUMPDEST DUP1 PUSH4 0x2B2CC6C4 GT PUSH2 0x31A JUMPI DUP1 PUSH4 0x437CF24E GT PUSH2 0x2F4 JUMPI DUP1 PUSH4 0x437CF24E EQ PUSH2 0x3F7 JUMPI DUP1 PUSH4 0x45F51190 EQ PUSH2 0x422 JUMPI DUP1 PUSH4 0x564093FC EQ PUSH2 0x42A JUMPI DUP1 PUSH4 0x59D6ACCD EQ PUSH2 0x43D JUMPI PUSH1 0x0 DUP1 REVERT JUMPDEST DUP1 PUSH4 0x2B2CC6C4 EQ PUSH2 0x3C7 JUMPI DUP1 PUSH4 0x2B6CFE68 EQ PUSH2 0x3DA JUMPI DUP1 PUSH4 0x420ECAA8 EQ PUSH2 0x3E2 JUMPI PUSH1 0x0 DUP1 REVERT JUMPDEST DUP1 PUSH4 0x415B00C EQ PUSH2 0x362 JUMPI DUP1 PUSH4 0xB884FA8 EQ PUSH2 0x392 JUMPI DUP1 PUSH4 0xF0AAE6F EQ PUSH2 0x3A5 JUMPI DUP1 PUSH4 0x175CBDA9 EQ PUSH2 0x3AD JUMPI DUP1 PUSH4 0x18B5E830 EQ PUSH2 0x3B5 JUMPI DUP1 PUSH4 0x287447C4 EQ PUSH2 0x3BF JUMPI JUMPDEST PUSH1 0x0 DUP1 REVERT JUMPDEST PUSH2 0x375 PUSH2 0x370 CALLDATASIZE PUSH1 0x4 PUSH2 0x2DBD JUMP JUMPDEST PUSH2 0x747 JUMP JUMPDEST PUSH1 0x40 MLOAD PUSH1 0x1 PUSH1 0x1 PUSH1 0x40 SHL SUB SWAP1 SWAP2 AND DUP2 MSTORE PUSH1 0x20 ADD JUMPDEST PUSH1 0x40 MLOAD DUP1 SWAP2 SUB SWAP1 RETURN JUMPDEST PUSH2 0x375 PUSH2 0x3A0 CALLDATASIZE PUSH1 0x4 PUSH2 0x2DBD JUMP JUMPDEST PUSH2 0x7DB JUMP JUMPDEST PUSH2 0x375 PUSH2 0x869 JUMP JUMPDEST PUSH2 0x375 PUSH2 0x87E JUMP JUMPDEST PUSH2 0x3BD PUSH2 0x891 JUMP JUMPDEST STOP JUMPDEST PUSH2 0x375 PUSH2 0xDAB JUMP JUMPDEST PUSH2 0x3BD PUSH2 0x3D5 CALLDATASIZE PUSH1 0x4 PUSH2 0x2CF8 JUMP JUMPDEST PUSH2 0xDBF JUMP JUMPDEST PUSH2 0x375 PUSH2 0xE53 JUMP JUMPDEST PUSH2 0x3EA PUSH2 0xE67 JUMP JUMPDEST PUSH1 0x40 MLOAD PUSH2 0x389 SWAP2 SWAP1 PUSH2 0x2ECA JUMP JUMPDEST PUSH2 0x40A PUSH2 0x405 CALLDATASIZE PUSH1 0x4 PUSH2 0x2DBD JUMP JUMPDEST PUSH2 0xFD4 JUMP JUMPDEST PUSH1 0x40 MLOAD PUSH1 0x1 PUSH1 0x1 PUSH1 0xA0 SHL SUB SWAP1 SWAP2 AND DUP2 MSTORE PUSH1 0x20 ADD PUSH2 0x389 JUMP JUMPDEST PUSH2 0x375 PUSH2 0x1062 JUMP JUMPDEST PUSH2 0x3BD PUSH2 0x438 CALLDATASIZE PUSH1 0x4 PUSH2 0x2DBD JUMP JUMPDEST PUSH2 0x1074 JUMP JUMPDEST PUSH2 0x450 PUSH2 0x44B CALLDATASIZE PUSH1 0x4 PUSH2 0x2DBD JUMP JUMPDEST PUSH2 0x1108 JUMP JUMPDEST PUSH1 0x40 MLOAD SWAP1 ISZERO ISZERO DUP2 MSTORE PUSH1 0x20 ADD PUSH2 0x389 JUMP JUMPDEST PUSH2 0x3BD PUSH2 0x46E CALLDATASIZE PUSH1 0x4 PUSH2 0x2DBD JUMP JUMPDEST PUSH2 0x1160 JUMP JUMPDEST PUSH2 0x3EA PUSH2 0x481 CALLDATASIZE PUSH1 0x4 PUSH2 0x2DBD JUMP JUMPDEST PUSH2 0x11F4 JUMP JUMPDEST PUSH2 0x3BD PUSH2 0x494 CALLDATASIZE PUSH1 0x4 PUSH2 0x2DBD JUMP JUMPDEST PUSH2 0x1369 JUMP JUMPDEST PUSH2 0x3BD PUSH2 0x4A7 CALLDATASIZE PUSH1 0x4 PUSH2 0x2D26 JUMP JUMPDEST PUSH2 0x13FD JUMP JUMPDEST PUSH2 0x3EA PUSH2 0x15C2 JUMP JUMPDEST PUSH2 0x40A PUSH2 0x4C2 CALLDATASIZE PUSH1 0x4 PUSH2 0x2DBD JUMP JUMPDEST PUSH2 0x15D4 JUMP JUMPDEST PUSH2 0x4DA PUSH2 0x4D5 CALLDATASIZE PUSH1 0x4 PUSH2 0x2DD7 JUMP JUMPDEST PUSH2 0x1619 JUMP JUMPDEST PUSH1 0x40 DUP1 MLOAD PUSH1 0x1 PUSH1 0x1 PUSH1 0x40 SHL SUB SWAP5 DUP6 AND DUP2 MSTORE SWAP3 DUP5 AND PUSH1 0x20 DUP5 ADD MSTORE SWAP3 AND SWAP2 DUP2 ADD SWAP2 SWAP1 SWAP2 MSTORE PUSH1 0x60 ADD PUSH2 0x389 JUMP JUMPDEST PUSH2 0x375 PUSH2 0x1823 JUMP JUMPDEST PUSH2 0x3EA PUSH2 0x51A CALLDATASIZE PUSH1 0x4 PUSH2 0x2DBD JUMP JUMPDEST PUSH2 0x1836 JUMP JUMPDEST PUSH2 0x3BD PUSH2 0x199D JUMP JUMPDEST PUSH2 0x3BD PUSH2 0x535 CALLDATASIZE PUSH1 0x4 PUSH2 0x2DBD JUMP JUMPDEST PUSH2 0x1A11 JUMP JUMPDEST PUSH2 0x3BD PUSH2 0x548 CALLDATASIZE PUSH1 0x4 PUSH2 0x2DBD JUMP JUMPDEST PUSH2 0x1AA5 JUMP JUMPDEST PUSH2 0x3BD PUSH2 0x55B CALLDATASIZE PUSH1 0x4 PUSH2 0x2DBD JUMP JUMPDEST PUSH2 0x1B39 JUMP JUMPDEST PUSH2 0x375 PUSH2 0x56E CALLDATASIZE PUSH1 0x4 PUSH2 0x2DBD JUMP JUMPDEST PUSH2 0x1BCD JUMP JUMPDEST PUSH1 0x0 SLOAD PUSH1 0x1 PUSH1 0x1 PUSH1 0xA0 SHL SUB AND PUSH2 0x40A JUMP JUMPDEST PUSH2 0x375 PUSH2 0x592 CALLDATASIZE PUSH1 0x4 PUSH2 0x2DBD JUMP JUMPDEST PUSH2 0x1C5B JUMP JUMPDEST PUSH2 0x375 PUSH2 0x1CE9 JUMP JUMPDEST PUSH2 0x3BD PUSH2 0x5AD CALLDATASIZE PUSH1 0x4 PUSH2 0x2DBD JUMP JUMPDEST PUSH2 0x1CFC JUMP JUMPDEST PUSH2 0x375 PUSH2 0x5C0 CALLDATASIZE PUSH1 0x4 PUSH2 0x2DBD JUMP JUMPDEST PUSH2 0x1E49 JUMP JUMPDEST PUSH2 0x375 PUSH2 0x5D3 CALLDATASIZE PUSH1 0x4 PUSH2 0x2DBD JUMP JUMPDEST PUSH2 0x1ECD JUMP JUMPDEST PUSH2 0x375 PUSH2 0x5E6 CALLDATASIZE PUSH1 0x4 PUSH2 0x2DBD JUMP JUMPDEST PUSH2 0x1F54 JUMP JUMPDEST PUSH2 0x40A PUSH2 0x1FCD JUMP JUMPDEST PUSH2 0x3BD PUSH2 0x601 CALLDATASIZE PUSH1 0x4 PUSH2 0x2CF8 JUMP JUMPDEST PUSH2 0x1FE1 JUMP JUMPDEST PUSH2 0x40A PUSH2 0x614 CALLDATASIZE PUSH1 0x4 PUSH2 0x2DBD JUMP JUMPDEST PUSH2 0x2075 JUMP JUMPDEST PUSH2 0x3BD PUSH2 0x627 CALLDATASIZE PUSH1 0x4 PUSH2 0x2DBD JUMP JUMPDEST PUSH2 0x20FC JUMP JUMPDEST PUSH2 0x3BD PUSH2 0x63A CALLDATASIZE PUSH1 0x4 PUSH2 0x2DBD JUMP JUMPDEST PUSH2 0x2190 JUMP JUMPDEST PUSH2 0x375 PUSH2 0x64D CALLDATASIZE PUSH1 0x4 PUSH2 0x2DBD JUMP JUMPDEST PUSH2 0x261B JUMP JUMPDEST PUSH2 0x375 PUSH32 0x0 DUP2 JUMP JUMPDEST PUSH2 0x3BD PUSH2 0x687 CALLDATASIZE PUSH1 0x4 PUSH2 0x2DBD JUMP JUMPDEST PUSH2 0x26A9 JUMP JUMPDEST PUSH2 0x3BD PUSH2 0x69A CALLDATASIZE PUSH1 0x4 PUSH2 0x2D95 JUMP JUMPDEST PUSH2 0x2737 JUMP JUMPDEST PUSH2 0x375 PUSH2 0x6AD CALLDATASIZE PUSH1 0x4 PUSH2 0x2DBD JUMP JUMPDEST PUSH2 0x27C2 JUMP JUMPDEST PUSH2 0x40A PUSH2 0x2840 JUMP JUMPDEST PUSH2 0x375 PUSH2 0x2854 JUMP JUMPDEST PUSH2 0x375 PUSH2 0x2864 JUMP JUMPDEST PUSH2 0x6DD PUSH2 0x6D8 CALLDATASIZE PUSH1 0x4 PUSH2 0x2DBD JUMP JUMPDEST PUSH2 0x2877 JUMP JUMPDEST PUSH1 0x40 MLOAD PUSH1 0x1 PUSH1 0x1 PUSH1 0xE0 SHL SUB NOT SWAP1 SWAP2 AND DUP2 MSTORE PUSH1 0x20 ADD PUSH2 0x389 JUMP JUMPDEST PUSH2 0x3BD PUSH2 0x704 CALLDATASIZE PUSH1 0x4 PUSH2 0x2CF8 JUMP JUMPDEST PUSH2 0x28FF JUMP JUMPDEST PUSH2 0x375 PUSH2 0x29E9 JUMP JUMPDEST PUSH2 0x6DD PUSH2 0x29FC JUMP JUMPDEST PUSH2 0x40A PUSH2 0x727 CALLDATASIZE PUSH1 0x4 PUSH2 0x2DD7 JUMP JUMPDEST PUSH2 0x2A10 JUMP JUMPDEST PUSH2 0x375 PUSH2 0x73A CALLDATASIZE PUSH1 0x4 PUSH2 0x2DBD JUMP JUMPDEST PUSH2 0x2AC9 JUMP JUMPDEST PUSH2 0x375 PUSH2 0x2B50 JUMP JUMPDEST PUSH1 0x0 PUSH2 0x751 PUSH2 0x869 JUMP JUMPDEST PUSH1 0x1 PUSH1 0x1 PUSH1 0x40 SHL SUB AND DUP3 PUSH1 0x1 PUSH1 0x1 PUSH1 0x40 SHL SUB AND LT PUSH2 0x78A JUMPI PUSH1 0x40 MLOAD PUSH3 0x461BCD PUSH1 0xE5 SHL DUP2 MSTORE PUSH1 0x4 ADD PUSH2 0x781 SWAP1 PUSH2 0x2E4C JUMP JUMPDEST PUSH1 0x40 MLOAD DUP1 SWAP2 SUB SWAP1 REVERT JUMPDEST PUSH1 0x1 DUP3 PUSH1 0x1 PUSH1 0x1 PUSH1 0x40 SHL SUB AND DUP2 SLOAD DUP2 LT PUSH2 0x7B4 JUMPI PUSH4 0x4E487B71 PUSH1 0xE0 SHL PUSH1 0x0 MSTORE PUSH1 0x32 PUSH1 0x4 MSTORE PUSH1 0x24 PUSH1 0x0 REVERT JUMPDEST PUSH1 0x0 SWAP2 DUP3 MSTORE PUSH1 0x20 SWAP1 SWAP2 KECCAK256 PUSH1 0x5 SWAP1 SWAP2 MUL ADD SLOAD PUSH1 0x1 PUSH1 0x40 SHL SWAP1 DIV PUSH1 0x1 PUSH1 0x1 PUSH1 0x40 SHL SUB AND SWAP3 SWAP2 POP POP JUMP JUMPDEST PUSH1 0x0 PUSH2 0x7E5 PUSH2 0x869 JUMP JUMPDEST PUSH1 0x1 PUSH1 0x1 PUSH1 0x40 SHL SUB AND DUP3 PUSH1 0x1 PUSH1 0x1 PUSH1 0x40 SHL SUB AND LT PUSH2 0x815 JUMPI PUSH1 0x40 MLOAD PUSH3 0x461BCD PUSH1 0xE5 SHL DUP2 MSTORE PUSH1 0x4 ADD PUSH2 0x781 SWAP1 PUSH2 0x2E4C JUMP JUMPDEST PUSH1 0x1 DUP3 PUSH1 0x1 PUSH1 0x1 PUSH1 0x40 SHL SUB AND DUP2 SLOAD DUP2 LT PUSH2 0x83F JUMPI PUSH4 0x4E487B71 PUSH1 0xE0 SHL PUSH1 0x0 MSTORE PUSH1 0x32 PUSH1 0x4 MSTORE PUSH1 0x24 PUSH1 0x0 REVERT JUMPDEST PUSH1 0x0 SWAP2 DUP3 MSTORE PUSH1 0x20 SWAP1 SWAP2 KECCAK256 PUSH1 0x5 SWAP1 SWAP2 MUL ADD PUSH1 0x2 ADD SLOAD PUSH1 0x1 PUSH1 0x40 SHL SWAP1 DIV PUSH1 0x1 PUSH1 0x1 PUSH1 0x40 SHL SUB AND SWAP3 SWAP2 POP POP JUMP JUMPDEST PUSH1 0x1 DUP1 SLOAD PUSH1 0x0 SWAP2 PUSH2 0x879 SWAP2 PUSH2 0x308C JUMP JUMPDEST SWAP1 POP SWAP1 JUMP JUMPDEST PUSH1 0x0 PUSH2 0x888 PUSH2 0x15C2 JUMP JUMPDEST PUSH1 0xE0 ADD MLOAD SWAP1 POP SWAP1 JUMP JUMPDEST PUSH1 0x0 SLOAD PUSH1 0x1 PUSH1 0x1 PUSH1 0xA0 SHL SUB AND CALLER EQ PUSH2 0x8BB JUMPI PUSH1 0x40 MLOAD PUSH3 0x461BCD PUSH1 0xE5 SHL DUP2 MSTORE PUSH1 0x4 ADD PUSH2 0x781 SWAP1 PUSH2 0x2E95 JUMP JUMPDEST PUSH2 0x8CD PUSH1 0x1 PUSH1 0x1 PUSH1 0x1 PUSH1 0x40 SHL SUB PUSH2 0x308C JUMP JUMPDEST PUSH1 0x1 PUSH1 0x1 PUSH1 0x40 SHL SUB AND PUSH1 0x1 DUP1 SLOAD SWAP1 POP LT PUSH2 0x942 JUMPI PUSH1 0x40 MLOAD PUSH3 0x461BCD PUSH1 0xE5 SHL DUP2 MSTORE PUSH1 0x20 PUSH1 0x4 DUP3 ADD MSTORE PUSH1 0x30 PUSH1 0x24 DUP3 ADD MSTORE PUSH32 0x436F6E666967436F6E74726163743A206E756D626572206F6620636F6E666967 PUSH1 0x44 DUP3 ADD MSTORE PUSH16 0x1CC8195E18D959591CC81D5A5B9D0D8D PUSH1 0x82 SHL PUSH1 0x64 DUP3 ADD MSTORE PUSH1 0x84 ADD PUSH2 0x781 JUMP JUMPDEST PUSH1 0x0 PUSH2 0x94C PUSH2 0xE67 JUMP JUMPDEST SWAP1 POP PUSH1 0x0 PUSH2 0x958 PUSH2 0x15C2 JUMP JUMPDEST SWAP1 POP PUSH1 0x0 PUSH32 0x0 SWAP1 POP DUP1 PUSH1 0x1 PUSH1 0x1 PUSH1 0x40 SHL SUB AND DUP4 PUSH1 0x80 ADD MLOAD PUSH1 0x1 PUSH1 0x1 PUSH1 0x40 SHL SUB AND GT ISZERO PUSH2 0x9A4 JUMPI POP PUSH1 0x80 DUP3 ADD MLOAD JUMPDEST PUSH1 0x0 PUSH2 0x9B0 DUP3 NUMBER PUSH2 0x301B JUMP JUMPDEST PUSH2 0x9BB SWAP1 PUSH1 0x1 PUSH2 0x301B JUMP JUMPDEST SWAP1 POP DUP1 PUSH1 0x1 PUSH1 0x1 PUSH1 0x40 SHL SUB AND DUP4 PUSH1 0x20 ADD MLOAD PUSH1 0x1 PUSH1 0x1 PUSH1 0x40 SHL SUB AND LT ISZERO PUSH2 0xA31 JUMPI PUSH1 0x40 MLOAD PUSH3 0x461BCD PUSH1 0xE5 SHL DUP2 MSTORE PUSH1 0x20 PUSH1 0x4 DUP3 ADD MSTORE PUSH1 0x25 PUSH1 0x24 DUP3 ADD MSTORE PUSH32 0x436F6E666967436F6E74726163743A20737461727420626C6F636B20746F6F20 PUSH1 0x44 DUP3 ADD MSTORE PUSH5 0x6561726C79 PUSH1 0xD8 SHL PUSH1 0x64 DUP3 ADD MSTORE PUSH1 0x84 ADD PUSH2 0x781 JUMP JUMPDEST PUSH1 0x80 DUP5 ADD MLOAD PUSH1 0x1 PUSH1 0x1 PUSH1 0x40 SHL SUB AND ISZERO PUSH2 0xB68 JUMPI DUP4 MLOAD DUP4 MLOAD PUSH1 0x1 PUSH1 0x1 PUSH1 0x40 SHL SUB SWAP2 DUP3 AND SWAP2 AND GT PUSH2 0xAB6 JUMPI PUSH1 0x40 MLOAD PUSH3 0x461BCD PUSH1 0xE5 SHL DUP2 MSTORE PUSH1 0x20 PUSH1 0x4 DUP3 ADD MSTORE PUSH1 0x2B PUSH1 0x24 DUP3 ADD MSTORE PUSH32 0x436F6E666967436F6E74726163743A20737461727420626174636820696E6465 PUSH1 0x44 DUP3 ADD MSTORE PUSH11 0x1E081D1BDBC81CDB585B1B PUSH1 0xAA SHL PUSH1 0x64 DUP3 ADD MSTORE PUSH1 0x84 ADD PUSH2 0x781 JUMP JUMPDEST DUP4 MLOAD DUP4 MLOAD PUSH1 0x0 SWAP2 PUSH2 0xAC6 SWAP2 PUSH2 0x308C JUMP JUMPDEST SWAP1 POP DUP4 PUSH1 0x20 ADD MLOAD PUSH1 0x1 PUSH1 0x1 PUSH1 0x40 SHL SUB AND DUP2 DUP7 PUSH1 0x80 ADD MLOAD PUSH2 0xAE6 SWAP2 SWAP1 PUSH2 0x3046 JUMP JUMPDEST DUP7 PUSH1 0x20 ADD MLOAD PUSH2 0xAF5 SWAP2 SWAP1 PUSH2 0x301B JUMP JUMPDEST PUSH1 0x1 PUSH1 0x1 PUSH1 0x40 SHL SUB AND EQ PUSH2 0xB62 JUMPI PUSH1 0x40 MLOAD PUSH3 0x461BCD PUSH1 0xE5 SHL DUP2 MSTORE PUSH1 0x20 PUSH1 0x4 DUP3 ADD MSTORE PUSH1 0x2E PUSH1 0x24 DUP3 ADD MSTORE PUSH32 0x436F6E666967436F6E74726163743A20636F6E666967207472616E736974696F PUSH1 0x44 DUP3 ADD MSTORE PUSH14 0x6E206E6F74207365616D6C657373 PUSH1 0x90 SHL PUSH1 0x64 DUP3 ADD MSTORE PUSH1 0x84 ADD PUSH2 0x781 JUMP JUMPDEST POP PUSH2 0xBFB JUMP JUMPDEST DUP4 MLOAD DUP4 MLOAD PUSH1 0x1 PUSH1 0x1 PUSH1 0x40 SHL SUB SWAP1 DUP2 AND SWAP2 AND EQ PUSH2 0xBFB JUMPI PUSH1 0x40 MLOAD PUSH3 0x461BCD PUSH1 0xE5 SHL DUP2 MSTORE PUSH1 0x20 PUSH1 0x4 DUP3 ADD MSTORE PUSH1 0x46 PUSH1 0x24 DUP3 ADD MSTORE PUSH32 0x436F6E666967436F6E74726163743A207472616E736974696F6E2066726F6D20 PUSH1 0x44 DUP3 ADD MSTORE PUSH32 0x696E61637469766520636F6E66696720776974682077726F6E67207374617274 PUSH1 0x64 DUP3 ADD MSTORE PUSH6 0x40D2DCC8CAF PUSH1 0xD3 SHL PUSH1 0x84 DUP3 ADD MSTORE PUSH1 0xA4 ADD PUSH2 0x781 JUMP JUMPDEST PUSH1 0x1 PUSH2 0xC05 PUSH2 0x2B63 JUMP JUMPDEST DUP2 SLOAD PUSH1 0x1 DUP2 DUP2 ADD DUP5 SSTORE PUSH1 0x0 SWAP4 DUP5 MSTORE PUSH1 0x20 SWAP4 DUP5 SWAP1 KECCAK256 DUP4 MLOAD PUSH1 0x5 SWAP1 SWAP4 MUL ADD DUP1 SLOAD DUP6 DUP6 ADD MLOAD PUSH1 0x1 PUSH1 0x1 PUSH1 0x40 SHL SUB SWAP1 DUP2 AND PUSH1 0x1 PUSH1 0x40 SHL MUL PUSH1 0x1 PUSH1 0x1 PUSH1 0x80 SHL SUB NOT SWAP1 SWAP3 AND SWAP5 AND SWAP4 SWAP1 SWAP4 OR SWAP3 SWAP1 SWAP3 OR DUP3 SSTORE PUSH1 0x40 DUP4 ADD MLOAD DUP1 MLOAD SWAP4 SWAP5 SWAP3 SWAP4 PUSH2 0xC6D SWAP4 SWAP3 DUP6 ADD SWAP3 SWAP2 SWAP1 SWAP2 ADD SWAP1 PUSH2 0x2BDC JUMP JUMPDEST POP PUSH1 0x60 DUP3 ADD MLOAD PUSH1 0x2 DUP3 ADD DUP1 SLOAD PUSH1 0x80 DUP6 ADD MLOAD PUSH1 0xA0 DUP7 ADD MLOAD PUSH1 0xC0 DUP8 ADD MLOAD PUSH1 0x1 PUSH1 0x1 PUSH1 0x40 SHL SUB SWAP6 DUP7 AND PUSH1 0x1 PUSH1 0x1 PUSH1 0x80 SHL SUB NOT SWAP1 SWAP5 AND SWAP4 SWAP1 SWAP4 OR PUSH1 0x1 PUSH1 0x40 SHL SWAP3 DUP7 AND DUP4 MUL OR PUSH1 0x1 PUSH1 0x1 PUSH1 0x80 SHL SUB AND PUSH1 0x1 PUSH1 0x80 SHL SWAP2 DUP7 AND SWAP2 SWAP1 SWAP2 MUL PUSH1 0x1 PUSH1 0x1 PUSH1 0xC0 SHL SUB SWAP1 DUP2 AND SWAP2 SWAP1 SWAP2 OR PUSH1 0x1 PUSH1 0xC0 SHL SWAP4 DUP7 AND DUP5 MUL OR SWAP1 SWAP4 SSTORE PUSH1 0xE0 DUP1 DUP8 ADD MLOAD PUSH1 0x3 DUP8 ADD DUP1 SLOAD PUSH2 0x100 DUP11 ADD MLOAD SWAP3 DUP9 AND PUSH1 0x1 PUSH1 0x1 PUSH1 0xE0 SHL SUB NOT SWAP1 SWAP2 AND OR PUSH1 0x1 PUSH1 0x1 PUSH1 0xA0 SHL SUB SWAP3 DUP4 AND SWAP1 SWAP5 MUL SWAP4 SWAP1 SWAP4 OR SWAP1 SWAP3 SSTORE PUSH2 0x120 DUP8 ADD MLOAD PUSH1 0x4 SWAP1 SWAP7 ADD DUP1 SLOAD PUSH2 0x140 DUP10 ADD MLOAD PUSH2 0x160 SWAP1 SWAP10 ADD MLOAD SWAP8 SWAP1 SWAP4 AND PUSH1 0x1 PUSH1 0x1 PUSH1 0xC0 SHL SUB NOT SWAP1 SWAP4 AND SWAP3 SWAP1 SWAP3 OR PUSH1 0x1 PUSH1 0xA0 SHL SWAP8 SWAP1 SWAP2 SHR SWAP7 SWAP1 SWAP7 MUL SWAP6 SWAP1 SWAP6 OR SWAP1 SWAP2 AND SWAP3 SWAP1 SWAP2 AND MUL OR SWAP1 SSTORE PUSH32 0x38889EF980014448A73B6E5DC5579BA1A4B7BD213A586B3F4832351448C48AE6 PUSH2 0xD8A PUSH2 0x869 JUMP JUMPDEST PUSH1 0x40 MLOAD PUSH1 0x1 PUSH1 0x1 PUSH1 0x40 SHL SUB SWAP1 SWAP2 AND DUP2 MSTORE PUSH1 0x20 ADD PUSH1 0x40 MLOAD DUP1 SWAP2 SUB SWAP1 LOG1 POP POP POP POP JUMP JUMPDEST PUSH1 0x0 PUSH2 0xDB5 PUSH2 0x15C2 JUMP JUMPDEST PUSH1 0x40 ADD MLOAD MLOAD SWAP1 POP SWAP1 JUMP JUMPDEST PUSH1 0x0 SLOAD PUSH1 0x1 PUSH1 0x1 PUSH1 0xA0 SHL SUB AND CALLER EQ PUSH2 0xDE9 JUMPI PUSH1 0x40 MLOAD PUSH3 0x461BCD PUSH1 0xE5 SHL DUP2 MSTORE PUSH1 0x4 ADD PUSH2 0x781 SWAP1 PUSH2 0x2E95 JUMP JUMPDEST DUP1 PUSH1 0x1 PUSH2 0xDF4 PUSH2 0x869 JUMP JUMPDEST PUSH1 0x1 PUSH1 0x1 PUSH1 0x40 SHL SUB AND DUP2 SLOAD DUP2 LT PUSH2 0xE1B JUMPI PUSH4 0x4E487B71 PUSH1 0xE0 SHL PUSH1 0x0 MSTORE PUSH1 0x32 PUSH1 0x4 MSTORE PUSH1 0x24 PUSH1 0x0 REVERT JUMPDEST SWAP1 PUSH1 0x0 MSTORE PUSH1 0x20 PUSH1 0x0 KECCAK256 SWAP1 PUSH1 0x5 MUL ADD PUSH1 0x3 ADD PUSH1 0x8 PUSH2 0x100 EXP DUP2 SLOAD DUP2 PUSH1 0x1 PUSH1 0x1 PUSH1 0xA0 SHL SUB MUL NOT AND SWAP1 DUP4 PUSH1 0x1 PUSH1 0x1 PUSH1 0xA0 SHL SUB AND MUL OR SWAP1 SSTORE POP POP JUMP JUMPDEST PUSH1 0x0 PUSH2 0xE5D PUSH2 0x15C2 JUMP JUMPDEST PUSH2 0x160 ADD MLOAD SWAP1 POP SWAP1 JUMP JUMPDEST PUSH2 0xE6F PUSH2 0x2C41 JUMP JUMPDEST PUSH1 0x1 PUSH2 0xE79 PUSH2 0x1062 JUMP JUMPDEST PUSH1 0x1 PUSH1 0x1 PUSH1 0x40 SHL SUB AND DUP2 SLOAD DUP2 LT PUSH2 0xEA0 JUMPI PUSH4 0x4E487B71 PUSH1 0xE0 SHL PUSH1 0x0 MSTORE PUSH1 0x32 PUSH1 0x4 MSTORE PUSH1 0x24 PUSH1 0x0 REVERT JUMPDEST PUSH1 0x0 SWAP2 DUP3 MSTORE PUSH1 0x20 SWAP2 DUP3 SWAP1 KECCAK256 PUSH1 0x40 DUP1 MLOAD PUSH2 0x180 DUP2 ADD DUP3 MSTORE PUSH1 0x5 SWAP1 SWAP4 MUL SWAP1 SWAP2 ADD DUP1 SLOAD PUSH1 0x1 PUSH1 0x1 PUSH1 0x40 SHL SUB DUP1 DUP3 AND DUP6 MSTORE PUSH1 0x1 PUSH1 0x40 SHL SWAP1 SWAP2 DIV AND DUP4 DUP6 ADD MSTORE PUSH1 0x1 DUP2 ADD DUP1 SLOAD DUP4 MLOAD DUP2 DUP8 MUL DUP2 ADD DUP8 ADD DUP6 MSTORE DUP2 DUP2 MSTORE SWAP5 SWAP6 SWAP3 SWAP5 SWAP4 DUP7 ADD SWAP4 SWAP3 DUP4 ADD DUP3 DUP3 DUP1 ISZERO PUSH2 0xF30 JUMPI PUSH1 0x20 MUL DUP3 ADD SWAP2 SWAP1 PUSH1 0x0 MSTORE PUSH1 0x20 PUSH1 0x0 KECCAK256 SWAP1 JUMPDEST DUP2 SLOAD PUSH1 0x1 PUSH1 0x1 PUSH1 0xA0 SHL SUB AND DUP2 MSTORE PUSH1 0x1 SWAP1 SWAP2 ADD SWAP1 PUSH1 0x20 ADD DUP1 DUP4 GT PUSH2 0xF12 JUMPI JUMPDEST POP POP POP SWAP2 DUP4 MSTORE POP POP PUSH1 0x2 DUP3 ADD SLOAD PUSH1 0x1 PUSH1 0x1 PUSH1 0x40 SHL SUB DUP1 DUP3 AND PUSH1 0x20 DUP5 ADD MSTORE PUSH1 0x1 PUSH1 0x40 SHL DUP1 DUP4 DIV DUP3 AND PUSH1 0x40 DUP6 ADD MSTORE PUSH1 0x1 PUSH1 0x80 SHL DUP4 DIV DUP3 AND PUSH1 0x60 DUP6 ADD MSTORE PUSH1 0x1 PUSH1 0xC0 SHL SWAP3 DUP4 SWAP1 DIV DUP3 AND PUSH1 0x80 DUP6 ADD MSTORE PUSH1 0x3 DUP6 ADD SLOAD DUP1 DUP4 AND PUSH1 0xA0 DUP7 ADD MSTORE DIV PUSH1 0x1 PUSH1 0x1 PUSH1 0xA0 SHL SUB SWAP1 DUP2 AND PUSH1 0xC0 DUP6 ADD MSTORE PUSH1 0x4 SWAP1 SWAP5 ADD SLOAD SWAP4 DUP5 AND PUSH1 0xE0 DUP1 DUP6 ADD SWAP2 SWAP1 SWAP2 MSTORE PUSH1 0x1 PUSH1 0xA0 SHL DUP6 DIV SWAP1 SHL PUSH1 0x1 PUSH1 0x1 PUSH1 0xE0 SHL SUB NOT AND PUSH2 0x100 DUP5 ADD MSTORE SWAP3 DIV SWAP1 SWAP2 AND PUSH2 0x120 SWAP1 SWAP2 ADD MSTORE SWAP2 SWAP1 POP JUMP JUMPDEST PUSH1 0x0 PUSH2 0xFDE PUSH2 0x869 JUMP JUMPDEST PUSH1 0x1 PUSH1 0x1 PUSH1 0x40 SHL SUB AND DUP3 PUSH1 0x1 PUSH1 0x1 PUSH1 0x40 SHL SUB AND LT PUSH2 0x100E JUMPI PUSH1 0x40 MLOAD PUSH3 0x461BCD PUSH1 0xE5 SHL DUP2 MSTORE PUSH1 0x4 ADD PUSH2 0x781 SWAP1 PUSH2 0x2E4C JUMP JUMPDEST PUSH1 0x1 DUP3 PUSH1 0x1 PUSH1 0x1 PUSH1 0x40 SHL SUB AND DUP2 SLOAD DUP2 LT PUSH2 0x1038 JUMPI PUSH4 0x4E487B71 PUSH1 0xE0 SHL PUSH1 0x0 MSTORE PUSH1 0x32 PUSH1 0x4 MSTORE PUSH1 0x24 PUSH1 0x0 REVERT JUMPDEST PUSH1 0x0 SWAP2 DUP3 MSTORE PUSH1 0x20 SWAP1 SWAP2 KECCAK256 PUSH1 0x5 SWAP1 SWAP2 MUL ADD PUSH1 0x3 ADD SLOAD PUSH1 0x1 PUSH1 0x40 SHL SWAP1 DIV PUSH1 0x1 PUSH1 0x1 PUSH1 0xA0 SHL SUB AND SWAP3 SWAP2 POP POP JUMP JUMPDEST PUSH1 0x1 SLOAD PUSH1 0x0 SWAP1 PUSH2 0x879 SWAP1 PUSH1 0x2 SWAP1 PUSH2 0x308C JUMP JUMPDEST PUSH1 0x0 SLOAD PUSH1 0x1 PUSH1 0x1 PUSH1 0xA0 SHL SUB AND CALLER EQ PUSH2 0x109E JUMPI PUSH1 0x40 MLOAD PUSH3 0x461BCD PUSH1 0xE5 SHL DUP2 MSTORE PUSH1 0x4 ADD PUSH2 0x781 SWAP1 PUSH2 0x2E95 JUMP JUMPDEST DUP1 PUSH1 0x1 PUSH2 0x10A9 PUSH2 0x869 JUMP JUMPDEST PUSH1 0x1 PUSH1 0x1 PUSH1 0x40 SHL SUB AND DUP2 SLOAD DUP2 LT PUSH2 0x10D0 JUMPI PUSH4 0x4E487B71 PUSH1 0xE0 SHL PUSH1 0x0 MSTORE PUSH1 0x32 PUSH1 0x4 MSTORE PUSH1 0x24 PUSH1 0x0 REVERT JUMPDEST SWAP1 PUSH1 0x0 MSTORE PUSH1 0x20 PUSH1 0x0 KECCAK256 SWAP1 PUSH1 0x5 MUL ADD PUSH1 0x3 ADD PUSH1 0x0 PUSH2 0x100 EXP DUP2 SLOAD DUP2 PUSH1 0x1 PUSH1 0x1 PUSH1 0x40 SHL SUB MUL NOT AND SWAP1 DUP4 PUSH1 0x1 PUSH1 0x1 PUSH1 0x40 SHL SUB AND MUL OR SWAP1 SSTORE POP POP JUMP JUMPDEST PUSH1 0x0 DUP1 PUSH1 0x1 DUP4 PUSH1 0x1 PUSH1 0x1 PUSH1 0x40 SHL SUB AND DUP2 SLOAD DUP2 LT PUSH2 0x1135 JUMPI PUSH4 0x4E487B71 PUSH1 0xE0 SHL PUSH1 0x0 MSTORE PUSH1 0x32 PUSH1 0x4 MSTORE PUSH1 0x24 PUSH1 0x0 REVERT JUMPDEST PUSH1 0x0 SWAP2 DUP3 MSTORE PUSH1 0x20 SWAP1 SWAP2 KECCAK256 PUSH1 0x5 SWAP1 SWAP2 MUL ADD PUSH1 0x2 ADD SLOAD PUSH1 0x1 PUSH1 0x40 SHL SWAP1 DIV PUSH1 0x1 PUSH1 0x1 PUSH1 0x40 SHL SUB AND GT SWAP3 SWAP2 POP POP JUMP JUMPDEST PUSH1 0x0 SLOAD PUSH1 0x1 PUSH1 0x1 PUSH1 0xA0 SHL SUB AND CALLER EQ PUSH2 0x118A JUMPI PUSH1 0x40 MLOAD PUSH3 0x461BCD PUSH1 0xE5 SHL DUP2 MSTORE PUSH1 0x4 ADD PUSH2 0x781 SWAP1 PUSH2 0x2E95 JUMP JUMPDEST DUP1 PUSH1 0x1 PUSH2 0x1195 PUSH2 0x869 JUMP JUMPDEST PUSH1 0x1 PUSH1 0x1 PUSH1 0x40 SHL SUB AND DUP2 SLOAD DUP2 LT PUSH2 0x11BC JUMPI PUSH4 0x4E487B71 PUSH1 0xE0 SHL PUSH1 0x0 MSTORE PUSH1 0x32 PUSH1 0x4 MSTORE PUSH1 0x24 PUSH1 0x0 REVERT JUMPDEST SWAP1 PUSH1 0x0 MSTORE PUSH1 0x20 PUSH1 0x0 KECCAK256 SWAP1 PUSH1 0x5 MUL ADD PUSH1 0x2 ADD PUSH1 0x8 PUSH2 0x100 EXP DUP2 SLOAD DUP2 PUSH1 0x1 PUSH1 0x1 PUSH1 0x40 SHL SUB MUL NOT AND SWAP1 DUP4 PUSH1 0x1 PUSH1 0x1 PUSH1 0x40 SHL SUB AND MUL OR SWAP1 SSTORE POP POP JUMP JUMPDEST PUSH2 0x11FC PUSH2 0x2C41 JUMP JUMPDEST PUSH1 0x0 PUSH2 0x1207 DUP4 PUSH2 0x1F54 JUMP JUMPDEST SWAP1 POP PUSH1 0x1 DUP2 PUSH1 0x1 PUSH1 0x1 PUSH1 0x40 SHL SUB AND DUP2 SLOAD DUP2 LT PUSH2 0x1233 JUMPI PUSH4 0x4E487B71 PUSH1 0xE0 SHL PUSH1 0x0 MSTORE PUSH1 0x32 PUSH1 0x4 MSTORE PUSH1 0x24 PUSH1 0x0 REVERT JUMPDEST PUSH1 0x0 SWAP2 DUP3 MSTORE PUSH1 0x20 SWAP2 DUP3 SWAP1 KECCAK256 PUSH1 0x40 DUP1 MLOAD PUSH2 0x180 DUP2 ADD DUP3 MSTORE PUSH1 0x5 SWAP1 SWAP4 MUL SWAP1 SWAP2 ADD DUP1 SLOAD PUSH1 0x1 PUSH1 0x1 PUSH1 0x40 SHL SUB DUP1 DUP3 AND DUP6 MSTORE PUSH1 0x1 PUSH1 0x40 SHL SWAP1 SWAP2 DIV AND DUP4 DUP6 ADD MSTORE PUSH1 0x1 DUP2 ADD DUP1 SLOAD DUP4 MLOAD DUP2 DUP8 MUL DUP2 ADD DUP8 ADD DUP6 MSTORE DUP2 DUP2 MSTORE SWAP5 SWAP6 SWAP3 SWAP5 SWAP4 DUP7 ADD SWAP4 SWAP3 DUP4 ADD DUP3 DUP3 DUP1 ISZERO PUSH2 0x12C3 JUMPI PUSH1 0x20 MUL DUP3 ADD SWAP2 SWAP1 PUSH1 0x0 MSTORE PUSH1 0x20 PUSH1 0x0 KECCAK256 SWAP1 JUMPDEST DUP2 SLOAD PUSH1 0x1 PUSH1 0x1 PUSH1 0xA0 SHL SUB AND DUP2 MSTORE PUSH1 0x1 SWAP1 SWAP2 ADD SWAP1 PUSH1 0x20 ADD DUP1 DUP4 GT PUSH2 0x12A5 JUMPI JUMPDEST POP POP POP SWAP2 DUP4 MSTORE POP POP PUSH1 0x2 DUP3 ADD SLOAD PUSH1 0x1 PUSH1 0x1 PUSH1 0x40 SHL SUB DUP1 DUP3 AND PUSH1 0x20 DUP5 ADD MSTORE PUSH1 0x1 PUSH1 0x40 SHL DUP1 DUP4 DIV DUP3 AND PUSH1 0x40 DUP6 ADD MSTORE PUSH1 0x1 PUSH1 0x80 SHL DUP4 DIV DUP3 AND PUSH1 0x60 DUP6 ADD MSTORE PUSH1 0x1 PUSH1 0xC0 SHL SWAP3 DUP4 SWAP1 DIV DUP3 AND PUSH1 0x80 DUP6 ADD MSTORE PUSH1 0x3 DUP6 ADD SLOAD DUP1 DUP4 AND PUSH1 0xA0 DUP7 ADD MSTORE DIV PUSH1 0x1 PUSH1 0x1 PUSH1 0xA0 SHL SUB SWAP1 DUP2 AND PUSH1 0xC0 DUP6 ADD MSTORE PUSH1 0x4 SWAP1 SWAP5 ADD SLOAD SWAP4 DUP5 AND PUSH1 0xE0 DUP1 DUP6 ADD SWAP2 SWAP1 SWAP2 MSTORE PUSH1 0x1 PUSH1 0xA0 SHL DUP6 DIV SWAP1 SHL PUSH1 0x1 PUSH1 0x1 PUSH1 0xE0 SHL SUB NOT AND PUSH2 0x100 DUP5 ADD MSTORE SWAP3 DIV SWAP1 SWAP2 AND PUSH2 0x120 SWAP1 SWAP2 ADD MSTORE SWAP4 SWAP3 POP POP POP JUMP JUMPDEST PUSH1 0x0 SLOAD PUSH1 0x1 PUSH1 0x1 PUSH1 0xA0 SHL SUB AND CALLER EQ PUSH2 0x1393 JUMPI PUSH1 0x40 MLOAD PUSH3 0x461BCD PUSH1 0xE5 SHL DUP2 MSTORE PUSH1 0x4 ADD PUSH2 0x781 SWAP1 PUSH2 0x2E95 JUMP JUMPDEST DUP1 PUSH1 0x1 PUSH2 0x139E PUSH2 0x869 JUMP JUMPDEST PUSH1 0x1 PUSH1 0x1 PUSH1 0x40 SHL SUB AND DUP2 SLOAD DUP2 LT PUSH2 0x13C5 JUMPI PUSH4 0x4E487B71 PUSH1 0xE0 SHL PUSH1 0x0 MSTORE PUSH1 0x32 PUSH1 0x4 MSTORE PUSH1 0x24 PUSH1 0x0 REVERT JUMPDEST SWAP1 PUSH1 0x0 MSTORE PUSH1 0x20 PUSH1 0x0 KECCAK256 SWAP1 PUSH1 0x5 MUL ADD PUSH1 0x2 ADD PUSH1 0x18 PUSH2 0x100 EXP DUP2 SLOAD DUP2 PUSH1 0x1 PUSH1 0x1 PUSH1 0x40 SHL SUB MUL NOT AND SWAP1 DUP4 PUSH1 0x1 PUSH1 0x1 PUSH1 0x40 SHL SUB AND MUL OR SWAP1 SSTORE POP POP JUMP JUMPDEST PUSH1 0x0 SLOAD PUSH1 0x1 PUSH1 0x1 PUSH1 0xA0 SHL SUB AND CALLER EQ PUSH2 0x1427 JUMPI PUSH1 0x40 MLOAD PUSH3 0x461BCD PUSH1 0xE5 SHL DUP2 MSTORE PUSH1 0x4 ADD PUSH2 0x781 SWAP1 PUSH2 0x2E95 JUMP JUMPDEST PUSH2 0x1438 DUP2 PUSH1 0x1 PUSH1 0x1 PUSH1 0x40 SHL SUB PUSH2 0x3075 JUMP JUMPDEST PUSH1 0x1 PUSH2 0x1442 PUSH2 0x869 JUMP JUMPDEST PUSH1 0x1 PUSH1 0x1 PUSH1 0x40 SHL SUB AND DUP2 SLOAD DUP2 LT PUSH2 0x1469 JUMPI PUSH4 0x4E487B71 PUSH1 0xE0 SHL PUSH1 0x0 MSTORE PUSH1 0x32 PUSH1 0x4 MSTORE PUSH1 0x24 PUSH1 0x0 REVERT JUMPDEST SWAP1 PUSH1 0x0 MSTORE PUSH1 0x20 PUSH1 0x0 KECCAK256 SWAP1 PUSH1 0x5 MUL ADD PUSH1 0x1 ADD DUP1 SLOAD SWAP1 POP GT ISZERO PUSH2 0x14E5 JUMPI PUSH1 0x40 MLOAD PUSH3 0x461BCD PUSH1 0xE5 SHL DUP2 MSTORE PUSH1 0x20 PUSH1 0x4 DUP3 ADD MSTORE PUSH1 0x30 PUSH1 0x24 DUP3 ADD MSTORE PUSH32 0x436F6E666967436F6E74726163743A206E756D626572206F66206B6579706572 PUSH1 0x44 DUP3 ADD MSTORE PUSH16 0x1CC8195E18D959591CC81D5A5B9D0D8D PUSH1 0x82 SHL PUSH1 0x64 DUP3 ADD MSTORE PUSH1 0x84 ADD PUSH2 0x781 JUMP JUMPDEST PUSH1 0x0 JUMPDEST PUSH1 0x1 PUSH1 0x1 PUSH1 0x40 SHL SUB DUP2 AND DUP3 GT ISZERO PUSH2 0x15BD JUMPI PUSH1 0x1 PUSH2 0x1503 PUSH2 0x869 JUMP JUMPDEST PUSH1 0x1 PUSH1 0x1 PUSH1 0x40 SHL SUB AND DUP2 SLOAD DUP2 LT PUSH2 0x152A JUMPI PUSH4 0x4E487B71 PUSH1 0xE0 SHL PUSH1 0x0 MSTORE PUSH1 0x32 PUSH1 0x4 MSTORE PUSH1 0x24 PUSH1 0x0 REVERT JUMPDEST SWAP1 PUSH1 0x0 MSTORE PUSH1 0x20 PUSH1 0x0 KECCAK256 SWAP1 PUSH1 0x5 MUL ADD PUSH1 0x1 ADD DUP4 DUP4 DUP4 PUSH1 0x1 PUSH1 0x1 PUSH1 0x40 SHL SUB AND DUP2 DUP2 LT PUSH2 0x1564 JUMPI PUSH4 0x4E487B71 PUSH1 0xE0 SHL PUSH1 0x0 MSTORE PUSH1 0x32 PUSH1 0x4 MSTORE PUSH1 0x24 PUSH1 0x0 REVERT JUMPDEST SWAP1 POP PUSH1 0x20 MUL ADD PUSH1 0x20 DUP2 ADD SWAP1 PUSH2 0x1579 SWAP2 SWAP1 PUSH2 0x2CF8 JUMP JUMPDEST DUP2 SLOAD PUSH1 0x1 DUP2 ADD DUP4 SSTORE PUSH1 0x0 SWAP3 DUP4 MSTORE PUSH1 0x20 SWAP1 SWAP3 KECCAK256 SWAP1 SWAP2 ADD DUP1 SLOAD PUSH1 0x1 PUSH1 0x1 PUSH1 0xA0 SHL SUB NOT AND PUSH1 0x1 PUSH1 0x1 PUSH1 0xA0 SHL SUB SWAP1 SWAP3 AND SWAP2 SWAP1 SWAP2 OR SWAP1 SSTORE DUP1 PUSH2 0x15B5 DUP2 PUSH2 0x30CB JUMP JUMPDEST SWAP2 POP POP PUSH2 0x14E8 JUMP JUMPDEST POP POP POP JUMP JUMPDEST PUSH2 0x15CA PUSH2 0x2C41 JUMP JUMPDEST PUSH1 0x1 PUSH2 0xE79 PUSH2 0x869 JUMP JUMPDEST PUSH1 0x0 PUSH2 0x15DE PUSH2 0x15C2 JUMP JUMPDEST PUSH1 0x40 ADD MLOAD DUP3 PUSH1 0x1 PUSH1 0x1 PUSH1 0x40 SHL SUB AND DUP2 MLOAD DUP2 LT PUSH2 0x160A JUMPI PUSH4 0x4E487B71 PUSH1 0xE0 SHL PUSH1 0x0 MSTORE PUSH1 0x32 PUSH1 0x4 MSTORE PUSH1 0x24 PUSH1 0x0 REVERT JUMPDEST PUSH1 0x20 MUL PUSH1 0x20 ADD ADD MLOAD SWAP1 POP SWAP2 SWAP1 POP JUMP JUMPDEST PUSH1 0x0 DUP1 PUSH1 0x0 DUP1 PUSH1 0x1 DUP7 PUSH1 0x1 PUSH1 0x1 PUSH1 0x40 SHL SUB AND DUP2 SLOAD DUP2 LT PUSH2 0x1649 JUMPI PUSH4 0x4E487B71 PUSH1 0xE0 SHL PUSH1 0x0 MSTORE PUSH1 0x32 PUSH1 0x4 MSTORE PUSH1 0x24 PUSH1 0x0 REVERT JUMPDEST PUSH1 0x0 SWAP2 DUP3 MSTORE PUSH1 0x20 DUP3 KECCAK256 PUSH1 0x5 SWAP1 SWAP2 MUL ADD SLOAD PUSH1 0x1 DUP1 SLOAD PUSH1 0x1 PUSH1 0x1 PUSH1 0x40 SHL SUB PUSH1 0x1 PUSH1 0x40 SHL SWAP1 SWAP4 DIV DUP4 AND SWAP5 POP SWAP1 SWAP2 DUP10 AND SWAP1 DUP2 LT PUSH2 0x1692 JUMPI PUSH4 0x4E487B71 PUSH1 0xE0 SHL PUSH1 0x0 MSTORE PUSH1 0x32 PUSH1 0x4 MSTORE PUSH1 0x24 PUSH1 0x0 REVERT JUMPDEST PUSH1 0x0 SWAP2 DUP3 MSTORE PUSH1 0x20 DUP3 KECCAK256 PUSH1 0x5 SWAP1 SWAP2 MUL ADD SLOAD PUSH1 0x1 DUP1 SLOAD PUSH1 0x1 PUSH1 0x1 PUSH1 0x40 SHL SUB SWAP3 DUP4 AND SWAP5 POP SWAP1 SWAP2 DUP11 AND SWAP1 DUP2 LT PUSH2 0x16D4 JUMPI PUSH4 0x4E487B71 PUSH1 0xE0 SHL PUSH1 0x0 MSTORE PUSH1 0x32 PUSH1 0x4 MSTORE PUSH1 0x24 PUSH1 0x0 REVERT JUMPDEST SWAP1 PUSH1 0x0 MSTORE PUSH1 0x20 PUSH1 0x0 KECCAK256 SWAP1 PUSH1 0x5 MUL ADD PUSH1 0x2 ADD PUSH1 0x8 SWAP1 SLOAD SWAP1 PUSH2 0x100 EXP SWAP1 DIV PUSH1 0x1 PUSH1 0x1 PUSH1 0x40 SHL SUB AND SWAP1 POP PUSH1 0x0 PUSH1 0x1 DUP10 PUSH1 0x1 PUSH1 0x1 PUSH1 0x40 SHL SUB AND DUP2 SLOAD DUP2 LT PUSH2 0x1727 JUMPI PUSH4 0x4E487B71 PUSH1 0xE0 SHL PUSH1 0x0 MSTORE PUSH1 0x32 PUSH1 0x4 MSTORE PUSH1 0x24 PUSH1 0x0 REVERT JUMPDEST SWAP1 PUSH1 0x0 MSTORE PUSH1 0x20 PUSH1 0x0 KECCAK256 SWAP1 PUSH1 0x5 MUL ADD PUSH1 0x4 ADD PUSH1 0x18 SWAP1 SLOAD SWAP1 PUSH2 0x100 EXP SWAP1 DIV PUSH1 0x1 PUSH1 0x1 PUSH1 0x40 SHL SUB AND SWAP1 POP PUSH1 0x0 DUP3 PUSH1 0x1 PUSH1 0x1 PUSH1 0x40 SHL SUB AND GT PUSH2 0x1775 JUMPI PUSH4 0x4E487B71 PUSH1 0xE0 SHL PUSH1 0x0 MSTORE PUSH1 0x1 PUSH1 0x4 MSTORE PUSH1 0x24 PUSH1 0x0 REVERT JUMPDEST DUP3 PUSH1 0x1 PUSH1 0x1 PUSH1 0x40 SHL SUB AND DUP9 PUSH1 0x1 PUSH1 0x1 PUSH1 0x40 SHL SUB AND LT ISZERO PUSH2 0x17A5 JUMPI PUSH4 0x4E487B71 PUSH1 0xE0 SHL PUSH1 0x0 MSTORE PUSH1 0x1 PUSH1 0x4 MSTORE PUSH1 0x24 PUSH1 0x0 REVERT JUMPDEST PUSH1 0x0 PUSH2 0x17B1 DUP5 DUP11 PUSH2 0x308C JUMP JUMPDEST SWAP1 POP PUSH1 0x0 DUP4 PUSH2 0x17C0 DUP2 DUP5 PUSH2 0x3046 JUMP JUMPDEST PUSH2 0x17CA SWAP1 DUP9 PUSH2 0x301B JUMP JUMPDEST PUSH2 0x17D4 SWAP2 SWAP1 PUSH2 0x301B JUMP JUMPDEST SWAP1 POP PUSH1 0x0 PUSH2 0x17E2 DUP6 DUP4 PUSH2 0x308C JUMP JUMPDEST SWAP1 POP PUSH1 0x1 DUP4 PUSH1 0x1 PUSH1 0x1 PUSH1 0x40 SHL SUB AND LT PUSH2 0x1802 JUMPI PUSH2 0x17FF DUP6 DUP3 PUSH2 0x308C JUMP JUMPDEST SWAP1 POP JUMPDEST PUSH1 0x0 PUSH2 0x180E DUP6 DUP5 PUSH2 0x301B JUMP JUMPDEST SWAP2 SWAP11 POP SWAP2 SWAP9 POP SWAP7 POP POP POP POP POP POP POP SWAP3 POP SWAP3 POP SWAP3 JUMP JUMPDEST PUSH1 0x0 PUSH2 0x182D PUSH2 0x15C2 JUMP JUMPDEST PUSH1 0x80 ADD MLOAD SWAP1 POP SWAP1 JUMP JUMPDEST PUSH2 0x183E PUSH2 0x2C41 JUMP JUMPDEST PUSH1 0x1 DUP3 PUSH1 0x1 PUSH1 0x1 PUSH1 0x40 SHL SUB AND DUP2 SLOAD DUP2 LT PUSH2 0x1868 JUMPI PUSH4 0x4E487B71 PUSH1 0xE0 SHL PUSH1 0x0 MSTORE PUSH1 0x32 PUSH1 0x4 MSTORE PUSH1 0x24 PUSH1 0x0 REVERT JUMPDEST PUSH1 0x0 SWAP2 DUP3 MSTORE PUSH1 0x20 SWAP2 DUP3 SWAP1 KECCAK256 PUSH1 0x40 DUP1 MLOAD PUSH2 0x180 DUP2 ADD DUP3 MSTORE PUSH1 0x5 SWAP1 SWAP4 MUL SWAP1 SWAP2 ADD DUP1 SLOAD PUSH1 0x1 PUSH1 0x1 PUSH1 0x40 SHL SUB DUP1 DUP3 AND DUP6 MSTORE PUSH1 0x1 PUSH1 0x40 SHL SWAP1 SWAP2 DIV AND DUP4 DUP6 ADD MSTORE PUSH1 0x1 DUP2 ADD DUP1 SLOAD DUP4 MLOAD DUP2 DUP8 MUL DUP2 ADD DUP8 ADD DUP6 MSTORE DUP2 DUP2 MSTORE SWAP5 SWAP6 SWAP3 SWAP5 SWAP4 DUP7 ADD SWAP4 SWAP3 DUP4 ADD DUP3 DUP3 DUP1 ISZERO PUSH2 0x18F8 JUMPI PUSH1 0x20 MUL DUP3 ADD SWAP2 SWAP1 PUSH1 0x0 MSTORE PUSH1 0x20 PUSH1 0x0 KECCAK256 SWAP1 JUMPDEST DUP2 SLOAD PUSH1 0x1 PUSH1 0x1 PUSH1 0xA0 SHL SUB AND DUP2 MSTORE PUSH1 0x1 SWAP1 SWAP2 ADD SWAP1 PUSH1 0x20 ADD DUP1 DUP4 GT PUSH2 0x18DA JUMPI JUMPDEST POP POP POP SWAP2 DUP4 MSTORE POP POP PUSH1 0x2 DUP3 ADD SLOAD PUSH1 0x1 PUSH1 0x1 PUSH1 0x40 SHL SUB DUP1 DUP3 AND PUSH1 0x20 DUP5 ADD MSTORE PUSH1 0x1 PUSH1 0x40 SHL DUP1 DUP4 DIV DUP3 AND PUSH1 0x40 DUP6 ADD MSTORE PUSH1 0x1 PUSH1 0x80 SHL DUP4 DIV DUP3 AND PUSH1 0x60 DUP6 ADD MSTORE PUSH1 0x1 PUSH1 0xC0 SHL SWAP3 DUP4 SWAP1 DIV DUP3 AND PUSH1 0x80 DUP6 ADD MSTORE PUSH1 0x3 DUP6 ADD SLOAD DUP1 DUP4 AND PUSH1 0xA0 DUP7 ADD MSTORE DIV PUSH1 0x1 PUSH1 0x1 PUSH1 0xA0 SHL SUB SWAP1 DUP2 AND PUSH1 0xC0 DUP6 ADD MSTORE PUSH1 0x4 SWAP1 SWAP5 ADD SLOAD SWAP4 DUP5 AND PUSH1 0xE0 DUP1 DUP6 ADD SWAP2 SWAP1 SWAP2 MSTORE PUSH1 0x1 PUSH1 0xA0 SHL DUP6 DIV SWAP1 SHL PUSH1 0x1 PUSH1 0x1 PUSH1 0xE0 SHL SUB NOT AND PUSH2 0x100 DUP5 ADD MSTORE SWAP3 DIV SWAP1 SWAP2 AND PUSH2 0x120 SWAP1 SWAP2 ADD MSTORE SWAP3 SWAP2 POP POP JUMP JUMPDEST PUSH1 0x0 SLOAD PUSH1 0x1 PUSH1 0x1 PUSH1 0xA0 SHL SUB AND CALLER EQ PUSH2 0x19C7 JUMPI PUSH1 0x40 MLOAD PUSH3 0x461BCD PUSH1 0xE5 SHL DUP2 MSTORE PUSH1 0x4 ADD PUSH2 0x781 SWAP1 PUSH2 0x2E95 JUMP JUMPDEST PUSH1 0x0 DUP1 SLOAD PUSH1 0x40 MLOAD PUSH1 0x1 PUSH1 0x1 PUSH1 0xA0 SHL SUB SWAP1 SWAP2 AND SWAP1 PUSH32 0x8BE0079C531659141344CD1FD0A4F28419497F9722A3DAAFE3B4186F6B6457E0 SWAP1 DUP4 SWAP1 LOG3 PUSH1 0x0 DUP1 SLOAD PUSH1 0x1 PUSH1 0x1 PUSH1 0xA0 SHL SUB NOT AND SWAP1 SSTORE JUMP JUMPDEST PUSH1 0x0 SLOAD PUSH1 0x1 PUSH1 0x1 PUSH1 0xA0 SHL SUB AND CALLER EQ PUSH2 0x1A3B JUMPI PUSH1 0x40 MLOAD PUSH3 0x461BCD PUSH1 0xE5 SHL DUP2 MSTORE PUSH1 0x4 ADD PUSH2 0x781 SWAP1 PUSH2 0x2E95 JUMP JUMPDEST DUP1 PUSH1 0x1 PUSH2 0x1A46 PUSH2 0x869 JUMP JUMPDEST PUSH1 0x1 PUSH1 0x1 PUSH1 0x40 SHL SUB AND DUP2 SLOAD DUP2 LT PUSH2 0x1A6D JUMPI PUSH4 0x4E487B71 PUSH1 0xE0 SHL PUSH1 0x0 MSTORE PUSH1 0x32 PUSH1 0x4 MSTORE PUSH1 0x24 PUSH1 0x0 REVERT JUMPDEST SWAP1 PUSH1 0x0 MSTORE PUSH1 0x20 PUSH1 0x0 KECCAK256 SWAP1 PUSH1 0x5 MUL ADD PUSH1 0x4 ADD PUSH1 0x18 PUSH2 0x100 EXP DUP2 SLOAD DUP2 PUSH1 0x1 PUSH1 0x1 PUSH1 0x40 SHL SUB MUL NOT AND SWAP1 DUP4 PUSH1 0x1 PUSH1 0x1 PUSH1 0x40 SHL SUB AND MUL OR SWAP1 SSTORE POP POP JUMP JUMPDEST PUSH1 0x0 SLOAD PUSH1 0x1 PUSH1 0x1 PUSH1 0xA0 SHL SUB AND CALLER EQ PUSH2 0x1ACF JUMPI PUSH1 0x40 MLOAD PUSH3 0x461BCD PUSH1 0xE5 SHL DUP2 MSTORE PUSH1 0x4 ADD PUSH2 0x781 SWAP1 PUSH2 0x2E95 JUMP JUMPDEST DUP1 PUSH1 0x1 PUSH2 0x1ADA PUSH2 0x869 JUMP JUMPDEST PUSH1 0x1 PUSH1 0x1 PUSH1 0x40 SHL SUB AND DUP2 SLOAD DUP2 LT PUSH2 0x1B01 JUMPI PUSH4 0x4E487B71 PUSH1 0xE0 SHL PUSH1 0x0 MSTORE PUSH1 0x32 PUSH1 0x4 MSTORE PUSH1 0x24 PUSH1 0x0 REVERT JUMPDEST SWAP1 PUSH1 0x0 MSTORE PUSH1 0x20 PUSH1 0x0 KECCAK256 SWAP1 PUSH1 0x5 MUL ADD PUSH1 0x2 ADD PUSH1 0x0 PUSH2 0x100 EXP DUP2 SLOAD DUP2 PUSH1 0x1 PUSH1 0x1 PUSH1 0x40 SHL SUB MUL NOT AND SWAP1 DUP4 PUSH1 0x1 PUSH1 0x1 PUSH1 0x40 SHL SUB AND MUL OR SWAP1 SSTORE POP POP JUMP JUMPDEST PUSH1 0x0 SLOAD PUSH1 0x1 PUSH1 0x1 PUSH1 0xA0 SHL SUB AND CALLER EQ PUSH2 0x1B63 JUMPI PUSH1 0x40 MLOAD PUSH3 0x461BCD PUSH1 0xE5 SHL DUP2 MSTORE PUSH1 0x4 ADD PUSH2 0x781 SWAP1 PUSH2 0x2E95 JUMP JUMPDEST DUP1 PUSH1 0x1 PUSH2 0x1B6E PUSH2 0x869 JUMP JUMPDEST PUSH1 0x1 PUSH1 0x1 PUSH1 0x40 SHL SUB AND DUP2 SLOAD DUP2 LT PUSH2 0x1B95 JUMPI PUSH4 0x4E487B71 PUSH1 0xE0 SHL PUSH1 0x0 MSTORE PUSH1 0x32 PUSH1 0x4 MSTORE PUSH1 0x24 PUSH1 0x0 REVERT JUMPDEST SWAP1 PUSH1 0x0 MSTORE PUSH1 0x20 PUSH1 0x0 KECCAK256 SWAP1 PUSH1 0x5 MUL ADD PUSH1 0x0 ADD PUSH1 0x8 PUSH2 0x100 EXP DUP2 SLOAD DUP2 PUSH1 0x1 PUSH1 0x1 PUSH1 0x40 SHL SUB MUL NOT AND SWAP1 DUP4 PUSH1 0x1 PUSH1 0x1 PUSH1 0x40 SHL SUB AND MUL OR SWAP1 SSTORE POP POP JUMP JUMPDEST PUSH1 0x0 PUSH2 0x1BD7 PUSH2 0x869 JUMP JUMPDEST PUSH1 0x1 PUSH1 0x1 PUSH1 0x40 SHL SUB AND DUP3 PUSH1 0x1 PUSH1 0x1 PUSH1 0x40 SHL SUB AND LT PUSH2 0x1C07 JUMPI PUSH1 0x40 MLOAD PUSH3 0x461BCD PUSH1 0xE5 SHL DUP2 MSTORE PUSH1 0x4 ADD PUSH2 0x781 SWAP1 PUSH2 0x2E4C JUMP JUMPDEST PUSH1 0x1 DUP3 PUSH1 0x1 PUSH1 0x1 PUSH1 0x40 SHL SUB AND DUP2 SLOAD DUP2 LT PUSH2 0x1C31 JUMPI PUSH4 0x4E487B71 PUSH1 0xE0 SHL PUSH1 0x0 MSTORE PUSH1 0x32 PUSH1 0x4 MSTORE PUSH1 0x24 PUSH1 0x0 REVERT JUMPDEST PUSH1 0x0 SWAP2 DUP3 MSTORE PUSH1 0x20 SWAP1 SWAP2 KECCAK256 PUSH1 0x5 SWAP1 SWAP2 MUL ADD PUSH1 0x4 ADD SLOAD PUSH1 0x1 PUSH1 0xC0 SHL SWAP1 DIV PUSH1 0x1 PUSH1 0x1 PUSH1 0x40 SHL SUB AND SWAP3 SWAP2 POP POP JUMP JUMPDEST PUSH1 0x0 PUSH2 0x1C65 PUSH2 0x869 JUMP JUMPDEST PUSH1 0x1 PUSH1 0x1 PUSH1 0x40 SHL SUB AND DUP3 PUSH1 0x1 PUSH1 0x1 PUSH1 0x40 SHL SUB AND LT PUSH2 0x1C95 JUMPI PUSH1 0x40 MLOAD PUSH3 0x461BCD PUSH1 0xE5 SHL DUP2 MSTORE PUSH1 0x4 ADD PUSH2 0x781 SWAP1 PUSH2 0x2E4C JUMP JUMPDEST PUSH1 0x1 DUP3 PUSH1 0x1 PUSH1 0x1 PUSH1 0x40 SHL SUB AND DUP2 SLOAD DUP2 LT PUSH2 0x1CBF JUMPI PUSH4 0x4E487B71 PUSH1 0xE0 SHL PUSH1 0x0 MSTORE PUSH1 0x32 PUSH1 0x4 MSTORE PUSH1 0x24 PUSH1 0x0 REVERT JUMPDEST PUSH1 0x0 SWAP2 DUP3 MSTORE PUSH1 0x20 SWAP1 SWAP2 KECCAK256 PUSH1 0x5 SWAP1 SWAP2 MUL ADD PUSH1 0x2 ADD SLOAD PUSH1 0x1 PUSH1 0x80 SHL SWAP1 DIV PUSH1 0x1 PUSH1 0x1 PUSH1 0x40 SHL SUB AND SWAP3 SWAP2 POP POP JUMP JUMPDEST PUSH1 0x0 PUSH2 0x1CF3 PUSH2 0x15C2 JUMP JUMPDEST PUSH1 0x60 ADD MLOAD SWAP1 POP SWAP1 JUMP JUMPDEST PUSH1 0x0 SLOAD PUSH1 0x1 PUSH1 0x1 PUSH1 0xA0 SHL SUB AND CALLER EQ PUSH2 0x1D26 JUMPI PUSH1 0x40 MLOAD PUSH3 0x461BCD PUSH1 0xE5 SHL DUP2 MSTORE PUSH1 0x4 ADD PUSH2 0x781 SWAP1 PUSH2 0x2E95 JUMP JUMPDEST PUSH1 0x0 PUSH2 0x1D30 PUSH2 0x15C2 JUMP JUMPDEST PUSH1 0x40 ADD MLOAD MLOAD SWAP1 POP DUP1 DUP3 PUSH1 0x1 PUSH1 0x1 PUSH1 0x40 SHL SUB AND GT PUSH2 0x1DF7 JUMPI PUSH1 0x0 JUMPDEST DUP3 PUSH1 0x1 PUSH1 0x1 PUSH1 0x40 SHL SUB AND DUP2 PUSH1 0x1 PUSH1 0x1 PUSH1 0x40 SHL SUB AND LT ISZERO PUSH2 0x15BD JUMPI PUSH1 0x1 PUSH2 0x1D6E PUSH2 0x869 JUMP JUMPDEST PUSH1 0x1 PUSH1 0x1 PUSH1 0x40 SHL SUB AND DUP2 SLOAD DUP2 LT PUSH2 0x1D95 JUMPI PUSH4 0x4E487B71 PUSH1 0xE0 SHL PUSH1 0x0 MSTORE PUSH1 0x32 PUSH1 0x4 MSTORE PUSH1 0x24 PUSH1 0x0 REVERT JUMPDEST SWAP1 PUSH1 0x0 MSTORE PUSH1 0x20 PUSH1 0x0 KECCAK256 SWAP1 PUSH1 0x5 MUL ADD PUSH1 0x1 ADD DUP1 SLOAD DUP1 PUSH2 0x1DC3 JUMPI PUSH4 0x4E487B71 PUSH1 0xE0 SHL PUSH1 0x0 MSTORE PUSH1 0x31 PUSH1 0x4 MSTORE PUSH1 0x24 PUSH1 0x0 REVERT JUMPDEST PUSH1 0x0 DUP3 DUP2 MSTORE PUSH1 0x20 SWAP1 KECCAK256 DUP2 ADD PUSH1 0x0 NOT SWAP1 DUP2 ADD DUP1 SLOAD PUSH1 0x1 PUSH1 0x1 PUSH1 0xA0 SHL SUB NOT AND SWAP1 SSTORE ADD SWAP1 SSTORE DUP1 PUSH2 0x1DEF DUP2 PUSH2 0x30CB JUMP JUMPDEST SWAP2 POP POP PUSH2 0x1D4A JUMP JUMPDEST PUSH1 0x1 PUSH2 0x1E01 PUSH2 0x869 JUMP JUMPDEST PUSH1 0x1 PUSH1 0x1 PUSH1 0x40 SHL SUB AND DUP2 SLOAD DUP2 LT PUSH2 0x1E28 JUMPI PUSH4 0x4E487B71 PUSH1 0xE0 SHL PUSH1 0x0 MSTORE PUSH1 0x32 PUSH1 0x4 MSTORE PUSH1 0x24 PUSH1 0x0 REVERT JUMPDEST SWAP1 PUSH1 0x0 MSTORE PUSH1 0x20 PUSH1 0x0 KECCAK256 SWAP1 PUSH1 0x5 MUL ADD PUSH1 0x1 ADD PUSH1 0x0 PUSH2 0x1E45 SWAP2 SWAP1 PUSH2 0x2CA6 JUMP JUMPDEST POP POP JUMP JUMPDEST PUSH1 0x0 PUSH2 0x1E53 PUSH2 0x869 JUMP JUMPDEST PUSH1 0x1 PUSH1 0x1 PUSH1 0x40 SHL SUB AND DUP3 PUSH1 0x1 PUSH1 0x1 PUSH1 0x40 SHL SUB AND LT PUSH2 0x1E83 JUMPI PUSH1 0x40 MLOAD PUSH3 0x461BCD PUSH1 0xE5 SHL DUP2 MSTORE PUSH1 0x4 ADD PUSH2 0x781 SWAP1 PUSH2 0x2E4C JUMP JUMPDEST PUSH1 0x1 DUP3 PUSH1 0x1 PUSH1 0x1 PUSH1 0x40 SHL SUB AND DUP2 SLOAD DUP2 LT PUSH2 0x1EAD JUMPI PUSH4 0x4E487B71 PUSH1 0xE0 SHL PUSH1 0x0 MSTORE PUSH1 0x32 PUSH1 0x4 MSTORE PUSH1 0x24 PUSH1 0x0 REVERT JUMPDEST PUSH1 0x0 SWAP2 DUP3 MSTORE PUSH1 0x20 SWAP1 SWAP2 KECCAK256 PUSH1 0x5 SWAP1 SWAP2 MUL ADD SLOAD PUSH1 0x1 PUSH1 0x1 PUSH1 0x40 SHL SUB AND SWAP3 SWAP2 POP POP JUMP JUMPDEST PUSH1 0x0 PUSH2 0x1ED7 PUSH2 0x869 JUMP JUMPDEST PUSH1 0x1 PUSH1 0x1 PUSH1 0x40 SHL SUB AND DUP3 PUSH1 0x1 PUSH1 0x1 PUSH1 0x40 SHL SUB AND LT PUSH2 0x1F07 JUMPI PUSH1 0x40 MLOAD PUSH3 0x461BCD PUSH1 0xE5 SHL DUP2 MSTORE PUSH1 0x4 ADD PUSH2 0x781 SWAP1 PUSH2 0x2E4C JUMP JUMPDEST PUSH1 0x1 DUP3 PUSH1 0x1 PUSH1 0x1 PUSH1 0x40 SHL SUB AND DUP2 SLOAD DUP2 LT PUSH2 0x1F31 JUMPI PUSH4 0x4E487B71 PUSH1 0xE0 SHL PUSH1 0x0 MSTORE PUSH1 0x32 PUSH1 0x4 MSTORE PUSH1 0x24 PUSH1 0x0 REVERT JUMPDEST PUSH1 0x0 SWAP2 DUP3 MSTORE PUSH1 0x20 SWAP1 SWAP2 KECCAK256 PUSH1 0x3 PUSH1 0x5 SWAP1 SWAP3 MUL ADD ADD SLOAD PUSH1 0x1 PUSH1 0x1 PUSH1 0x40 SHL SUB AND SWAP3 SWAP2 POP POP JUMP JUMPDEST PUSH1 0x1 SLOAD PUSH1 0x0 SWAP1 DUP2 SWAP1 PUSH2 0x1F68 SWAP1 PUSH1 0x2 SWAP1 PUSH2 0x3075 JUMP JUMPDEST SWAP1 POP JUMPDEST DUP3 PUSH1 0x1 PUSH1 0x1 PUSH1 0x40 SHL SUB AND PUSH1 0x1 DUP3 DUP2 SLOAD DUP2 LT PUSH2 0x1F96 JUMPI PUSH4 0x4E487B71 PUSH1 0xE0 SHL PUSH1 0x0 MSTORE PUSH1 0x32 PUSH1 0x4 MSTORE PUSH1 0x24 PUSH1 0x0 REVERT JUMPDEST PUSH1 0x0 SWAP2 DUP3 MSTORE PUSH1 0x20 SWAP1 SWAP2 KECCAK256 PUSH1 0x5 SWAP1 SWAP2 MUL ADD SLOAD PUSH1 0x1 PUSH1 0x1 PUSH1 0x40 SHL SUB AND GT PUSH2 0x1FBB JUMPI SWAP3 SWAP2 POP POP JUMP JUMPDEST DUP1 PUSH2 0x1FC5 DUP2 PUSH2 0x30B4 JUMP JUMPDEST SWAP2 POP POP PUSH2 0x1F6B JUMP JUMPDEST PUSH1 0x0 PUSH2 0x1FD7 PUSH2 0x15C2 JUMP JUMPDEST PUSH2 0x120 ADD MLOAD SWAP1 POP SWAP1 JUMP JUMPDEST PUSH1 0x0 SLOAD PUSH1 0x1 PUSH1 0x1 PUSH1 0xA0 SHL SUB AND CALLER EQ PUSH2 0x200B JUMPI PUSH1 0x40 MLOAD PUSH3 0x461BCD PUSH1 0xE5 SHL DUP2 MSTORE PUSH1 0x4 ADD PUSH2 0x781 SWAP1 PUSH2 0x2E95 JUMP JUMPDEST DUP1 PUSH1 0x1 PUSH2 0x2016 PUSH2 0x869 JUMP JUMPDEST PUSH1 0x1 PUSH1 0x1 PUSH1 0x40 SHL SUB AND DUP2 SLOAD DUP2 LT PUSH2 0x203D JUMPI PUSH4 0x4E487B71 PUSH1 0xE0 SHL PUSH1 0x0 MSTORE PUSH1 0x32 PUSH1 0x4 MSTORE PUSH1 0x24 PUSH1 0x0 REVERT JUMPDEST SWAP1 PUSH1 0x0 MSTORE PUSH1 0x20 PUSH1 0x0 KECCAK256 SWAP1 PUSH1 0x5 MUL ADD PUSH1 0x4 ADD PUSH1 0x0 PUSH2 0x100 EXP DUP2 SLOAD DUP2 PUSH1 0x1 PUSH1 0x1 PUSH1 0xA0 SHL SUB MUL NOT AND SWAP1 DUP4 PUSH1 0x1 PUSH1 0x1 PUSH1 0xA0 SHL SUB AND MUL OR SWAP1 SSTORE POP POP JUMP JUMPDEST PUSH1 0x0 PUSH2 0x207F PUSH2 0x869 JUMP JUMPDEST PUSH1 0x1 PUSH1 0x1 PUSH1 0x40 SHL SUB AND DUP3 PUSH1 0x1 PUSH1 0x1 PUSH1 0x40 SHL SUB AND LT PUSH2 0x20AF JUMPI PUSH1 0x40 MLOAD PUSH3 0x461BCD PUSH1 0xE5 SHL DUP2 MSTORE PUSH1 0x4 ADD PUSH2 0x781 SWAP1 PUSH2 0x2E4C JUMP JUMPDEST PUSH1 0x1 DUP3 PUSH1 0x1 PUSH1 0x1 PUSH1 0x40 SHL SUB AND DUP2 SLOAD DUP2 LT PUSH2 0x20D9 JUMPI PUSH4 0x4E487B71 PUSH1 0xE0 SHL PUSH1 0x0 MSTORE PUSH1 0x32 PUSH1 0x4 MSTORE PUSH1 0x24 PUSH1 0x0 REVERT JUMPDEST PUSH1 0x0 SWAP2 DUP3 MSTORE PUSH1 0x20 SWAP1 SWAP2 KECCAK256 PUSH1 0x4 PUSH1 0x5 SWAP1 SWAP3 MUL ADD ADD SLOAD PUSH1 0x1 PUSH1 0x1 PUSH1 0xA0 SHL SUB AND SWAP3 SWAP2 POP POP JUMP JUMPDEST PUSH1 0x0 SLOAD PUSH1 0x1 PUSH1 0x1 PUSH1 0xA0 SHL SUB AND CALLER EQ PUSH2 0x2126 JUMPI PUSH1 0x40 MLOAD PUSH3 0x461BCD PUSH1 0xE5 SHL DUP2 MSTORE PUSH1 0x4 ADD PUSH2 0x781 SWAP1 PUSH2 0x2E95 JUMP JUMPDEST DUP1 PUSH1 0x1 PUSH2 0x2131 PUSH2 0x869 JUMP JUMPDEST PUSH1 0x1 PUSH1 0x1 PUSH1 0x40 SHL SUB AND DUP2 SLOAD DUP2 LT PUSH2 0x2158 JUMPI PUSH4 0x4E487B71 PUSH1 0xE0 SHL PUSH1 0x0 MSTORE PUSH1 0x32 PUSH1 0x4 MSTORE PUSH1 0x24 PUSH1 0x0 REVERT JUMPDEST SWAP1 PUSH1 0x0 MSTORE PUSH1 0x20 PUSH1 0x0 KECCAK256 SWAP1 PUSH1 0x5 MUL ADD PUSH1 0x2 ADD PUSH1 0x10 PUSH2 0x100 EXP DUP2 SLOAD DUP2 PUSH1 0x1 PUSH1 0x1 PUSH1 0x40 SHL SUB MUL NOT AND SWAP1 DUP4 PUSH1 0x1 PUSH1 0x1 PUSH1 0x40 SHL SUB AND MUL OR SWAP1 SSTORE POP POP JUMP JUMPDEST PUSH1 0x0 SLOAD PUSH1 0x1 PUSH1 0x1 PUSH1 0xA0 SHL SUB AND CALLER EQ PUSH2 0x21BA JUMPI PUSH1 0x40 MLOAD PUSH3 0x461BCD PUSH1 0xE5 SHL DUP2 MSTORE PUSH1 0x4 ADD PUSH2 0x781 SWAP1 PUSH2 0x2E95 JUMP JUMPDEST PUSH2 0x21ED PUSH1 0x1 PUSH1 0x1 PUSH1 0x40 SHL SUB PUSH32 0x0 AND NUMBER PUSH2 0x3003 JUMP JUMPDEST DUP2 PUSH1 0x1 PUSH1 0x1 PUSH1 0x40 SHL SUB AND GT PUSH2 0x2257 JUMPI PUSH1 0x40 MLOAD PUSH3 0x461BCD PUSH1 0xE5 SHL DUP2 MSTORE PUSH1 0x20 PUSH1 0x4 DUP3 ADD MSTORE PUSH1 0x2A PUSH1 0x24 DUP3 ADD MSTORE PUSH32 0x436F6E666967436F6E74726163743A2066726F6D20737461727420626C6F636B PUSH1 0x44 DUP3 ADD MSTORE PUSH10 0x20746F6F206561726C79 PUSH1 0xB0 SHL PUSH1 0x64 DUP3 ADD MSTORE PUSH1 0x84 ADD PUSH2 0x781 JUMP JUMPDEST PUSH1 0x1 SLOAD PUSH1 0x0 PUSH2 0x2264 PUSH2 0x15C2 JUMP JUMPDEST SWAP1 POP PUSH1 0x1 DUP1 SLOAD DUP1 PUSH2 0x2285 JUMPI PUSH4 0x4E487B71 PUSH1 0xE0 SHL PUSH1 0x0 MSTORE PUSH1 0x31 PUSH1 0x4 MSTORE PUSH1 0x24 PUSH1 0x0 REVERT JUMPDEST PUSH1 0x0 DUP3 DUP2 MSTORE PUSH1 0x20 DUP2 KECCAK256 PUSH1 0x5 PUSH1 0x0 NOT SWAP1 SWAP4 ADD SWAP3 DUP4 MUL ADD DUP1 SLOAD PUSH1 0x1 PUSH1 0x1 PUSH1 0x80 SHL SUB NOT AND DUP2 SSTORE SWAP1 PUSH2 0x22B6 PUSH1 0x1 DUP4 ADD DUP3 PUSH2 0x2CA6 JUMP JUMPDEST POP PUSH1 0x0 PUSH1 0x2 DUP3 ADD DUP2 SWAP1 SSTORE PUSH1 0x3 DUP3 ADD DUP1 SLOAD PUSH1 0x1 PUSH1 0x1 PUSH1 0xE0 SHL SUB NOT AND SWAP1 SSTORE PUSH1 0x4 SWAP1 SWAP2 ADD DUP2 SWAP1 SSTORE SWAP2 SSTORE PUSH1 0x1 DUP1 SLOAD PUSH2 0x22EA SWAP2 SWAP1 PUSH2 0x3075 JUMP JUMPDEST SWAP1 POP JUMPDEST DUP1 ISZERO PUSH2 0x23D6 JUMPI PUSH1 0x0 PUSH1 0x1 DUP3 DUP2 SLOAD DUP2 LT PUSH2 0x2316 JUMPI PUSH4 0x4E487B71 PUSH1 0xE0 SHL PUSH1 0x0 MSTORE PUSH1 0x32 PUSH1 0x4 MSTORE PUSH1 0x24 PUSH1 0x0 REVERT JUMPDEST PUSH1 0x0 SWAP2 DUP3 MSTORE PUSH1 0x20 SWAP1 SWAP2 KECCAK256 PUSH1 0x5 SWAP1 SWAP2 MUL ADD DUP1 SLOAD SWAP1 SWAP2 POP PUSH1 0x1 PUSH1 0x1 PUSH1 0x40 SHL SUB DUP1 DUP8 AND PUSH1 0x1 PUSH1 0x40 SHL SWAP1 SWAP3 DIV AND LT PUSH2 0x23BD JUMPI PUSH1 0x1 DUP1 SLOAD DUP1 PUSH2 0x2363 JUMPI PUSH4 0x4E487B71 PUSH1 0xE0 SHL PUSH1 0x0 MSTORE PUSH1 0x31 PUSH1 0x4 MSTORE PUSH1 0x24 PUSH1 0x0 REVERT JUMPDEST PUSH1 0x0 DUP3 DUP2 MSTORE PUSH1 0x20 DUP2 KECCAK256 PUSH1 0x5 PUSH1 0x0 NOT SWAP1 SWAP4 ADD SWAP3 DUP4 MUL ADD DUP1 SLOAD PUSH1 0x1 PUSH1 0x1 PUSH1 0x80 SHL SUB NOT AND DUP2 SSTORE SWAP1 PUSH2 0x2394 PUSH1 0x1 DUP4 ADD DUP3 PUSH2 0x2CA6 JUMP JUMPDEST POP PUSH1 0x0 PUSH1 0x2 DUP3 ADD DUP2 SWAP1 SSTORE PUSH1 0x3 DUP3 ADD DUP1 SLOAD PUSH1 0x1 PUSH1 0x1 PUSH1 0xE0 SHL SUB NOT AND SWAP1 SSTORE PUSH1 0x4 SWAP1 SWAP2 ADD SSTORE SWAP1 SSTORE PUSH2 0x23C3 JUMP JUMPDEST POP PUSH2 0x23D6 JUMP JUMPDEST POP DUP1 PUSH2 0x23CE DUP2 PUSH2 0x30B4 JUMP JUMPDEST SWAP2 POP POP PUSH2 0x22ED JUMP JUMPDEST POP PUSH1 0x1 DUP1 SLOAD DUP1 DUP3 ADD DUP3 SSTORE PUSH1 0x0 SWAP2 SWAP1 SWAP2 MSTORE DUP2 MLOAD PUSH1 0x5 SWAP1 SWAP2 MUL PUSH32 0xB10E2D527612073B26EECDFD717E6A320CF44B4AFAC2B0732D9FCBE2B7FA0CF6 DUP2 ADD DUP1 SLOAD PUSH1 0x20 DUP1 DUP7 ADD MLOAD PUSH1 0x1 PUSH1 0x1 PUSH1 0x40 SHL SUB SWAP1 DUP2 AND PUSH1 0x1 PUSH1 0x40 SHL MUL PUSH1 0x1 PUSH1 0x1 PUSH1 0x80 SHL SUB NOT SWAP1 SWAP4 AND SWAP6 AND SWAP5 SWAP1 SWAP5 OR OR DUP2 SSTORE PUSH1 0x40 DUP5 ADD MLOAD DUP1 MLOAD DUP6 SWAP5 SWAP3 SWAP4 PUSH2 0x2479 SWAP4 PUSH32 0xB10E2D527612073B26EECDFD717E6A320CF44B4AFAC2B0732D9FCBE2B7FA0CF7 SWAP1 SWAP2 ADD SWAP3 ADD SWAP1 PUSH2 0x2BDC JUMP JUMPDEST POP PUSH1 0x60 DUP3 ADD MLOAD PUSH1 0x2 DUP3 ADD DUP1 SLOAD PUSH1 0x80 DUP6 ADD MLOAD PUSH1 0xA0 DUP7 ADD MLOAD PUSH1 0xC0 DUP8 ADD MLOAD PUSH1 0x1 PUSH1 0x1 PUSH1 0x40 SHL SUB SWAP6 DUP7 AND PUSH1 0x1 PUSH1 0x1 PUSH1 0x80 SHL SUB NOT SWAP1 SWAP5 AND SWAP4 SWAP1 SWAP4 OR PUSH1 0x1 PUSH1 0x40 SHL SWAP3 DUP7 AND DUP4 MUL OR PUSH1 0x1 PUSH1 0x1 PUSH1 0x80 SHL SUB AND PUSH1 0x1 PUSH1 0x80 SHL SWAP2 DUP7 AND SWAP2 SWAP1 SWAP2 MUL PUSH1 0x1 PUSH1 0x1 PUSH1 0xC0 SHL SUB SWAP1 DUP2 AND SWAP2 SWAP1 SWAP2 OR PUSH1 0x1 PUSH1 0xC0 SHL SWAP4 DUP7 AND DUP5 MUL OR SWAP1 SWAP4 SSTORE PUSH1 0xE0 DUP1 DUP8 ADD MLOAD PUSH1 0x3 DUP8 ADD DUP1 SLOAD PUSH2 0x100 DUP11 ADD MLOAD SWAP3 DUP9 AND PUSH1 0x1 PUSH1 0x1 PUSH1 0xE0 SHL SUB NOT SWAP1 SWAP2 AND OR PUSH1 0x1 PUSH1 0x1 PUSH1 0xA0 SHL SUB SWAP3 DUP4 AND SWAP1 SWAP5 MUL SWAP4 SWAP1 SWAP4 OR SWAP1 SWAP3 SSTORE PUSH2 0x120 DUP8 ADD MLOAD PUSH1 0x4 SWAP1 SWAP7 ADD DUP1 SLOAD PUSH2 0x140 DUP10 ADD MLOAD PUSH2 0x160 SWAP1 SWAP10 ADD MLOAD SWAP8 SWAP1 SWAP4 AND PUSH1 0x1 PUSH1 0x1 PUSH1 0xC0 SHL SUB NOT SWAP1 SWAP4 AND SWAP3 SWAP1 SWAP3 OR PUSH1 0x1 PUSH1 0xA0 SHL SWAP8 SWAP1 SWAP2 SHR SWAP7 SWAP1 SWAP7 MUL SWAP6 SWAP1 SWAP6 OR SWAP1 SWAP2 AND SWAP3 DUP3 AND MUL SWAP2 SWAP1 SWAP2 OR SWAP1 SWAP2 SSTORE PUSH1 0x1 SLOAD SWAP1 DUP4 AND GT PUSH2 0x25D2 JUMPI PUSH1 0x40 MLOAD PUSH3 0x461BCD PUSH1 0xE5 SHL DUP2 MSTORE PUSH1 0x20 PUSH1 0x4 DUP3 ADD MSTORE PUSH1 0x26 PUSH1 0x24 DUP3 ADD MSTORE PUSH32 0x436F6E666967436F6E74726163743A206E6F20636F6E6669677320756E736368 PUSH1 0x44 DUP3 ADD MSTORE PUSH6 0x19591D5B1959 PUSH1 0xD2 SHL PUSH1 0x64 DUP3 ADD MSTORE PUSH1 0x84 ADD PUSH2 0x781 JUMP JUMPDEST PUSH32 0x202ADAC5E4F5FA65A6E6EC3AFC99DA8986C020C2799F4E0AEE50552A05A0BFDF PUSH2 0x25FB PUSH2 0x869 JUMP JUMPDEST PUSH1 0x40 MLOAD PUSH1 0x1 PUSH1 0x1 PUSH1 0x40 SHL SUB SWAP1 SWAP2 AND DUP2 MSTORE PUSH1 0x20 ADD PUSH1 0x40 MLOAD DUP1 SWAP2 SUB SWAP1 LOG1 POP POP POP JUMP JUMPDEST PUSH1 0x0 PUSH2 0x2625 PUSH2 0x869 JUMP JUMPDEST PUSH1 0x1 PUSH1 0x1 PUSH1 0x40 SHL SUB AND DUP3 PUSH1 0x1 PUSH1 0x1 PUSH1 0x40 SHL SUB AND LT PUSH2 0x2655 JUMPI PUSH1 0x40 MLOAD PUSH3 0x461BCD PUSH1 0xE5 SHL DUP2 MSTORE PUSH1 0x4 ADD PUSH2 0x781 SWAP1 PUSH2 0x2E4C JUMP JUMPDEST PUSH1 0x1 DUP3 PUSH1 0x1 PUSH1 0x1 PUSH1 0x40 SHL SUB AND DUP2 SLOAD DUP2 LT PUSH2 0x267F JUMPI PUSH4 0x4E487B71 PUSH1 0xE0 SHL PUSH1 0x0 MSTORE PUSH1 0x32 PUSH1 0x4 MSTORE PUSH1 0x24 PUSH1 0x0 REVERT JUMPDEST PUSH1 0x0 SWAP2 DUP3 MSTORE PUSH1 0x20 SWAP1 SWAP2 KECCAK256 PUSH1 0x5 SWAP1 SWAP2 MUL ADD PUSH1 0x2 ADD SLOAD PUSH1 0x1 PUSH1 0xC0 SHL SWAP1 DIV PUSH1 0x1 PUSH1 0x1 PUSH1 0x40 SHL SUB AND SWAP3 SWAP2 POP POP JUMP JUMPDEST PUSH1 0x0 SLOAD PUSH1 0x1 PUSH1 0x1 PUSH1 0xA0 SHL SUB AND CALLER EQ PUSH2 0x26D3 JUMPI PUSH1 0x40 MLOAD PUSH3 0x461BCD PUSH1 0xE5 SHL DUP2 MSTORE PUSH1 0x4 ADD PUSH2 0x781 SWAP1 PUSH2 0x2E95 JUMP JUMPDEST DUP1 PUSH1 0x1 PUSH2 0x26DE PUSH2 0x869 JUMP JUMPDEST PUSH1 0x1 PUSH1 0x1 PUSH1 0x40 SHL SUB AND DUP2 SLOAD DUP2 LT PUSH2 0x2705 JUMPI PUSH4 0x4E487B71 PUSH1 0xE0 SHL PUSH1 0x0 MSTORE PUSH1 0x32 PUSH1 0x4 MSTORE PUSH1 0x24 PUSH1 0x0 REVERT JUMPDEST PUSH1 0x0 SWAP2 DUP3 MSTORE PUSH1 0x20 SWAP1 SWAP2 KECCAK256 PUSH1 0x5 SWAP1 SWAP2 MUL ADD DUP1 SLOAD PUSH8 0xFFFFFFFFFFFFFFFF NOT AND PUSH1 0x1 PUSH1 0x1 PUSH1 0x40 SHL SUB SWAP3 SWAP1 SWAP3 AND SWAP2 SWAP1 SWAP2 OR SWAP1 SSTORE POP JUMP JUMPDEST PUSH1 0x0 SLOAD PUSH1 0x1 PUSH1 0x1 PUSH1 0xA0 SHL SUB AND CALLER EQ PUSH2 0x2761 JUMPI PUSH1 0x40 MLOAD PUSH3 0x461BCD PUSH1 0xE5 SHL DUP2 MSTORE PUSH1 0x4 ADD PUSH2 0x781 SWAP1 PUSH2 0x2E95 JUMP JUMPDEST DUP1 PUSH1 0x1 PUSH2 0x276C PUSH2 0x869 JUMP JUMPDEST PUSH1 0x1 PUSH1 0x1 PUSH1 0x40 SHL SUB AND DUP2 SLOAD DUP2 LT PUSH2 0x2793 JUMPI PUSH4 0x4E487B71 PUSH1 0xE0 SHL PUSH1 0x0 MSTORE PUSH1 0x32 PUSH1 0x4 MSTORE PUSH1 0x24 PUSH1 0x0 REVERT JUMPDEST SWAP1 PUSH1 0x0 MSTORE PUSH1 0x20 PUSH1 0x0 KECCAK256 SWAP1 PUSH1 0x5 MUL ADD PUSH1 0x4 ADD PUSH1 0x14 PUSH2 0x100 EXP DUP2 SLOAD DUP2 PUSH4 0xFFFFFFFF MUL NOT AND SWAP1 DUP4 PUSH1 0xE0 SHR MUL OR SWAP1 SSTORE POP POP JUMP JUMPDEST PUSH1 0x0 PUSH2 0x27CC PUSH2 0x869 JUMP JUMPDEST PUSH1 0x1 PUSH1 0x1 PUSH1 0x40 SHL SUB AND DUP3 PUSH1 0x1 PUSH1 0x1 PUSH1 0x40 SHL SUB AND LT PUSH2 0x27FC JUMPI PUSH1 0x40 MLOAD PUSH3 0x461BCD PUSH1 0xE5 SHL DUP2 MSTORE PUSH1 0x4 ADD PUSH2 0x781 SWAP1 PUSH2 0x2E4C JUMP JUMPDEST PUSH1 0x1 DUP3 PUSH1 0x1 PUSH1 0x1 PUSH1 0x40 SHL SUB AND DUP2 SLOAD DUP2 LT PUSH2 0x2826 JUMPI PUSH4 0x4E487B71 PUSH1 0xE0 SHL PUSH1 0x0 MSTORE PUSH1 0x32 PUSH1 0x4 MSTORE PUSH1 0x24 PUSH1 0x0 REVERT JUMPDEST PUSH1 0x0 SWAP2 DUP3 MSTORE PUSH1 0x20 SWAP1 SWAP2 KECCAK256 PUSH1 0x1 PUSH1 0x5 SWAP1 SWAP3 MUL ADD ADD SLOAD SWAP3 SWAP2 POP POP JUMP JUMPDEST PUSH1 0x0 PUSH2 0x284A PUSH2 0x15C2 JUMP JUMPDEST PUSH2 0x100 ADD MLOAD SWAP1 POP SWAP1 JUMP JUMPDEST PUSH1 0x0 PUSH2 0x285E PUSH2 0x15C2 JUMP JUMPDEST MLOAD SWAP2 SWAP1 POP JUMP JUMPDEST PUSH1 0x0 PUSH2 0x286E PUSH2 0x15C2 JUMP JUMPDEST PUSH1 0xC0 ADD MLOAD SWAP1 POP SWAP1 JUMP JUMPDEST PUSH1 0x0 PUSH2 0x2881 PUSH2 0x869 JUMP JUMPDEST PUSH1 0x1 PUSH1 0x1 PUSH1 0x40 SHL SUB AND DUP3 PUSH1 0x1 PUSH1 0x1 PUSH1 0x40 SHL SUB AND LT PUSH2 0x28B1 JUMPI PUSH1 0x40 MLOAD PUSH3 0x461BCD PUSH1 0xE5 SHL DUP2 MSTORE PUSH1 0x4 ADD PUSH2 0x781 SWAP1 PUSH2 0x2E4C JUMP JUMPDEST PUSH1 0x1 DUP3 PUSH1 0x1 PUSH1 0x1 PUSH1 0x40 SHL SUB AND DUP2 SLOAD DUP2 LT PUSH2 0x28DB JUMPI PUSH4 0x4E487B71 PUSH1 0xE0 SHL PUSH1 0x0 MSTORE PUSH1 0x32 PUSH1 0x4 MSTORE PUSH1 0x24 PUSH1 0x0 REVERT JUMPDEST PUSH1 0x0 SWAP2 DUP3 MSTORE PUSH1 0x20 SWAP1 SWAP2 KECCAK256 PUSH1 0x4 PUSH1 0x5 SWAP1 SWAP3 MUL ADD ADD SLOAD PUSH1 0x1 PUSH1 0xA0 SHL SWAP1 DIV PUSH1 0xE0 SHL SWAP3 SWAP2 POP POP JUMP JUMPDEST PUSH1 0x0 SLOAD PUSH1 0x1 PUSH1 0x1 PUSH1 0xA0 SHL SUB AND CALLER EQ PUSH2 0x2929 JUMPI PUSH1 0x40 MLOAD PUSH3 0x461BCD PUSH1 0xE5 SHL DUP2 MSTORE PUSH1 0x4 ADD PUSH2 0x781 SWAP1 PUSH2 0x2E95 JUMP JUMPDEST PUSH1 0x1 PUSH1 0x1 PUSH1 0xA0 SHL SUB DUP2 AND PUSH2 0x298E JUMPI PUSH1 0x40 MLOAD PUSH3 0x461BCD PUSH1 0xE5 SHL DUP2 MSTORE PUSH1 0x20 PUSH1 0x4 DUP3 ADD MSTORE PUSH1 0x26 PUSH1 0x24 DUP3 ADD MSTORE PUSH32 0x4F776E61626C653A206E6577206F776E657220697320746865207A65726F2061 PUSH1 0x44 DUP3 ADD MSTORE PUSH6 0x646472657373 PUSH1 0xD0 SHL PUSH1 0x64 DUP3 ADD MSTORE PUSH1 0x84 ADD PUSH2 0x781 JUMP JUMPDEST PUSH1 0x0 DUP1 SLOAD PUSH1 0x40 MLOAD PUSH1 0x1 PUSH1 0x1 PUSH1 0xA0 SHL SUB DUP1 DUP6 AND SWAP4 SWAP3 AND SWAP2 PUSH32 0x8BE0079C531659141344CD1FD0A4F28419497F9722A3DAAFE3B4186F6B6457E0 SWAP2 LOG3 PUSH1 0x0 DUP1 SLOAD PUSH1 0x1 PUSH1 0x1 PUSH1 0xA0 SHL SUB NOT AND PUSH1 0x1 PUSH1 0x1 PUSH1 0xA0 SHL SUB SWAP3 SWAP1 SWAP3 AND SWAP2 SWAP1 SWAP2 OR SWAP1 SSTORE JUMP JUMPDEST PUSH1 0x0 PUSH2 0x29F3 PUSH2 0x15C2 JUMP JUMPDEST PUSH1 0xA0 ADD MLOAD SWAP1 POP SWAP1 JUMP JUMPDEST PUSH1 0x0 PUSH2 0x2A06 PUSH2 0x15C2 JUMP JUMPDEST PUSH2 0x140 ADD MLOAD SWAP1 POP SWAP1 JUMP JUMPDEST PUSH1 0x0 PUSH2 0x2A1A PUSH2 0x869 JUMP JUMPDEST PUSH1 0x1 PUSH1 0x1 PUSH1 0x40 SHL SUB AND DUP4 PUSH1 0x1 PUSH1 0x1 PUSH1 0x40 SHL SUB AND LT PUSH2 0x2A4A JUMPI PUSH1 0x40 MLOAD PUSH3 0x461BCD PUSH1 0xE5 SHL DUP2 MSTORE PUSH1 0x4 ADD PUSH2 0x781 SWAP1 PUSH2 0x2E4C JUMP JUMPDEST PUSH1 0x1 DUP4 PUSH1 0x1 PUSH1 0x1 PUSH1 0x40 SHL SUB AND DUP2 SLOAD DUP2 LT PUSH2 0x2A74 JUMPI PUSH4 0x4E487B71 PUSH1 0xE0 SHL PUSH1 0x0 MSTORE PUSH1 0x32 PUSH1 0x4 MSTORE PUSH1 0x24 PUSH1 0x0 REVERT JUMPDEST SWAP1 PUSH1 0x0 MSTORE PUSH1 0x20 PUSH1 0x0 KECCAK256 SWAP1 PUSH1 0x5 MUL ADD PUSH1 0x1 ADD DUP3 PUSH1 0x1 PUSH1 0x1 PUSH1 0x40 SHL SUB AND DUP2 SLOAD DUP2 LT PUSH2 0x2AAD JUMPI PUSH4 0x4E487B71 PUSH1 0xE0 SHL PUSH1 0x0 MSTORE PUSH1 0x32 PUSH1 0x4 MSTORE PUSH1 0x24 PUSH1 0x0 REVERT JUMPDEST PUSH1 0x0 SWAP2 DUP3 MSTORE PUSH1 0x20 SWAP1 SWAP2 KECCAK256 ADD SLOAD PUSH1 0x1 PUSH1 0x1 PUSH1 0xA0 SHL SUB AND SWAP4 SWAP3 POP POP POP JUMP JUMPDEST PUSH1 0x0 PUSH2 0x2AD3 PUSH2 0x869 JUMP JUMPDEST PUSH1 0x1 PUSH1 0x1 PUSH1 0x40 SHL SUB AND DUP3 PUSH1 0x1 PUSH1 0x1 PUSH1 0x40 SHL SUB AND LT PUSH2 0x2B03 JUMPI PUSH1 0x40 MLOAD PUSH3 0x461BCD PUSH1 0xE5 SHL DUP2 MSTORE PUSH1 0x4 ADD PUSH2 0x781 SWAP1 PUSH2 0x2E4C JUMP JUMPDEST PUSH1 0x1 DUP3 PUSH1 0x1 PUSH1 0x1 PUSH1 0x40 SHL SUB AND DUP2 SLOAD DUP2 LT PUSH2 0x2B2D JUMPI PUSH4 0x4E487B71 PUSH1 0xE0 SHL PUSH1 0x0 MSTORE PUSH1 0x32 PUSH1 0x4 MSTORE PUSH1 0x24 PUSH1 0x0 REVERT JUMPDEST PUSH1 0x0 SWAP2 DUP3 MSTORE PUSH1 0x20 SWAP1 SWAP2 KECCAK256 PUSH1 0x2 PUSH1 0x5 SWAP1 SWAP3 MUL ADD ADD SLOAD PUSH1 0x1 PUSH1 0x1 PUSH1 0x40 SHL SUB AND SWAP3 SWAP2 POP POP JUMP JUMPDEST PUSH1 0x0 PUSH2 0x2B5A PUSH2 0x15C2 JUMP JUMPDEST PUSH1 0x20 ADD MLOAD SWAP1 POP SWAP1 JUMP JUMPDEST PUSH2 0x2B6B PUSH2 0x2C41 JUMP JUMPDEST POP PUSH1 0x40 DUP1 MLOAD PUSH2 0x180 DUP2 ADD DUP3 MSTORE PUSH1 0x0 DUP1 DUP3 MSTORE PUSH1 0x20 DUP1 DUP4 ADD DUP3 SWAP1 MSTORE DUP4 MLOAD DUP3 DUP2 MSTORE SWAP1 DUP2 ADD DUP5 MSTORE SWAP3 DUP3 ADD SWAP3 SWAP1 SWAP3 MSTORE PUSH1 0x60 DUP2 ADD DUP3 SWAP1 MSTORE PUSH1 0x80 DUP2 ADD DUP3 SWAP1 MSTORE PUSH1 0xA0 DUP2 ADD DUP3 SWAP1 MSTORE PUSH1 0xC0 DUP2 ADD DUP3 SWAP1 MSTORE PUSH1 0xE0 DUP2 ADD DUP3 SWAP1 MSTORE PUSH2 0x100 DUP2 ADD DUP3 SWAP1 MSTORE PUSH2 0x120 DUP2 ADD DUP3 SWAP1 MSTORE PUSH2 0x140 DUP2 ADD DUP3 SWAP1 MSTORE PUSH2 0x160 DUP2 ADD SWAP2 SWAP1 SWAP2 MSTORE SWAP1 JUMP JUMPDEST DUP3 DUP1 SLOAD DUP3 DUP3 SSTORE SWAP1 PUSH1 0x0 MSTORE PUSH1 0x20 PUSH1 0x0 KECCAK256 SWAP1 DUP2 ADD SWAP3 DUP3 ISZERO PUSH2 0x2C31 JUMPI SWAP2 PUSH1 0x20 MUL DUP3 ADD JUMPDEST DUP3 DUP2 GT ISZERO PUSH2 0x2C31 JUMPI DUP3 MLOAD DUP3 SLOAD PUSH1 0x1 PUSH1 0x1 PUSH1 0xA0 SHL SUB NOT AND PUSH1 0x1 PUSH1 0x1 PUSH1 0xA0 SHL SUB SWAP1 SWAP2 AND OR DUP3 SSTORE PUSH1 0x20 SWAP1 SWAP3 ADD SWAP2 PUSH1 0x1 SWAP1 SWAP2 ADD SWAP1 PUSH2 0x2BFC JUMP JUMPDEST POP PUSH2 0x2C3D SWAP3 SWAP2 POP PUSH2 0x2CC7 JUMP JUMPDEST POP SWAP1 JUMP JUMPDEST PUSH1 0x40 DUP1 MLOAD PUSH2 0x180 DUP2 ADD DUP3 MSTORE PUSH1 0x0 DUP1 DUP3 MSTORE PUSH1 0x20 DUP3 ADD DUP2 SWAP1 MSTORE PUSH1 0x60 SWAP3 DUP3 ADD DUP4 SWAP1 MSTORE SWAP2 DUP2 ADD DUP3 SWAP1 MSTORE PUSH1 0x80 DUP2 ADD DUP3 SWAP1 MSTORE PUSH1 0xA0 DUP2 ADD DUP3 SWAP1 MSTORE PUSH1 0xC0 DUP2 ADD DUP3 SWAP1 MSTORE PUSH1 0xE0 DUP2 ADD DUP3 SWAP1 MSTORE PUSH2 0x100 DUP2 ADD DUP3 SWAP1 MSTORE PUSH2 0x120 DUP2 ADD DUP3 SWAP1 MSTORE PUSH2 0x140 DUP2 ADD DUP3 SWAP1 MSTORE PUSH2 0x160 DUP2 ADD SWAP2 SWAP1 SWAP2 MSTORE SWAP1 JUMP JUMPDEST POP DUP1 SLOAD PUSH1 0x0 DUP3 SSTORE SWAP1 PUSH1 0x0 MSTORE PUSH1 0x20 PUSH1 0x0 KECCAK256 SWAP1 DUP2 ADD SWAP1 PUSH2 0x2CC4 SWAP2 SWAP1 PUSH2 0x2CC7 JUMP JUMPDEST POP JUMP JUMPDEST JUMPDEST DUP1 DUP3 GT ISZERO PUSH2 0x2C3D JUMPI PUSH1 0x0 DUP2 SSTORE PUSH1 0x1 ADD PUSH2 0x2CC8 JUMP JUMPDEST DUP1 CALLDATALOAD PUSH1 0x1 PUSH1 0x1 PUSH1 0x40 SHL SUB DUP2 AND DUP2 EQ PUSH2 0x2CF3 JUMPI PUSH1 0x0 DUP1 REVERT JUMPDEST SWAP2 SWAP1 POP JUMP JUMPDEST PUSH1 0x0 PUSH1 0x20 DUP3 DUP5 SUB SLT ISZERO PUSH2 0x2D09 JUMPI DUP1 DUP2 REVERT JUMPDEST DUP2 CALLDATALOAD PUSH1 0x1 PUSH1 0x1 PUSH1 0xA0 SHL SUB DUP2 AND DUP2 EQ PUSH2 0x2D1F JUMPI DUP2 DUP3 REVERT JUMPDEST SWAP4 SWAP3 POP POP POP JUMP JUMPDEST PUSH1 0x0 DUP1 PUSH1 0x20 DUP4 DUP6 SUB SLT ISZERO PUSH2 0x2D38 JUMPI DUP1 DUP2 REVERT JUMPDEST DUP3 CALLDATALOAD PUSH1 0x1 PUSH1 0x1 PUSH1 0x40 SHL SUB DUP1 DUP3 GT ISZERO PUSH2 0x2D4E JUMPI DUP3 DUP4 REVERT JUMPDEST DUP2 DUP6 ADD SWAP2 POP DUP6 PUSH1 0x1F DUP4 ADD SLT PUSH2 0x2D61 JUMPI DUP3 DUP4 REVERT JUMPDEST DUP2 CALLDATALOAD DUP2 DUP2 GT ISZERO PUSH2 0x2D6F JUMPI DUP4 DUP5 REVERT JUMPDEST DUP7 PUSH1 0x20 DUP3 PUSH1 0x5 SHL DUP6 ADD ADD GT ISZERO PUSH2 0x2D83 JUMPI DUP4 DUP5 REVERT JUMPDEST PUSH1 0x20 SWAP3 SWAP1 SWAP3 ADD SWAP7 SWAP2 SWAP6 POP SWAP1 SWAP4 POP POP POP POP JUMP JUMPDEST PUSH1 0x0 PUSH1 0x20 DUP3 DUP5 SUB SLT ISZERO PUSH2 0x2DA6 JUMPI DUP1 DUP2 REVERT JUMPDEST DUP2 CALLDATALOAD PUSH1 0x1 PUSH1 0x1 PUSH1 0xE0 SHL SUB NOT DUP2 AND DUP2 EQ PUSH2 0x2D1F JUMPI DUP2 DUP3 REVERT JUMPDEST PUSH1 0x0 PUSH1 0x20 DUP3 DUP5 SUB SLT ISZERO PUSH2 0x2DCE JUMPI DUP1 DUP2 REVERT JUMPDEST PUSH2 0x2D1F DUP3 PUSH2 0x2CDC JUMP JUMPDEST PUSH1 0x0 DUP1 PUSH1 0x40 DUP4 DUP6 SUB SLT ISZERO PUSH2 0x2DE9 JUMPI DUP2 DUP3 REVERT JUMPDEST PUSH2 0x2DF2 DUP4 PUSH2 0x2CDC JUMP JUMPDEST SWAP2 POP PUSH2 0x2E00 PUSH1 0x20 DUP5 ADD PUSH2 0x2CDC JUMP JUMPDEST SWAP1 POP SWAP3 POP SWAP3 SWAP1 POP JUMP JUMPDEST PUSH1 0x0 DUP2 MLOAD DUP1 DUP5 MSTORE PUSH1 0x20 DUP1 DUP6 ADD SWAP5 POP DUP1 DUP5 ADD DUP4 JUMPDEST DUP4 DUP2 LT ISZERO PUSH2 0x2E41 JUMPI DUP2 MLOAD PUSH1 0x1 PUSH1 0x1 PUSH1 0xA0 SHL SUB AND DUP8 MSTORE SWAP6 DUP3 ADD SWAP6 SWAP1 DUP3 ADD SWAP1 PUSH1 0x1 ADD PUSH2 0x2E1C JUMP JUMPDEST POP SWAP5 SWAP6 SWAP5 POP POP POP POP POP JUMP JUMPDEST PUSH1 0x20 DUP1 DUP3 MSTORE PUSH1 0x29 SWAP1 DUP3 ADD MSTORE PUSH32 0x436F6E666967436F6E74726163743A20636F6E66696720696E646578206F7574 PUSH1 0x40 DUP3 ADD MSTORE PUSH9 0x206F662072616E6765 PUSH1 0xB8 SHL PUSH1 0x60 DUP3 ADD MSTORE PUSH1 0x80 ADD SWAP1 JUMP JUMPDEST PUSH1 0x20 DUP1 DUP3 MSTORE DUP2 DUP2 ADD MSTORE PUSH32 0x4F776E61626C653A2063616C6C6572206973206E6F7420746865206F776E6572 PUSH1 0x40 DUP3 ADD MSTORE PUSH1 0x60 ADD SWAP1 JUMP JUMPDEST PUSH1 0x20 DUP2 MSTORE PUSH2 0x2EE4 PUSH1 0x20 DUP3 ADD DUP4 MLOAD PUSH1 0x1 PUSH1 0x1 PUSH1 0x40 SHL SUB AND SWAP1 MSTORE JUMP JUMPDEST PUSH1 0x0 PUSH1 0x20 DUP4 ADD MLOAD PUSH2 0x2F00 PUSH1 0x40 DUP5 ADD DUP3 PUSH1 0x1 PUSH1 0x1 PUSH1 0x40 SHL SUB AND SWAP1 MSTORE JUMP JUMPDEST POP PUSH1 0x40 DUP4 ADD MLOAD PUSH2 0x180 DUP1 PUSH1 0x60 DUP6 ADD MSTORE PUSH2 0x2F1D PUSH2 0x1A0 DUP6 ADD DUP4 PUSH2 0x2E09 JUMP JUMPDEST SWAP2 POP PUSH1 0x60 DUP6 ADD MLOAD PUSH2 0x2F39 PUSH1 0x80 DUP7 ADD DUP3 PUSH1 0x1 PUSH1 0x1 PUSH1 0x40 SHL SUB AND SWAP1 MSTORE JUMP JUMPDEST POP PUSH1 0x80 DUP6 ADD MLOAD PUSH1 0x1 PUSH1 0x1 PUSH1 0x40 SHL SUB DUP2 AND PUSH1 0xA0 DUP7 ADD MSTORE POP PUSH1 0xA0 DUP6 ADD MLOAD PUSH1 0x1 PUSH1 0x1 PUSH1 0x40 SHL SUB DUP2 AND PUSH1 0xC0 DUP7 ADD MSTORE POP PUSH1 0xC0 DUP6 ADD MLOAD PUSH1 0x1 PUSH1 0x1 PUSH1 0x40 SHL SUB DUP2 AND PUSH1 0xE0 DUP7 ADD MSTORE POP PUSH1 0xE0 DUP6 ADD MLOAD PUSH2 0x100 PUSH2 0x2F95 DUP2 DUP8 ADD DUP4 PUSH1 0x1 PUSH1 0x1 PUSH1 0x40 SHL SUB AND SWAP1 MSTORE JUMP JUMPDEST DUP7 ADD MLOAD SWAP1 POP PUSH2 0x120 PUSH2 0x2FB1 DUP7 DUP3 ADD DUP4 PUSH1 0x1 PUSH1 0x1 PUSH1 0xA0 SHL SUB AND SWAP1 MSTORE JUMP JUMPDEST DUP7 ADD MLOAD SWAP1 POP PUSH2 0x140 PUSH2 0x2FCD DUP7 DUP3 ADD DUP4 PUSH1 0x1 PUSH1 0x1 PUSH1 0xA0 SHL SUB AND SWAP1 MSTORE JUMP JUMPDEST DUP7 ADD MLOAD SWAP1 POP PUSH2 0x160 PUSH2 0x2FEA DUP7 DUP3 ADD DUP4 PUSH1 0x1 PUSH1 0x1 PUSH1 0xE0 SHL SUB NOT AND SWAP1 MSTORE JUMP JUMPDEST SWAP1 SWAP6 ADD MLOAD PUSH1 0x1 PUSH1 0x1 PUSH1 0x40 SHL SUB AND SWAP4 ADD SWAP3 SWAP1 SWAP3 MSTORE POP SWAP2 SWAP1 POP JUMP JUMPDEST PUSH1 0x0 DUP3 NOT DUP3 GT ISZERO PUSH2 0x3016 JUMPI PUSH2 0x3016 PUSH2 0x30F2 JUMP JUMPDEST POP ADD SWAP1 JUMP JUMPDEST PUSH1 0x0 PUSH1 0x1 PUSH1 0x1 PUSH1 0x40 SHL SUB DUP1 DUP4 AND DUP2 DUP6 AND DUP1 DUP4 SUB DUP3 GT ISZERO PUSH2 0x303D JUMPI PUSH2 0x303D PUSH2 0x30F2 JUMP JUMPDEST ADD SWAP5 SWAP4 POP POP POP POP JUMP JUMPDEST PUSH1 0x0 PUSH1 0x1 PUSH1 0x1 PUSH1 0x40 SHL SUB DUP1 DUP4 AND DUP2 DUP6 AND DUP2 DUP4 DIV DUP2 GT DUP3 ISZERO ISZERO AND ISZERO PUSH2 0x306C JUMPI PUSH2 0x306C PUSH2 0x30F2 JUMP JUMPDEST MUL SWAP5 SWAP4 POP POP POP POP JUMP JUMPDEST PUSH1 0x0 DUP3 DUP3 LT ISZERO PUSH2 0x3087 JUMPI PUSH2 0x3087 PUSH2 0x30F2 JUMP JUMPDEST POP SUB SWAP1 JUMP JUMPDEST PUSH1 0x0 PUSH1 0x1 PUSH1 0x1 PUSH1 0x40 SHL SUB DUP4 DUP2 AND SWAP1 DUP4 AND DUP2 DUP2 LT ISZERO PUSH2 0x30AC JUMPI PUSH2 0x30AC PUSH2 0x30F2 JUMP JUMPDEST SUB SWAP4 SWAP3 POP POP POP JUMP JUMPDEST PUSH1 0x0 DUP2 PUSH2 0x30C3 JUMPI PUSH2 0x30C3 PUSH2 0x30F2 JUMP JUMPDEST POP PUSH1 0x0 NOT ADD SWAP1 JUMP JUMPDEST PUSH1 0x0 PUSH1 0x1 PUSH1 0x1 PUSH1 0x40 SHL SUB DUP1 DUP4 AND DUP2 DUP2 EQ ISZERO PUSH2 0x30E8 JUMPI PUSH2 0x30E8 PUSH2 0x30F2 JUMP JUMPDEST PUSH1 0x1 ADD SWAP4 SWAP3 POP POP POP JUMP JUMPDEST PUSH4 0x4E487B71 PUSH1 0xE0 SHL PUSH1 0x0 MSTORE PUSH1 0x11 PUSH1 0x4 MSTORE PUSH1 0x24 PUSH1 0x0 REVERT INVALID LOG2 PUSH5 0x6970667358 0x22 SLT KECCAK256 ISZERO PUSH2 0xF9A4 0xF 0xCB 0xDC 0xDD SWAP15 CALLER 0x1E GASPRICE 0x5D PUSH20 0xD3CB51F4042E778872732A4C61B6077C64286473 PUSH16 0x6C634300080400330000000000000000 ",
  "sha1": "29487c0617a4b9e489f4f8d21195d563b085d11e",
  "source": "// SPDX-License-Identifier: MIT\n\npragma solidity =0.8.4;\n\nimport {Ownable} from \"openzeppelin/contracts/access/Ownable.sol\";\n\nstruct BatchConfig {\n    uint64 startBatchIndex; // the index of the first batch using this config\n    uint64 startBlockNumber; // the block number from which on this config is applicable\n    address[] keypers; // the keyper addresses\n    uint64 threshold; // the threshold parameter\n    uint64 batchSpan; // the duration of one batch in blocks\n    uint64 batchSizeLimit; // the maximum size of a batch in bytes\n    uint64 transactionSizeLimit; // the maximum size of each transaction in the batch in bytes\n    uint64 transactionGasLimit; // the maximum amount of gas each transaction may use\n    address feeReceiver; // the address receiving the collected fees\n    address targetAddress; // the address of the contract responsible of executing transactions\n    bytes4 targetFunctionSelector; // function of the target contract that executes transactions\n    uint64 executionTimeout; // the number of blocks after which execution can be skipped\n}\n\n/// @title A contract that manages `BatchConfig` objects.\n/// @dev The config objects are stored in sequence, with configs applicable to later batches being\n///     lined up behind configs applicable to earlier batches (according to\n///     `config.startBlockNumber`). The contract owner is entitled to add or remove configs at the\n///     end at will as long as a notice of at least `configChangeHeadsUpBlocks` is given.\n/// @dev To add a new config, first populate the `nextConfig` object accordingly and then schedule\n///     it with `scheduleNextConfig`.\ncontract ConfigContract is Ownable {\n    /// @notice The event emitted after a new config object has been scheduled.\n    /// @param numConfigs The new number of configs stored.\n    event ConfigScheduled(uint64 numConfigs);\n\n    /// @notice The event emitted after the owner has unscheduled one or more config objects.\n    /// @param numConfigs The new number of configs stored.\n    event ConfigUnscheduled(uint64 numConfigs);\n\n    // Stores all scheduled configs, plus the next config at the end\n    BatchConfig[] private configs;\n\n    uint64 public immutable configChangeHeadsUpBlocks;\n\n    constructor(uint64 headsUp) {\n        configs.push(_zeroConfig()); // guard\n        configs.push(_zeroConfig()); // next config\n\n        configChangeHeadsUpBlocks = headsUp;\n    }\n\n    function _zeroConfig() internal pure returns (BatchConfig memory) {\n        return\n            BatchConfig({\n                startBatchIndex: 0,\n                startBlockNumber: 0,\n                keypers: new address[](0),\n                threshold: 0,\n                batchSpan: 0,\n                batchSizeLimit: 0,\n                transactionSizeLimit: 0,\n                transactionGasLimit: 0,\n                feeReceiver: address(0),\n                targetAddress: address(0),\n                targetFunctionSelector: bytes4(0),\n                executionTimeout: 0\n            });\n    }\n\n    function numConfigs() public view returns (uint64) {\n        return uint64(configs.length) - 1; // exclude next config\n    }\n\n    function nextConfigIndex() public view returns (uint64) {\n        return uint64(configs.length) - 1;\n    }\n\n    function nextConfig() public view returns (BatchConfig memory) {\n        return configs[nextConfigIndex()];\n    }\n\n    function lastScheduledConfigIndex() public view returns (uint64) {\n        return uint64(configs.length) - 2;\n    }\n\n    function lastScheduledConfig() public view returns (BatchConfig memory) {\n        return configs[lastScheduledConfigIndex()];\n    }\n\n    /// @notice Get the index of the config for the batch with the given index.\n    /// @param batchIndex The index of the batch.\n    function configIndexForBatchIndex(uint64 batchIndex)\n        public\n        view\n        returns (uint64)\n    {\n        for (uint256 i = configs.length - 2; i >= 0; i--) {\n            if (configs[i].startBatchIndex <= batchIndex) {\n                return uint64(i);\n            }\n        }\n        assert(false);\n        return 0; // only for the linter\n    }\n\n    /// @notice Get the config for a certain batch.\n    /// @param batchIndex The index of the batch.\n    function configForBatchIndex(uint64 batchIndex)\n        public\n        view\n        returns (BatchConfig memory)\n    {\n        uint64 configIndex = configIndexForBatchIndex(batchIndex);\n        return configs[configIndex];\n    }\n\n    function configForConfigIndex(uint64 configIndex)\n        public\n        view\n        returns (BatchConfig memory)\n    {\n        return configs[configIndex];\n    }\n\n    //\n    // Config field getters\n    //\n    function configKeypers(uint64 configIndex, uint64 keyperIndex)\n        public\n        view\n        returns (address)\n    {\n        require(\n            configIndex < numConfigs(),\n            \"ConfigContract: config index out of range\"\n        );\n        return configs[configIndex].keypers[keyperIndex];\n    }\n\n    function configNumKeypers(uint64 configIndex) public view returns (uint64) {\n        require(\n            configIndex < numConfigs(),\n            \"ConfigContract: config index out of range\"\n        );\n        return uint64(configs[configIndex].keypers.length);\n    }\n\n    function configStartBatchIndex(uint64 configIndex)\n        public\n        view\n        returns (uint64)\n    {\n        require(\n            configIndex < numConfigs(),\n            \"ConfigContract: config index out of range\"\n        );\n        return configs[configIndex].startBatchIndex;\n    }\n\n    function configStartBlockNumber(uint64 configIndex)\n        public\n        view\n        returns (uint64)\n    {\n        require(\n            configIndex < numConfigs(),\n            \"ConfigContract: config index out of range\"\n        );\n        return configs[configIndex].startBlockNumber;\n    }\n\n    function configThreshold(uint64 configIndex) public view returns (uint64) {\n        require(\n            configIndex < numConfigs(),\n            \"ConfigContract: config index out of range\"\n        );\n        return configs[configIndex].threshold;\n    }\n\n    function configBatchSpan(uint64 configIndex) public view returns (uint64) {\n        require(\n            configIndex < numConfigs(),\n            \"ConfigContract: config index out of range\"\n        );\n        return configs[configIndex].batchSpan;\n    }\n\n    function configBatchSizeLimit(uint64 configIndex)\n        public\n        view\n        returns (uint64)\n    {\n        require(\n            configIndex < numConfigs(),\n            \"ConfigContract: config index out of range\"\n        );\n        return configs[configIndex].batchSizeLimit;\n    }\n\n    function configTransactionSizeLimit(uint64 configIndex)\n        public\n        view\n        returns (uint64)\n    {\n        require(\n            configIndex < numConfigs(),\n            \"ConfigContract: config index out of range\"\n        );\n        return configs[configIndex].transactionSizeLimit;\n    }\n\n    function configTransactionGasLimit(uint64 configIndex)\n        public\n        view\n        returns (uint64)\n    {\n        require(\n            configIndex < numConfigs(),\n            \"ConfigContract: config index out of range\"\n        );\n        return configs[configIndex].transactionGasLimit;\n    }\n\n    function configFeeReceiver(uint64 configIndex)\n        public\n        view\n        returns (address)\n    {\n        require(\n            configIndex < numConfigs(),\n            \"ConfigContract: config index out of range\"\n        );\n        return configs[configIndex].feeReceiver;\n    }\n\n    function configTargetAddress(uint64 configIndex)\n        public\n        view\n        returns (address)\n    {\n        require(\n            configIndex < numConfigs(),\n            \"ConfigContract: config index out of range\"\n        );\n        return configs[configIndex].targetAddress;\n    }\n\n    function configTargetFunctionSelector(uint64 configIndex)\n        public\n        view\n        returns (bytes4)\n    {\n        require(\n            configIndex < numConfigs(),\n            \"ConfigContract: config index out of range\"\n        );\n        return configs[configIndex].targetFunctionSelector;\n    }\n\n    function configExecutionTimeout(uint64 configIndex)\n        public\n        view\n        returns (uint64)\n    {\n        require(\n            configIndex < numConfigs(),\n            \"ConfigContract: config index out of range\"\n        );\n        return configs[configIndex].executionTimeout;\n    }\n\n    //\n    // next config setters\n    //\n    function nextConfigSetStartBatchIndex(uint64 startBatchIndex)\n        public\n        onlyOwner\n    {\n        configs[nextConfigIndex()].startBatchIndex = startBatchIndex;\n    }\n\n    function nextConfigSetStartBlockNumber(uint64 startBlockNumber)\n        public\n        onlyOwner\n    {\n        configs[nextConfigIndex()].startBlockNumber = startBlockNumber;\n    }\n\n    function nextConfigSetThreshold(uint64 threshold) public onlyOwner {\n        configs[nextConfigIndex()].threshold = threshold;\n    }\n\n    function nextConfigSetBatchSpan(uint64 batchSpan) public onlyOwner {\n        configs[nextConfigIndex()].batchSpan = batchSpan;\n    }\n\n    function nextConfigSetBatchSizeLimit(uint64 batchSizeLimit)\n        public\n        onlyOwner\n    {\n        configs[nextConfigIndex()].batchSizeLimit = batchSizeLimit;\n    }\n\n    function nextConfigSetTransactionSizeLimit(uint64 transactionSizeLimit)\n        public\n        onlyOwner\n    {\n        configs[nextConfigIndex()].transactionSizeLimit = transactionSizeLimit;\n    }\n\n    function nextConfigSetTransactionGasLimit(uint64 transactionGasLimit)\n        public\n        onlyOwner\n    {\n        configs[nextConfigIndex()].transactionGasLimit = transactionGasLimit;\n    }\n\n    function nextConfigSetFeeReceiver(address feeReceiver) public onlyOwner {\n        configs[nextConfigIndex()].feeReceiver = feeReceiver;\n    }\n\n    function nextConfigSetTargetAddress(address targetAddress)\n        public\n        onlyOwner\n    {\n        configs[nextConfigIndex()].targetAddress = targetAddress;\n    }\n\n    function nextConfigSetTargetFunctionSelector(bytes4 targetFunctionSelector)\n        public\n        onlyOwner\n    {\n        configs[nextConfigIndex()]\n            .targetFunctionSelector = targetFunctionSelector;\n    }\n\n    function nextConfigSetExecutionTimeout(uint64 executionTimeout)\n        public\n        onlyOwner\n    {\n        configs[nextConfigIndex()].executionTimeout = executionTimeout;\n    }\n\n    function nextConfigAddKeypers(address[] calldata newKeypers)\n        public\n        onlyOwner\n    {\n        require(\n            configs[nextConfigIndex()].keypers.length <=\n                type(uint64).max - newKeypers.length,\n            \"ConfigContract: number of keypers exceeds uint64\"\n        );\n        for (uint64 i = 0; i < newKeypers.length; i++) {\n            configs[nextConfigIndex()].keypers.push(newKeypers[i]);\n        }\n    }\n\n    function nextConfigRemoveKeypers(uint64 n) public onlyOwner {\n        uint256 currentLength = nextConfig().keypers.length;\n        if (n <= currentLength) {\n            for (uint64 i = 0; i < n; i++) {\n                configs[nextConfigIndex()].keypers.pop();\n            }\n        } else {\n            delete configs[nextConfigIndex()].keypers;\n        }\n    }\n\n    //\n    // nextConfig getters\n    //\n    function nextConfigKeypers(uint64 keyperIndex)\n        public\n        view\n        returns (address)\n    {\n        return nextConfig().keypers[keyperIndex];\n    }\n\n    function nextConfigNumKeypers() public view returns (uint64) {\n        return uint64(nextConfig().keypers.length);\n    }\n\n    function nextConfigStartBatchIndex() public view returns (uint64) {\n        return nextConfig().startBatchIndex;\n    }\n\n    function nextConfigStartBlockNumber() public view returns (uint64) {\n        return nextConfig().startBlockNumber;\n    }\n\n    function nextConfigThreshold() public view returns (uint64) {\n        return nextConfig().threshold;\n    }\n\n    function nextConfigBatchSpan() public view returns (uint64) {\n        return nextConfig().batchSpan;\n    }\n\n    function nextConfigBatchSizeLimit() public view returns (uint64) {\n        return nextConfig().batchSizeLimit;\n    }\n\n    function nextConfigTransactionSizeLimit() public view returns (uint64) {\n        return nextConfig().transactionSizeLimit;\n    }\n\n    function nextConfigTransactionGasLimit() public view returns (uint64) {\n        return nextConfig().transactionGasLimit;\n    }\n\n    function nextConfigFeeReceiver() public view returns (address) {\n        return nextConfig().feeReceiver;\n    }\n\n    function nextConfigTargetAddress() public view returns (address) {\n        return nextConfig().targetAddress;\n    }\n\n    function nextConfigTargetFunctionSelector() public view returns (bytes4) {\n        return nextConfig().targetFunctionSelector;\n    }\n\n    function nextConfigExecutionTimeout() public view returns (uint64) {\n        return nextConfig().executionTimeout;\n    }\n\n    //\n    // Scheduling\n    //\n\n    /// @notice Finalize the `nextConfig` object and add it to the end of the config sequence.\n    /// @notice `startBlockNumber` of the next config must be at least `configChangeHeadsUpBlocks`\n    ///     blocks or the batch span of the current config in the future, whatever is greater.\n    /// @notice The transition between the next config and the config currently at the end of the\n    ///     config sequence must be seamless, i.e., the batches must not be cut short.\n    function scheduleNextConfig() public onlyOwner {\n        require(\n            configs.length < type(uint64).max - 1,\n            \"ConfigContract: number of configs exceeds uint64\"\n        );\n        BatchConfig memory config1 = lastScheduledConfig();\n        BatchConfig memory config2 = nextConfig();\n\n        // check start block is not too early\n        uint64 headsUp = configChangeHeadsUpBlocks;\n        if (config1.batchSpan > headsUp) {\n            headsUp = config1.batchSpan;\n        }\n        uint64 earliestStart = uint64(block.number) + headsUp + 1;\n        require(\n            config2.startBlockNumber >= earliestStart,\n            \"ConfigContract: start block too early\"\n        );\n\n        // check transition is seamless\n        if (config1.batchSpan > 0) {\n            require(\n                config2.startBatchIndex > config1.startBatchIndex,\n                \"ConfigContract: start batch index too small\"\n            );\n            uint64 batchDelta =\n                config2.startBatchIndex - config1.startBatchIndex;\n            require(\n                config1.startBlockNumber + config1.batchSpan * batchDelta ==\n                    config2.startBlockNumber,\n                \"ConfigContract: config transition not seamless\"\n            );\n        } else {\n            require(\n                config2.startBatchIndex == config1.startBatchIndex,\n                \"ConfigContract: transition from inactive config with wrong start index\"\n            );\n        }\n\n        configs.push(_zeroConfig());\n\n        emit ConfigScheduled(numConfigs());\n    }\n\n    /// @notice Remove configs from the end.\n    /// @param fromStartBlockNumber All configs with a start block number greater than or equal\n    ///     to this will be removed.\n    /// @notice `fromStartBlockNumber` must be `configChangeHeadsUpBlocks` blocks in the future.\n    /// @notice This method can remove one or more configs. If no config would be removed, an error\n    ///     is thrown.\n    /// @notice This invalidates the currently set next config.\n    function unscheduleConfigs(uint64 fromStartBlockNumber) public onlyOwner {\n        require(\n            fromStartBlockNumber > block.number + configChangeHeadsUpBlocks,\n            \"ConfigContract: from start block too early\"\n        );\n\n        uint64 lengthBefore = uint64(configs.length);\n\n        BatchConfig memory nextConfig_ = nextConfig();\n        configs.pop();\n\n        for (uint256 i = configs.length - 1; i > 0; i--) {\n            BatchConfig storage config = configs[i];\n            if (config.startBlockNumber >= fromStartBlockNumber) {\n                configs.pop();\n            } else {\n                break;\n            }\n        }\n\n        configs.push(nextConfig_); // add the next config again\n\n        require(\n            configs.length < lengthBefore,\n            \"ConfigContract: no configs unscheduled\"\n        );\n        emit ConfigUnscheduled(numConfigs());\n    }\n\n    function batchingActive(uint64 configIndex) public view returns (bool) {\n        return configs[configIndex].batchSpan > 0;\n    }\n\n    function batchBoundaryBlocks(uint64 configIndex, uint64 batchIndex)\n        public\n        view\n        returns (\n            uint64,\n            uint64,\n            uint64\n        )\n    {\n        uint64 startBlockNumber = configs[configIndex].startBlockNumber;\n        uint64 startBatchIndex = configs[configIndex].startBatchIndex;\n        uint64 batchSpan = configs[configIndex].batchSpan;\n        uint64 executionTimeout = configs[configIndex].executionTimeout;\n\n        assert(batchSpan > 0);\n        assert(batchIndex >= startBatchIndex);\n\n        uint64 relativeBatchIndex = batchIndex - startBatchIndex;\n        uint64 end =\n            startBlockNumber + relativeBatchIndex * batchSpan + batchSpan;\n        uint64 start = end - batchSpan;\n        if (relativeBatchIndex >= 1) {\n            start -= batchSpan;\n        }\n        uint64 timeout = end + executionTimeout;\n\n        return (start, end, timeout);\n    }\n}\n",
  "sourcePath": "contracts/ConfigContract.sol",
  "type": "contract"
}