{
  "abi": [
    {
      "inputs": [
        {
          "internalType": "contract ConfigContract",
          "name": "_configContract",
          "type": "address"
        },
        {
          "internalType": "contract BatcherContract",
          "name": "_batcherContract",
          "type": "address"
        }
      ],
      "stateMutability": "nonpayable",
      "type": "constructor"
    },
    {
      "anonymous": false,
      "inputs": [
        {
          "indexed": false,
          "internalType": "uint64",
          "name": "numExecutionHalfSteps",
          "type": "uint64"
        },
        {
          "indexed": false,
          "internalType": "bytes32",
          "name": "batchHash",
          "type": "bytes32"
        }
      ],
      "name": "BatchExecuted",
      "type": "event"
    },
    {
      "anonymous": false,
      "inputs": [
        {
          "indexed": false,
          "internalType": "uint64",
          "name": "numExecutionHalfSteps",
          "type": "uint64"
        }
      ],
      "name": "CipherExecutionSkipped",
      "type": "event"
    },
    {
      "anonymous": false,
      "inputs": [
        {
          "indexed": false,
          "internalType": "uint64",
          "name": "txIndex",
          "type": "uint64"
        },
        {
          "indexed": false,
          "internalType": "bytes32",
          "name": "txHash",
          "type": "bytes32"
        },
        {
          "indexed": false,
          "internalType": "bytes",
          "name": "data",
          "type": "bytes"
        }
      ],
      "name": "TransactionFailed",
      "type": "event"
    },
    {
      "inputs": [],
      "name": "batcherContract",
      "outputs": [
        {
          "internalType": "contract BatcherContract",
          "name": "",
          "type": "address"
        }
      ],
      "stateMutability": "view",
      "type": "function"
    },
    {
      "inputs": [
        {
          "internalType": "uint64",
          "name": "",
          "type": "uint64"
        }
      ],
      "name": "cipherExecutionReceipts",
      "outputs": [
        {
          "internalType": "bool",
          "name": "executed",
          "type": "bool"
        },
        {
          "internalType": "address",
          "name": "executor",
          "type": "address"
        },
        {
          "internalType": "uint64",
          "name": "halfStep",
          "type": "uint64"
        },
        {
          "internalType": "bytes32",
          "name": "cipherBatchHash",
          "type": "bytes32"
        },
        {
          "internalType": "bytes32",
          "name": "batchHash",
          "type": "bytes32"
        }
      ],
      "stateMutability": "view",
      "type": "function"
    },
    {
      "inputs": [],
      "name": "configContract",
      "outputs": [
        {
          "internalType": "contract ConfigContract",
          "name": "",
          "type": "address"
        }
      ],
      "stateMutability": "view",
      "type": "function"
    },
    {
      "inputs": [
        {
          "internalType": "uint64",
          "name": "_batchIndex",
          "type": "uint64"
        },
        {
          "internalType": "bytes32",
          "name": "_cipherBatchHash",
          "type": "bytes32"
        },
        {
          "internalType": "bytes[]",
          "name": "_transactions",
          "type": "bytes[]"
        },
        {
          "internalType": "uint64",
          "name": "_keyperIndex",
          "type": "uint64"
        }
      ],
      "name": "executeCipherBatch",
      "outputs": [],
      "stateMutability": "nonpayable",
      "type": "function"
    },
    {
      "inputs": [
        {
          "internalType": "uint64",
          "name": "_batchIndex",
          "type": "uint64"
        },
        {
          "internalType": "bytes[]",
          "name": "_transactions",
          "type": "bytes[]"
        }
      ],
      "name": "executePlainBatch",
      "outputs": [],
      "stateMutability": "nonpayable",
      "type": "function"
    },
    {
      "inputs": [
        {
          "internalType": "uint64",
          "name": "_halfStep",
          "type": "uint64"
        }
      ],
      "name": "getReceipt",
      "outputs": [
        {
          "components": [
            {
              "internalType": "bool",
              "name": "executed",
              "type": "bool"
            },
            {
              "internalType": "address",
              "name": "executor",
              "type": "address"
            },
            {
              "internalType": "uint64",
              "name": "halfStep",
              "type": "uint64"
            },
            {
              "internalType": "bytes32",
              "name": "cipherBatchHash",
              "type": "bytes32"
            },
            {
              "internalType": "bytes32",
              "name": "batchHash",
              "type": "bytes32"
            }
          ],
          "internalType": "struct CipherExecutionReceipt",
          "name": "",
          "type": "tuple"
        }
      ],
      "stateMutability": "view",
      "type": "function"
    },
    {
      "inputs": [],
      "name": "numExecutionHalfSteps",
      "outputs": [
        {
          "internalType": "uint64",
          "name": "",
          "type": "uint64"
        }
      ],
      "stateMutability": "view",
      "type": "function"
    },
    {
      "inputs": [
        {
          "internalType": "uint64",
          "name": "_batchIndex",
          "type": "uint64"
        }
      ],
      "name": "skipCipherExecution",
      "outputs": [],
      "stateMutability": "nonpayable",
      "type": "function"
    }
  ],
  "bytecode": "608060405234801561001057600080fd5b506040516200168f3803806200168f83398101604081905261003191610062565b600080546001600160a01b039384166001600160a01b031991821617909155600180549290931691161790556100b3565b60008060408385031215610074578182fd5b825161007f8161009b565b60208401519092506100908161009b565b809150509250929050565b6001600160a01b03811681146100b057600080fd5b50565b6115cc80620000c36000396000f3fe608060405234801561001057600080fd5b50600436106100885760003560e01c8063bf66a1821161005b578063bf66a182146100f3578063c87190b3146100fb578063d8e9a0011461011f578063fa6385f41461013257610088565b806325b36cbf1461008d5780634b2a026d146100b657806387eb2378146100cb578063beb3b50e146100de575b600080fd5b6100a061009b366004610fbd565b610147565b6040516100ad9190611400565b60405180910390f35b6100c96100c4366004610fe0565b6101c0565b005b6100c96100d9366004611032565b61042c565b6100e6610915565b6040516100ad919061114a565b6100e6610924565b61010e610109366004610fbd565b610933565b6040516100ad9594939291906110e4565b6100c961012d366004610fbd565b610979565b61013a610b4b565b6040516100ad9190611449565b61014f610d3c565b506001600160401b03808216600090815260026020818152604092839020835160a081018552815460ff8116151582526001600160a01b0361010082041693820193909352600160a81b9092049094169281019290925260018301546060830152919091015460808201525b919050565b6001546001600160401b0380851691600291600160a01b90910416046001600160401b03161461020b5760405162461bcd60e51b8152600401610202906112ce565b60405180910390fd5b60018054600160a01b90048116146102355760405162461bcd60e51b8152600401610202906111f7565b6000805460405163700465b160e11b81526001600160a01b039091169063e008cb6290610266908790600401611449565b60006040518083038186803b15801561027e57600080fd5b505afa158015610292573d6000803e3d6000fd5b505050506040513d6000823e601f3d908101601f191682016040526102ba9190810190610e86565b9050600081608001516001600160401b0316116102d357fe5b836001018160800151028160200151016001600160401b03164310156102f557fe5b60006103128261012001518361014001518460e001518787610b61565b6001805460405163643d7d4560e11b81529293506001600160a01b03169163c87afa8a91610345918991906004016114c0565b60206040518083038186803b15801561035d57600080fd5b505afa158015610371573d6000803e3d6000fd5b505050506040513d601f19601f820116820180604052508101906103959190610e6e565b81146103b35760405162461bcd60e51b815260040161020290611316565b600180546001600160401b03600160a01b808304821684018216810267ffffffffffffffff60a01b1990931692909217928390556040517f3d5ed901c456e33248250feaab56f76b579b96b1679d7866e5bed2b6e9c5619a9361041d93900490911690849061145d565b60405180910390a15050505050565b6001546001600160401b0380871691600291600160a01b90910416046001600160401b03161461046e5760405162461bcd60e51b8152600401610202906112ce565b60018054600160a01b900416156104975760405162461bcd60e51b8152600401610202906111f7565b6000805460405163700465b160e11b81526001600160a01b039091169063e008cb62906104c8908990600401611449565b60006040518083038186803b1580156104e057600080fd5b505afa1580156104f4573d6000803e3d6000fd5b505050506040513d6000823e601f3d908101601f1916820160405261051c9190810190610e86565b9050600081608001516001600160401b03161161054b5760405162461bcd60e51b81526004016102029061123d565b80610160015186600101826080015102826020015101016001600160401b031643106105e757600180546001600160401b03600160a01b808304821684018216810267ffffffffffffffff60a01b1990931692909217928390556040517fa43f7c79f47e7937048e7a80ce05ad2cf3da87b2b1bf1bd1122c22a6234d34be936105d993900490911690611449565b60405180910390a15061090e565b856001018160800151028160200151016001600160401b031643101561061f5760405162461bcd60e51b8152600401610202906111ae565b806040015151826001600160401b03161061064c5760405162461bcd60e51b8152600401610202906113b4565b8060400151826001600160401b03168151811061066557fe5b60200260200101516001600160a01b0316336001600160a01b03161461069d5760405162461bcd60e51b81526004016102029061115e565b60015460405163643d7d4560e11b81526001600160a01b039091169063c87afa8a906106d09089906000906004016114c0565b60206040518083038186803b1580156106e857600080fd5b505afa1580156106fc573d6000803e3d6000fd5b505050506040513d601f19601f820116820180604052508101906107209190610e6e565b851461073e5760405162461bcd60e51b815260040161020290611281565b600061075b8261012001518361014001518460e001518888610b61565b90506040518060a00160405280600115158152602001336001600160a01b03168152602001600160149054906101000a90046001600160401b03166001600160401b031681526020018781526020018281525060026000600160149054906101000a90046001600160401b03166001600160401b03166001600160401b0316815260200190815260200160002060008201518160000160006101000a81548160ff02191690831515021790555060208201518160000160016101000a8154816001600160a01b0302191690836001600160a01b0316021790555060408201518160000160156101000a8154816001600160401b0302191690836001600160401b0316021790555060608201518160010155608082015181600201559050506001601481819054906101000a90046001600160401b03168092919060010191906101000a8154816001600160401b0302191690836001600160401b03160217905550507f3d5ed901c456e33248250feaab56f76b579b96b1679d7866e5bed2b6e9c5619a600160149054906101000a90046001600160401b03168260405161090392919061145d565b60405180910390a150505b5050505050565b6001546001600160a01b031681565b6000546001600160a01b031681565b600260208190526000918252604090912080546001820154919092015460ff83169261010081046001600160a01b031692600160a81b9091046001600160401b03169185565b6001546001600160401b0380831691600291600160a01b90910416046001600160401b0316146109bb5760405162461bcd60e51b8152600401610202906112ce565b60018054600160a01b900416156109e45760405162461bcd60e51b8152600401610202906111f7565b6000805460405163700465b160e11b81526001600160a01b039091169063e008cb6290610a15908590600401611449565b60006040518083038186803b158015610a2d57600080fd5b505afa158015610a41573d6000803e3d6000fd5b505050506040513d6000823e601f3d908101601f19168201604052610a699190810190610e86565b9050600081608001516001600160401b031611610a985760405162461bcd60e51b81526004016102029061123d565b80610160015182600101826080015102826020015101016001600160401b0316431015610ad75760405162461bcd60e51b815260040161020290611361565b600180546001600160401b03600160a01b808304821684018216810267ffffffffffffffff60a01b1990931692909217928390556040517fa43f7c79f47e7937048e7a80ce05ad2cf3da87b2b1bf1bd1122c22a6234d34be93610b3f93900490911690611449565b60405180910390a15050565b600154600160a01b90046001600160401b031681565b60008060005b6001600160401b038116841115610d31576000878686846001600160401b0316818110610b9057fe5b9050602002810190610ba291906114e7565b604051602401610bb392919061111b565b604051602081830303815290604052906001600160e01b0319166020820180516001600160e01b03838183161783525050505090506000808a6001600160a01b0316896001600160401b031684604051610c0d91906110c8565b60006040518083038160008787f1925050503d8060008114610c4b576040519150601f19603f3d011682016040523d82523d6000602084013e610c50565b606091505b509150915081610ccf577f6f580fd78fd3fc2e6db770c1da4b991b45906920b1fe2abd8cc7d760b8021049848989876001600160401b0316818110610c9157fe5b9050602002810190610ca391906114e7565b604051610cb19291906110a3565b604051908190038120610cc692918590611476565b60405180910390a15b8787856001600160401b0316818110610ce457fe5b9050602002810190610cf691906114e7565b86604051602001610d09939291906110b3565b6040516020818303038152906040528051906020012094505050508080600101915050610b67565b509695505050505050565b6040805160a08101825260008082526020820181905291810182905260608101829052608081019190915290565b80516001600160a01b03811681146101bb57600080fd5b600082601f830112610d91578081fd5b815160206001600160401b03821115610da657fe5b808202610db482820161152b565b838152828101908684018388018501891015610dce578687fd5b8693505b85841015610df757610de381610d6a565b835260019390930192918401918401610dd2565b50979650505050505050565b60008083601f840112610e14578081fd5b5081356001600160401b03811115610e2a578182fd5b6020830191508360208083028501011115610e4457600080fd5b9250929050565b80516001600160e01b0319811681146101bb57600080fd5b80516101bb8161157e565b600060208284031215610e7f578081fd5b5051919050565b600060208284031215610e97578081fd5b81516001600160401b0380821115610ead578283fd5b8184019150610180808387031215610ec3578384fd5b610ecc8161152b565b9050610ed783610e63565b8152610ee560208401610e63565b6020820152604083015182811115610efb578485fd5b610f0787828601610d81565b604083015250610f1960608401610e63565b6060820152610f2a60808401610e63565b6080820152610f3b60a08401610e63565b60a0820152610f4c60c08401610e63565b60c0820152610f5d60e08401610e63565b60e08201526101009150610f72828401610d6a565b828201526101209150610f86828401610d6a565b828201526101409150610f9a828401610e4b565b828201526101609150610fae828401610e63565b91810191909152949350505050565b600060208284031215610fce578081fd5b8135610fd98161157e565b9392505050565b600080600060408486031215610ff4578182fd5b8335610fff8161157e565b925060208401356001600160401b03811115611019578283fd5b61102586828701610e03565b9497909650939450505050565b600080600080600060808688031215611049578081fd5b85356110548161157e565b94506020860135935060408601356001600160401b03811115611075578182fd5b61108188828901610e03565b90945092505060608601356110958161157e565b809150509295509295909350565b6000828483379101908152919050565b60008385833750909101908152602001919050565b600082516110da81846020870161154e565b9190910192915050565b94151585526001600160a01b039390931660208501526001600160401b039190911660408401526060830152608082015260a00190565b60006020825282602083015282846040840137818301604090810191909152601f909201601f19160101919050565b6001600160a01b0391909116815260200190565b60208082526030908201527f4578656375746f72436f6e74726163743a2073656e646572206973206e6f742060408201526f39b832b1b4b334b2b21035b2bcb832b960811b606082015260800190565b60208082526029908201527f4578656375746f72436f6e74726163743a206261746368206973206e6f7420636040820152681b1bdcd959081e595d60ba1b606082015260800190565b60208082526026908201527f4578656375746f72436f6e74726163743a20756e65787065637465642068616c60408201526506620737465760d41b606082015260800190565b60208082526024908201527f4578656375746f72436f6e74726163743a20636f6e66696720697320696e61636040820152637469766560e01b606082015260800190565b6020808252602d908201527f4578656375746f72436f6e74726163743a20696e636f7272656374206369706860408201526c0cae440c4c2e8c6d040d0c2e6d609b1b606082015260800190565b60208082526028908201527f4578656375746f72436f6e74726163743a20756e6578706563746564206261746040820152670c6d040d2dcc8caf60c31b606082015260800190565b6020808252602b908201527f4578656375746f72436f6e74726163743a206261746368206861736820646f6560408201526a0e640dcdee840dac2e8c6d60ab1b606082015260800190565b60208082526033908201527f4578656375746f72436f6e74726163743a20657865637574696f6e2074696d656040820152721bdd5d081b9bdd081c995858da1959081e595d606a1b606082015260800190565b6020808252602c908201527f4578656375746f72436f6e74726163743a206b657970657220696e646578206f60408201526b7574206f6620626f756e647360a01b606082015260800190565b8151151581526020808301516001600160a01b0316908201526040808301516001600160401b031690820152606080830151908201526080918201519181019190915260a00190565b6001600160401b0391909116815260200190565b6001600160401b03929092168252602082015260400190565b60006001600160401b03851682528360208301526060604083015282518060608401526114aa81608085016020870161154e565b601f01601f191691909101608001949350505050565b6001600160401b038316815260408101600283106114da57fe5b8260208301529392505050565b6000808335601e198436030181126114fd578283fd5b8301803591506001600160401b03821115611516578283fd5b602001915036819003821315610e4457600080fd5b6040518181016001600160401b038111828210171561154657fe5b604052919050565b60005b83811015611569578181015183820152602001611551565b83811115611578576000848401525b50505050565b6001600160401b038116811461159357600080fd5b5056fea2646970667358221220ffbfc08833ef6a0db349ff0227ce98403a802d4d5a0c1a60a205d2518f823f3964736f6c63430007060033",
  "bytecodeSha1": "33956644832bc22ad8ee7428954050e8576d40c7",
  "compiler": {
    "evm_version": "istanbul",
    "optimizer": {
      "enabled": true,
      "runs": 200
    },
    "version": "0.7.6+commit.7338295f"
  },
  "contractName": "ExecutorContract",
  "language": "Solidity",
  "natspec": {
    "details": "Batch execution is carried out in two separate steps: Execution of the encrypted portion,     followed by execution of the plaintext portion. Thus, progress is counted in half steps (0     and 1 for batch 0, 2 and 3 for batch 1, and so on).",
    "kind": "dev",
    "methods": {
      "executeCipherBatch(uint64,bytes32,bytes[],uint64)": {
        "notice": "Execute the cipher portion of a batch.Execution is only performed if `_cipherBatchHash` matches the hash in the batcher     contract and the batch is active and completed.",
        "params": {
          "_batchIndex": "The index of the batch",
          "_cipherBatchHash": "The hash of the batch (consisting of encrypted transactions)",
          "_keyperIndex": "The index of the keyper calling the function.",
          "_transactions": "The sequence of (decrypted) transactions to execute."
        }
      },
      "executePlainBatch(uint64,bytes[])": {
        "notice": "Execute the plaintext portion of a batch.This is a trustless operation since `_transactions` will be checked against the     (plaintext) batch hash from the batcher contract.",
        "params": {
          "_batchIndex": "The index of the batch",
          "_transactions": "The array of plaintext transactions in the batch."
        }
      },
      "skipCipherExecution(uint64)": {
        "notice": "Skip execution of the cipher portion of a batch.This is only possible if successful execution has not been carried out in time     (according to the execution timeout defined in the config)"
      }
    },
    "title": "A contract that serves as the entry point of batch execution",
    "version": 1
  },
  "opcodes": "PUSH1 0x80 PUSH1 0x40 MSTORE CALLVALUE DUP1 ISZERO PUSH2 0x10 JUMPI PUSH1 0x0 DUP1 REVERT JUMPDEST POP PUSH1 0x4 CALLDATASIZE LT PUSH2 0x88 JUMPI PUSH1 0x0 CALLDATALOAD PUSH1 0xE0 SHR DUP1 PUSH4 0xBF66A182 GT PUSH2 0x5B JUMPI DUP1 PUSH4 0xBF66A182 EQ PUSH2 0xF3 JUMPI DUP1 PUSH4 0xC87190B3 EQ PUSH2 0xFB JUMPI DUP1 PUSH4 0xD8E9A001 EQ PUSH2 0x11F JUMPI DUP1 PUSH4 0xFA6385F4 EQ PUSH2 0x132 JUMPI PUSH2 0x88 JUMP JUMPDEST DUP1 PUSH4 0x25B36CBF EQ PUSH2 0x8D JUMPI DUP1 PUSH4 0x4B2A026D EQ PUSH2 0xB6 JUMPI DUP1 PUSH4 0x87EB2378 EQ PUSH2 0xCB JUMPI DUP1 PUSH4 0xBEB3B50E EQ PUSH2 0xDE JUMPI JUMPDEST PUSH1 0x0 DUP1 REVERT JUMPDEST PUSH2 0xA0 PUSH2 0x9B CALLDATASIZE PUSH1 0x4 PUSH2 0xFBD JUMP JUMPDEST PUSH2 0x147 JUMP JUMPDEST PUSH1 0x40 MLOAD PUSH2 0xAD SWAP2 SWAP1 PUSH2 0x1400 JUMP JUMPDEST PUSH1 0x40 MLOAD DUP1 SWAP2 SUB SWAP1 RETURN JUMPDEST PUSH2 0xC9 PUSH2 0xC4 CALLDATASIZE PUSH1 0x4 PUSH2 0xFE0 JUMP JUMPDEST PUSH2 0x1C0 JUMP JUMPDEST STOP JUMPDEST PUSH2 0xC9 PUSH2 0xD9 CALLDATASIZE PUSH1 0x4 PUSH2 0x1032 JUMP JUMPDEST PUSH2 0x42C JUMP JUMPDEST PUSH2 0xE6 PUSH2 0x915 JUMP JUMPDEST PUSH1 0x40 MLOAD PUSH2 0xAD SWAP2 SWAP1 PUSH2 0x114A JUMP JUMPDEST PUSH2 0xE6 PUSH2 0x924 JUMP JUMPDEST PUSH2 0x10E PUSH2 0x109 CALLDATASIZE PUSH1 0x4 PUSH2 0xFBD JUMP JUMPDEST PUSH2 0x933 JUMP JUMPDEST PUSH1 0x40 MLOAD PUSH2 0xAD SWAP6 SWAP5 SWAP4 SWAP3 SWAP2 SWAP1 PUSH2 0x10E4 JUMP JUMPDEST PUSH2 0xC9 PUSH2 0x12D CALLDATASIZE PUSH1 0x4 PUSH2 0xFBD JUMP JUMPDEST PUSH2 0x979 JUMP JUMPDEST PUSH2 0x13A PUSH2 0xB4B JUMP JUMPDEST PUSH1 0x40 MLOAD PUSH2 0xAD SWAP2 SWAP1 PUSH2 0x1449 JUMP JUMPDEST PUSH2 0x14F PUSH2 0xD3C JUMP JUMPDEST POP PUSH1 0x1 PUSH1 0x1 PUSH1 0x40 SHL SUB DUP1 DUP3 AND PUSH1 0x0 SWAP1 DUP2 MSTORE PUSH1 0x2 PUSH1 0x20 DUP2 DUP2 MSTORE PUSH1 0x40 SWAP3 DUP4 SWAP1 KECCAK256 DUP4 MLOAD PUSH1 0xA0 DUP2 ADD DUP6 MSTORE DUP2 SLOAD PUSH1 0xFF DUP2 AND ISZERO ISZERO DUP3 MSTORE PUSH1 0x1 PUSH1 0x1 PUSH1 0xA0 SHL SUB PUSH2 0x100 DUP3 DIV AND SWAP4 DUP3 ADD SWAP4 SWAP1 SWAP4 MSTORE PUSH1 0x1 PUSH1 0xA8 SHL SWAP1 SWAP3 DIV SWAP1 SWAP5 AND SWAP3 DUP2 ADD SWAP3 SWAP1 SWAP3 MSTORE PUSH1 0x1 DUP4 ADD SLOAD PUSH1 0x60 DUP4 ADD MSTORE SWAP2 SWAP1 SWAP2 ADD SLOAD PUSH1 0x80 DUP3 ADD MSTORE JUMPDEST SWAP2 SWAP1 POP JUMP JUMPDEST PUSH1 0x1 SLOAD PUSH1 0x1 PUSH1 0x1 PUSH1 0x40 SHL SUB DUP1 DUP6 AND SWAP2 PUSH1 0x2 SWAP2 PUSH1 0x1 PUSH1 0xA0 SHL SWAP1 SWAP2 DIV AND DIV PUSH1 0x1 PUSH1 0x1 PUSH1 0x40 SHL SUB AND EQ PUSH2 0x20B JUMPI PUSH1 0x40 MLOAD PUSH3 0x461BCD PUSH1 0xE5 SHL DUP2 MSTORE PUSH1 0x4 ADD PUSH2 0x202 SWAP1 PUSH2 0x12CE JUMP JUMPDEST PUSH1 0x40 MLOAD DUP1 SWAP2 SUB SWAP1 REVERT JUMPDEST PUSH1 0x1 DUP1 SLOAD PUSH1 0x1 PUSH1 0xA0 SHL SWAP1 DIV DUP2 AND EQ PUSH2 0x235 JUMPI PUSH1 0x40 MLOAD PUSH3 0x461BCD PUSH1 0xE5 SHL DUP2 MSTORE PUSH1 0x4 ADD PUSH2 0x202 SWAP1 PUSH2 0x11F7 JUMP JUMPDEST PUSH1 0x0 DUP1 SLOAD PUSH1 0x40 MLOAD PUSH4 0x700465B1 PUSH1 0xE1 SHL DUP2 MSTORE PUSH1 0x1 PUSH1 0x1 PUSH1 0xA0 SHL SUB SWAP1 SWAP2 AND SWAP1 PUSH4 0xE008CB62 SWAP1 PUSH2 0x266 SWAP1 DUP8 SWAP1 PUSH1 0x4 ADD PUSH2 0x1449 JUMP JUMPDEST PUSH1 0x0 PUSH1 0x40 MLOAD DUP1 DUP4 SUB DUP2 DUP7 DUP1 EXTCODESIZE ISZERO DUP1 ISZERO PUSH2 0x27E JUMPI PUSH1 0x0 DUP1 REVERT JUMPDEST POP GAS STATICCALL ISZERO DUP1 ISZERO PUSH2 0x292 JUMPI RETURNDATASIZE PUSH1 0x0 DUP1 RETURNDATACOPY RETURNDATASIZE PUSH1 0x0 REVERT JUMPDEST POP POP POP POP PUSH1 0x40 MLOAD RETURNDATASIZE PUSH1 0x0 DUP3 RETURNDATACOPY PUSH1 0x1F RETURNDATASIZE SWAP1 DUP2 ADD PUSH1 0x1F NOT AND DUP3 ADD PUSH1 0x40 MSTORE PUSH2 0x2BA SWAP2 SWAP1 DUP2 ADD SWAP1 PUSH2 0xE86 JUMP JUMPDEST SWAP1 POP PUSH1 0x0 DUP2 PUSH1 0x80 ADD MLOAD PUSH1 0x1 PUSH1 0x1 PUSH1 0x40 SHL SUB AND GT PUSH2 0x2D3 JUMPI INVALID JUMPDEST DUP4 PUSH1 0x1 ADD DUP2 PUSH1 0x80 ADD MLOAD MUL DUP2 PUSH1 0x20 ADD MLOAD ADD PUSH1 0x1 PUSH1 0x1 PUSH1 0x40 SHL SUB AND NUMBER LT ISZERO PUSH2 0x2F5 JUMPI INVALID JUMPDEST PUSH1 0x0 PUSH2 0x312 DUP3 PUSH2 0x120 ADD MLOAD DUP4 PUSH2 0x140 ADD MLOAD DUP5 PUSH1 0xE0 ADD MLOAD DUP8 DUP8 PUSH2 0xB61 JUMP JUMPDEST PUSH1 0x1 DUP1 SLOAD PUSH1 0x40 MLOAD PUSH4 0x643D7D45 PUSH1 0xE1 SHL DUP2 MSTORE SWAP3 SWAP4 POP PUSH1 0x1 PUSH1 0x1 PUSH1 0xA0 SHL SUB AND SWAP2 PUSH4 0xC87AFA8A SWAP2 PUSH2 0x345 SWAP2 DUP10 SWAP2 SWAP1 PUSH1 0x4 ADD PUSH2 0x14C0 JUMP JUMPDEST PUSH1 0x20 PUSH1 0x40 MLOAD DUP1 DUP4 SUB DUP2 DUP7 DUP1 EXTCODESIZE ISZERO DUP1 ISZERO PUSH2 0x35D JUMPI PUSH1 0x0 DUP1 REVERT JUMPDEST POP GAS STATICCALL ISZERO DUP1 ISZERO PUSH2 0x371 JUMPI RETURNDATASIZE PUSH1 0x0 DUP1 RETURNDATACOPY RETURNDATASIZE PUSH1 0x0 REVERT JUMPDEST POP POP POP POP PUSH1 0x40 MLOAD RETURNDATASIZE PUSH1 0x1F NOT PUSH1 0x1F DUP3 ADD AND DUP3 ADD DUP1 PUSH1 0x40 MSTORE POP DUP2 ADD SWAP1 PUSH2 0x395 SWAP2 SWAP1 PUSH2 0xE6E JUMP JUMPDEST DUP2 EQ PUSH2 0x3B3 JUMPI PUSH1 0x40 MLOAD PUSH3 0x461BCD PUSH1 0xE5 SHL DUP2 MSTORE PUSH1 0x4 ADD PUSH2 0x202 SWAP1 PUSH2 0x1316 JUMP JUMPDEST PUSH1 0x1 DUP1 SLOAD PUSH1 0x1 PUSH1 0x1 PUSH1 0x40 SHL SUB PUSH1 0x1 PUSH1 0xA0 SHL DUP1 DUP4 DIV DUP3 AND DUP5 ADD DUP3 AND DUP2 MUL PUSH8 0xFFFFFFFFFFFFFFFF PUSH1 0xA0 SHL NOT SWAP1 SWAP4 AND SWAP3 SWAP1 SWAP3 OR SWAP3 DUP4 SWAP1 SSTORE PUSH1 0x40 MLOAD PUSH32 0x3D5ED901C456E33248250FEAAB56F76B579B96B1679D7866E5BED2B6E9C5619A SWAP4 PUSH2 0x41D SWAP4 SWAP1 DIV SWAP1 SWAP2 AND SWAP1 DUP5 SWAP1 PUSH2 0x145D JUMP JUMPDEST PUSH1 0x40 MLOAD DUP1 SWAP2 SUB SWAP1 LOG1 POP POP POP POP POP JUMP JUMPDEST PUSH1 0x1 SLOAD PUSH1 0x1 PUSH1 0x1 PUSH1 0x40 SHL SUB DUP1 DUP8 AND SWAP2 PUSH1 0x2 SWAP2 PUSH1 0x1 PUSH1 0xA0 SHL SWAP1 SWAP2 DIV AND DIV PUSH1 0x1 PUSH1 0x1 PUSH1 0x40 SHL SUB AND EQ PUSH2 0x46E JUMPI PUSH1 0x40 MLOAD PUSH3 0x461BCD PUSH1 0xE5 SHL DUP2 MSTORE PUSH1 0x4 ADD PUSH2 0x202 SWAP1 PUSH2 0x12CE JUMP JUMPDEST PUSH1 0x1 DUP1 SLOAD PUSH1 0x1 PUSH1 0xA0 SHL SWAP1 DIV AND ISZERO PUSH2 0x497 JUMPI PUSH1 0x40 MLOAD PUSH3 0x461BCD PUSH1 0xE5 SHL DUP2 MSTORE PUSH1 0x4 ADD PUSH2 0x202 SWAP1 PUSH2 0x11F7 JUMP JUMPDEST PUSH1 0x0 DUP1 SLOAD PUSH1 0x40 MLOAD PUSH4 0x700465B1 PUSH1 0xE1 SHL DUP2 MSTORE PUSH1 0x1 PUSH1 0x1 PUSH1 0xA0 SHL SUB SWAP1 SWAP2 AND SWAP1 PUSH4 0xE008CB62 SWAP1 PUSH2 0x4C8 SWAP1 DUP10 SWAP1 PUSH1 0x4 ADD PUSH2 0x1449 JUMP JUMPDEST PUSH1 0x0 PUSH1 0x40 MLOAD DUP1 DUP4 SUB DUP2 DUP7 DUP1 EXTCODESIZE ISZERO DUP1 ISZERO PUSH2 0x4E0 JUMPI PUSH1 0x0 DUP1 REVERT JUMPDEST POP GAS STATICCALL ISZERO DUP1 ISZERO PUSH2 0x4F4 JUMPI RETURNDATASIZE PUSH1 0x0 DUP1 RETURNDATACOPY RETURNDATASIZE PUSH1 0x0 REVERT JUMPDEST POP POP POP POP PUSH1 0x40 MLOAD RETURNDATASIZE PUSH1 0x0 DUP3 RETURNDATACOPY PUSH1 0x1F RETURNDATASIZE SWAP1 DUP2 ADD PUSH1 0x1F NOT AND DUP3 ADD PUSH1 0x40 MSTORE PUSH2 0x51C SWAP2 SWAP1 DUP2 ADD SWAP1 PUSH2 0xE86 JUMP JUMPDEST SWAP1 POP PUSH1 0x0 DUP2 PUSH1 0x80 ADD MLOAD PUSH1 0x1 PUSH1 0x1 PUSH1 0x40 SHL SUB AND GT PUSH2 0x54B JUMPI PUSH1 0x40 MLOAD PUSH3 0x461BCD PUSH1 0xE5 SHL DUP2 MSTORE PUSH1 0x4 ADD PUSH2 0x202 SWAP1 PUSH2 0x123D JUMP JUMPDEST DUP1 PUSH2 0x160 ADD MLOAD DUP7 PUSH1 0x1 ADD DUP3 PUSH1 0x80 ADD MLOAD MUL DUP3 PUSH1 0x20 ADD MLOAD ADD ADD PUSH1 0x1 PUSH1 0x1 PUSH1 0x40 SHL SUB AND NUMBER LT PUSH2 0x5E7 JUMPI PUSH1 0x1 DUP1 SLOAD PUSH1 0x1 PUSH1 0x1 PUSH1 0x40 SHL SUB PUSH1 0x1 PUSH1 0xA0 SHL DUP1 DUP4 DIV DUP3 AND DUP5 ADD DUP3 AND DUP2 MUL PUSH8 0xFFFFFFFFFFFFFFFF PUSH1 0xA0 SHL NOT SWAP1 SWAP4 AND SWAP3 SWAP1 SWAP3 OR SWAP3 DUP4 SWAP1 SSTORE PUSH1 0x40 MLOAD PUSH32 0xA43F7C79F47E7937048E7A80CE05AD2CF3DA87B2B1BF1BD1122C22A6234D34BE SWAP4 PUSH2 0x5D9 SWAP4 SWAP1 DIV SWAP1 SWAP2 AND SWAP1 PUSH2 0x1449 JUMP JUMPDEST PUSH1 0x40 MLOAD DUP1 SWAP2 SUB SWAP1 LOG1 POP PUSH2 0x90E JUMP JUMPDEST DUP6 PUSH1 0x1 ADD DUP2 PUSH1 0x80 ADD MLOAD MUL DUP2 PUSH1 0x20 ADD MLOAD ADD PUSH1 0x1 PUSH1 0x1 PUSH1 0x40 SHL SUB AND NUMBER LT ISZERO PUSH2 0x61F JUMPI PUSH1 0x40 MLOAD PUSH3 0x461BCD PUSH1 0xE5 SHL DUP2 MSTORE PUSH1 0x4 ADD PUSH2 0x202 SWAP1 PUSH2 0x11AE JUMP JUMPDEST DUP1 PUSH1 0x40 ADD MLOAD MLOAD DUP3 PUSH1 0x1 PUSH1 0x1 PUSH1 0x40 SHL SUB AND LT PUSH2 0x64C JUMPI PUSH1 0x40 MLOAD PUSH3 0x461BCD PUSH1 0xE5 SHL DUP2 MSTORE PUSH1 0x4 ADD PUSH2 0x202 SWAP1 PUSH2 0x13B4 JUMP JUMPDEST DUP1 PUSH1 0x40 ADD MLOAD DUP3 PUSH1 0x1 PUSH1 0x1 PUSH1 0x40 SHL SUB AND DUP2 MLOAD DUP2 LT PUSH2 0x665 JUMPI INVALID JUMPDEST PUSH1 0x20 MUL PUSH1 0x20 ADD ADD MLOAD PUSH1 0x1 PUSH1 0x1 PUSH1 0xA0 SHL SUB AND CALLER PUSH1 0x1 PUSH1 0x1 PUSH1 0xA0 SHL SUB AND EQ PUSH2 0x69D JUMPI PUSH1 0x40 MLOAD PUSH3 0x461BCD PUSH1 0xE5 SHL DUP2 MSTORE PUSH1 0x4 ADD PUSH2 0x202 SWAP1 PUSH2 0x115E JUMP JUMPDEST PUSH1 0x1 SLOAD PUSH1 0x40 MLOAD PUSH4 0x643D7D45 PUSH1 0xE1 SHL DUP2 MSTORE PUSH1 0x1 PUSH1 0x1 PUSH1 0xA0 SHL SUB SWAP1 SWAP2 AND SWAP1 PUSH4 0xC87AFA8A SWAP1 PUSH2 0x6D0 SWAP1 DUP10 SWAP1 PUSH1 0x0 SWAP1 PUSH1 0x4 ADD PUSH2 0x14C0 JUMP JUMPDEST PUSH1 0x20 PUSH1 0x40 MLOAD DUP1 DUP4 SUB DUP2 DUP7 DUP1 EXTCODESIZE ISZERO DUP1 ISZERO PUSH2 0x6E8 JUMPI PUSH1 0x0 DUP1 REVERT JUMPDEST POP GAS STATICCALL ISZERO DUP1 ISZERO PUSH2 0x6FC JUMPI RETURNDATASIZE PUSH1 0x0 DUP1 RETURNDATACOPY RETURNDATASIZE PUSH1 0x0 REVERT JUMPDEST POP POP POP POP PUSH1 0x40 MLOAD RETURNDATASIZE PUSH1 0x1F NOT PUSH1 0x1F DUP3 ADD AND DUP3 ADD DUP1 PUSH1 0x40 MSTORE POP DUP2 ADD SWAP1 PUSH2 0x720 SWAP2 SWAP1 PUSH2 0xE6E JUMP JUMPDEST DUP6 EQ PUSH2 0x73E JUMPI PUSH1 0x40 MLOAD PUSH3 0x461BCD PUSH1 0xE5 SHL DUP2 MSTORE PUSH1 0x4 ADD PUSH2 0x202 SWAP1 PUSH2 0x1281 JUMP JUMPDEST PUSH1 0x0 PUSH2 0x75B DUP3 PUSH2 0x120 ADD MLOAD DUP4 PUSH2 0x140 ADD MLOAD DUP5 PUSH1 0xE0 ADD MLOAD DUP9 DUP9 PUSH2 0xB61 JUMP JUMPDEST SWAP1 POP PUSH1 0x40 MLOAD DUP1 PUSH1 0xA0 ADD PUSH1 0x40 MSTORE DUP1 PUSH1 0x1 ISZERO ISZERO DUP2 MSTORE PUSH1 0x20 ADD CALLER PUSH1 0x1 PUSH1 0x1 PUSH1 0xA0 SHL SUB AND DUP2 MSTORE PUSH1 0x20 ADD PUSH1 0x1 PUSH1 0x14 SWAP1 SLOAD SWAP1 PUSH2 0x100 EXP SWAP1 DIV PUSH1 0x1 PUSH1 0x1 PUSH1 0x40 SHL SUB AND PUSH1 0x1 PUSH1 0x1 PUSH1 0x40 SHL SUB AND DUP2 MSTORE PUSH1 0x20 ADD DUP8 DUP2 MSTORE PUSH1 0x20 ADD DUP3 DUP2 MSTORE POP PUSH1 0x2 PUSH1 0x0 PUSH1 0x1 PUSH1 0x14 SWAP1 SLOAD SWAP1 PUSH2 0x100 EXP SWAP1 DIV PUSH1 0x1 PUSH1 0x1 PUSH1 0x40 SHL SUB AND PUSH1 0x1 PUSH1 0x1 PUSH1 0x40 SHL SUB AND PUSH1 0x1 PUSH1 0x1 PUSH1 0x40 SHL SUB AND DUP2 MSTORE PUSH1 0x20 ADD SWAP1 DUP2 MSTORE PUSH1 0x20 ADD PUSH1 0x0 KECCAK256 PUSH1 0x0 DUP3 ADD MLOAD DUP2 PUSH1 0x0 ADD PUSH1 0x0 PUSH2 0x100 EXP DUP2 SLOAD DUP2 PUSH1 0xFF MUL NOT AND SWAP1 DUP4 ISZERO ISZERO MUL OR SWAP1 SSTORE POP PUSH1 0x20 DUP3 ADD MLOAD DUP2 PUSH1 0x0 ADD PUSH1 0x1 PUSH2 0x100 EXP DUP2 SLOAD DUP2 PUSH1 0x1 PUSH1 0x1 PUSH1 0xA0 SHL SUB MUL NOT AND SWAP1 DUP4 PUSH1 0x1 PUSH1 0x1 PUSH1 0xA0 SHL SUB AND MUL OR SWAP1 SSTORE POP PUSH1 0x40 DUP3 ADD MLOAD DUP2 PUSH1 0x0 ADD PUSH1 0x15 PUSH2 0x100 EXP DUP2 SLOAD DUP2 PUSH1 0x1 PUSH1 0x1 PUSH1 0x40 SHL SUB MUL NOT AND SWAP1 DUP4 PUSH1 0x1 PUSH1 0x1 PUSH1 0x40 SHL SUB AND MUL OR SWAP1 SSTORE POP PUSH1 0x60 DUP3 ADD MLOAD DUP2 PUSH1 0x1 ADD SSTORE PUSH1 0x80 DUP3 ADD MLOAD DUP2 PUSH1 0x2 ADD SSTORE SWAP1 POP POP PUSH1 0x1 PUSH1 0x14 DUP2 DUP2 SWAP1 SLOAD SWAP1 PUSH2 0x100 EXP SWAP1 DIV PUSH1 0x1 PUSH1 0x1 PUSH1 0x40 SHL SUB AND DUP1 SWAP3 SWAP2 SWAP1 PUSH1 0x1 ADD SWAP2 SWAP1 PUSH2 0x100 EXP DUP2 SLOAD DUP2 PUSH1 0x1 PUSH1 0x1 PUSH1 0x40 SHL SUB MUL NOT AND SWAP1 DUP4 PUSH1 0x1 PUSH1 0x1 PUSH1 0x40 SHL SUB AND MUL OR SWAP1 SSTORE POP POP PUSH32 0x3D5ED901C456E33248250FEAAB56F76B579B96B1679D7866E5BED2B6E9C5619A PUSH1 0x1 PUSH1 0x14 SWAP1 SLOAD SWAP1 PUSH2 0x100 EXP SWAP1 DIV PUSH1 0x1 PUSH1 0x1 PUSH1 0x40 SHL SUB AND DUP3 PUSH1 0x40 MLOAD PUSH2 0x903 SWAP3 SWAP2 SWAP1 PUSH2 0x145D JUMP JUMPDEST PUSH1 0x40 MLOAD DUP1 SWAP2 SUB SWAP1 LOG1 POP POP JUMPDEST POP POP POP POP POP JUMP JUMPDEST PUSH1 0x1 SLOAD PUSH1 0x1 PUSH1 0x1 PUSH1 0xA0 SHL SUB AND DUP2 JUMP JUMPDEST PUSH1 0x0 SLOAD PUSH1 0x1 PUSH1 0x1 PUSH1 0xA0 SHL SUB AND DUP2 JUMP JUMPDEST PUSH1 0x2 PUSH1 0x20 DUP2 SWAP1 MSTORE PUSH1 0x0 SWAP2 DUP3 MSTORE PUSH1 0x40 SWAP1 SWAP2 KECCAK256 DUP1 SLOAD PUSH1 0x1 DUP3 ADD SLOAD SWAP2 SWAP1 SWAP3 ADD SLOAD PUSH1 0xFF DUP4 AND SWAP3 PUSH2 0x100 DUP2 DIV PUSH1 0x1 PUSH1 0x1 PUSH1 0xA0 SHL SUB AND SWAP3 PUSH1 0x1 PUSH1 0xA8 SHL SWAP1 SWAP2 DIV PUSH1 0x1 PUSH1 0x1 PUSH1 0x40 SHL SUB AND SWAP2 DUP6 JUMP JUMPDEST PUSH1 0x1 SLOAD PUSH1 0x1 PUSH1 0x1 PUSH1 0x40 SHL SUB DUP1 DUP4 AND SWAP2 PUSH1 0x2 SWAP2 PUSH1 0x1 PUSH1 0xA0 SHL SWAP1 SWAP2 DIV AND DIV PUSH1 0x1 PUSH1 0x1 PUSH1 0x40 SHL SUB AND EQ PUSH2 0x9BB JUMPI PUSH1 0x40 MLOAD PUSH3 0x461BCD PUSH1 0xE5 SHL DUP2 MSTORE PUSH1 0x4 ADD PUSH2 0x202 SWAP1 PUSH2 0x12CE JUMP JUMPDEST PUSH1 0x1 DUP1 SLOAD PUSH1 0x1 PUSH1 0xA0 SHL SWAP1 DIV AND ISZERO PUSH2 0x9E4 JUMPI PUSH1 0x40 MLOAD PUSH3 0x461BCD PUSH1 0xE5 SHL DUP2 MSTORE PUSH1 0x4 ADD PUSH2 0x202 SWAP1 PUSH2 0x11F7 JUMP JUMPDEST PUSH1 0x0 DUP1 SLOAD PUSH1 0x40 MLOAD PUSH4 0x700465B1 PUSH1 0xE1 SHL DUP2 MSTORE PUSH1 0x1 PUSH1 0x1 PUSH1 0xA0 SHL SUB SWAP1 SWAP2 AND SWAP1 PUSH4 0xE008CB62 SWAP1 PUSH2 0xA15 SWAP1 DUP6 SWAP1 PUSH1 0x4 ADD PUSH2 0x1449 JUMP JUMPDEST PUSH1 0x0 PUSH1 0x40 MLOAD DUP1 DUP4 SUB DUP2 DUP7 DUP1 EXTCODESIZE ISZERO DUP1 ISZERO PUSH2 0xA2D JUMPI PUSH1 0x0 DUP1 REVERT JUMPDEST POP GAS STATICCALL ISZERO DUP1 ISZERO PUSH2 0xA41 JUMPI RETURNDATASIZE PUSH1 0x0 DUP1 RETURNDATACOPY RETURNDATASIZE PUSH1 0x0 REVERT JUMPDEST POP POP POP POP PUSH1 0x40 MLOAD RETURNDATASIZE PUSH1 0x0 DUP3 RETURNDATACOPY PUSH1 0x1F RETURNDATASIZE SWAP1 DUP2 ADD PUSH1 0x1F NOT AND DUP3 ADD PUSH1 0x40 MSTORE PUSH2 0xA69 SWAP2 SWAP1 DUP2 ADD SWAP1 PUSH2 0xE86 JUMP JUMPDEST SWAP1 POP PUSH1 0x0 DUP2 PUSH1 0x80 ADD MLOAD PUSH1 0x1 PUSH1 0x1 PUSH1 0x40 SHL SUB AND GT PUSH2 0xA98 JUMPI PUSH1 0x40 MLOAD PUSH3 0x461BCD PUSH1 0xE5 SHL DUP2 MSTORE PUSH1 0x4 ADD PUSH2 0x202 SWAP1 PUSH2 0x123D JUMP JUMPDEST DUP1 PUSH2 0x160 ADD MLOAD DUP3 PUSH1 0x1 ADD DUP3 PUSH1 0x80 ADD MLOAD MUL DUP3 PUSH1 0x20 ADD MLOAD ADD ADD PUSH1 0x1 PUSH1 0x1 PUSH1 0x40 SHL SUB AND NUMBER LT ISZERO PUSH2 0xAD7 JUMPI PUSH1 0x40 MLOAD PUSH3 0x461BCD PUSH1 0xE5 SHL DUP2 MSTORE PUSH1 0x4 ADD PUSH2 0x202 SWAP1 PUSH2 0x1361 JUMP JUMPDEST PUSH1 0x1 DUP1 SLOAD PUSH1 0x1 PUSH1 0x1 PUSH1 0x40 SHL SUB PUSH1 0x1 PUSH1 0xA0 SHL DUP1 DUP4 DIV DUP3 AND DUP5 ADD DUP3 AND DUP2 MUL PUSH8 0xFFFFFFFFFFFFFFFF PUSH1 0xA0 SHL NOT SWAP1 SWAP4 AND SWAP3 SWAP1 SWAP3 OR SWAP3 DUP4 SWAP1 SSTORE PUSH1 0x40 MLOAD PUSH32 0xA43F7C79F47E7937048E7A80CE05AD2CF3DA87B2B1BF1BD1122C22A6234D34BE SWAP4 PUSH2 0xB3F SWAP4 SWAP1 DIV SWAP1 SWAP2 AND SWAP1 PUSH2 0x1449 JUMP JUMPDEST PUSH1 0x40 MLOAD DUP1 SWAP2 SUB SWAP1 LOG1 POP POP JUMP JUMPDEST PUSH1 0x1 SLOAD PUSH1 0x1 PUSH1 0xA0 SHL SWAP1 DIV PUSH1 0x1 PUSH1 0x1 PUSH1 0x40 SHL SUB AND DUP2 JUMP JUMPDEST PUSH1 0x0 DUP1 PUSH1 0x0 JUMPDEST PUSH1 0x1 PUSH1 0x1 PUSH1 0x40 SHL SUB DUP2 AND DUP5 GT ISZERO PUSH2 0xD31 JUMPI PUSH1 0x0 DUP8 DUP7 DUP7 DUP5 PUSH1 0x1 PUSH1 0x1 PUSH1 0x40 SHL SUB AND DUP2 DUP2 LT PUSH2 0xB90 JUMPI INVALID JUMPDEST SWAP1 POP PUSH1 0x20 MUL DUP2 ADD SWAP1 PUSH2 0xBA2 SWAP2 SWAP1 PUSH2 0x14E7 JUMP JUMPDEST PUSH1 0x40 MLOAD PUSH1 0x24 ADD PUSH2 0xBB3 SWAP3 SWAP2 SWAP1 PUSH2 0x111B JUMP JUMPDEST PUSH1 0x40 MLOAD PUSH1 0x20 DUP2 DUP4 SUB SUB DUP2 MSTORE SWAP1 PUSH1 0x40 MSTORE SWAP1 PUSH1 0x1 PUSH1 0x1 PUSH1 0xE0 SHL SUB NOT AND PUSH1 0x20 DUP3 ADD DUP1 MLOAD PUSH1 0x1 PUSH1 0x1 PUSH1 0xE0 SHL SUB DUP4 DUP2 DUP4 AND OR DUP4 MSTORE POP POP POP POP SWAP1 POP PUSH1 0x0 DUP1 DUP11 PUSH1 0x1 PUSH1 0x1 PUSH1 0xA0 SHL SUB AND DUP10 PUSH1 0x1 PUSH1 0x1 PUSH1 0x40 SHL SUB AND DUP5 PUSH1 0x40 MLOAD PUSH2 0xC0D SWAP2 SWAP1 PUSH2 0x10C8 JUMP JUMPDEST PUSH1 0x0 PUSH1 0x40 MLOAD DUP1 DUP4 SUB DUP2 PUSH1 0x0 DUP8 DUP8 CALL SWAP3 POP POP POP RETURNDATASIZE DUP1 PUSH1 0x0 DUP2 EQ PUSH2 0xC4B JUMPI PUSH1 0x40 MLOAD SWAP2 POP PUSH1 0x1F NOT PUSH1 0x3F RETURNDATASIZE ADD AND DUP3 ADD PUSH1 0x40 MSTORE RETURNDATASIZE DUP3 MSTORE RETURNDATASIZE PUSH1 0x0 PUSH1 0x20 DUP5 ADD RETURNDATACOPY PUSH2 0xC50 JUMP JUMPDEST PUSH1 0x60 SWAP2 POP JUMPDEST POP SWAP2 POP SWAP2 POP DUP2 PUSH2 0xCCF JUMPI PUSH32 0x6F580FD78FD3FC2E6DB770C1DA4B991B45906920B1FE2ABD8CC7D760B8021049 DUP5 DUP10 DUP10 DUP8 PUSH1 0x1 PUSH1 0x1 PUSH1 0x40 SHL SUB AND DUP2 DUP2 LT PUSH2 0xC91 JUMPI INVALID JUMPDEST SWAP1 POP PUSH1 0x20 MUL DUP2 ADD SWAP1 PUSH2 0xCA3 SWAP2 SWAP1 PUSH2 0x14E7 JUMP JUMPDEST PUSH1 0x40 MLOAD PUSH2 0xCB1 SWAP3 SWAP2 SWAP1 PUSH2 0x10A3 JUMP JUMPDEST PUSH1 0x40 MLOAD SWAP1 DUP2 SWAP1 SUB DUP2 KECCAK256 PUSH2 0xCC6 SWAP3 SWAP2 DUP6 SWAP1 PUSH2 0x1476 JUMP JUMPDEST PUSH1 0x40 MLOAD DUP1 SWAP2 SUB SWAP1 LOG1 JUMPDEST DUP8 DUP8 DUP6 PUSH1 0x1 PUSH1 0x1 PUSH1 0x40 SHL SUB AND DUP2 DUP2 LT PUSH2 0xCE4 JUMPI INVALID JUMPDEST SWAP1 POP PUSH1 0x20 MUL DUP2 ADD SWAP1 PUSH2 0xCF6 SWAP2 SWAP1 PUSH2 0x14E7 JUMP JUMPDEST DUP7 PUSH1 0x40 MLOAD PUSH1 0x20 ADD PUSH2 0xD09 SWAP4 SWAP3 SWAP2 SWAP1 PUSH2 0x10B3 JUMP JUMPDEST PUSH1 0x40 MLOAD PUSH1 0x20 DUP2 DUP4 SUB SUB DUP2 MSTORE SWAP1 PUSH1 0x40 MSTORE DUP1 MLOAD SWAP1 PUSH1 0x20 ADD KECCAK256 SWAP5 POP POP POP POP DUP1 DUP1 PUSH1 0x1 ADD SWAP2 POP POP PUSH2 0xB67 JUMP JUMPDEST POP SWAP7 SWAP6 POP POP POP POP POP POP JUMP JUMPDEST PUSH1 0x40 DUP1 MLOAD PUSH1 0xA0 DUP2 ADD DUP3 MSTORE PUSH1 0x0 DUP1 DUP3 MSTORE PUSH1 0x20 DUP3 ADD DUP2 SWAP1 MSTORE SWAP2 DUP2 ADD DUP3 SWAP1 MSTORE PUSH1 0x60 DUP2 ADD DUP3 SWAP1 MSTORE PUSH1 0x80 DUP2 ADD SWAP2 SWAP1 SWAP2 MSTORE SWAP1 JUMP JUMPDEST DUP1 MLOAD PUSH1 0x1 PUSH1 0x1 PUSH1 0xA0 SHL SUB DUP2 AND DUP2 EQ PUSH2 0x1BB JUMPI PUSH1 0x0 DUP1 REVERT JUMPDEST PUSH1 0x0 DUP3 PUSH1 0x1F DUP4 ADD SLT PUSH2 0xD91 JUMPI DUP1 DUP2 REVERT JUMPDEST DUP2 MLOAD PUSH1 0x20 PUSH1 0x1 PUSH1 0x1 PUSH1 0x40 SHL SUB DUP3 GT ISZERO PUSH2 0xDA6 JUMPI INVALID JUMPDEST DUP1 DUP3 MUL PUSH2 0xDB4 DUP3 DUP3 ADD PUSH2 0x152B JUMP JUMPDEST DUP4 DUP2 MSTORE DUP3 DUP2 ADD SWAP1 DUP7 DUP5 ADD DUP4 DUP9 ADD DUP6 ADD DUP10 LT ISZERO PUSH2 0xDCE JUMPI DUP7 DUP8 REVERT JUMPDEST DUP7 SWAP4 POP JUMPDEST DUP6 DUP5 LT ISZERO PUSH2 0xDF7 JUMPI PUSH2 0xDE3 DUP2 PUSH2 0xD6A JUMP JUMPDEST DUP4 MSTORE PUSH1 0x1 SWAP4 SWAP1 SWAP4 ADD SWAP3 SWAP2 DUP5 ADD SWAP2 DUP5 ADD PUSH2 0xDD2 JUMP JUMPDEST POP SWAP8 SWAP7 POP POP POP POP POP POP POP JUMP JUMPDEST PUSH1 0x0 DUP1 DUP4 PUSH1 0x1F DUP5 ADD SLT PUSH2 0xE14 JUMPI DUP1 DUP2 REVERT JUMPDEST POP DUP2 CALLDATALOAD PUSH1 0x1 PUSH1 0x1 PUSH1 0x40 SHL SUB DUP2 GT ISZERO PUSH2 0xE2A JUMPI DUP2 DUP3 REVERT JUMPDEST PUSH1 0x20 DUP4 ADD SWAP2 POP DUP4 PUSH1 0x20 DUP1 DUP4 MUL DUP6 ADD ADD GT ISZERO PUSH2 0xE44 JUMPI PUSH1 0x0 DUP1 REVERT JUMPDEST SWAP3 POP SWAP3 SWAP1 POP JUMP JUMPDEST DUP1 MLOAD PUSH1 0x1 PUSH1 0x1 PUSH1 0xE0 SHL SUB NOT DUP2 AND DUP2 EQ PUSH2 0x1BB JUMPI PUSH1 0x0 DUP1 REVERT JUMPDEST DUP1 MLOAD PUSH2 0x1BB DUP2 PUSH2 0x157E JUMP JUMPDEST PUSH1 0x0 PUSH1 0x20 DUP3 DUP5 SUB SLT ISZERO PUSH2 0xE7F JUMPI DUP1 DUP2 REVERT JUMPDEST POP MLOAD SWAP2 SWAP1 POP JUMP JUMPDEST PUSH1 0x0 PUSH1 0x20 DUP3 DUP5 SUB SLT ISZERO PUSH2 0xE97 JUMPI DUP1 DUP2 REVERT JUMPDEST DUP2 MLOAD PUSH1 0x1 PUSH1 0x1 PUSH1 0x40 SHL SUB DUP1 DUP3 GT ISZERO PUSH2 0xEAD JUMPI DUP3 DUP4 REVERT JUMPDEST DUP2 DUP5 ADD SWAP2 POP PUSH2 0x180 DUP1 DUP4 DUP8 SUB SLT ISZERO PUSH2 0xEC3 JUMPI DUP4 DUP5 REVERT JUMPDEST PUSH2 0xECC DUP2 PUSH2 0x152B JUMP JUMPDEST SWAP1 POP PUSH2 0xED7 DUP4 PUSH2 0xE63 JUMP JUMPDEST DUP2 MSTORE PUSH2 0xEE5 PUSH1 0x20 DUP5 ADD PUSH2 0xE63 JUMP JUMPDEST PUSH1 0x20 DUP3 ADD MSTORE PUSH1 0x40 DUP4 ADD MLOAD DUP3 DUP2 GT ISZERO PUSH2 0xEFB JUMPI DUP5 DUP6 REVERT JUMPDEST PUSH2 0xF07 DUP8 DUP3 DUP7 ADD PUSH2 0xD81 JUMP JUMPDEST PUSH1 0x40 DUP4 ADD MSTORE POP PUSH2 0xF19 PUSH1 0x60 DUP5 ADD PUSH2 0xE63 JUMP JUMPDEST PUSH1 0x60 DUP3 ADD MSTORE PUSH2 0xF2A PUSH1 0x80 DUP5 ADD PUSH2 0xE63 JUMP JUMPDEST PUSH1 0x80 DUP3 ADD MSTORE PUSH2 0xF3B PUSH1 0xA0 DUP5 ADD PUSH2 0xE63 JUMP JUMPDEST PUSH1 0xA0 DUP3 ADD MSTORE PUSH2 0xF4C PUSH1 0xC0 DUP5 ADD PUSH2 0xE63 JUMP JUMPDEST PUSH1 0xC0 DUP3 ADD MSTORE PUSH2 0xF5D PUSH1 0xE0 DUP5 ADD PUSH2 0xE63 JUMP JUMPDEST PUSH1 0xE0 DUP3 ADD MSTORE PUSH2 0x100 SWAP2 POP PUSH2 0xF72 DUP3 DUP5 ADD PUSH2 0xD6A JUMP JUMPDEST DUP3 DUP3 ADD MSTORE PUSH2 0x120 SWAP2 POP PUSH2 0xF86 DUP3 DUP5 ADD PUSH2 0xD6A JUMP JUMPDEST DUP3 DUP3 ADD MSTORE PUSH2 0x140 SWAP2 POP PUSH2 0xF9A DUP3 DUP5 ADD PUSH2 0xE4B JUMP JUMPDEST DUP3 DUP3 ADD MSTORE PUSH2 0x160 SWAP2 POP PUSH2 0xFAE DUP3 DUP5 ADD PUSH2 0xE63 JUMP JUMPDEST SWAP2 DUP2 ADD SWAP2 SWAP1 SWAP2 MSTORE SWAP5 SWAP4 POP POP POP POP JUMP JUMPDEST PUSH1 0x0 PUSH1 0x20 DUP3 DUP5 SUB SLT ISZERO PUSH2 0xFCE JUMPI DUP1 DUP2 REVERT JUMPDEST DUP2 CALLDATALOAD PUSH2 0xFD9 DUP2 PUSH2 0x157E JUMP JUMPDEST SWAP4 SWAP3 POP POP POP JUMP JUMPDEST PUSH1 0x0 DUP1 PUSH1 0x0 PUSH1 0x40 DUP5 DUP7 SUB SLT ISZERO PUSH2 0xFF4 JUMPI DUP2 DUP3 REVERT JUMPDEST DUP4 CALLDATALOAD PUSH2 0xFFF DUP2 PUSH2 0x157E JUMP JUMPDEST SWAP3 POP PUSH1 0x20 DUP5 ADD CALLDATALOAD PUSH1 0x1 PUSH1 0x1 PUSH1 0x40 SHL SUB DUP2 GT ISZERO PUSH2 0x1019 JUMPI DUP3 DUP4 REVERT JUMPDEST PUSH2 0x1025 DUP7 DUP3 DUP8 ADD PUSH2 0xE03 JUMP JUMPDEST SWAP5 SWAP8 SWAP1 SWAP7 POP SWAP4 SWAP5 POP POP POP POP JUMP JUMPDEST PUSH1 0x0 DUP1 PUSH1 0x0 DUP1 PUSH1 0x0 PUSH1 0x80 DUP7 DUP9 SUB SLT ISZERO PUSH2 0x1049 JUMPI DUP1 DUP2 REVERT JUMPDEST DUP6 CALLDATALOAD PUSH2 0x1054 DUP2 PUSH2 0x157E JUMP JUMPDEST SWAP5 POP PUSH1 0x20 DUP7 ADD CALLDATALOAD SWAP4 POP PUSH1 0x40 DUP7 ADD CALLDATALOAD PUSH1 0x1 PUSH1 0x1 PUSH1 0x40 SHL SUB DUP2 GT ISZERO PUSH2 0x1075 JUMPI DUP2 DUP3 REVERT JUMPDEST PUSH2 0x1081 DUP9 DUP3 DUP10 ADD PUSH2 0xE03 JUMP JUMPDEST SWAP1 SWAP5 POP SWAP3 POP POP PUSH1 0x60 DUP7 ADD CALLDATALOAD PUSH2 0x1095 DUP2 PUSH2 0x157E JUMP JUMPDEST DUP1 SWAP2 POP POP SWAP3 SWAP6 POP SWAP3 SWAP6 SWAP1 SWAP4 POP JUMP JUMPDEST PUSH1 0x0 DUP3 DUP5 DUP4 CALLDATACOPY SWAP2 ADD SWAP1 DUP2 MSTORE SWAP2 SWAP1 POP JUMP JUMPDEST PUSH1 0x0 DUP4 DUP6 DUP4 CALLDATACOPY POP SWAP1 SWAP2 ADD SWAP1 DUP2 MSTORE PUSH1 0x20 ADD SWAP2 SWAP1 POP JUMP JUMPDEST PUSH1 0x0 DUP3 MLOAD PUSH2 0x10DA DUP2 DUP5 PUSH1 0x20 DUP8 ADD PUSH2 0x154E JUMP JUMPDEST SWAP2 SWAP1 SWAP2 ADD SWAP3 SWAP2 POP POP JUMP JUMPDEST SWAP5 ISZERO ISZERO DUP6 MSTORE PUSH1 0x1 PUSH1 0x1 PUSH1 0xA0 SHL SUB SWAP4 SWAP1 SWAP4 AND PUSH1 0x20 DUP6 ADD MSTORE PUSH1 0x1 PUSH1 0x1 PUSH1 0x40 SHL SUB SWAP2 SWAP1 SWAP2 AND PUSH1 0x40 DUP5 ADD MSTORE PUSH1 0x60 DUP4 ADD MSTORE PUSH1 0x80 DUP3 ADD MSTORE PUSH1 0xA0 ADD SWAP1 JUMP JUMPDEST PUSH1 0x0 PUSH1 0x20 DUP3 MSTORE DUP3 PUSH1 0x20 DUP4 ADD MSTORE DUP3 DUP5 PUSH1 0x40 DUP5 ADD CALLDATACOPY DUP2 DUP4 ADD PUSH1 0x40 SWAP1 DUP2 ADD SWAP2 SWAP1 SWAP2 MSTORE PUSH1 0x1F SWAP1 SWAP3 ADD PUSH1 0x1F NOT AND ADD ADD SWAP2 SWAP1 POP JUMP JUMPDEST PUSH1 0x1 PUSH1 0x1 PUSH1 0xA0 SHL SUB SWAP2 SWAP1 SWAP2 AND DUP2 MSTORE PUSH1 0x20 ADD SWAP1 JUMP JUMPDEST PUSH1 0x20 DUP1 DUP3 MSTORE PUSH1 0x30 SWAP1 DUP3 ADD MSTORE PUSH32 0x4578656375746F72436F6E74726163743A2073656E646572206973206E6F7420 PUSH1 0x40 DUP3 ADD MSTORE PUSH16 0x39B832B1B4B334B2B21035B2BCB832B9 PUSH1 0x81 SHL PUSH1 0x60 DUP3 ADD MSTORE PUSH1 0x80 ADD SWAP1 JUMP JUMPDEST PUSH1 0x20 DUP1 DUP3 MSTORE PUSH1 0x29 SWAP1 DUP3 ADD MSTORE PUSH32 0x4578656375746F72436F6E74726163743A206261746368206973206E6F742063 PUSH1 0x40 DUP3 ADD MSTORE PUSH9 0x1B1BDCD959081E595D PUSH1 0xBA SHL PUSH1 0x60 DUP3 ADD MSTORE PUSH1 0x80 ADD SWAP1 JUMP JUMPDEST PUSH1 0x20 DUP1 DUP3 MSTORE PUSH1 0x26 SWAP1 DUP3 ADD MSTORE PUSH32 0x4578656375746F72436F6E74726163743A20756E65787065637465642068616C PUSH1 0x40 DUP3 ADD MSTORE PUSH6 0x66207374657 PUSH1 0xD4 SHL PUSH1 0x60 DUP3 ADD MSTORE PUSH1 0x80 ADD SWAP1 JUMP JUMPDEST PUSH1 0x20 DUP1 DUP3 MSTORE PUSH1 0x24 SWAP1 DUP3 ADD MSTORE PUSH32 0x4578656375746F72436F6E74726163743A20636F6E66696720697320696E6163 PUSH1 0x40 DUP3 ADD MSTORE PUSH4 0x74697665 PUSH1 0xE0 SHL PUSH1 0x60 DUP3 ADD MSTORE PUSH1 0x80 ADD SWAP1 JUMP JUMPDEST PUSH1 0x20 DUP1 DUP3 MSTORE PUSH1 0x2D SWAP1 DUP3 ADD MSTORE PUSH32 0x4578656375746F72436F6E74726163743A20696E636F72726563742063697068 PUSH1 0x40 DUP3 ADD MSTORE PUSH13 0xCAE440C4C2E8C6D040D0C2E6D PUSH1 0x9B SHL PUSH1 0x60 DUP3 ADD MSTORE PUSH1 0x80 ADD SWAP1 JUMP JUMPDEST PUSH1 0x20 DUP1 DUP3 MSTORE PUSH1 0x28 SWAP1 DUP3 ADD MSTORE PUSH32 0x4578656375746F72436F6E74726163743A20756E657870656374656420626174 PUSH1 0x40 DUP3 ADD MSTORE PUSH8 0xC6D040D2DCC8CAF PUSH1 0xC3 SHL PUSH1 0x60 DUP3 ADD MSTORE PUSH1 0x80 ADD SWAP1 JUMP JUMPDEST PUSH1 0x20 DUP1 DUP3 MSTORE PUSH1 0x2B SWAP1 DUP3 ADD MSTORE PUSH32 0x4578656375746F72436F6E74726163743A206261746368206861736820646F65 PUSH1 0x40 DUP3 ADD MSTORE PUSH11 0xE640DCDEE840DAC2E8C6D PUSH1 0xAB SHL PUSH1 0x60 DUP3 ADD MSTORE PUSH1 0x80 ADD SWAP1 JUMP JUMPDEST PUSH1 0x20 DUP1 DUP3 MSTORE PUSH1 0x33 SWAP1 DUP3 ADD MSTORE PUSH32 0x4578656375746F72436F6E74726163743A20657865637574696F6E2074696D65 PUSH1 0x40 DUP3 ADD MSTORE PUSH19 0x1BDD5D081B9BDD081C995858DA1959081E595D PUSH1 0x6A SHL PUSH1 0x60 DUP3 ADD MSTORE PUSH1 0x80 ADD SWAP1 JUMP JUMPDEST PUSH1 0x20 DUP1 DUP3 MSTORE PUSH1 0x2C SWAP1 DUP3 ADD MSTORE PUSH32 0x4578656375746F72436F6E74726163743A206B657970657220696E646578206F PUSH1 0x40 DUP3 ADD MSTORE PUSH12 0x7574206F6620626F756E6473 PUSH1 0xA0 SHL PUSH1 0x60 DUP3 ADD MSTORE PUSH1 0x80 ADD SWAP1 JUMP JUMPDEST DUP2 MLOAD ISZERO ISZERO DUP2 MSTORE PUSH1 0x20 DUP1 DUP4 ADD MLOAD PUSH1 0x1 PUSH1 0x1 PUSH1 0xA0 SHL SUB AND SWAP1 DUP3 ADD MSTORE PUSH1 0x40 DUP1 DUP4 ADD MLOAD PUSH1 0x1 PUSH1 0x1 PUSH1 0x40 SHL SUB AND SWAP1 DUP3 ADD MSTORE PUSH1 0x60 DUP1 DUP4 ADD MLOAD SWAP1 DUP3 ADD MSTORE PUSH1 0x80 SWAP2 DUP3 ADD MLOAD SWAP2 DUP2 ADD SWAP2 SWAP1 SWAP2 MSTORE PUSH1 0xA0 ADD SWAP1 JUMP JUMPDEST PUSH1 0x1 PUSH1 0x1 PUSH1 0x40 SHL SUB SWAP2 SWAP1 SWAP2 AND DUP2 MSTORE PUSH1 0x20 ADD SWAP1 JUMP JUMPDEST PUSH1 0x1 PUSH1 0x1 PUSH1 0x40 SHL SUB SWAP3 SWAP1 SWAP3 AND DUP3 MSTORE PUSH1 0x20 DUP3 ADD MSTORE PUSH1 0x40 ADD SWAP1 JUMP JUMPDEST PUSH1 0x0 PUSH1 0x1 PUSH1 0x1 PUSH1 0x40 SHL SUB DUP6 AND DUP3 MSTORE DUP4 PUSH1 0x20 DUP4 ADD MSTORE PUSH1 0x60 PUSH1 0x40 DUP4 ADD MSTORE DUP3 MLOAD DUP1 PUSH1 0x60 DUP5 ADD MSTORE PUSH2 0x14AA DUP2 PUSH1 0x80 DUP6 ADD PUSH1 0x20 DUP8 ADD PUSH2 0x154E JUMP JUMPDEST PUSH1 0x1F ADD PUSH1 0x1F NOT AND SWAP2 SWAP1 SWAP2 ADD PUSH1 0x80 ADD SWAP5 SWAP4 POP POP POP POP JUMP JUMPDEST PUSH1 0x1 PUSH1 0x1 PUSH1 0x40 SHL SUB DUP4 AND DUP2 MSTORE PUSH1 0x40 DUP2 ADD PUSH1 0x2 DUP4 LT PUSH2 0x14DA JUMPI INVALID JUMPDEST DUP3 PUSH1 0x20 DUP4 ADD MSTORE SWAP4 SWAP3 POP POP POP JUMP JUMPDEST PUSH1 0x0 DUP1 DUP4 CALLDATALOAD PUSH1 0x1E NOT DUP5 CALLDATASIZE SUB ADD DUP2 SLT PUSH2 0x14FD JUMPI DUP3 DUP4 REVERT JUMPDEST DUP4 ADD DUP1 CALLDATALOAD SWAP2 POP PUSH1 0x1 PUSH1 0x1 PUSH1 0x40 SHL SUB DUP3 GT ISZERO PUSH2 0x1516 JUMPI DUP3 DUP4 REVERT JUMPDEST PUSH1 0x20 ADD SWAP2 POP CALLDATASIZE DUP2 SWAP1 SUB DUP3 SGT ISZERO PUSH2 0xE44 JUMPI PUSH1 0x0 DUP1 REVERT JUMPDEST PUSH1 0x40 MLOAD DUP2 DUP2 ADD PUSH1 0x1 PUSH1 0x1 PUSH1 0x40 SHL SUB DUP2 GT DUP3 DUP3 LT OR ISZERO PUSH2 0x1546 JUMPI INVALID JUMPDEST PUSH1 0x40 MSTORE SWAP2 SWAP1 POP JUMP JUMPDEST PUSH1 0x0 JUMPDEST DUP4 DUP2 LT ISZERO PUSH2 0x1569 JUMPI DUP2 DUP2 ADD MLOAD DUP4 DUP3 ADD MSTORE PUSH1 0x20 ADD PUSH2 0x1551 JUMP JUMPDEST DUP4 DUP2 GT ISZERO PUSH2 0x1578 JUMPI PUSH1 0x0 DUP5 DUP5 ADD MSTORE JUMPDEST POP POP POP POP JUMP JUMPDEST PUSH1 0x1 PUSH1 0x1 PUSH1 0x40 SHL SUB DUP2 AND DUP2 EQ PUSH2 0x1593 JUMPI PUSH1 0x0 DUP1 REVERT JUMPDEST POP JUMP INVALID LOG2 PUSH5 0x6970667358 0x22 SLT KECCAK256 SELFDESTRUCT 0xBF 0xC0 DUP9 CALLER 0xEF PUSH11 0xDB349FF0227CE98403A80 0x2D 0x4D GAS 0xC BYTE PUSH1 0xA2 SDIV 0xD2 MLOAD DUP16 DUP3 EXTCODEHASH CODECOPY PUSH5 0x736F6C6343 STOP SMOD MOD STOP CALLER ",
  "sha1": "41808247d76578aa613041b0b1cc2aaea3f051b9",
  "source": "// SPDX-License-Identifier: MIT\n\npragma solidity >=0.7.0 <0.8.0;\npragma experimental ABIEncoderV2;\n\nimport {ConfigContract} from \"./ConfigContract.sol\";\nimport {\n    BatcherContract,\n    BatchConfig,\n    TransactionType\n} from \"./BatcherContract.sol\";\n\nstruct CipherExecutionReceipt {\n    bool executed;\n    address executor;\n    uint64 halfStep;\n    bytes32 cipherBatchHash;\n    bytes32 batchHash;\n}\n\n/// @title A contract that serves as the entry point of batch execution\n/// @dev Batch execution is carried out in two separate steps: Execution of the encrypted portion,\n///     followed by execution of the plaintext portion. Thus, progress is counted in half steps (0\n///     and 1 for batch 0, 2 and 3 for batch 1, and so on).\ncontract ExecutorContract {\n    /// @notice The event emitted after a batch execution half step has been carried out.\n    /// @param numExecutionHalfSteps The total number of finished execution half steps, including\n    ///     the one responsible for emitting the event.\n    /// @param batchHash The hash of the executed batch (consisting of plaintext transactions).\n    event BatchExecuted(uint64 numExecutionHalfSteps, bytes32 batchHash);\n\n    /// @notice The event emitted after execution of the cipher portion of a batch has been skipped.\n    /// @param numExecutionHalfSteps The total number of finished execution half steps, including\n    ///     this one.\n    event CipherExecutionSkipped(uint64 numExecutionHalfSteps);\n\n    event TransactionFailed(uint64 txIndex, bytes32 txHash, bytes data);\n\n    ConfigContract public configContract;\n    BatcherContract public batcherContract;\n\n    uint64 public numExecutionHalfSteps;\n    mapping(uint64 => CipherExecutionReceipt) public cipherExecutionReceipts;\n\n    constructor(\n        ConfigContract _configContract,\n        BatcherContract _batcherContract\n    ) {\n        configContract = _configContract;\n        batcherContract = _batcherContract;\n    }\n\n    /// @notice Execute the cipher portion of a batch.\n    /// @param _batchIndex The index of the batch\n    /// @param _cipherBatchHash The hash of the batch (consisting of encrypted transactions)\n    /// @param _transactions The sequence of (decrypted) transactions to execute.\n    /// @param _keyperIndex The index of the keyper calling the function.\n    /// @notice Execution is only performed if `_cipherBatchHash` matches the hash in the batcher\n    ///     contract and the batch is active and completed.\n    function executeCipherBatch(\n        uint64 _batchIndex,\n        bytes32 _cipherBatchHash,\n        bytes[] calldata _transactions,\n        uint64 _keyperIndex\n    ) external {\n        require(\n            numExecutionHalfSteps / 2 == _batchIndex,\n            \"ExecutorContract: unexpected batch index\"\n        );\n        // Check that it's a cipher batch turn\n        require(\n            numExecutionHalfSteps % 2 == 0,\n            \"ExecutorContract: unexpected half step\"\n        );\n\n        BatchConfig memory _config = configContract.getConfig(_batchIndex);\n\n        // Check that batching is active and the batch is closed\n        require(_config.batchSpan > 0, \"ExecutorContract: config is inactive\");\n\n        // skip cipher execution if we reached the execution timeout.\n        if (\n            block.number >=\n            _config.startBlockNumber +\n                _config.batchSpan *\n                (_batchIndex + 1) +\n                _config.executionTimeout\n        ) {\n            numExecutionHalfSteps++;\n            emit CipherExecutionSkipped(numExecutionHalfSteps);\n            return;\n        }\n        require(\n            block.number >=\n                _config.startBlockNumber +\n                    _config.batchSpan *\n                    (_batchIndex + 1),\n            \"ExecutorContract: batch is not closed yet\"\n        );\n\n        // Check that caller is keyper\n        require(\n            _keyperIndex < _config.keypers.length,\n            \"ExecutorContract: keyper index out of bounds\"\n        );\n        require(\n            msg.sender == _config.keypers[_keyperIndex],\n            \"ExecutorContract: sender is not specified keyper\"\n        );\n\n        // Check the cipher batch hash is correct\n        require(\n            _cipherBatchHash ==\n                batcherContract.batchHashes(\n                    _batchIndex,\n                    TransactionType.Cipher\n                ),\n            \"ExecutorContract: incorrect cipher batch hash\"\n        );\n\n        // Execute the batch\n        bytes32 _batchHash =\n            executeTransactions(\n                _config.targetAddress,\n                _config.targetFunctionSelector,\n                _config.transactionGasLimit,\n                _transactions\n            );\n\n        cipherExecutionReceipts[\n            numExecutionHalfSteps\n        ] = CipherExecutionReceipt({\n            executed: true,\n            executor: msg.sender,\n            halfStep: numExecutionHalfSteps,\n            cipherBatchHash: _cipherBatchHash,\n            batchHash: _batchHash\n        });\n        numExecutionHalfSteps++;\n        emit BatchExecuted(numExecutionHalfSteps, _batchHash);\n    }\n\n    /// @notice Skip execution of the cipher portion of a batch.\n    /// @notice This is only possible if successful execution has not been carried out in time\n    ///     (according to the execution timeout defined in the config)\n    function skipCipherExecution(uint64 _batchIndex) external {\n        require(\n            numExecutionHalfSteps / 2 == _batchIndex,\n            \"ExecutorContract: unexpected batch index\"\n        );\n\n        require(\n            numExecutionHalfSteps % 2 == 0,\n            \"ExecutorContract: unexpected half step\"\n        );\n\n        BatchConfig memory _config = configContract.getConfig(_batchIndex);\n\n        require(_config.batchSpan > 0, \"ExecutorContract: config is inactive\");\n        require(\n            block.number >=\n                _config.startBlockNumber +\n                    _config.batchSpan *\n                    (_batchIndex + 1) +\n                    _config.executionTimeout,\n            \"ExecutorContract: execution timeout not reached yet\"\n        );\n\n        numExecutionHalfSteps++;\n\n        emit CipherExecutionSkipped(numExecutionHalfSteps);\n    }\n\n    /// @notice Execute the plaintext portion of a batch.\n    /// @param _batchIndex The index of the batch\n    /// @param _transactions The array of plaintext transactions in the batch.\n    /// @notice This is a trustless operation since `_transactions` will be checked against the\n    ///     (plaintext) batch hash from the batcher contract.\n    function executePlainBatch(\n        uint64 _batchIndex,\n        bytes[] calldata _transactions\n    ) external {\n        require(\n            numExecutionHalfSteps / 2 == _batchIndex,\n            \"ExecutorContract: unexpected batch index\"\n        );\n        require(\n            numExecutionHalfSteps % 2 == 1,\n            \"ExecutorContract: unexpected half step\"\n        );\n\n        BatchConfig memory _config = configContract.getConfig(_batchIndex);\n\n        // Since the cipher part of the batch has already been executed or skipped and the\n        // config cannot be changed anymore (since the batching period is over), the following\n        // checks remain true.\n        assert(_config.batchSpan > 0);\n        assert(\n            block.number >=\n                _config.startBlockNumber + _config.batchSpan * (_batchIndex + 1)\n        );\n\n        bytes32 _batchHash =\n            executeTransactions(\n                _config.targetAddress,\n                _config.targetFunctionSelector,\n                _config.transactionGasLimit,\n                _transactions\n            );\n\n        require(\n            _batchHash ==\n                batcherContract.batchHashes(_batchIndex, TransactionType.Plain),\n            \"ExecutorContract: batch hash does not match\"\n        );\n\n        numExecutionHalfSteps++;\n\n        emit BatchExecuted(numExecutionHalfSteps, _batchHash);\n    }\n\n    function executeTransactions(\n        address _targetAddress,\n        bytes4 _targetFunctionSelector,\n        uint64 _gasLimit,\n        bytes[] calldata _transactions\n    ) private returns (bytes32) {\n        bytes32 _batchHash;\n        for (uint64 _i = 0; _i < _transactions.length; _i++) {\n            bytes memory _calldata =\n                abi.encodeWithSelector(\n                    _targetFunctionSelector,\n                    _transactions[_i]\n                );\n\n            // call target function, ignoring any errors\n            (bool success, bytes memory data) =\n                _targetAddress.call{gas: _gasLimit}(_calldata);\n            if (!success) {\n                emit TransactionFailed({\n                    txIndex: _i,\n                    txHash: keccak256(_transactions[_i]),\n                    data: data\n                });\n            }\n\n            _batchHash = keccak256(\n                abi.encodePacked(_transactions[_i], _batchHash)\n            );\n        }\n        return _batchHash;\n    }\n\n    function getReceipt(uint64 _halfStep)\n        public\n        view\n        returns (CipherExecutionReceipt memory)\n    {\n        return cipherExecutionReceipts[_halfStep];\n    }\n}\n",
  "sourcePath": "contracts/ExecutorContract.sol",
  "type": "contract"
}