{
  "abi": [
    {
      "inputs": [
        {
          "internalType": "contract ConfigContract",
          "name": "configContractAddress",
          "type": "address"
        },
        {
          "internalType": "contract BatcherContract",
          "name": "batcherContractAddress",
          "type": "address"
        },
        {
          "internalType": "contract DepositContract",
          "name": "depositContractAddress",
          "type": "address"
        }
      ],
      "stateMutability": "nonpayable",
      "type": "constructor"
    },
    {
      "anonymous": false,
      "inputs": [
        {
          "indexed": false,
          "internalType": "uint64",
          "name": "numExecutionHalfSteps",
          "type": "uint64"
        },
        {
          "indexed": false,
          "internalType": "bytes32",
          "name": "batchHash",
          "type": "bytes32"
        }
      ],
      "name": "BatchExecuted",
      "type": "event"
    },
    {
      "anonymous": false,
      "inputs": [
        {
          "indexed": false,
          "internalType": "uint64",
          "name": "numExecutionHalfSteps",
          "type": "uint64"
        }
      ],
      "name": "CipherExecutionSkipped",
      "type": "event"
    },
    {
      "anonymous": false,
      "inputs": [
        {
          "indexed": false,
          "internalType": "uint64",
          "name": "txIndex",
          "type": "uint64"
        },
        {
          "indexed": false,
          "internalType": "bytes32",
          "name": "txHash",
          "type": "bytes32"
        },
        {
          "indexed": false,
          "internalType": "bytes",
          "name": "data",
          "type": "bytes"
        }
      ],
      "name": "TransactionFailed",
      "type": "event"
    },
    {
      "inputs": [],
      "name": "batcherContract",
      "outputs": [
        {
          "internalType": "contract BatcherContract",
          "name": "",
          "type": "address"
        }
      ],
      "stateMutability": "view",
      "type": "function"
    },
    {
      "inputs": [
        {
          "internalType": "uint64",
          "name": "",
          "type": "uint64"
        }
      ],
      "name": "cipherExecutionReceipts",
      "outputs": [
        {
          "internalType": "bool",
          "name": "executed",
          "type": "bool"
        },
        {
          "internalType": "address",
          "name": "executor",
          "type": "address"
        },
        {
          "internalType": "uint64",
          "name": "halfStep",
          "type": "uint64"
        },
        {
          "internalType": "bytes32",
          "name": "cipherBatchHash",
          "type": "bytes32"
        },
        {
          "internalType": "bytes32",
          "name": "batchHash",
          "type": "bytes32"
        }
      ],
      "stateMutability": "view",
      "type": "function"
    },
    {
      "inputs": [],
      "name": "configContract",
      "outputs": [
        {
          "internalType": "contract ConfigContract",
          "name": "",
          "type": "address"
        }
      ],
      "stateMutability": "view",
      "type": "function"
    },
    {
      "inputs": [],
      "name": "depositContract",
      "outputs": [
        {
          "internalType": "contract DepositContract",
          "name": "",
          "type": "address"
        }
      ],
      "stateMutability": "view",
      "type": "function"
    },
    {
      "inputs": [
        {
          "internalType": "uint64",
          "name": "batchIndex",
          "type": "uint64"
        },
        {
          "internalType": "bytes32",
          "name": "cipherBatchHash",
          "type": "bytes32"
        },
        {
          "internalType": "bytes[]",
          "name": "transactions",
          "type": "bytes[]"
        },
        {
          "internalType": "uint64",
          "name": "keyperIndex",
          "type": "uint64"
        }
      ],
      "name": "executeCipherBatch",
      "outputs": [],
      "stateMutability": "nonpayable",
      "type": "function"
    },
    {
      "inputs": [
        {
          "internalType": "uint64",
          "name": "batchIndex",
          "type": "uint64"
        },
        {
          "internalType": "bytes[]",
          "name": "transactions",
          "type": "bytes[]"
        }
      ],
      "name": "executePlainBatch",
      "outputs": [],
      "stateMutability": "nonpayable",
      "type": "function"
    },
    {
      "inputs": [
        {
          "internalType": "uint64",
          "name": "halfStep",
          "type": "uint64"
        }
      ],
      "name": "getReceipt",
      "outputs": [
        {
          "components": [
            {
              "internalType": "bool",
              "name": "executed",
              "type": "bool"
            },
            {
              "internalType": "address",
              "name": "executor",
              "type": "address"
            },
            {
              "internalType": "uint64",
              "name": "halfStep",
              "type": "uint64"
            },
            {
              "internalType": "bytes32",
              "name": "cipherBatchHash",
              "type": "bytes32"
            },
            {
              "internalType": "bytes32",
              "name": "batchHash",
              "type": "bytes32"
            }
          ],
          "internalType": "struct CipherExecutionReceipt",
          "name": "",
          "type": "tuple"
        }
      ],
      "stateMutability": "view",
      "type": "function"
    },
    {
      "inputs": [],
      "name": "numExecutionHalfSteps",
      "outputs": [
        {
          "internalType": "uint64",
          "name": "",
          "type": "uint64"
        }
      ],
      "stateMutability": "view",
      "type": "function"
    },
    {
      "inputs": [
        {
          "internalType": "uint64",
          "name": "batchIndex",
          "type": "uint64"
        }
      ],
      "name": "skipCipherExecution",
      "outputs": [],
      "stateMutability": "nonpayable",
      "type": "function"
    }
  ],
  "bytecode": "60806040523480156200001157600080fd5b5060405162001f2e38038062001f2e833981016040819052620000349162000077565b600080546001600160a01b039485166001600160a01b031991821617909155600180549385169382169390931790925560028054919093169116179055620000e3565b6000806000606084860312156200008c578283fd5b83516200009981620000ca565b6020850151909350620000ac81620000ca565b6040850151909250620000bf81620000ca565b809150509250925092565b6001600160a01b0381168114620000e057600080fd5b50565b611e3b80620000f36000396000f3fe608060405234801561001057600080fd5b50600436106100935760003560e01c8063bf66a18211610066578063bf66a182146101ed578063c87190b314610200578063d8e9a00114610291578063e94ad65b146102a4578063fa6385f4146102b757600080fd5b806325b36cbf146100985780634b2a026d1461019a57806387eb2378146101af578063beb3b50e146101c2575b600080fd5b6101406100a63660046119d9565b6040805160a081018252600080825260208201819052918101829052606081018290526080810191909152506001600160401b03908116600090815260036020908152604091829020825160a081018452815460ff8116151582526001600160a01b0361010082041693820193909352600160a81b9092049093169181019190915260018201546060820152600290910154608082015290565b60405161019191908151151581526020808301516001600160a01b0316908201526040808301516001600160401b031690820152606080830151908201526080918201519181019190915260a00190565b60405180910390f35b6101ad6101a8366004611a11565b6102e9565b005b6101ad6101bd366004611a63565b610882565b6001546101d5906001600160a01b031681565b6040516001600160a01b039091168152602001610191565b6000546101d5906001600160a01b031681565b61025161020e3660046119d9565b60036020526000908152604090208054600182015460029092015460ff82169261010083046001600160a01b031692600160a81b90046001600160401b03169185565b6040805195151586526001600160a01b0390941660208601526001600160401b03909216928401929092526060830191909152608082015260a001610191565b6101ad61029f3660046119d9565b6113a5565b6002546101d5906001600160a01b031681565b6002546102d190600160a01b90046001600160401b031681565b6040516001600160401b039091168152602001610191565b600280546001600160401b038086169261030d929091600160a01b90910416611d28565b6001600160401b03161461033c5760405162461bcd60e51b815260040161033390611c17565b60405180910390fd5b6002805461035a9190600160a01b90046001600160401b0316611db1565b6001600160401b03166001146103825760405162461bcd60e51b815260040161033390611b8d565b60008054604051632e37abf360e21b81526001600160401b03861660048201526001600160a01b039091169063b8deafcc9060240160206040518083038186803b1580156103cf57600080fd5b505afa1580156103e3573d6000803e3d6000fd5b505050506040513d601f19601f8201168201806040525081019061040791906119f5565b6000805460405163309787c960e21b81526001600160401b038416600482015292935090916001600160a01b039091169063c25e1f249060240160206040518083038186803b15801561045957600080fd5b505afa15801561046d573d6000803e3d6000fd5b505050506040513d601f19601f82011682018060405250810190610491919061194b565b60008054604051633b79c58160e21b81526001600160401b038616600482015292935090916001600160a01b039091169063ede716049060240160206040518083038186803b1580156104e357600080fd5b505afa1580156104f7573d6000803e3d6000fd5b505050506040513d601f19601f8201168201806040525081019061051b91906119b1565b6000805460405163b5a43cef60e01b81526001600160401b038716600482015292935090916001600160a01b039091169063b5a43cef9060240160206040518083038186803b15801561056d57600080fd5b505afa158015610581573d6000803e3d6000fd5b505050506040513d601f19601f820116820180604052508101906105a591906119f5565b6000546040516359d6accd60e01b81526001600160401b03871660048201529192506001600160a01b0316906359d6accd9060240160206040518083038186803b1580156105f257600080fd5b505afa158015610606573d6000803e3d6000fd5b505050506040513d601f19601f8201168201806040525081019061062a9190611979565b61064457634e487b7160e01b600052600160045260246000fd5b600080546040516368080ea760e01b81526001600160401b0380881660048301528a1660248201526001600160a01b03909116906368080ea79060440160606040518083038186803b15801561069957600080fd5b505afa1580156106ad573d6000803e3d6000fd5b505050506040513d601f19601f820116820180604052508101906106d19190611ad4565b50915050806001600160401b03164310156106fc57634e487b7160e01b600052600160045260246000fd5b600061070b8585858b8b6116e5565b6001805460405163643d7d4560e11b81529293506001600160a01b03169163c87afa8a9161073e918d9190600401611ca9565b60206040518083038186803b15801561075657600080fd5b505afa15801561076a573d6000803e3d6000fd5b505050506040513d601f19601f8201168201806040525081019061078e9190611999565b81146107f05760405162461bcd60e51b815260206004820152602b60248201527f4578656375746f72436f6e74726163743a206261746368206861736820646f6560448201526a0e640dcdee840dac2e8c6d60ab1b6064820152608401610333565b60028054600160a01b90046001600160401b031690601461081083611d7e565b82546101009290920a6001600160401b0381810219909316918316021790915560025460408051600160a01b9092049092168152602081018490527f3d5ed901c456e33248250feaab56f76b579b96b1679d7866e5bed2b6e9c5619a92500160405180910390a1505050505050505050565b600280546001600160401b03808816926108a6929091600160a01b90910416611d28565b6001600160401b0316146108cc5760405162461bcd60e51b815260040161033390611c17565b600280546108ea9190600160a01b90046001600160401b0316611db1565b6001600160401b0316156109105760405162461bcd60e51b815260040161033390611b8d565b60008054604051632e37abf360e21b81526001600160401b03881660048201526001600160a01b039091169063b8deafcc9060240160206040518083038186803b15801561095d57600080fd5b505afa158015610971573d6000803e3d6000fd5b505050506040513d601f19601f8201168201806040525081019061099591906119f5565b6000805460405163309787c960e21b81526001600160401b038416600482015292935090916001600160a01b039091169063c25e1f249060240160206040518083038186803b1580156109e757600080fd5b505afa1580156109fb573d6000803e3d6000fd5b505050506040513d601f19601f82011682018060405250810190610a1f919061194b565b60008054604051633b79c58160e21b81526001600160401b038616600482015292935090916001600160a01b039091169063ede716049060240160206040518083038186803b158015610a7157600080fd5b505afa158015610a85573d6000803e3d6000fd5b505050506040513d601f19601f82011682018060405250810190610aa991906119b1565b6000805460405163b5a43cef60e01b81526001600160401b038716600482015292935090916001600160a01b039091169063b5a43cef9060240160206040518083038186803b158015610afb57600080fd5b505afa158015610b0f573d6000803e3d6000fd5b505050506040513d601f19601f82011682018060405250810190610b3391906119f5565b6000546040516359d6accd60e01b81526001600160401b03871660048201529192506001600160a01b0316906359d6accd9060240160206040518083038186803b158015610b8057600080fd5b505afa158015610b94573d6000803e3d6000fd5b505050506040513d601f19601f82011682018060405250810190610bb89190611979565b610bd45760405162461bcd60e51b815260040161033390611bd3565b600080546040516368080ea760e01b81526001600160401b0380881660048301528c16602482015282916001600160a01b0316906368080ea79060440160606040518083038186803b158015610c2957600080fd5b505afa158015610c3d573d6000803e3d6000fd5b505050506040513d601f19601f82011682018060405250810190610c619190611ad4565b9250925050806001600160401b03164310610d025760028054600160a01b90046001600160401b0316906014610c9683611d7e565b82546101009290920a6001600160401b03818102199093169183160217909155600254604051600160a01b90910490911681527fa43f7c79f47e7937048e7a80ce05ad2cf3da87b2b1bf1bd1122c22a6234d34be915060200160405180910390a150505050505061139e565b816001600160401b0316431015610d6d5760405162461bcd60e51b815260206004820152602960248201527f4578656375746f72436f6e74726163743a206261746368206973206e6f7420636044820152681b1bdcd959081e595d60ba1b6064820152608401610333565b6000805460405163366963c960e21b81526001600160401b03891660048201526001600160a01b039091169063d9a58f249060240160206040518083038186803b158015610dba57600080fd5b505afa158015610dce573d6000803e3d6000fd5b505050506040513d601f19601f82011682018060405250810190610df291906119f5565b9050806001600160401b0316886001600160401b031610610e6a5760405162461bcd60e51b815260206004820152602c60248201527f4578656375746f72436f6e74726163743a206b657970657220696e646578206f60448201526b7574206f6620626f756e647360a01b6064820152608401610333565b60008054604051637d42750160e11b81526001600160401b03808b1660048301528b1660248201526001600160a01b039091169063fa84ea029060440160206040518083038186803b158015610ebf57600080fd5b505afa158015610ed3573d6000803e3d6000fd5b505050506040513d601f19601f82011682018060405250810190610ef7919061194b565b9050336001600160a01b03821614610f6a5760405162461bcd60e51b815260206004820152603060248201527f4578656375746f72436f6e74726163743a2073656e646572206973206e6f742060448201526f39b832b1b4b334b2b21035b2bcb832b960811b6064820152608401610333565b600254604051632de640db60e21b81523360048201526001600160a01b039091169063b799036c9060240160206040518083038186803b158015610fad57600080fd5b505afa158015610fc1573d6000803e3d6000fd5b505050506040513d601f19601f82011682018060405250810190610fe59190611979565b1561103e5760405162461bcd60e51b815260206004820152602360248201527f4578656375746f72436f6e74726163743a206b657970657220697320736c61736044820152621a195960ea1b6064820152608401610333565b600160009054906101000a90046001600160a01b03166001600160a01b031663c87afa8a8e60006040518363ffffffff1660e01b8152600401611082929190611ca9565b60206040518083038186803b15801561109a57600080fd5b505afa1580156110ae573d6000803e3d6000fd5b505050506040513d601f19601f820116820180604052508101906110d29190611999565b8c146111365760405162461bcd60e51b815260206004820152602d60248201527f4578656375746f72436f6e74726163743a20696e636f7272656374206369706860448201526c0cae440c4c2e8c6d040d0c2e6d609b1b6064820152608401610333565b8b158015611142575089155b8061115657508b1580159061115657508915155b6111db5760405162461bcd60e51b815260206004820152604a60248201527f4578656375746f72436f6e74726163743a20636970686572426174636848617360448201527f682073686f756c64206265207a65726f20696666207472616e73616374696f6e6064820152697320697320656d70747960b01b608482015260a401610333565b60006111ea8888888f8f6116e5565b90506040518060a00160405280600115158152602001336001600160a01b03168152602001600260149054906101000a90046001600160401b03166001600160401b031681526020018e81526020018281525060036000600260149054906101000a90046001600160401b03166001600160401b03166001600160401b0316815260200190815260200160002060008201518160000160006101000a81548160ff02191690831515021790555060208201518160000160016101000a8154816001600160a01b0302191690836001600160a01b0316021790555060408201518160000160156101000a8154816001600160401b0302191690836001600160401b0316021790555060608201518160010155608082015181600201559050506002601481819054906101000a90046001600160401b03168092919061132d90611d7e565b82546101009290920a6001600160401b0381810219909316918316021790915560025460408051600160a01b9092049092168152602081018490527f3d5ed901c456e33248250feaab56f76b579b96b1679d7866e5bed2b6e9c5619a92500160405180910390a15050505050505050505b5050505050565b600280546001600160401b03808416926113c9929091600160a01b90910416611d28565b6001600160401b0316146113ef5760405162461bcd60e51b815260040161033390611c17565b6002805461140d9190600160a01b90046001600160401b0316611db1565b6001600160401b0316156114335760405162461bcd60e51b815260040161033390611b8d565b60008054604051632e37abf360e21b81526001600160401b03841660048201526001600160a01b039091169063b8deafcc9060240160206040518083038186803b15801561148057600080fd5b505afa158015611494573d6000803e3d6000fd5b505050506040513d601f19601f820116820180604052508101906114b891906119f5565b6000546040516359d6accd60e01b81526001600160401b03831660048201529192506001600160a01b0316906359d6accd9060240160206040518083038186803b15801561150557600080fd5b505afa158015611519573d6000803e3d6000fd5b505050506040513d601f19601f8201168201806040525081019061153d9190611979565b6115595760405162461bcd60e51b815260040161033390611bd3565b600080546040516368080ea760e01b81526001600160401b038085166004830152851660248201526001600160a01b03909116906368080ea79060440160606040518083038186803b1580156115ae57600080fd5b505afa1580156115c2573d6000803e3d6000fd5b505050506040513d601f19601f820116820180604052508101906115e69190611ad4565b92505050806001600160401b031643101561165f5760405162461bcd60e51b815260206004820152603360248201527f4578656375746f72436f6e74726163743a20657865637574696f6e2074696d656044820152721bdd5d081b9bdd081c995858da1959081e595d606a1b6064820152608401610333565b60028054600160a01b90046001600160401b031690601461167f83611d7e565b82546101009290920a6001600160401b03818102199093169183160217909155600254604051600160a01b90910490911681527fa43f7c79f47e7937048e7a80ce05ad2cf3da87b2b1bf1bd1122c22a6234d34be915060200160405180910390a1505050565b60008060005b6001600160401b0381168411156118f7576000878686846001600160401b031681811061172857634e487b7160e01b600052603260045260246000fd5b905060200281019061173a9190611ce4565b60405160240161174b929190611b5e565b604051602081830303815290604052906001600160e01b0319166020820180516001600160e01b03838183161783525050505090506000808a6001600160a01b0316896001600160401b0316846040516117a59190611b42565b60006040518083038160008787f1925050503d80600081146117e3576040519150601f19603f3d011682016040523d82523d6000602084013e6117e8565b606091505b50915091508161187b577f6f580fd78fd3fc2e6db770c1da4b991b45906920b1fe2abd8cc7d760b8021049848989876001600160401b031681811061183d57634e487b7160e01b600052603260045260246000fd5b905060200281019061184f9190611ce4565b60405161185d929190611b20565b60405190819003812061187292918590611c5f565b60405180910390a15b8787856001600160401b03168181106118a457634e487b7160e01b600052603260045260246000fd5b90506020028101906118b69190611ce4565b866040516020016118c993929190611b30565b60405160208183030381529060405280519060200120945050505080806118ef90611d7e565b9150506116eb565b509695505050505050565b60008083601f840112611913578182fd5b5081356001600160401b03811115611929578182fd5b6020830191508360208260051b850101111561194457600080fd5b9250929050565b60006020828403121561195c578081fd5b81516001600160a01b0381168114611972578182fd5b9392505050565b60006020828403121561198a578081fd5b81518015158114611972578182fd5b6000602082840312156119aa578081fd5b5051919050565b6000602082840312156119c2578081fd5b81516001600160e01b031981168114611972578182fd5b6000602082840312156119ea578081fd5b813561197281611ded565b600060208284031215611a06578081fd5b815161197281611ded565b600080600060408486031215611a25578182fd5b8335611a3081611ded565b925060208401356001600160401b03811115611a4a578283fd5b611a5686828701611902565b9497909650939450505050565b600080600080600060808688031215611a7a578081fd5b8535611a8581611ded565b94506020860135935060408601356001600160401b03811115611aa6578182fd5b611ab288828901611902565b9094509250506060860135611ac681611ded565b809150509295509295909350565b600080600060608486031215611ae8578283fd5b8351611af381611ded565b6020850151909350611b0481611ded565b6040850151909250611b1581611ded565b809150509250925092565b8183823760009101908152919050565b82848237909101908152602001919050565b60008251611b54818460208701611d4e565b9190910192915050565b60208152816020820152818360408301376000818301604090810191909152601f909201601f19160101919050565b60208082526026908201527f4578656375746f72436f6e74726163743a20756e65787065637465642068616c60408201526506620737465760d41b606082015260800190565b60208082526024908201527f4578656375746f72436f6e74726163743a20636f6e66696720697320696e61636040820152637469766560e01b606082015260800190565b60208082526028908201527f4578656375746f72436f6e74726163743a20756e6578706563746564206261746040820152670c6d040d2dcc8caf60c31b606082015260800190565b6001600160401b03841681528260208201526060604082015260008251806060840152611c93816080850160208701611d4e565b601f01601f191691909101608001949350505050565b6001600160401b03831681526040810160028310611cd757634e487b7160e01b600052602160045260246000fd5b8260208301529392505050565b6000808335601e19843603018112611cfa578283fd5b8301803591506001600160401b03821115611d13578283fd5b60200191503681900382131561194457600080fd5b60006001600160401b0380841680611d4257611d42611dd7565b92169190910492915050565b60005b83811015611d69578181015183820152602001611d51565b83811115611d78576000848401525b50505050565b60006001600160401b0380831681811415611da757634e487b7160e01b83526011600452602483fd5b6001019392505050565b60006001600160401b0380841680611dcb57611dcb611dd7565b92169190910692915050565b634e487b7160e01b600052601260045260246000fd5b6001600160401b0381168114611e0257600080fd5b5056fea26469706673582212204ded55bb21a69d7d26a6f314d0192186bc6a7f4631de1e61f1a11f04f02cf84d64736f6c63430008040033",
  "bytecodeSha1": "f17340464b3f631e109e40abba08d608f5e6184d",
  "compiler": {
    "evm_version": "istanbul",
    "optimizer": {
      "enabled": true,
      "runs": 200
    },
    "version": "0.8.4+commit.c7e474f2"
  },
  "contractName": "ExecutorContract",
  "language": "Solidity",
  "natspec": {
    "details": "Batch execution is carried out in two separate steps: Execution of the encrypted portion,     followed by execution of the plaintext portion. Thus, progress is counted in half steps (0     and 1 for batch 0, 2 and 3 for batch 1, and so on).",
    "kind": "dev",
    "methods": {
      "executeCipherBatch(uint64,bytes32,bytes[],uint64)": {
        "notice": "Execute the cipher portion of a batch.Execution is only performed if `cipherBatchHash` matches the hash in the batcher     contract and the batch is active and completed.",
        "params": {
          "batchIndex": "The index of the batch",
          "cipherBatchHash": "The hash of the batch (consisting of encrypted transactions)",
          "keyperIndex": "The index of the keyper calling the function.",
          "transactions": "The sequence of (decrypted) transactions to execute."
        }
      },
      "executePlainBatch(uint64,bytes[])": {
        "notice": "Execute the plaintext portion of a batch.This is a trustless operation since `transactions` will be checked against the     (plaintext) batch hash from the batcher contract.",
        "params": {
          "batchIndex": "The index of the batch",
          "transactions": "The array of plaintext transactions in the batch."
        }
      },
      "skipCipherExecution(uint64)": {
        "notice": "Skip execution of the cipher portion of a batch.This is only possible if successful execution has not been carried out in time     (according to the execution timeout defined in the config)"
      }
    },
    "title": "A contract that serves as the entry point of batch execution",
    "version": 1
  },
  "opcodes": "PUSH1 0x80 PUSH1 0x40 MSTORE CALLVALUE DUP1 ISZERO PUSH2 0x10 JUMPI PUSH1 0x0 DUP1 REVERT JUMPDEST POP PUSH1 0x4 CALLDATASIZE LT PUSH2 0x93 JUMPI PUSH1 0x0 CALLDATALOAD PUSH1 0xE0 SHR DUP1 PUSH4 0xBF66A182 GT PUSH2 0x66 JUMPI DUP1 PUSH4 0xBF66A182 EQ PUSH2 0x1ED JUMPI DUP1 PUSH4 0xC87190B3 EQ PUSH2 0x200 JUMPI DUP1 PUSH4 0xD8E9A001 EQ PUSH2 0x291 JUMPI DUP1 PUSH4 0xE94AD65B EQ PUSH2 0x2A4 JUMPI DUP1 PUSH4 0xFA6385F4 EQ PUSH2 0x2B7 JUMPI PUSH1 0x0 DUP1 REVERT JUMPDEST DUP1 PUSH4 0x25B36CBF EQ PUSH2 0x98 JUMPI DUP1 PUSH4 0x4B2A026D EQ PUSH2 0x19A JUMPI DUP1 PUSH4 0x87EB2378 EQ PUSH2 0x1AF JUMPI DUP1 PUSH4 0xBEB3B50E EQ PUSH2 0x1C2 JUMPI JUMPDEST PUSH1 0x0 DUP1 REVERT JUMPDEST PUSH2 0x140 PUSH2 0xA6 CALLDATASIZE PUSH1 0x4 PUSH2 0x19D9 JUMP JUMPDEST PUSH1 0x40 DUP1 MLOAD PUSH1 0xA0 DUP2 ADD DUP3 MSTORE PUSH1 0x0 DUP1 DUP3 MSTORE PUSH1 0x20 DUP3 ADD DUP2 SWAP1 MSTORE SWAP2 DUP2 ADD DUP3 SWAP1 MSTORE PUSH1 0x60 DUP2 ADD DUP3 SWAP1 MSTORE PUSH1 0x80 DUP2 ADD SWAP2 SWAP1 SWAP2 MSTORE POP PUSH1 0x1 PUSH1 0x1 PUSH1 0x40 SHL SUB SWAP1 DUP2 AND PUSH1 0x0 SWAP1 DUP2 MSTORE PUSH1 0x3 PUSH1 0x20 SWAP1 DUP2 MSTORE PUSH1 0x40 SWAP2 DUP3 SWAP1 KECCAK256 DUP3 MLOAD PUSH1 0xA0 DUP2 ADD DUP5 MSTORE DUP2 SLOAD PUSH1 0xFF DUP2 AND ISZERO ISZERO DUP3 MSTORE PUSH1 0x1 PUSH1 0x1 PUSH1 0xA0 SHL SUB PUSH2 0x100 DUP3 DIV AND SWAP4 DUP3 ADD SWAP4 SWAP1 SWAP4 MSTORE PUSH1 0x1 PUSH1 0xA8 SHL SWAP1 SWAP3 DIV SWAP1 SWAP4 AND SWAP2 DUP2 ADD SWAP2 SWAP1 SWAP2 MSTORE PUSH1 0x1 DUP3 ADD SLOAD PUSH1 0x60 DUP3 ADD MSTORE PUSH1 0x2 SWAP1 SWAP2 ADD SLOAD PUSH1 0x80 DUP3 ADD MSTORE SWAP1 JUMP JUMPDEST PUSH1 0x40 MLOAD PUSH2 0x191 SWAP2 SWAP1 DUP2 MLOAD ISZERO ISZERO DUP2 MSTORE PUSH1 0x20 DUP1 DUP4 ADD MLOAD PUSH1 0x1 PUSH1 0x1 PUSH1 0xA0 SHL SUB AND SWAP1 DUP3 ADD MSTORE PUSH1 0x40 DUP1 DUP4 ADD MLOAD PUSH1 0x1 PUSH1 0x1 PUSH1 0x40 SHL SUB AND SWAP1 DUP3 ADD MSTORE PUSH1 0x60 DUP1 DUP4 ADD MLOAD SWAP1 DUP3 ADD MSTORE PUSH1 0x80 SWAP2 DUP3 ADD MLOAD SWAP2 DUP2 ADD SWAP2 SWAP1 SWAP2 MSTORE PUSH1 0xA0 ADD SWAP1 JUMP JUMPDEST PUSH1 0x40 MLOAD DUP1 SWAP2 SUB SWAP1 RETURN JUMPDEST PUSH2 0x1AD PUSH2 0x1A8 CALLDATASIZE PUSH1 0x4 PUSH2 0x1A11 JUMP JUMPDEST PUSH2 0x2E9 JUMP JUMPDEST STOP JUMPDEST PUSH2 0x1AD PUSH2 0x1BD CALLDATASIZE PUSH1 0x4 PUSH2 0x1A63 JUMP JUMPDEST PUSH2 0x882 JUMP JUMPDEST PUSH1 0x1 SLOAD PUSH2 0x1D5 SWAP1 PUSH1 0x1 PUSH1 0x1 PUSH1 0xA0 SHL SUB AND DUP2 JUMP JUMPDEST PUSH1 0x40 MLOAD PUSH1 0x1 PUSH1 0x1 PUSH1 0xA0 SHL SUB SWAP1 SWAP2 AND DUP2 MSTORE PUSH1 0x20 ADD PUSH2 0x191 JUMP JUMPDEST PUSH1 0x0 SLOAD PUSH2 0x1D5 SWAP1 PUSH1 0x1 PUSH1 0x1 PUSH1 0xA0 SHL SUB AND DUP2 JUMP JUMPDEST PUSH2 0x251 PUSH2 0x20E CALLDATASIZE PUSH1 0x4 PUSH2 0x19D9 JUMP JUMPDEST PUSH1 0x3 PUSH1 0x20 MSTORE PUSH1 0x0 SWAP1 DUP2 MSTORE PUSH1 0x40 SWAP1 KECCAK256 DUP1 SLOAD PUSH1 0x1 DUP3 ADD SLOAD PUSH1 0x2 SWAP1 SWAP3 ADD SLOAD PUSH1 0xFF DUP3 AND SWAP3 PUSH2 0x100 DUP4 DIV PUSH1 0x1 PUSH1 0x1 PUSH1 0xA0 SHL SUB AND SWAP3 PUSH1 0x1 PUSH1 0xA8 SHL SWAP1 DIV PUSH1 0x1 PUSH1 0x1 PUSH1 0x40 SHL SUB AND SWAP2 DUP6 JUMP JUMPDEST PUSH1 0x40 DUP1 MLOAD SWAP6 ISZERO ISZERO DUP7 MSTORE PUSH1 0x1 PUSH1 0x1 PUSH1 0xA0 SHL SUB SWAP1 SWAP5 AND PUSH1 0x20 DUP7 ADD MSTORE PUSH1 0x1 PUSH1 0x1 PUSH1 0x40 SHL SUB SWAP1 SWAP3 AND SWAP3 DUP5 ADD SWAP3 SWAP1 SWAP3 MSTORE PUSH1 0x60 DUP4 ADD SWAP2 SWAP1 SWAP2 MSTORE PUSH1 0x80 DUP3 ADD MSTORE PUSH1 0xA0 ADD PUSH2 0x191 JUMP JUMPDEST PUSH2 0x1AD PUSH2 0x29F CALLDATASIZE PUSH1 0x4 PUSH2 0x19D9 JUMP JUMPDEST PUSH2 0x13A5 JUMP JUMPDEST PUSH1 0x2 SLOAD PUSH2 0x1D5 SWAP1 PUSH1 0x1 PUSH1 0x1 PUSH1 0xA0 SHL SUB AND DUP2 JUMP JUMPDEST PUSH1 0x2 SLOAD PUSH2 0x2D1 SWAP1 PUSH1 0x1 PUSH1 0xA0 SHL SWAP1 DIV PUSH1 0x1 PUSH1 0x1 PUSH1 0x40 SHL SUB AND DUP2 JUMP JUMPDEST PUSH1 0x40 MLOAD PUSH1 0x1 PUSH1 0x1 PUSH1 0x40 SHL SUB SWAP1 SWAP2 AND DUP2 MSTORE PUSH1 0x20 ADD PUSH2 0x191 JUMP JUMPDEST PUSH1 0x2 DUP1 SLOAD PUSH1 0x1 PUSH1 0x1 PUSH1 0x40 SHL SUB DUP1 DUP7 AND SWAP3 PUSH2 0x30D SWAP3 SWAP1 SWAP2 PUSH1 0x1 PUSH1 0xA0 SHL SWAP1 SWAP2 DIV AND PUSH2 0x1D28 JUMP JUMPDEST PUSH1 0x1 PUSH1 0x1 PUSH1 0x40 SHL SUB AND EQ PUSH2 0x33C JUMPI PUSH1 0x40 MLOAD PUSH3 0x461BCD PUSH1 0xE5 SHL DUP2 MSTORE PUSH1 0x4 ADD PUSH2 0x333 SWAP1 PUSH2 0x1C17 JUMP JUMPDEST PUSH1 0x40 MLOAD DUP1 SWAP2 SUB SWAP1 REVERT JUMPDEST PUSH1 0x2 DUP1 SLOAD PUSH2 0x35A SWAP2 SWAP1 PUSH1 0x1 PUSH1 0xA0 SHL SWAP1 DIV PUSH1 0x1 PUSH1 0x1 PUSH1 0x40 SHL SUB AND PUSH2 0x1DB1 JUMP JUMPDEST PUSH1 0x1 PUSH1 0x1 PUSH1 0x40 SHL SUB AND PUSH1 0x1 EQ PUSH2 0x382 JUMPI PUSH1 0x40 MLOAD PUSH3 0x461BCD PUSH1 0xE5 SHL DUP2 MSTORE PUSH1 0x4 ADD PUSH2 0x333 SWAP1 PUSH2 0x1B8D JUMP JUMPDEST PUSH1 0x0 DUP1 SLOAD PUSH1 0x40 MLOAD PUSH4 0x2E37ABF3 PUSH1 0xE2 SHL DUP2 MSTORE PUSH1 0x1 PUSH1 0x1 PUSH1 0x40 SHL SUB DUP7 AND PUSH1 0x4 DUP3 ADD MSTORE PUSH1 0x1 PUSH1 0x1 PUSH1 0xA0 SHL SUB SWAP1 SWAP2 AND SWAP1 PUSH4 0xB8DEAFCC SWAP1 PUSH1 0x24 ADD PUSH1 0x20 PUSH1 0x40 MLOAD DUP1 DUP4 SUB DUP2 DUP7 DUP1 EXTCODESIZE ISZERO DUP1 ISZERO PUSH2 0x3CF JUMPI PUSH1 0x0 DUP1 REVERT JUMPDEST POP GAS STATICCALL ISZERO DUP1 ISZERO PUSH2 0x3E3 JUMPI RETURNDATASIZE PUSH1 0x0 DUP1 RETURNDATACOPY RETURNDATASIZE PUSH1 0x0 REVERT JUMPDEST POP POP POP POP PUSH1 0x40 MLOAD RETURNDATASIZE PUSH1 0x1F NOT PUSH1 0x1F DUP3 ADD AND DUP3 ADD DUP1 PUSH1 0x40 MSTORE POP DUP2 ADD SWAP1 PUSH2 0x407 SWAP2 SWAP1 PUSH2 0x19F5 JUMP JUMPDEST PUSH1 0x0 DUP1 SLOAD PUSH1 0x40 MLOAD PUSH4 0x309787C9 PUSH1 0xE2 SHL DUP2 MSTORE PUSH1 0x1 PUSH1 0x1 PUSH1 0x40 SHL SUB DUP5 AND PUSH1 0x4 DUP3 ADD MSTORE SWAP3 SWAP4 POP SWAP1 SWAP2 PUSH1 0x1 PUSH1 0x1 PUSH1 0xA0 SHL SUB SWAP1 SWAP2 AND SWAP1 PUSH4 0xC25E1F24 SWAP1 PUSH1 0x24 ADD PUSH1 0x20 PUSH1 0x40 MLOAD DUP1 DUP4 SUB DUP2 DUP7 DUP1 EXTCODESIZE ISZERO DUP1 ISZERO PUSH2 0x459 JUMPI PUSH1 0x0 DUP1 REVERT JUMPDEST POP GAS STATICCALL ISZERO DUP1 ISZERO PUSH2 0x46D JUMPI RETURNDATASIZE PUSH1 0x0 DUP1 RETURNDATACOPY RETURNDATASIZE PUSH1 0x0 REVERT JUMPDEST POP POP POP POP PUSH1 0x40 MLOAD RETURNDATASIZE PUSH1 0x1F NOT PUSH1 0x1F DUP3 ADD AND DUP3 ADD DUP1 PUSH1 0x40 MSTORE POP DUP2 ADD SWAP1 PUSH2 0x491 SWAP2 SWAP1 PUSH2 0x194B JUMP JUMPDEST PUSH1 0x0 DUP1 SLOAD PUSH1 0x40 MLOAD PUSH4 0x3B79C581 PUSH1 0xE2 SHL DUP2 MSTORE PUSH1 0x1 PUSH1 0x1 PUSH1 0x40 SHL SUB DUP7 AND PUSH1 0x4 DUP3 ADD MSTORE SWAP3 SWAP4 POP SWAP1 SWAP2 PUSH1 0x1 PUSH1 0x1 PUSH1 0xA0 SHL SUB SWAP1 SWAP2 AND SWAP1 PUSH4 0xEDE71604 SWAP1 PUSH1 0x24 ADD PUSH1 0x20 PUSH1 0x40 MLOAD DUP1 DUP4 SUB DUP2 DUP7 DUP1 EXTCODESIZE ISZERO DUP1 ISZERO PUSH2 0x4E3 JUMPI PUSH1 0x0 DUP1 REVERT JUMPDEST POP GAS STATICCALL ISZERO DUP1 ISZERO PUSH2 0x4F7 JUMPI RETURNDATASIZE PUSH1 0x0 DUP1 RETURNDATACOPY RETURNDATASIZE PUSH1 0x0 REVERT JUMPDEST POP POP POP POP PUSH1 0x40 MLOAD RETURNDATASIZE PUSH1 0x1F NOT PUSH1 0x1F DUP3 ADD AND DUP3 ADD DUP1 PUSH1 0x40 MSTORE POP DUP2 ADD SWAP1 PUSH2 0x51B SWAP2 SWAP1 PUSH2 0x19B1 JUMP JUMPDEST PUSH1 0x0 DUP1 SLOAD PUSH1 0x40 MLOAD PUSH4 0xB5A43CEF PUSH1 0xE0 SHL DUP2 MSTORE PUSH1 0x1 PUSH1 0x1 PUSH1 0x40 SHL SUB DUP8 AND PUSH1 0x4 DUP3 ADD MSTORE SWAP3 SWAP4 POP SWAP1 SWAP2 PUSH1 0x1 PUSH1 0x1 PUSH1 0xA0 SHL SUB SWAP1 SWAP2 AND SWAP1 PUSH4 0xB5A43CEF SWAP1 PUSH1 0x24 ADD PUSH1 0x20 PUSH1 0x40 MLOAD DUP1 DUP4 SUB DUP2 DUP7 DUP1 EXTCODESIZE ISZERO DUP1 ISZERO PUSH2 0x56D JUMPI PUSH1 0x0 DUP1 REVERT JUMPDEST POP GAS STATICCALL ISZERO DUP1 ISZERO PUSH2 0x581 JUMPI RETURNDATASIZE PUSH1 0x0 DUP1 RETURNDATACOPY RETURNDATASIZE PUSH1 0x0 REVERT JUMPDEST POP POP POP POP PUSH1 0x40 MLOAD RETURNDATASIZE PUSH1 0x1F NOT PUSH1 0x1F DUP3 ADD AND DUP3 ADD DUP1 PUSH1 0x40 MSTORE POP DUP2 ADD SWAP1 PUSH2 0x5A5 SWAP2 SWAP1 PUSH2 0x19F5 JUMP JUMPDEST PUSH1 0x0 SLOAD PUSH1 0x40 MLOAD PUSH4 0x59D6ACCD PUSH1 0xE0 SHL DUP2 MSTORE PUSH1 0x1 PUSH1 0x1 PUSH1 0x40 SHL SUB DUP8 AND PUSH1 0x4 DUP3 ADD MSTORE SWAP2 SWAP3 POP PUSH1 0x1 PUSH1 0x1 PUSH1 0xA0 SHL SUB AND SWAP1 PUSH4 0x59D6ACCD SWAP1 PUSH1 0x24 ADD PUSH1 0x20 PUSH1 0x40 MLOAD DUP1 DUP4 SUB DUP2 DUP7 DUP1 EXTCODESIZE ISZERO DUP1 ISZERO PUSH2 0x5F2 JUMPI PUSH1 0x0 DUP1 REVERT JUMPDEST POP GAS STATICCALL ISZERO DUP1 ISZERO PUSH2 0x606 JUMPI RETURNDATASIZE PUSH1 0x0 DUP1 RETURNDATACOPY RETURNDATASIZE PUSH1 0x0 REVERT JUMPDEST POP POP POP POP PUSH1 0x40 MLOAD RETURNDATASIZE PUSH1 0x1F NOT PUSH1 0x1F DUP3 ADD AND DUP3 ADD DUP1 PUSH1 0x40 MSTORE POP DUP2 ADD SWAP1 PUSH2 0x62A SWAP2 SWAP1 PUSH2 0x1979 JUMP JUMPDEST PUSH2 0x644 JUMPI PUSH4 0x4E487B71 PUSH1 0xE0 SHL PUSH1 0x0 MSTORE PUSH1 0x1 PUSH1 0x4 MSTORE PUSH1 0x24 PUSH1 0x0 REVERT JUMPDEST PUSH1 0x0 DUP1 SLOAD PUSH1 0x40 MLOAD PUSH4 0x68080EA7 PUSH1 0xE0 SHL DUP2 MSTORE PUSH1 0x1 PUSH1 0x1 PUSH1 0x40 SHL SUB DUP1 DUP9 AND PUSH1 0x4 DUP4 ADD MSTORE DUP11 AND PUSH1 0x24 DUP3 ADD MSTORE PUSH1 0x1 PUSH1 0x1 PUSH1 0xA0 SHL SUB SWAP1 SWAP2 AND SWAP1 PUSH4 0x68080EA7 SWAP1 PUSH1 0x44 ADD PUSH1 0x60 PUSH1 0x40 MLOAD DUP1 DUP4 SUB DUP2 DUP7 DUP1 EXTCODESIZE ISZERO DUP1 ISZERO PUSH2 0x699 JUMPI PUSH1 0x0 DUP1 REVERT JUMPDEST POP GAS STATICCALL ISZERO DUP1 ISZERO PUSH2 0x6AD JUMPI RETURNDATASIZE PUSH1 0x0 DUP1 RETURNDATACOPY RETURNDATASIZE PUSH1 0x0 REVERT JUMPDEST POP POP POP POP PUSH1 0x40 MLOAD RETURNDATASIZE PUSH1 0x1F NOT PUSH1 0x1F DUP3 ADD AND DUP3 ADD DUP1 PUSH1 0x40 MSTORE POP DUP2 ADD SWAP1 PUSH2 0x6D1 SWAP2 SWAP1 PUSH2 0x1AD4 JUMP JUMPDEST POP SWAP2 POP POP DUP1 PUSH1 0x1 PUSH1 0x1 PUSH1 0x40 SHL SUB AND NUMBER LT ISZERO PUSH2 0x6FC JUMPI PUSH4 0x4E487B71 PUSH1 0xE0 SHL PUSH1 0x0 MSTORE PUSH1 0x1 PUSH1 0x4 MSTORE PUSH1 0x24 PUSH1 0x0 REVERT JUMPDEST PUSH1 0x0 PUSH2 0x70B DUP6 DUP6 DUP6 DUP12 DUP12 PUSH2 0x16E5 JUMP JUMPDEST PUSH1 0x1 DUP1 SLOAD PUSH1 0x40 MLOAD PUSH4 0x643D7D45 PUSH1 0xE1 SHL DUP2 MSTORE SWAP3 SWAP4 POP PUSH1 0x1 PUSH1 0x1 PUSH1 0xA0 SHL SUB AND SWAP2 PUSH4 0xC87AFA8A SWAP2 PUSH2 0x73E SWAP2 DUP14 SWAP2 SWAP1 PUSH1 0x4 ADD PUSH2 0x1CA9 JUMP JUMPDEST PUSH1 0x20 PUSH1 0x40 MLOAD DUP1 DUP4 SUB DUP2 DUP7 DUP1 EXTCODESIZE ISZERO DUP1 ISZERO PUSH2 0x756 JUMPI PUSH1 0x0 DUP1 REVERT JUMPDEST POP GAS STATICCALL ISZERO DUP1 ISZERO PUSH2 0x76A JUMPI RETURNDATASIZE PUSH1 0x0 DUP1 RETURNDATACOPY RETURNDATASIZE PUSH1 0x0 REVERT JUMPDEST POP POP POP POP PUSH1 0x40 MLOAD RETURNDATASIZE PUSH1 0x1F NOT PUSH1 0x1F DUP3 ADD AND DUP3 ADD DUP1 PUSH1 0x40 MSTORE POP DUP2 ADD SWAP1 PUSH2 0x78E SWAP2 SWAP1 PUSH2 0x1999 JUMP JUMPDEST DUP2 EQ PUSH2 0x7F0 JUMPI PUSH1 0x40 MLOAD PUSH3 0x461BCD PUSH1 0xE5 SHL DUP2 MSTORE PUSH1 0x20 PUSH1 0x4 DUP3 ADD MSTORE PUSH1 0x2B PUSH1 0x24 DUP3 ADD MSTORE PUSH32 0x4578656375746F72436F6E74726163743A206261746368206861736820646F65 PUSH1 0x44 DUP3 ADD MSTORE PUSH11 0xE640DCDEE840DAC2E8C6D PUSH1 0xAB SHL PUSH1 0x64 DUP3 ADD MSTORE PUSH1 0x84 ADD PUSH2 0x333 JUMP JUMPDEST PUSH1 0x2 DUP1 SLOAD PUSH1 0x1 PUSH1 0xA0 SHL SWAP1 DIV PUSH1 0x1 PUSH1 0x1 PUSH1 0x40 SHL SUB AND SWAP1 PUSH1 0x14 PUSH2 0x810 DUP4 PUSH2 0x1D7E JUMP JUMPDEST DUP3 SLOAD PUSH2 0x100 SWAP3 SWAP1 SWAP3 EXP PUSH1 0x1 PUSH1 0x1 PUSH1 0x40 SHL SUB DUP2 DUP2 MUL NOT SWAP1 SWAP4 AND SWAP2 DUP4 AND MUL OR SWAP1 SWAP2 SSTORE PUSH1 0x2 SLOAD PUSH1 0x40 DUP1 MLOAD PUSH1 0x1 PUSH1 0xA0 SHL SWAP1 SWAP3 DIV SWAP1 SWAP3 AND DUP2 MSTORE PUSH1 0x20 DUP2 ADD DUP5 SWAP1 MSTORE PUSH32 0x3D5ED901C456E33248250FEAAB56F76B579B96B1679D7866E5BED2B6E9C5619A SWAP3 POP ADD PUSH1 0x40 MLOAD DUP1 SWAP2 SUB SWAP1 LOG1 POP POP POP POP POP POP POP POP POP JUMP JUMPDEST PUSH1 0x2 DUP1 SLOAD PUSH1 0x1 PUSH1 0x1 PUSH1 0x40 SHL SUB DUP1 DUP9 AND SWAP3 PUSH2 0x8A6 SWAP3 SWAP1 SWAP2 PUSH1 0x1 PUSH1 0xA0 SHL SWAP1 SWAP2 DIV AND PUSH2 0x1D28 JUMP JUMPDEST PUSH1 0x1 PUSH1 0x1 PUSH1 0x40 SHL SUB AND EQ PUSH2 0x8CC JUMPI PUSH1 0x40 MLOAD PUSH3 0x461BCD PUSH1 0xE5 SHL DUP2 MSTORE PUSH1 0x4 ADD PUSH2 0x333 SWAP1 PUSH2 0x1C17 JUMP JUMPDEST PUSH1 0x2 DUP1 SLOAD PUSH2 0x8EA SWAP2 SWAP1 PUSH1 0x1 PUSH1 0xA0 SHL SWAP1 DIV PUSH1 0x1 PUSH1 0x1 PUSH1 0x40 SHL SUB AND PUSH2 0x1DB1 JUMP JUMPDEST PUSH1 0x1 PUSH1 0x1 PUSH1 0x40 SHL SUB AND ISZERO PUSH2 0x910 JUMPI PUSH1 0x40 MLOAD PUSH3 0x461BCD PUSH1 0xE5 SHL DUP2 MSTORE PUSH1 0x4 ADD PUSH2 0x333 SWAP1 PUSH2 0x1B8D JUMP JUMPDEST PUSH1 0x0 DUP1 SLOAD PUSH1 0x40 MLOAD PUSH4 0x2E37ABF3 PUSH1 0xE2 SHL DUP2 MSTORE PUSH1 0x1 PUSH1 0x1 PUSH1 0x40 SHL SUB DUP9 AND PUSH1 0x4 DUP3 ADD MSTORE PUSH1 0x1 PUSH1 0x1 PUSH1 0xA0 SHL SUB SWAP1 SWAP2 AND SWAP1 PUSH4 0xB8DEAFCC SWAP1 PUSH1 0x24 ADD PUSH1 0x20 PUSH1 0x40 MLOAD DUP1 DUP4 SUB DUP2 DUP7 DUP1 EXTCODESIZE ISZERO DUP1 ISZERO PUSH2 0x95D JUMPI PUSH1 0x0 DUP1 REVERT JUMPDEST POP GAS STATICCALL ISZERO DUP1 ISZERO PUSH2 0x971 JUMPI RETURNDATASIZE PUSH1 0x0 DUP1 RETURNDATACOPY RETURNDATASIZE PUSH1 0x0 REVERT JUMPDEST POP POP POP POP PUSH1 0x40 MLOAD RETURNDATASIZE PUSH1 0x1F NOT PUSH1 0x1F DUP3 ADD AND DUP3 ADD DUP1 PUSH1 0x40 MSTORE POP DUP2 ADD SWAP1 PUSH2 0x995 SWAP2 SWAP1 PUSH2 0x19F5 JUMP JUMPDEST PUSH1 0x0 DUP1 SLOAD PUSH1 0x40 MLOAD PUSH4 0x309787C9 PUSH1 0xE2 SHL DUP2 MSTORE PUSH1 0x1 PUSH1 0x1 PUSH1 0x40 SHL SUB DUP5 AND PUSH1 0x4 DUP3 ADD MSTORE SWAP3 SWAP4 POP SWAP1 SWAP2 PUSH1 0x1 PUSH1 0x1 PUSH1 0xA0 SHL SUB SWAP1 SWAP2 AND SWAP1 PUSH4 0xC25E1F24 SWAP1 PUSH1 0x24 ADD PUSH1 0x20 PUSH1 0x40 MLOAD DUP1 DUP4 SUB DUP2 DUP7 DUP1 EXTCODESIZE ISZERO DUP1 ISZERO PUSH2 0x9E7 JUMPI PUSH1 0x0 DUP1 REVERT JUMPDEST POP GAS STATICCALL ISZERO DUP1 ISZERO PUSH2 0x9FB JUMPI RETURNDATASIZE PUSH1 0x0 DUP1 RETURNDATACOPY RETURNDATASIZE PUSH1 0x0 REVERT JUMPDEST POP POP POP POP PUSH1 0x40 MLOAD RETURNDATASIZE PUSH1 0x1F NOT PUSH1 0x1F DUP3 ADD AND DUP3 ADD DUP1 PUSH1 0x40 MSTORE POP DUP2 ADD SWAP1 PUSH2 0xA1F SWAP2 SWAP1 PUSH2 0x194B JUMP JUMPDEST PUSH1 0x0 DUP1 SLOAD PUSH1 0x40 MLOAD PUSH4 0x3B79C581 PUSH1 0xE2 SHL DUP2 MSTORE PUSH1 0x1 PUSH1 0x1 PUSH1 0x40 SHL SUB DUP7 AND PUSH1 0x4 DUP3 ADD MSTORE SWAP3 SWAP4 POP SWAP1 SWAP2 PUSH1 0x1 PUSH1 0x1 PUSH1 0xA0 SHL SUB SWAP1 SWAP2 AND SWAP1 PUSH4 0xEDE71604 SWAP1 PUSH1 0x24 ADD PUSH1 0x20 PUSH1 0x40 MLOAD DUP1 DUP4 SUB DUP2 DUP7 DUP1 EXTCODESIZE ISZERO DUP1 ISZERO PUSH2 0xA71 JUMPI PUSH1 0x0 DUP1 REVERT JUMPDEST POP GAS STATICCALL ISZERO DUP1 ISZERO PUSH2 0xA85 JUMPI RETURNDATASIZE PUSH1 0x0 DUP1 RETURNDATACOPY RETURNDATASIZE PUSH1 0x0 REVERT JUMPDEST POP POP POP POP PUSH1 0x40 MLOAD RETURNDATASIZE PUSH1 0x1F NOT PUSH1 0x1F DUP3 ADD AND DUP3 ADD DUP1 PUSH1 0x40 MSTORE POP DUP2 ADD SWAP1 PUSH2 0xAA9 SWAP2 SWAP1 PUSH2 0x19B1 JUMP JUMPDEST PUSH1 0x0 DUP1 SLOAD PUSH1 0x40 MLOAD PUSH4 0xB5A43CEF PUSH1 0xE0 SHL DUP2 MSTORE PUSH1 0x1 PUSH1 0x1 PUSH1 0x40 SHL SUB DUP8 AND PUSH1 0x4 DUP3 ADD MSTORE SWAP3 SWAP4 POP SWAP1 SWAP2 PUSH1 0x1 PUSH1 0x1 PUSH1 0xA0 SHL SUB SWAP1 SWAP2 AND SWAP1 PUSH4 0xB5A43CEF SWAP1 PUSH1 0x24 ADD PUSH1 0x20 PUSH1 0x40 MLOAD DUP1 DUP4 SUB DUP2 DUP7 DUP1 EXTCODESIZE ISZERO DUP1 ISZERO PUSH2 0xAFB JUMPI PUSH1 0x0 DUP1 REVERT JUMPDEST POP GAS STATICCALL ISZERO DUP1 ISZERO PUSH2 0xB0F JUMPI RETURNDATASIZE PUSH1 0x0 DUP1 RETURNDATACOPY RETURNDATASIZE PUSH1 0x0 REVERT JUMPDEST POP POP POP POP PUSH1 0x40 MLOAD RETURNDATASIZE PUSH1 0x1F NOT PUSH1 0x1F DUP3 ADD AND DUP3 ADD DUP1 PUSH1 0x40 MSTORE POP DUP2 ADD SWAP1 PUSH2 0xB33 SWAP2 SWAP1 PUSH2 0x19F5 JUMP JUMPDEST PUSH1 0x0 SLOAD PUSH1 0x40 MLOAD PUSH4 0x59D6ACCD PUSH1 0xE0 SHL DUP2 MSTORE PUSH1 0x1 PUSH1 0x1 PUSH1 0x40 SHL SUB DUP8 AND PUSH1 0x4 DUP3 ADD MSTORE SWAP2 SWAP3 POP PUSH1 0x1 PUSH1 0x1 PUSH1 0xA0 SHL SUB AND SWAP1 PUSH4 0x59D6ACCD SWAP1 PUSH1 0x24 ADD PUSH1 0x20 PUSH1 0x40 MLOAD DUP1 DUP4 SUB DUP2 DUP7 DUP1 EXTCODESIZE ISZERO DUP1 ISZERO PUSH2 0xB80 JUMPI PUSH1 0x0 DUP1 REVERT JUMPDEST POP GAS STATICCALL ISZERO DUP1 ISZERO PUSH2 0xB94 JUMPI RETURNDATASIZE PUSH1 0x0 DUP1 RETURNDATACOPY RETURNDATASIZE PUSH1 0x0 REVERT JUMPDEST POP POP POP POP PUSH1 0x40 MLOAD RETURNDATASIZE PUSH1 0x1F NOT PUSH1 0x1F DUP3 ADD AND DUP3 ADD DUP1 PUSH1 0x40 MSTORE POP DUP2 ADD SWAP1 PUSH2 0xBB8 SWAP2 SWAP1 PUSH2 0x1979 JUMP JUMPDEST PUSH2 0xBD4 JUMPI PUSH1 0x40 MLOAD PUSH3 0x461BCD PUSH1 0xE5 SHL DUP2 MSTORE PUSH1 0x4 ADD PUSH2 0x333 SWAP1 PUSH2 0x1BD3 JUMP JUMPDEST PUSH1 0x0 DUP1 SLOAD PUSH1 0x40 MLOAD PUSH4 0x68080EA7 PUSH1 0xE0 SHL DUP2 MSTORE PUSH1 0x1 PUSH1 0x1 PUSH1 0x40 SHL SUB DUP1 DUP9 AND PUSH1 0x4 DUP4 ADD MSTORE DUP13 AND PUSH1 0x24 DUP3 ADD MSTORE DUP3 SWAP2 PUSH1 0x1 PUSH1 0x1 PUSH1 0xA0 SHL SUB AND SWAP1 PUSH4 0x68080EA7 SWAP1 PUSH1 0x44 ADD PUSH1 0x60 PUSH1 0x40 MLOAD DUP1 DUP4 SUB DUP2 DUP7 DUP1 EXTCODESIZE ISZERO DUP1 ISZERO PUSH2 0xC29 JUMPI PUSH1 0x0 DUP1 REVERT JUMPDEST POP GAS STATICCALL ISZERO DUP1 ISZERO PUSH2 0xC3D JUMPI RETURNDATASIZE PUSH1 0x0 DUP1 RETURNDATACOPY RETURNDATASIZE PUSH1 0x0 REVERT JUMPDEST POP POP POP POP PUSH1 0x40 MLOAD RETURNDATASIZE PUSH1 0x1F NOT PUSH1 0x1F DUP3 ADD AND DUP3 ADD DUP1 PUSH1 0x40 MSTORE POP DUP2 ADD SWAP1 PUSH2 0xC61 SWAP2 SWAP1 PUSH2 0x1AD4 JUMP JUMPDEST SWAP3 POP SWAP3 POP POP DUP1 PUSH1 0x1 PUSH1 0x1 PUSH1 0x40 SHL SUB AND NUMBER LT PUSH2 0xD02 JUMPI PUSH1 0x2 DUP1 SLOAD PUSH1 0x1 PUSH1 0xA0 SHL SWAP1 DIV PUSH1 0x1 PUSH1 0x1 PUSH1 0x40 SHL SUB AND SWAP1 PUSH1 0x14 PUSH2 0xC96 DUP4 PUSH2 0x1D7E JUMP JUMPDEST DUP3 SLOAD PUSH2 0x100 SWAP3 SWAP1 SWAP3 EXP PUSH1 0x1 PUSH1 0x1 PUSH1 0x40 SHL SUB DUP2 DUP2 MUL NOT SWAP1 SWAP4 AND SWAP2 DUP4 AND MUL OR SWAP1 SWAP2 SSTORE PUSH1 0x2 SLOAD PUSH1 0x40 MLOAD PUSH1 0x1 PUSH1 0xA0 SHL SWAP1 SWAP2 DIV SWAP1 SWAP2 AND DUP2 MSTORE PUSH32 0xA43F7C79F47E7937048E7A80CE05AD2CF3DA87B2B1BF1BD1122C22A6234D34BE SWAP2 POP PUSH1 0x20 ADD PUSH1 0x40 MLOAD DUP1 SWAP2 SUB SWAP1 LOG1 POP POP POP POP POP POP PUSH2 0x139E JUMP JUMPDEST DUP2 PUSH1 0x1 PUSH1 0x1 PUSH1 0x40 SHL SUB AND NUMBER LT ISZERO PUSH2 0xD6D JUMPI PUSH1 0x40 MLOAD PUSH3 0x461BCD PUSH1 0xE5 SHL DUP2 MSTORE PUSH1 0x20 PUSH1 0x4 DUP3 ADD MSTORE PUSH1 0x29 PUSH1 0x24 DUP3 ADD MSTORE PUSH32 0x4578656375746F72436F6E74726163743A206261746368206973206E6F742063 PUSH1 0x44 DUP3 ADD MSTORE PUSH9 0x1B1BDCD959081E595D PUSH1 0xBA SHL PUSH1 0x64 DUP3 ADD MSTORE PUSH1 0x84 ADD PUSH2 0x333 JUMP JUMPDEST PUSH1 0x0 DUP1 SLOAD PUSH1 0x40 MLOAD PUSH4 0x366963C9 PUSH1 0xE2 SHL DUP2 MSTORE PUSH1 0x1 PUSH1 0x1 PUSH1 0x40 SHL SUB DUP10 AND PUSH1 0x4 DUP3 ADD MSTORE PUSH1 0x1 PUSH1 0x1 PUSH1 0xA0 SHL SUB SWAP1 SWAP2 AND SWAP1 PUSH4 0xD9A58F24 SWAP1 PUSH1 0x24 ADD PUSH1 0x20 PUSH1 0x40 MLOAD DUP1 DUP4 SUB DUP2 DUP7 DUP1 EXTCODESIZE ISZERO DUP1 ISZERO PUSH2 0xDBA JUMPI PUSH1 0x0 DUP1 REVERT JUMPDEST POP GAS STATICCALL ISZERO DUP1 ISZERO PUSH2 0xDCE JUMPI RETURNDATASIZE PUSH1 0x0 DUP1 RETURNDATACOPY RETURNDATASIZE PUSH1 0x0 REVERT JUMPDEST POP POP POP POP PUSH1 0x40 MLOAD RETURNDATASIZE PUSH1 0x1F NOT PUSH1 0x1F DUP3 ADD AND DUP3 ADD DUP1 PUSH1 0x40 MSTORE POP DUP2 ADD SWAP1 PUSH2 0xDF2 SWAP2 SWAP1 PUSH2 0x19F5 JUMP JUMPDEST SWAP1 POP DUP1 PUSH1 0x1 PUSH1 0x1 PUSH1 0x40 SHL SUB AND DUP9 PUSH1 0x1 PUSH1 0x1 PUSH1 0x40 SHL SUB AND LT PUSH2 0xE6A JUMPI PUSH1 0x40 MLOAD PUSH3 0x461BCD PUSH1 0xE5 SHL DUP2 MSTORE PUSH1 0x20 PUSH1 0x4 DUP3 ADD MSTORE PUSH1 0x2C PUSH1 0x24 DUP3 ADD MSTORE PUSH32 0x4578656375746F72436F6E74726163743A206B657970657220696E646578206F PUSH1 0x44 DUP3 ADD MSTORE PUSH12 0x7574206F6620626F756E6473 PUSH1 0xA0 SHL PUSH1 0x64 DUP3 ADD MSTORE PUSH1 0x84 ADD PUSH2 0x333 JUMP JUMPDEST PUSH1 0x0 DUP1 SLOAD PUSH1 0x40 MLOAD PUSH4 0x7D427501 PUSH1 0xE1 SHL DUP2 MSTORE PUSH1 0x1 PUSH1 0x1 PUSH1 0x40 SHL SUB DUP1 DUP12 AND PUSH1 0x4 DUP4 ADD MSTORE DUP12 AND PUSH1 0x24 DUP3 ADD MSTORE PUSH1 0x1 PUSH1 0x1 PUSH1 0xA0 SHL SUB SWAP1 SWAP2 AND SWAP1 PUSH4 0xFA84EA02 SWAP1 PUSH1 0x44 ADD PUSH1 0x20 PUSH1 0x40 MLOAD DUP1 DUP4 SUB DUP2 DUP7 DUP1 EXTCODESIZE ISZERO DUP1 ISZERO PUSH2 0xEBF JUMPI PUSH1 0x0 DUP1 REVERT JUMPDEST POP GAS STATICCALL ISZERO DUP1 ISZERO PUSH2 0xED3 JUMPI RETURNDATASIZE PUSH1 0x0 DUP1 RETURNDATACOPY RETURNDATASIZE PUSH1 0x0 REVERT JUMPDEST POP POP POP POP PUSH1 0x40 MLOAD RETURNDATASIZE PUSH1 0x1F NOT PUSH1 0x1F DUP3 ADD AND DUP3 ADD DUP1 PUSH1 0x40 MSTORE POP DUP2 ADD SWAP1 PUSH2 0xEF7 SWAP2 SWAP1 PUSH2 0x194B JUMP JUMPDEST SWAP1 POP CALLER PUSH1 0x1 PUSH1 0x1 PUSH1 0xA0 SHL SUB DUP3 AND EQ PUSH2 0xF6A JUMPI PUSH1 0x40 MLOAD PUSH3 0x461BCD PUSH1 0xE5 SHL DUP2 MSTORE PUSH1 0x20 PUSH1 0x4 DUP3 ADD MSTORE PUSH1 0x30 PUSH1 0x24 DUP3 ADD MSTORE PUSH32 0x4578656375746F72436F6E74726163743A2073656E646572206973206E6F7420 PUSH1 0x44 DUP3 ADD MSTORE PUSH16 0x39B832B1B4B334B2B21035B2BCB832B9 PUSH1 0x81 SHL PUSH1 0x64 DUP3 ADD MSTORE PUSH1 0x84 ADD PUSH2 0x333 JUMP JUMPDEST PUSH1 0x2 SLOAD PUSH1 0x40 MLOAD PUSH4 0x2DE640DB PUSH1 0xE2 SHL DUP2 MSTORE CALLER PUSH1 0x4 DUP3 ADD MSTORE PUSH1 0x1 PUSH1 0x1 PUSH1 0xA0 SHL SUB SWAP1 SWAP2 AND SWAP1 PUSH4 0xB799036C SWAP1 PUSH1 0x24 ADD PUSH1 0x20 PUSH1 0x40 MLOAD DUP1 DUP4 SUB DUP2 DUP7 DUP1 EXTCODESIZE ISZERO DUP1 ISZERO PUSH2 0xFAD JUMPI PUSH1 0x0 DUP1 REVERT JUMPDEST POP GAS STATICCALL ISZERO DUP1 ISZERO PUSH2 0xFC1 JUMPI RETURNDATASIZE PUSH1 0x0 DUP1 RETURNDATACOPY RETURNDATASIZE PUSH1 0x0 REVERT JUMPDEST POP POP POP POP PUSH1 0x40 MLOAD RETURNDATASIZE PUSH1 0x1F NOT PUSH1 0x1F DUP3 ADD AND DUP3 ADD DUP1 PUSH1 0x40 MSTORE POP DUP2 ADD SWAP1 PUSH2 0xFE5 SWAP2 SWAP1 PUSH2 0x1979 JUMP JUMPDEST ISZERO PUSH2 0x103E JUMPI PUSH1 0x40 MLOAD PUSH3 0x461BCD PUSH1 0xE5 SHL DUP2 MSTORE PUSH1 0x20 PUSH1 0x4 DUP3 ADD MSTORE PUSH1 0x23 PUSH1 0x24 DUP3 ADD MSTORE PUSH32 0x4578656375746F72436F6E74726163743A206B657970657220697320736C6173 PUSH1 0x44 DUP3 ADD MSTORE PUSH3 0x1A1959 PUSH1 0xEA SHL PUSH1 0x64 DUP3 ADD MSTORE PUSH1 0x84 ADD PUSH2 0x333 JUMP JUMPDEST PUSH1 0x1 PUSH1 0x0 SWAP1 SLOAD SWAP1 PUSH2 0x100 EXP SWAP1 DIV PUSH1 0x1 PUSH1 0x1 PUSH1 0xA0 SHL SUB AND PUSH1 0x1 PUSH1 0x1 PUSH1 0xA0 SHL SUB AND PUSH4 0xC87AFA8A DUP15 PUSH1 0x0 PUSH1 0x40 MLOAD DUP4 PUSH4 0xFFFFFFFF AND PUSH1 0xE0 SHL DUP2 MSTORE PUSH1 0x4 ADD PUSH2 0x1082 SWAP3 SWAP2 SWAP1 PUSH2 0x1CA9 JUMP JUMPDEST PUSH1 0x20 PUSH1 0x40 MLOAD DUP1 DUP4 SUB DUP2 DUP7 DUP1 EXTCODESIZE ISZERO DUP1 ISZERO PUSH2 0x109A JUMPI PUSH1 0x0 DUP1 REVERT JUMPDEST POP GAS STATICCALL ISZERO DUP1 ISZERO PUSH2 0x10AE JUMPI RETURNDATASIZE PUSH1 0x0 DUP1 RETURNDATACOPY RETURNDATASIZE PUSH1 0x0 REVERT JUMPDEST POP POP POP POP PUSH1 0x40 MLOAD RETURNDATASIZE PUSH1 0x1F NOT PUSH1 0x1F DUP3 ADD AND DUP3 ADD DUP1 PUSH1 0x40 MSTORE POP DUP2 ADD SWAP1 PUSH2 0x10D2 SWAP2 SWAP1 PUSH2 0x1999 JUMP JUMPDEST DUP13 EQ PUSH2 0x1136 JUMPI PUSH1 0x40 MLOAD PUSH3 0x461BCD PUSH1 0xE5 SHL DUP2 MSTORE PUSH1 0x20 PUSH1 0x4 DUP3 ADD MSTORE PUSH1 0x2D PUSH1 0x24 DUP3 ADD MSTORE PUSH32 0x4578656375746F72436F6E74726163743A20696E636F72726563742063697068 PUSH1 0x44 DUP3 ADD MSTORE PUSH13 0xCAE440C4C2E8C6D040D0C2E6D PUSH1 0x9B SHL PUSH1 0x64 DUP3 ADD MSTORE PUSH1 0x84 ADD PUSH2 0x333 JUMP JUMPDEST DUP12 ISZERO DUP1 ISZERO PUSH2 0x1142 JUMPI POP DUP10 ISZERO JUMPDEST DUP1 PUSH2 0x1156 JUMPI POP DUP12 ISZERO DUP1 ISZERO SWAP1 PUSH2 0x1156 JUMPI POP DUP10 ISZERO ISZERO JUMPDEST PUSH2 0x11DB JUMPI PUSH1 0x40 MLOAD PUSH3 0x461BCD PUSH1 0xE5 SHL DUP2 MSTORE PUSH1 0x20 PUSH1 0x4 DUP3 ADD MSTORE PUSH1 0x4A PUSH1 0x24 DUP3 ADD MSTORE PUSH32 0x4578656375746F72436F6E74726163743A206369706865724261746368486173 PUSH1 0x44 DUP3 ADD MSTORE PUSH32 0x682073686F756C64206265207A65726F20696666207472616E73616374696F6E PUSH1 0x64 DUP3 ADD MSTORE PUSH10 0x7320697320656D707479 PUSH1 0xB0 SHL PUSH1 0x84 DUP3 ADD MSTORE PUSH1 0xA4 ADD PUSH2 0x333 JUMP JUMPDEST PUSH1 0x0 PUSH2 0x11EA DUP9 DUP9 DUP9 DUP16 DUP16 PUSH2 0x16E5 JUMP JUMPDEST SWAP1 POP PUSH1 0x40 MLOAD DUP1 PUSH1 0xA0 ADD PUSH1 0x40 MSTORE DUP1 PUSH1 0x1 ISZERO ISZERO DUP2 MSTORE PUSH1 0x20 ADD CALLER PUSH1 0x1 PUSH1 0x1 PUSH1 0xA0 SHL SUB AND DUP2 MSTORE PUSH1 0x20 ADD PUSH1 0x2 PUSH1 0x14 SWAP1 SLOAD SWAP1 PUSH2 0x100 EXP SWAP1 DIV PUSH1 0x1 PUSH1 0x1 PUSH1 0x40 SHL SUB AND PUSH1 0x1 PUSH1 0x1 PUSH1 0x40 SHL SUB AND DUP2 MSTORE PUSH1 0x20 ADD DUP15 DUP2 MSTORE PUSH1 0x20 ADD DUP3 DUP2 MSTORE POP PUSH1 0x3 PUSH1 0x0 PUSH1 0x2 PUSH1 0x14 SWAP1 SLOAD SWAP1 PUSH2 0x100 EXP SWAP1 DIV PUSH1 0x1 PUSH1 0x1 PUSH1 0x40 SHL SUB AND PUSH1 0x1 PUSH1 0x1 PUSH1 0x40 SHL SUB AND PUSH1 0x1 PUSH1 0x1 PUSH1 0x40 SHL SUB AND DUP2 MSTORE PUSH1 0x20 ADD SWAP1 DUP2 MSTORE PUSH1 0x20 ADD PUSH1 0x0 KECCAK256 PUSH1 0x0 DUP3 ADD MLOAD DUP2 PUSH1 0x0 ADD PUSH1 0x0 PUSH2 0x100 EXP DUP2 SLOAD DUP2 PUSH1 0xFF MUL NOT AND SWAP1 DUP4 ISZERO ISZERO MUL OR SWAP1 SSTORE POP PUSH1 0x20 DUP3 ADD MLOAD DUP2 PUSH1 0x0 ADD PUSH1 0x1 PUSH2 0x100 EXP DUP2 SLOAD DUP2 PUSH1 0x1 PUSH1 0x1 PUSH1 0xA0 SHL SUB MUL NOT AND SWAP1 DUP4 PUSH1 0x1 PUSH1 0x1 PUSH1 0xA0 SHL SUB AND MUL OR SWAP1 SSTORE POP PUSH1 0x40 DUP3 ADD MLOAD DUP2 PUSH1 0x0 ADD PUSH1 0x15 PUSH2 0x100 EXP DUP2 SLOAD DUP2 PUSH1 0x1 PUSH1 0x1 PUSH1 0x40 SHL SUB MUL NOT AND SWAP1 DUP4 PUSH1 0x1 PUSH1 0x1 PUSH1 0x40 SHL SUB AND MUL OR SWAP1 SSTORE POP PUSH1 0x60 DUP3 ADD MLOAD DUP2 PUSH1 0x1 ADD SSTORE PUSH1 0x80 DUP3 ADD MLOAD DUP2 PUSH1 0x2 ADD SSTORE SWAP1 POP POP PUSH1 0x2 PUSH1 0x14 DUP2 DUP2 SWAP1 SLOAD SWAP1 PUSH2 0x100 EXP SWAP1 DIV PUSH1 0x1 PUSH1 0x1 PUSH1 0x40 SHL SUB AND DUP1 SWAP3 SWAP2 SWAP1 PUSH2 0x132D SWAP1 PUSH2 0x1D7E JUMP JUMPDEST DUP3 SLOAD PUSH2 0x100 SWAP3 SWAP1 SWAP3 EXP PUSH1 0x1 PUSH1 0x1 PUSH1 0x40 SHL SUB DUP2 DUP2 MUL NOT SWAP1 SWAP4 AND SWAP2 DUP4 AND MUL OR SWAP1 SWAP2 SSTORE PUSH1 0x2 SLOAD PUSH1 0x40 DUP1 MLOAD PUSH1 0x1 PUSH1 0xA0 SHL SWAP1 SWAP3 DIV SWAP1 SWAP3 AND DUP2 MSTORE PUSH1 0x20 DUP2 ADD DUP5 SWAP1 MSTORE PUSH32 0x3D5ED901C456E33248250FEAAB56F76B579B96B1679D7866E5BED2B6E9C5619A SWAP3 POP ADD PUSH1 0x40 MLOAD DUP1 SWAP2 SUB SWAP1 LOG1 POP POP POP POP POP POP POP POP POP JUMPDEST POP POP POP POP POP JUMP JUMPDEST PUSH1 0x2 DUP1 SLOAD PUSH1 0x1 PUSH1 0x1 PUSH1 0x40 SHL SUB DUP1 DUP5 AND SWAP3 PUSH2 0x13C9 SWAP3 SWAP1 SWAP2 PUSH1 0x1 PUSH1 0xA0 SHL SWAP1 SWAP2 DIV AND PUSH2 0x1D28 JUMP JUMPDEST PUSH1 0x1 PUSH1 0x1 PUSH1 0x40 SHL SUB AND EQ PUSH2 0x13EF JUMPI PUSH1 0x40 MLOAD PUSH3 0x461BCD PUSH1 0xE5 SHL DUP2 MSTORE PUSH1 0x4 ADD PUSH2 0x333 SWAP1 PUSH2 0x1C17 JUMP JUMPDEST PUSH1 0x2 DUP1 SLOAD PUSH2 0x140D SWAP2 SWAP1 PUSH1 0x1 PUSH1 0xA0 SHL SWAP1 DIV PUSH1 0x1 PUSH1 0x1 PUSH1 0x40 SHL SUB AND PUSH2 0x1DB1 JUMP JUMPDEST PUSH1 0x1 PUSH1 0x1 PUSH1 0x40 SHL SUB AND ISZERO PUSH2 0x1433 JUMPI PUSH1 0x40 MLOAD PUSH3 0x461BCD PUSH1 0xE5 SHL DUP2 MSTORE PUSH1 0x4 ADD PUSH2 0x333 SWAP1 PUSH2 0x1B8D JUMP JUMPDEST PUSH1 0x0 DUP1 SLOAD PUSH1 0x40 MLOAD PUSH4 0x2E37ABF3 PUSH1 0xE2 SHL DUP2 MSTORE PUSH1 0x1 PUSH1 0x1 PUSH1 0x40 SHL SUB DUP5 AND PUSH1 0x4 DUP3 ADD MSTORE PUSH1 0x1 PUSH1 0x1 PUSH1 0xA0 SHL SUB SWAP1 SWAP2 AND SWAP1 PUSH4 0xB8DEAFCC SWAP1 PUSH1 0x24 ADD PUSH1 0x20 PUSH1 0x40 MLOAD DUP1 DUP4 SUB DUP2 DUP7 DUP1 EXTCODESIZE ISZERO DUP1 ISZERO PUSH2 0x1480 JUMPI PUSH1 0x0 DUP1 REVERT JUMPDEST POP GAS STATICCALL ISZERO DUP1 ISZERO PUSH2 0x1494 JUMPI RETURNDATASIZE PUSH1 0x0 DUP1 RETURNDATACOPY RETURNDATASIZE PUSH1 0x0 REVERT JUMPDEST POP POP POP POP PUSH1 0x40 MLOAD RETURNDATASIZE PUSH1 0x1F NOT PUSH1 0x1F DUP3 ADD AND DUP3 ADD DUP1 PUSH1 0x40 MSTORE POP DUP2 ADD SWAP1 PUSH2 0x14B8 SWAP2 SWAP1 PUSH2 0x19F5 JUMP JUMPDEST PUSH1 0x0 SLOAD PUSH1 0x40 MLOAD PUSH4 0x59D6ACCD PUSH1 0xE0 SHL DUP2 MSTORE PUSH1 0x1 PUSH1 0x1 PUSH1 0x40 SHL SUB DUP4 AND PUSH1 0x4 DUP3 ADD MSTORE SWAP2 SWAP3 POP PUSH1 0x1 PUSH1 0x1 PUSH1 0xA0 SHL SUB AND SWAP1 PUSH4 0x59D6ACCD SWAP1 PUSH1 0x24 ADD PUSH1 0x20 PUSH1 0x40 MLOAD DUP1 DUP4 SUB DUP2 DUP7 DUP1 EXTCODESIZE ISZERO DUP1 ISZERO PUSH2 0x1505 JUMPI PUSH1 0x0 DUP1 REVERT JUMPDEST POP GAS STATICCALL ISZERO DUP1 ISZERO PUSH2 0x1519 JUMPI RETURNDATASIZE PUSH1 0x0 DUP1 RETURNDATACOPY RETURNDATASIZE PUSH1 0x0 REVERT JUMPDEST POP POP POP POP PUSH1 0x40 MLOAD RETURNDATASIZE PUSH1 0x1F NOT PUSH1 0x1F DUP3 ADD AND DUP3 ADD DUP1 PUSH1 0x40 MSTORE POP DUP2 ADD SWAP1 PUSH2 0x153D SWAP2 SWAP1 PUSH2 0x1979 JUMP JUMPDEST PUSH2 0x1559 JUMPI PUSH1 0x40 MLOAD PUSH3 0x461BCD PUSH1 0xE5 SHL DUP2 MSTORE PUSH1 0x4 ADD PUSH2 0x333 SWAP1 PUSH2 0x1BD3 JUMP JUMPDEST PUSH1 0x0 DUP1 SLOAD PUSH1 0x40 MLOAD PUSH4 0x68080EA7 PUSH1 0xE0 SHL DUP2 MSTORE PUSH1 0x1 PUSH1 0x1 PUSH1 0x40 SHL SUB DUP1 DUP6 AND PUSH1 0x4 DUP4 ADD MSTORE DUP6 AND PUSH1 0x24 DUP3 ADD MSTORE PUSH1 0x1 PUSH1 0x1 PUSH1 0xA0 SHL SUB SWAP1 SWAP2 AND SWAP1 PUSH4 0x68080EA7 SWAP1 PUSH1 0x44 ADD PUSH1 0x60 PUSH1 0x40 MLOAD DUP1 DUP4 SUB DUP2 DUP7 DUP1 EXTCODESIZE ISZERO DUP1 ISZERO PUSH2 0x15AE JUMPI PUSH1 0x0 DUP1 REVERT JUMPDEST POP GAS STATICCALL ISZERO DUP1 ISZERO PUSH2 0x15C2 JUMPI RETURNDATASIZE PUSH1 0x0 DUP1 RETURNDATACOPY RETURNDATASIZE PUSH1 0x0 REVERT JUMPDEST POP POP POP POP PUSH1 0x40 MLOAD RETURNDATASIZE PUSH1 0x1F NOT PUSH1 0x1F DUP3 ADD AND DUP3 ADD DUP1 PUSH1 0x40 MSTORE POP DUP2 ADD SWAP1 PUSH2 0x15E6 SWAP2 SWAP1 PUSH2 0x1AD4 JUMP JUMPDEST SWAP3 POP POP POP DUP1 PUSH1 0x1 PUSH1 0x1 PUSH1 0x40 SHL SUB AND NUMBER LT ISZERO PUSH2 0x165F JUMPI PUSH1 0x40 MLOAD PUSH3 0x461BCD PUSH1 0xE5 SHL DUP2 MSTORE PUSH1 0x20 PUSH1 0x4 DUP3 ADD MSTORE PUSH1 0x33 PUSH1 0x24 DUP3 ADD MSTORE PUSH32 0x4578656375746F72436F6E74726163743A20657865637574696F6E2074696D65 PUSH1 0x44 DUP3 ADD MSTORE PUSH19 0x1BDD5D081B9BDD081C995858DA1959081E595D PUSH1 0x6A SHL PUSH1 0x64 DUP3 ADD MSTORE PUSH1 0x84 ADD PUSH2 0x333 JUMP JUMPDEST PUSH1 0x2 DUP1 SLOAD PUSH1 0x1 PUSH1 0xA0 SHL SWAP1 DIV PUSH1 0x1 PUSH1 0x1 PUSH1 0x40 SHL SUB AND SWAP1 PUSH1 0x14 PUSH2 0x167F DUP4 PUSH2 0x1D7E JUMP JUMPDEST DUP3 SLOAD PUSH2 0x100 SWAP3 SWAP1 SWAP3 EXP PUSH1 0x1 PUSH1 0x1 PUSH1 0x40 SHL SUB DUP2 DUP2 MUL NOT SWAP1 SWAP4 AND SWAP2 DUP4 AND MUL OR SWAP1 SWAP2 SSTORE PUSH1 0x2 SLOAD PUSH1 0x40 MLOAD PUSH1 0x1 PUSH1 0xA0 SHL SWAP1 SWAP2 DIV SWAP1 SWAP2 AND DUP2 MSTORE PUSH32 0xA43F7C79F47E7937048E7A80CE05AD2CF3DA87B2B1BF1BD1122C22A6234D34BE SWAP2 POP PUSH1 0x20 ADD PUSH1 0x40 MLOAD DUP1 SWAP2 SUB SWAP1 LOG1 POP POP POP JUMP JUMPDEST PUSH1 0x0 DUP1 PUSH1 0x0 JUMPDEST PUSH1 0x1 PUSH1 0x1 PUSH1 0x40 SHL SUB DUP2 AND DUP5 GT ISZERO PUSH2 0x18F7 JUMPI PUSH1 0x0 DUP8 DUP7 DUP7 DUP5 PUSH1 0x1 PUSH1 0x1 PUSH1 0x40 SHL SUB AND DUP2 DUP2 LT PUSH2 0x1728 JUMPI PUSH4 0x4E487B71 PUSH1 0xE0 SHL PUSH1 0x0 MSTORE PUSH1 0x32 PUSH1 0x4 MSTORE PUSH1 0x24 PUSH1 0x0 REVERT JUMPDEST SWAP1 POP PUSH1 0x20 MUL DUP2 ADD SWAP1 PUSH2 0x173A SWAP2 SWAP1 PUSH2 0x1CE4 JUMP JUMPDEST PUSH1 0x40 MLOAD PUSH1 0x24 ADD PUSH2 0x174B SWAP3 SWAP2 SWAP1 PUSH2 0x1B5E JUMP JUMPDEST PUSH1 0x40 MLOAD PUSH1 0x20 DUP2 DUP4 SUB SUB DUP2 MSTORE SWAP1 PUSH1 0x40 MSTORE SWAP1 PUSH1 0x1 PUSH1 0x1 PUSH1 0xE0 SHL SUB NOT AND PUSH1 0x20 DUP3 ADD DUP1 MLOAD PUSH1 0x1 PUSH1 0x1 PUSH1 0xE0 SHL SUB DUP4 DUP2 DUP4 AND OR DUP4 MSTORE POP POP POP POP SWAP1 POP PUSH1 0x0 DUP1 DUP11 PUSH1 0x1 PUSH1 0x1 PUSH1 0xA0 SHL SUB AND DUP10 PUSH1 0x1 PUSH1 0x1 PUSH1 0x40 SHL SUB AND DUP5 PUSH1 0x40 MLOAD PUSH2 0x17A5 SWAP2 SWAP1 PUSH2 0x1B42 JUMP JUMPDEST PUSH1 0x0 PUSH1 0x40 MLOAD DUP1 DUP4 SUB DUP2 PUSH1 0x0 DUP8 DUP8 CALL SWAP3 POP POP POP RETURNDATASIZE DUP1 PUSH1 0x0 DUP2 EQ PUSH2 0x17E3 JUMPI PUSH1 0x40 MLOAD SWAP2 POP PUSH1 0x1F NOT PUSH1 0x3F RETURNDATASIZE ADD AND DUP3 ADD PUSH1 0x40 MSTORE RETURNDATASIZE DUP3 MSTORE RETURNDATASIZE PUSH1 0x0 PUSH1 0x20 DUP5 ADD RETURNDATACOPY PUSH2 0x17E8 JUMP JUMPDEST PUSH1 0x60 SWAP2 POP JUMPDEST POP SWAP2 POP SWAP2 POP DUP2 PUSH2 0x187B JUMPI PUSH32 0x6F580FD78FD3FC2E6DB770C1DA4B991B45906920B1FE2ABD8CC7D760B8021049 DUP5 DUP10 DUP10 DUP8 PUSH1 0x1 PUSH1 0x1 PUSH1 0x40 SHL SUB AND DUP2 DUP2 LT PUSH2 0x183D JUMPI PUSH4 0x4E487B71 PUSH1 0xE0 SHL PUSH1 0x0 MSTORE PUSH1 0x32 PUSH1 0x4 MSTORE PUSH1 0x24 PUSH1 0x0 REVERT JUMPDEST SWAP1 POP PUSH1 0x20 MUL DUP2 ADD SWAP1 PUSH2 0x184F SWAP2 SWAP1 PUSH2 0x1CE4 JUMP JUMPDEST PUSH1 0x40 MLOAD PUSH2 0x185D SWAP3 SWAP2 SWAP1 PUSH2 0x1B20 JUMP JUMPDEST PUSH1 0x40 MLOAD SWAP1 DUP2 SWAP1 SUB DUP2 KECCAK256 PUSH2 0x1872 SWAP3 SWAP2 DUP6 SWAP1 PUSH2 0x1C5F JUMP JUMPDEST PUSH1 0x40 MLOAD DUP1 SWAP2 SUB SWAP1 LOG1 JUMPDEST DUP8 DUP8 DUP6 PUSH1 0x1 PUSH1 0x1 PUSH1 0x40 SHL SUB AND DUP2 DUP2 LT PUSH2 0x18A4 JUMPI PUSH4 0x4E487B71 PUSH1 0xE0 SHL PUSH1 0x0 MSTORE PUSH1 0x32 PUSH1 0x4 MSTORE PUSH1 0x24 PUSH1 0x0 REVERT JUMPDEST SWAP1 POP PUSH1 0x20 MUL DUP2 ADD SWAP1 PUSH2 0x18B6 SWAP2 SWAP1 PUSH2 0x1CE4 JUMP JUMPDEST DUP7 PUSH1 0x40 MLOAD PUSH1 0x20 ADD PUSH2 0x18C9 SWAP4 SWAP3 SWAP2 SWAP1 PUSH2 0x1B30 JUMP JUMPDEST PUSH1 0x40 MLOAD PUSH1 0x20 DUP2 DUP4 SUB SUB DUP2 MSTORE SWAP1 PUSH1 0x40 MSTORE DUP1 MLOAD SWAP1 PUSH1 0x20 ADD KECCAK256 SWAP5 POP POP POP POP DUP1 DUP1 PUSH2 0x18EF SWAP1 PUSH2 0x1D7E JUMP JUMPDEST SWAP2 POP POP PUSH2 0x16EB JUMP JUMPDEST POP SWAP7 SWAP6 POP POP POP POP POP POP JUMP JUMPDEST PUSH1 0x0 DUP1 DUP4 PUSH1 0x1F DUP5 ADD SLT PUSH2 0x1913 JUMPI DUP2 DUP3 REVERT JUMPDEST POP DUP2 CALLDATALOAD PUSH1 0x1 PUSH1 0x1 PUSH1 0x40 SHL SUB DUP2 GT ISZERO PUSH2 0x1929 JUMPI DUP2 DUP3 REVERT JUMPDEST PUSH1 0x20 DUP4 ADD SWAP2 POP DUP4 PUSH1 0x20 DUP3 PUSH1 0x5 SHL DUP6 ADD ADD GT ISZERO PUSH2 0x1944 JUMPI PUSH1 0x0 DUP1 REVERT JUMPDEST SWAP3 POP SWAP3 SWAP1 POP JUMP JUMPDEST PUSH1 0x0 PUSH1 0x20 DUP3 DUP5 SUB SLT ISZERO PUSH2 0x195C JUMPI DUP1 DUP2 REVERT JUMPDEST DUP2 MLOAD PUSH1 0x1 PUSH1 0x1 PUSH1 0xA0 SHL SUB DUP2 AND DUP2 EQ PUSH2 0x1972 JUMPI DUP2 DUP3 REVERT JUMPDEST SWAP4 SWAP3 POP POP POP JUMP JUMPDEST PUSH1 0x0 PUSH1 0x20 DUP3 DUP5 SUB SLT ISZERO PUSH2 0x198A JUMPI DUP1 DUP2 REVERT JUMPDEST DUP2 MLOAD DUP1 ISZERO ISZERO DUP2 EQ PUSH2 0x1972 JUMPI DUP2 DUP3 REVERT JUMPDEST PUSH1 0x0 PUSH1 0x20 DUP3 DUP5 SUB SLT ISZERO PUSH2 0x19AA JUMPI DUP1 DUP2 REVERT JUMPDEST POP MLOAD SWAP2 SWAP1 POP JUMP JUMPDEST PUSH1 0x0 PUSH1 0x20 DUP3 DUP5 SUB SLT ISZERO PUSH2 0x19C2 JUMPI DUP1 DUP2 REVERT JUMPDEST DUP2 MLOAD PUSH1 0x1 PUSH1 0x1 PUSH1 0xE0 SHL SUB NOT DUP2 AND DUP2 EQ PUSH2 0x1972 JUMPI DUP2 DUP3 REVERT JUMPDEST PUSH1 0x0 PUSH1 0x20 DUP3 DUP5 SUB SLT ISZERO PUSH2 0x19EA JUMPI DUP1 DUP2 REVERT JUMPDEST DUP2 CALLDATALOAD PUSH2 0x1972 DUP2 PUSH2 0x1DED JUMP JUMPDEST PUSH1 0x0 PUSH1 0x20 DUP3 DUP5 SUB SLT ISZERO PUSH2 0x1A06 JUMPI DUP1 DUP2 REVERT JUMPDEST DUP2 MLOAD PUSH2 0x1972 DUP2 PUSH2 0x1DED JUMP JUMPDEST PUSH1 0x0 DUP1 PUSH1 0x0 PUSH1 0x40 DUP5 DUP7 SUB SLT ISZERO PUSH2 0x1A25 JUMPI DUP2 DUP3 REVERT JUMPDEST DUP4 CALLDATALOAD PUSH2 0x1A30 DUP2 PUSH2 0x1DED JUMP JUMPDEST SWAP3 POP PUSH1 0x20 DUP5 ADD CALLDATALOAD PUSH1 0x1 PUSH1 0x1 PUSH1 0x40 SHL SUB DUP2 GT ISZERO PUSH2 0x1A4A JUMPI DUP3 DUP4 REVERT JUMPDEST PUSH2 0x1A56 DUP7 DUP3 DUP8 ADD PUSH2 0x1902 JUMP JUMPDEST SWAP5 SWAP8 SWAP1 SWAP7 POP SWAP4 SWAP5 POP POP POP POP JUMP JUMPDEST PUSH1 0x0 DUP1 PUSH1 0x0 DUP1 PUSH1 0x0 PUSH1 0x80 DUP7 DUP9 SUB SLT ISZERO PUSH2 0x1A7A JUMPI DUP1 DUP2 REVERT JUMPDEST DUP6 CALLDATALOAD PUSH2 0x1A85 DUP2 PUSH2 0x1DED JUMP JUMPDEST SWAP5 POP PUSH1 0x20 DUP7 ADD CALLDATALOAD SWAP4 POP PUSH1 0x40 DUP7 ADD CALLDATALOAD PUSH1 0x1 PUSH1 0x1 PUSH1 0x40 SHL SUB DUP2 GT ISZERO PUSH2 0x1AA6 JUMPI DUP2 DUP3 REVERT JUMPDEST PUSH2 0x1AB2 DUP9 DUP3 DUP10 ADD PUSH2 0x1902 JUMP JUMPDEST SWAP1 SWAP5 POP SWAP3 POP POP PUSH1 0x60 DUP7 ADD CALLDATALOAD PUSH2 0x1AC6 DUP2 PUSH2 0x1DED JUMP JUMPDEST DUP1 SWAP2 POP POP SWAP3 SWAP6 POP SWAP3 SWAP6 SWAP1 SWAP4 POP JUMP JUMPDEST PUSH1 0x0 DUP1 PUSH1 0x0 PUSH1 0x60 DUP5 DUP7 SUB SLT ISZERO PUSH2 0x1AE8 JUMPI DUP3 DUP4 REVERT JUMPDEST DUP4 MLOAD PUSH2 0x1AF3 DUP2 PUSH2 0x1DED JUMP JUMPDEST PUSH1 0x20 DUP6 ADD MLOAD SWAP1 SWAP4 POP PUSH2 0x1B04 DUP2 PUSH2 0x1DED JUMP JUMPDEST PUSH1 0x40 DUP6 ADD MLOAD SWAP1 SWAP3 POP PUSH2 0x1B15 DUP2 PUSH2 0x1DED JUMP JUMPDEST DUP1 SWAP2 POP POP SWAP3 POP SWAP3 POP SWAP3 JUMP JUMPDEST DUP2 DUP4 DUP3 CALLDATACOPY PUSH1 0x0 SWAP2 ADD SWAP1 DUP2 MSTORE SWAP2 SWAP1 POP JUMP JUMPDEST DUP3 DUP5 DUP3 CALLDATACOPY SWAP1 SWAP2 ADD SWAP1 DUP2 MSTORE PUSH1 0x20 ADD SWAP2 SWAP1 POP JUMP JUMPDEST PUSH1 0x0 DUP3 MLOAD PUSH2 0x1B54 DUP2 DUP5 PUSH1 0x20 DUP8 ADD PUSH2 0x1D4E JUMP JUMPDEST SWAP2 SWAP1 SWAP2 ADD SWAP3 SWAP2 POP POP JUMP JUMPDEST PUSH1 0x20 DUP2 MSTORE DUP2 PUSH1 0x20 DUP3 ADD MSTORE DUP2 DUP4 PUSH1 0x40 DUP4 ADD CALLDATACOPY PUSH1 0x0 DUP2 DUP4 ADD PUSH1 0x40 SWAP1 DUP2 ADD SWAP2 SWAP1 SWAP2 MSTORE PUSH1 0x1F SWAP1 SWAP3 ADD PUSH1 0x1F NOT AND ADD ADD SWAP2 SWAP1 POP JUMP JUMPDEST PUSH1 0x20 DUP1 DUP3 MSTORE PUSH1 0x26 SWAP1 DUP3 ADD MSTORE PUSH32 0x4578656375746F72436F6E74726163743A20756E65787065637465642068616C PUSH1 0x40 DUP3 ADD MSTORE PUSH6 0x66207374657 PUSH1 0xD4 SHL PUSH1 0x60 DUP3 ADD MSTORE PUSH1 0x80 ADD SWAP1 JUMP JUMPDEST PUSH1 0x20 DUP1 DUP3 MSTORE PUSH1 0x24 SWAP1 DUP3 ADD MSTORE PUSH32 0x4578656375746F72436F6E74726163743A20636F6E66696720697320696E6163 PUSH1 0x40 DUP3 ADD MSTORE PUSH4 0x74697665 PUSH1 0xE0 SHL PUSH1 0x60 DUP3 ADD MSTORE PUSH1 0x80 ADD SWAP1 JUMP JUMPDEST PUSH1 0x20 DUP1 DUP3 MSTORE PUSH1 0x28 SWAP1 DUP3 ADD MSTORE PUSH32 0x4578656375746F72436F6E74726163743A20756E657870656374656420626174 PUSH1 0x40 DUP3 ADD MSTORE PUSH8 0xC6D040D2DCC8CAF PUSH1 0xC3 SHL PUSH1 0x60 DUP3 ADD MSTORE PUSH1 0x80 ADD SWAP1 JUMP JUMPDEST PUSH1 0x1 PUSH1 0x1 PUSH1 0x40 SHL SUB DUP5 AND DUP2 MSTORE DUP3 PUSH1 0x20 DUP3 ADD MSTORE PUSH1 0x60 PUSH1 0x40 DUP3 ADD MSTORE PUSH1 0x0 DUP3 MLOAD DUP1 PUSH1 0x60 DUP5 ADD MSTORE PUSH2 0x1C93 DUP2 PUSH1 0x80 DUP6 ADD PUSH1 0x20 DUP8 ADD PUSH2 0x1D4E JUMP JUMPDEST PUSH1 0x1F ADD PUSH1 0x1F NOT AND SWAP2 SWAP1 SWAP2 ADD PUSH1 0x80 ADD SWAP5 SWAP4 POP POP POP POP JUMP JUMPDEST PUSH1 0x1 PUSH1 0x1 PUSH1 0x40 SHL SUB DUP4 AND DUP2 MSTORE PUSH1 0x40 DUP2 ADD PUSH1 0x2 DUP4 LT PUSH2 0x1CD7 JUMPI PUSH4 0x4E487B71 PUSH1 0xE0 SHL PUSH1 0x0 MSTORE PUSH1 0x21 PUSH1 0x4 MSTORE PUSH1 0x24 PUSH1 0x0 REVERT JUMPDEST DUP3 PUSH1 0x20 DUP4 ADD MSTORE SWAP4 SWAP3 POP POP POP JUMP JUMPDEST PUSH1 0x0 DUP1 DUP4 CALLDATALOAD PUSH1 0x1E NOT DUP5 CALLDATASIZE SUB ADD DUP2 SLT PUSH2 0x1CFA JUMPI DUP3 DUP4 REVERT JUMPDEST DUP4 ADD DUP1 CALLDATALOAD SWAP2 POP PUSH1 0x1 PUSH1 0x1 PUSH1 0x40 SHL SUB DUP3 GT ISZERO PUSH2 0x1D13 JUMPI DUP3 DUP4 REVERT JUMPDEST PUSH1 0x20 ADD SWAP2 POP CALLDATASIZE DUP2 SWAP1 SUB DUP3 SGT ISZERO PUSH2 0x1944 JUMPI PUSH1 0x0 DUP1 REVERT JUMPDEST PUSH1 0x0 PUSH1 0x1 PUSH1 0x1 PUSH1 0x40 SHL SUB DUP1 DUP5 AND DUP1 PUSH2 0x1D42 JUMPI PUSH2 0x1D42 PUSH2 0x1DD7 JUMP JUMPDEST SWAP3 AND SWAP2 SWAP1 SWAP2 DIV SWAP3 SWAP2 POP POP JUMP JUMPDEST PUSH1 0x0 JUMPDEST DUP4 DUP2 LT ISZERO PUSH2 0x1D69 JUMPI DUP2 DUP2 ADD MLOAD DUP4 DUP3 ADD MSTORE PUSH1 0x20 ADD PUSH2 0x1D51 JUMP JUMPDEST DUP4 DUP2 GT ISZERO PUSH2 0x1D78 JUMPI PUSH1 0x0 DUP5 DUP5 ADD MSTORE JUMPDEST POP POP POP POP JUMP JUMPDEST PUSH1 0x0 PUSH1 0x1 PUSH1 0x1 PUSH1 0x40 SHL SUB DUP1 DUP4 AND DUP2 DUP2 EQ ISZERO PUSH2 0x1DA7 JUMPI PUSH4 0x4E487B71 PUSH1 0xE0 SHL DUP4 MSTORE PUSH1 0x11 PUSH1 0x4 MSTORE PUSH1 0x24 DUP4 REVERT JUMPDEST PUSH1 0x1 ADD SWAP4 SWAP3 POP POP POP JUMP JUMPDEST PUSH1 0x0 PUSH1 0x1 PUSH1 0x1 PUSH1 0x40 SHL SUB DUP1 DUP5 AND DUP1 PUSH2 0x1DCB JUMPI PUSH2 0x1DCB PUSH2 0x1DD7 JUMP JUMPDEST SWAP3 AND SWAP2 SWAP1 SWAP2 MOD SWAP3 SWAP2 POP POP JUMP JUMPDEST PUSH4 0x4E487B71 PUSH1 0xE0 SHL PUSH1 0x0 MSTORE PUSH1 0x12 PUSH1 0x4 MSTORE PUSH1 0x24 PUSH1 0x0 REVERT JUMPDEST PUSH1 0x1 PUSH1 0x1 PUSH1 0x40 SHL SUB DUP2 AND DUP2 EQ PUSH2 0x1E02 JUMPI PUSH1 0x0 DUP1 REVERT JUMPDEST POP JUMP INVALID LOG2 PUSH5 0x6970667358 0x22 SLT KECCAK256 0x4D 0xED SSTORE 0xBB 0x21 0xA6 SWAP14 PUSH30 0x26A6F314D0192186BC6A7F4631DE1E61F1A11F04F02CF84D64736F6C6343 STOP ADDMOD DIV STOP CALLER ",
  "sha1": "f9c32432d5b891821c90f34e473dafceb652d297",
  "source": "// SPDX-License-Identifier: MIT\n\npragma solidity =0.8.4;\n\nimport {ConfigContract} from \"./ConfigContract.sol\";\nimport {\n    BatcherContract,\n    BatchConfig,\n    TransactionType\n} from \"./BatcherContract.sol\";\nimport {DepositContract} from \"./DepositContract.sol\";\n\nstruct CipherExecutionReceipt {\n    bool executed;\n    address executor;\n    uint64 halfStep;\n    bytes32 cipherBatchHash;\n    bytes32 batchHash;\n}\n\n/// @title A contract that serves as the entry point of batch execution\n/// @dev Batch execution is carried out in two separate steps: Execution of the encrypted portion,\n///     followed by execution of the plaintext portion. Thus, progress is counted in half steps (0\n///     and 1 for batch 0, 2 and 3 for batch 1, and so on).\ncontract ExecutorContract {\n    /// @notice The event emitted after a batch execution half step has been carried out.\n    /// @param numExecutionHalfSteps The total number of finished execution half steps, including\n    ///     the one responsible for emitting the event.\n    /// @param batchHash The hash of the executed batch (consisting of plaintext transactions).\n    event BatchExecuted(uint64 numExecutionHalfSteps, bytes32 batchHash);\n\n    /// @notice The event emitted after execution of the cipher portion of a batch has been skipped.\n    /// @param numExecutionHalfSteps The total number of finished execution half steps, including\n    ///     this one.\n    event CipherExecutionSkipped(uint64 numExecutionHalfSteps);\n\n    event TransactionFailed(uint64 txIndex, bytes32 txHash, bytes data);\n\n    ConfigContract public configContract;\n    BatcherContract public batcherContract;\n    DepositContract public depositContract;\n\n    uint64 public numExecutionHalfSteps;\n    mapping(uint64 => CipherExecutionReceipt) public cipherExecutionReceipts;\n\n    constructor(\n        ConfigContract configContractAddress,\n        BatcherContract batcherContractAddress,\n        DepositContract depositContractAddress\n    ) {\n        configContract = configContractAddress;\n        batcherContract = batcherContractAddress;\n        depositContract = depositContractAddress;\n    }\n\n    /// @notice Execute the cipher portion of a batch.\n    /// @param batchIndex The index of the batch\n    /// @param cipherBatchHash The hash of the batch (consisting of encrypted transactions)\n    /// @param transactions The sequence of (decrypted) transactions to execute.\n    /// @param keyperIndex The index of the keyper calling the function.\n    /// @notice Execution is only performed if `cipherBatchHash` matches the hash in the batcher\n    ///     contract and the batch is active and completed.\n    function executeCipherBatch(\n        uint64 batchIndex,\n        bytes32 cipherBatchHash,\n        bytes[] calldata transactions,\n        uint64 keyperIndex\n    ) public {\n        require(\n            numExecutionHalfSteps / 2 == batchIndex,\n            \"ExecutorContract: unexpected batch index\"\n        );\n        // Check that it's a cipher batch turn\n        require(\n            numExecutionHalfSteps % 2 == 0,\n            \"ExecutorContract: unexpected half step\"\n        );\n\n        uint64 configIndex =\n            configContract.configIndexForBatchIndex(batchIndex);\n        address targetAddress = configContract.configTargetAddress(configIndex);\n        bytes4 targetFunctionSelector =\n            configContract.configTargetFunctionSelector(configIndex);\n        uint64 transactionGasLimit =\n            configContract.configTransactionGasLimit(configIndex);\n\n        // Check that batching is active\n        require(\n            configContract.batchingActive(configIndex),\n            \"ExecutorContract: config is inactive\"\n        );\n        (, uint64 end, uint64 executionTimeout) =\n            configContract.batchBoundaryBlocks(configIndex, batchIndex);\n\n        // skip cipher execution if we reached the execution timeout.\n        if (block.number >= executionTimeout) {\n            numExecutionHalfSteps++;\n            emit CipherExecutionSkipped(numExecutionHalfSteps);\n            return;\n        }\n\n        require(\n            block.number >= end,\n            \"ExecutorContract: batch is not closed yet\"\n        );\n\n        // Check that caller is keyper\n        uint64 numKeypers = configContract.configNumKeypers(configIndex);\n        require(\n            keyperIndex < numKeypers,\n            \"ExecutorContract: keyper index out of bounds\"\n        );\n        address keyperAtIndex =\n            configContract.configKeypers(configIndex, keyperIndex);\n        require(\n            msg.sender == keyperAtIndex,\n            \"ExecutorContract: sender is not specified keyper\"\n        );\n\n        // Check that keyper is not slashed\n        require(\n            !depositContract.isSlashed(msg.sender),\n            \"ExecutorContract: keyper is slashed\"\n        );\n\n        // Check the cipher batch hash is correct\n        require(\n            cipherBatchHash ==\n                batcherContract.batchHashes(batchIndex, TransactionType.Cipher),\n            \"ExecutorContract: incorrect cipher batch hash\"\n        );\n\n        // Check the number of transactions is zero iff we provide the ZERO_HASH\n        require(\n            (cipherBatchHash == bytes32(0) && transactions.length == 0) ||\n                (cipherBatchHash != bytes32(0) && transactions.length > 0),\n            \"ExecutorContract: cipherBatchHash should be zero iff transactions is empty\"\n        );\n\n        // Execute the batch\n        bytes32 batchHash =\n            executeTransactions(\n                targetAddress,\n                targetFunctionSelector,\n                transactionGasLimit,\n                transactions\n            );\n\n        cipherExecutionReceipts[\n            numExecutionHalfSteps\n        ] = CipherExecutionReceipt({\n            executed: true,\n            executor: msg.sender,\n            halfStep: numExecutionHalfSteps,\n            cipherBatchHash: cipherBatchHash,\n            batchHash: batchHash\n        });\n        numExecutionHalfSteps++;\n        emit BatchExecuted(numExecutionHalfSteps, batchHash);\n    }\n\n    /// @notice Skip execution of the cipher portion of a batch.\n    /// @notice This is only possible if successful execution has not been carried out in time\n    ///     (according to the execution timeout defined in the config)\n    function skipCipherExecution(uint64 batchIndex) external {\n        require(\n            numExecutionHalfSteps / 2 == batchIndex,\n            \"ExecutorContract: unexpected batch index\"\n        );\n\n        require(\n            numExecutionHalfSteps % 2 == 0,\n            \"ExecutorContract: unexpected half step\"\n        );\n\n        uint64 configIndex =\n            configContract.configIndexForBatchIndex(batchIndex);\n        require(\n            configContract.batchingActive(configIndex),\n            \"ExecutorContract: config is inactive\"\n        );\n        (, , uint64 executionTimeout) =\n            configContract.batchBoundaryBlocks(configIndex, batchIndex);\n        require(\n            block.number >= executionTimeout,\n            \"ExecutorContract: execution timeout not reached yet\"\n        );\n\n        numExecutionHalfSteps++;\n\n        emit CipherExecutionSkipped(numExecutionHalfSteps);\n    }\n\n    /// @notice Execute the plaintext portion of a batch.\n    /// @param batchIndex The index of the batch\n    /// @param transactions The array of plaintext transactions in the batch.\n    /// @notice This is a trustless operation since `transactions` will be checked against the\n    ///     (plaintext) batch hash from the batcher contract.\n    function executePlainBatch(uint64 batchIndex, bytes[] calldata transactions)\n        external\n    {\n        require(\n            numExecutionHalfSteps / 2 == batchIndex,\n            \"ExecutorContract: unexpected batch index\"\n        );\n        require(\n            numExecutionHalfSteps % 2 == 1,\n            \"ExecutorContract: unexpected half step\"\n        );\n\n        uint64 configIndex =\n            configContract.configIndexForBatchIndex(batchIndex);\n        address targetAddress = configContract.configTargetAddress(configIndex);\n        bytes4 targetFunctionSelector =\n            configContract.configTargetFunctionSelector(configIndex);\n        uint64 transactionGasLimit =\n            configContract.configTransactionGasLimit(configIndex);\n\n        // Since the cipher part of the batch has already been executed or skipped and the\n        // config cannot be changed anymore (since the batching period is over), the following\n        // checks remain true.\n        assert(configContract.batchingActive(configIndex));\n        (, uint64 end, ) =\n            configContract.batchBoundaryBlocks(configIndex, batchIndex);\n        assert(block.number >= end);\n\n        bytes32 batchHash =\n            executeTransactions(\n                targetAddress,\n                targetFunctionSelector,\n                transactionGasLimit,\n                transactions\n            );\n\n        require(\n            batchHash ==\n                batcherContract.batchHashes(batchIndex, TransactionType.Plain),\n            \"ExecutorContract: batch hash does not match\"\n        );\n\n        numExecutionHalfSteps++;\n\n        emit BatchExecuted(numExecutionHalfSteps, batchHash);\n    }\n\n    function executeTransactions(\n        address targetAddress,\n        bytes4 targetFunctionSelector,\n        uint64 gasLimit,\n        bytes[] calldata transactions\n    ) private returns (bytes32) {\n        bytes32 batchHash;\n        for (uint64 i = 0; i < transactions.length; i++) {\n            bytes memory callData =\n                abi.encodeWithSelector(targetFunctionSelector, transactions[i]);\n\n            // call target function, ignoring any errors\n            (bool success, bytes memory returnData) =\n                targetAddress.call{gas: gasLimit}(callData);\n            if (!success) {\n                emit TransactionFailed({\n                    txIndex: i,\n                    txHash: keccak256(transactions[i]),\n                    data: returnData\n                });\n            }\n\n            batchHash = keccak256(abi.encodePacked(transactions[i], batchHash));\n        }\n        return batchHash;\n    }\n\n    function getReceipt(uint64 halfStep)\n        public\n        view\n        returns (CipherExecutionReceipt memory)\n    {\n        return cipherExecutionReceipts[halfStep];\n    }\n}\n",
  "sourcePath": "contracts/ExecutorContract.sol",
  "type": "contract"
}