{
  "abi": [
    {
      "inputs": [
        {
          "internalType": "address",
          "name": "configContractAddress",
          "type": "address"
        }
      ],
      "stateMutability": "nonpayable",
      "type": "constructor"
    },
    {
      "anonymous": false,
      "inputs": [
        {
          "indexed": true,
          "internalType": "address",
          "name": "keyper",
          "type": "address"
        },
        {
          "indexed": false,
          "internalType": "uint64",
          "name": "startBatchIndex",
          "type": "uint64"
        },
        {
          "indexed": false,
          "internalType": "bytes",
          "name": "key",
          "type": "bytes"
        },
        {
          "indexed": false,
          "internalType": "uint64",
          "name": "numVotes",
          "type": "uint64"
        }
      ],
      "name": "Voted",
      "type": "event"
    },
    {
      "inputs": [
        {
          "internalType": "uint64",
          "name": "startBatchIndex",
          "type": "uint64"
        }
      ],
      "name": "getBestKey",
      "outputs": [
        {
          "internalType": "bytes",
          "name": "",
          "type": "bytes"
        }
      ],
      "stateMutability": "view",
      "type": "function"
    },
    {
      "inputs": [
        {
          "internalType": "uint64",
          "name": "startBatchIndex",
          "type": "uint64"
        }
      ],
      "name": "getBestKeyHash",
      "outputs": [
        {
          "internalType": "bytes32",
          "name": "",
          "type": "bytes32"
        }
      ],
      "stateMutability": "view",
      "type": "function"
    },
    {
      "inputs": [
        {
          "internalType": "uint64",
          "name": "startBatchIndex",
          "type": "uint64"
        }
      ],
      "name": "getBestKeyNumVotes",
      "outputs": [
        {
          "internalType": "uint256",
          "name": "",
          "type": "uint256"
        }
      ],
      "stateMutability": "view",
      "type": "function"
    },
    {
      "inputs": [],
      "name": "getConfigContract",
      "outputs": [
        {
          "internalType": "contract ConfigContract",
          "name": "",
          "type": "address"
        }
      ],
      "stateMutability": "view",
      "type": "function"
    },
    {
      "inputs": [
        {
          "internalType": "uint64",
          "name": "startBatchIndex",
          "type": "uint64"
        },
        {
          "internalType": "bytes",
          "name": "key",
          "type": "bytes"
        }
      ],
      "name": "getNumVotes",
      "outputs": [
        {
          "internalType": "uint64",
          "name": "",
          "type": "uint64"
        }
      ],
      "stateMutability": "view",
      "type": "function"
    },
    {
      "inputs": [
        {
          "internalType": "address",
          "name": "keyper",
          "type": "address"
        },
        {
          "internalType": "uint64",
          "name": "startBatchIndex",
          "type": "uint64"
        }
      ],
      "name": "hasVoted",
      "outputs": [
        {
          "internalType": "bool",
          "name": "",
          "type": "bool"
        }
      ],
      "stateMutability": "view",
      "type": "function"
    },
    {
      "inputs": [
        {
          "internalType": "uint64",
          "name": "keyperIndex",
          "type": "uint64"
        },
        {
          "internalType": "uint64",
          "name": "startBatchIndex",
          "type": "uint64"
        },
        {
          "internalType": "bytes",
          "name": "key",
          "type": "bytes"
        }
      ],
      "name": "vote",
      "outputs": [],
      "stateMutability": "nonpayable",
      "type": "function"
    }
  ],
  "bytecode": "608060405234801561001057600080fd5b50604051610c8e380380610c8e83398101604081905261002f91610054565b600080546001600160a01b0319166001600160a01b0392909216919091179055610082565b600060208284031215610065578081fd5b81516001600160a01b038116811461007b578182fd5b9392505050565b610bfd806100916000396000f3fe608060405234801561001057600080fd5b506004361061007d5760003560e01c806341ecda091161005b57806341ecda09146100e05780636b32c79514610100578063ab0a3ffe14610115578063cf1d7a0a146101285761007d565b80630e1c3a4a146100825780631845bf5c146100a05780632553600e146100c0575b600080fd5b61008a610148565b60405161009791906109ea565b60405180910390f35b6100b36100ae3660046108cc565b610157565b6040516100979190610b2d565b6100d36100ce3660046108a9565b610187565b60405161009791906109d7565b6100f36100ee3660046108a9565b61023d565b60405161009791906109ce565b61011361010e366004610919565b61025b565b005b6100f36101233660046108a9565b610535565b61013b61013636600461073a565b610550565b60405161009791906109c3565b6000546001600160a01b031690565b6001600160401b039182166000908152600260209081526040808320845194830194909420835292905220541690565b6001600160401b0381166000908152600460209081526040808320548352600382529182902080548351601f60026000196101006001861615020190931692909204918201849004840281018401909452808452606093928301828280156102305780601f1061020557610100808354040283529160200191610230565b820191906000526020600020905b81548152906001019060200180831161021357829003601f168201915b505050505090505b919050565b6001600160401b039081166000908152600560205260409020541690565b6000805460405163700465b160e11b81526001600160a01b039091169063e008cb629061028c908690600401610b2d565b60006040518083038186803b1580156102a457600080fd5b505afa1580156102b8573d6000803e3d6000fd5b505050506040513d6000823e601f3d908101601f191682016040526102e09190810190610772565b9050600081608001516001600160401b0316116103185760405162461bcd60e51b815260040161030f906109fe565b60405180910390fd5b806040015151846001600160401b0316106103455760405162461bcd60e51b815260040161030f90610a90565b8060400151846001600160401b03168151811061035e57fe5b60200260200101516001600160a01b0316336001600160a01b0316146103965760405162461bcd60e51b815260040161030f90610a46565b6001600160401b038316600090815260016020908152604080832033845290915290205460ff16156103da5760405162461bcd60e51b815260040161030f90610adf565b8151602080840191909120600081815260039092526040909120546002600019610100600184161502019091160415801561041457508251155b1561043a576000818152600360209081526040909120845161043892860190610583565b505b6001600160401b0384811660008181526002602090815260408083208684528252808320805485855260018085528386203387528552838620805460ff191682179055825467ffffffffffffffff19169188160180881691821790925594845260059092529091205490921610156104e8576001600160401b038581166000908152600560209081526040808320805467ffffffffffffffff19169486169490941790935560049052208290555b336001600160a01b03167f305124b6ec831bb4150eb1ddbd4e8cc4b95687b9a6258b110fd0e9865914b0bf86868460405161052593929190610b41565b60405180910390a2505050505050565b6001600160401b031660009081526004602052604090205490565b6001600160401b031660009081526001602090815260408083206001600160a01b03949094168352929052205460ff1690565b828054600181600116156101000203166002900490600052602060002090601f0160209004810192826105b957600085556105ff565b82601f106105d257805160ff19168380011785556105ff565b828001600101855582156105ff579182015b828111156105ff5782518255916020019190600101906105e4565b5061060b92915061060f565b5090565b5b8082111561060b5760008155600101610610565b805161023881610b9a565b600082601f83011261063f578081fd5b815160206001600160401b0382111561065457fe5b808202610662828201610b77565b83815282810190868401838801850189101561067c578687fd5b8693505b858410156106a757805161069381610b9a565b835260019390930192918401918401610680565b50979650505050505050565b80516001600160e01b03198116811461023857600080fd5b600082601f8301126106db578081fd5b81356001600160401b038111156106ee57fe5b610701601f8201601f1916602001610b77565b818152846020838601011115610715578283fd5b816020850160208301379081016020019190915292915050565b805161023881610bb2565b6000806040838503121561074c578182fd5b823561075781610b9a565b9150602083013561076781610bb2565b809150509250929050565b600060208284031215610783578081fd5b81516001600160401b0380821115610799578283fd5b81840191506101808083870312156107af578384fd5b6107b881610b77565b90506107c38361072f565b81526107d16020840161072f565b60208201526040830151828111156107e7578485fd5b6107f38782860161062f565b6040830152506108056060840161072f565b60608201526108166080840161072f565b608082015261082760a0840161072f565b60a082015261083860c0840161072f565b60c082015261084960e0840161072f565b60e0820152610100915061085e828401610624565b828201526101209150610872828401610624565b8282015261014091506108868284016106b3565b82820152610160915061089a82840161072f565b91810191909152949350505050565b6000602082840312156108ba578081fd5b81356108c581610bb2565b9392505050565b600080604083850312156108de578182fd5b82356108e981610bb2565b915060208301356001600160401b03811115610903578182fd5b61090f858286016106cb565b9150509250929050565b60008060006060848603121561092d578081fd5b833561093881610bb2565b9250602084013561094881610bb2565b915060408401356001600160401b03811115610962578182fd5b61096e868287016106cb565b9150509250925092565b60008151808452815b8181101561099d57602081850181015186830182015201610981565b818111156109ae5782602083870101525b50601f01601f19169290920160200192915050565b901515815260200190565b90815260200190565b6000602082526108c56020830184610978565b6001600160a01b0391909116815260200190565b60208082526028908201527f4b657942726f616463617374436f6e74726163743a20636f6e66696720697320604082015267696e61637469766560c01b606082015260800190565b6020808252602a908201527f4b657942726f616463617374436f6e74726163743a2073656e646572206973206040820152693737ba1035b2bcb832b960b11b606082015260800190565b6020808252602f908201527f4b657942726f616463617374436f6e74726163743a206b657970657220696e6460408201526e6578206f7574206f662072616e676560881b606082015260800190565b6020808252602e908201527f4b657942726f616463617374436f6e74726163743a206b65797065722068617360408201526d08185b1c9958591e481d9bdd195960921b606082015260800190565b6001600160401b0391909116815260200190565b60006001600160401b03808616835260606020840152610b646060840186610978565b9150808416604084015250949350505050565b6040518181016001600160401b0381118282101715610b9257fe5b604052919050565b6001600160a01b0381168114610baf57600080fd5b50565b6001600160401b0381168114610baf57600080fdfea26469706673582212206ef96524495771d568c7cf360035b7c280627ceed21ad801983ec8b7027fd9f864736f6c63430007060033",
  "bytecodeSha1": "c09b8f69cb1ee18560621fe164c6f9322554c920",
  "compiler": {
    "evm_version": "istanbul",
    "optimizer": {
      "enabled": true,
      "runs": 200
    },
    "version": "0.7.6+commit.7338295f"
  },
  "contractName": "KeyBroadcastContract",
  "language": "Solidity",
  "natspec": {
    "kind": "dev",
    "methods": {
      "vote(uint64,uint64,bytes)": {
        "notice": "Submit a vote.Can only be called by keypers defined in the config responsible for     `startBatchIndex`, and only once per `startBatchIndex`.",
        "params": {
          "key": "The eon public key to vote for.",
          "keyperIndex": "The index of the calling keyper in the batch config.",
          "startBatchIndex": "The index of the first batch for which the key should be used."
        }
      }
    },
    "title": "A contract that keypers can use to vote on eon public keys. For each eon public key     generated, the keypers are expected to submit one vote. The contract logs the number of     votes so that users can only pick keys once they have reached votes from enough keypers     and thus have confidence that the key is actually correct.",
    "version": 1
  },
  "opcodes": "PUSH1 0x80 PUSH1 0x40 MSTORE CALLVALUE DUP1 ISZERO PUSH2 0x10 JUMPI PUSH1 0x0 DUP1 REVERT JUMPDEST POP PUSH1 0x4 CALLDATASIZE LT PUSH2 0x7D JUMPI PUSH1 0x0 CALLDATALOAD PUSH1 0xE0 SHR DUP1 PUSH4 0x41ECDA09 GT PUSH2 0x5B JUMPI DUP1 PUSH4 0x41ECDA09 EQ PUSH2 0xE0 JUMPI DUP1 PUSH4 0x6B32C795 EQ PUSH2 0x100 JUMPI DUP1 PUSH4 0xAB0A3FFE EQ PUSH2 0x115 JUMPI DUP1 PUSH4 0xCF1D7A0A EQ PUSH2 0x128 JUMPI PUSH2 0x7D JUMP JUMPDEST DUP1 PUSH4 0xE1C3A4A EQ PUSH2 0x82 JUMPI DUP1 PUSH4 0x1845BF5C EQ PUSH2 0xA0 JUMPI DUP1 PUSH4 0x2553600E EQ PUSH2 0xC0 JUMPI JUMPDEST PUSH1 0x0 DUP1 REVERT JUMPDEST PUSH2 0x8A PUSH2 0x148 JUMP JUMPDEST PUSH1 0x40 MLOAD PUSH2 0x97 SWAP2 SWAP1 PUSH2 0x9EA JUMP JUMPDEST PUSH1 0x40 MLOAD DUP1 SWAP2 SUB SWAP1 RETURN JUMPDEST PUSH2 0xB3 PUSH2 0xAE CALLDATASIZE PUSH1 0x4 PUSH2 0x8CC JUMP JUMPDEST PUSH2 0x157 JUMP JUMPDEST PUSH1 0x40 MLOAD PUSH2 0x97 SWAP2 SWAP1 PUSH2 0xB2D JUMP JUMPDEST PUSH2 0xD3 PUSH2 0xCE CALLDATASIZE PUSH1 0x4 PUSH2 0x8A9 JUMP JUMPDEST PUSH2 0x187 JUMP JUMPDEST PUSH1 0x40 MLOAD PUSH2 0x97 SWAP2 SWAP1 PUSH2 0x9D7 JUMP JUMPDEST PUSH2 0xF3 PUSH2 0xEE CALLDATASIZE PUSH1 0x4 PUSH2 0x8A9 JUMP JUMPDEST PUSH2 0x23D JUMP JUMPDEST PUSH1 0x40 MLOAD PUSH2 0x97 SWAP2 SWAP1 PUSH2 0x9CE JUMP JUMPDEST PUSH2 0x113 PUSH2 0x10E CALLDATASIZE PUSH1 0x4 PUSH2 0x919 JUMP JUMPDEST PUSH2 0x25B JUMP JUMPDEST STOP JUMPDEST PUSH2 0xF3 PUSH2 0x123 CALLDATASIZE PUSH1 0x4 PUSH2 0x8A9 JUMP JUMPDEST PUSH2 0x535 JUMP JUMPDEST PUSH2 0x13B PUSH2 0x136 CALLDATASIZE PUSH1 0x4 PUSH2 0x73A JUMP JUMPDEST PUSH2 0x550 JUMP JUMPDEST PUSH1 0x40 MLOAD PUSH2 0x97 SWAP2 SWAP1 PUSH2 0x9C3 JUMP JUMPDEST PUSH1 0x0 SLOAD PUSH1 0x1 PUSH1 0x1 PUSH1 0xA0 SHL SUB AND SWAP1 JUMP JUMPDEST PUSH1 0x1 PUSH1 0x1 PUSH1 0x40 SHL SUB SWAP2 DUP3 AND PUSH1 0x0 SWAP1 DUP2 MSTORE PUSH1 0x2 PUSH1 0x20 SWAP1 DUP2 MSTORE PUSH1 0x40 DUP1 DUP4 KECCAK256 DUP5 MLOAD SWAP5 DUP4 ADD SWAP5 SWAP1 SWAP5 KECCAK256 DUP4 MSTORE SWAP3 SWAP1 MSTORE KECCAK256 SLOAD AND SWAP1 JUMP JUMPDEST PUSH1 0x1 PUSH1 0x1 PUSH1 0x40 SHL SUB DUP2 AND PUSH1 0x0 SWAP1 DUP2 MSTORE PUSH1 0x4 PUSH1 0x20 SWAP1 DUP2 MSTORE PUSH1 0x40 DUP1 DUP4 KECCAK256 SLOAD DUP4 MSTORE PUSH1 0x3 DUP3 MSTORE SWAP2 DUP3 SWAP1 KECCAK256 DUP1 SLOAD DUP4 MLOAD PUSH1 0x1F PUSH1 0x2 PUSH1 0x0 NOT PUSH2 0x100 PUSH1 0x1 DUP7 AND ISZERO MUL ADD SWAP1 SWAP4 AND SWAP3 SWAP1 SWAP3 DIV SWAP2 DUP3 ADD DUP5 SWAP1 DIV DUP5 MUL DUP2 ADD DUP5 ADD SWAP1 SWAP5 MSTORE DUP1 DUP5 MSTORE PUSH1 0x60 SWAP4 SWAP3 DUP4 ADD DUP3 DUP3 DUP1 ISZERO PUSH2 0x230 JUMPI DUP1 PUSH1 0x1F LT PUSH2 0x205 JUMPI PUSH2 0x100 DUP1 DUP4 SLOAD DIV MUL DUP4 MSTORE SWAP2 PUSH1 0x20 ADD SWAP2 PUSH2 0x230 JUMP JUMPDEST DUP3 ADD SWAP2 SWAP1 PUSH1 0x0 MSTORE PUSH1 0x20 PUSH1 0x0 KECCAK256 SWAP1 JUMPDEST DUP2 SLOAD DUP2 MSTORE SWAP1 PUSH1 0x1 ADD SWAP1 PUSH1 0x20 ADD DUP1 DUP4 GT PUSH2 0x213 JUMPI DUP3 SWAP1 SUB PUSH1 0x1F AND DUP3 ADD SWAP2 JUMPDEST POP POP POP POP POP SWAP1 POP JUMPDEST SWAP2 SWAP1 POP JUMP JUMPDEST PUSH1 0x1 PUSH1 0x1 PUSH1 0x40 SHL SUB SWAP1 DUP2 AND PUSH1 0x0 SWAP1 DUP2 MSTORE PUSH1 0x5 PUSH1 0x20 MSTORE PUSH1 0x40 SWAP1 KECCAK256 SLOAD AND SWAP1 JUMP JUMPDEST PUSH1 0x0 DUP1 SLOAD PUSH1 0x40 MLOAD PUSH4 0x700465B1 PUSH1 0xE1 SHL DUP2 MSTORE PUSH1 0x1 PUSH1 0x1 PUSH1 0xA0 SHL SUB SWAP1 SWAP2 AND SWAP1 PUSH4 0xE008CB62 SWAP1 PUSH2 0x28C SWAP1 DUP7 SWAP1 PUSH1 0x4 ADD PUSH2 0xB2D JUMP JUMPDEST PUSH1 0x0 PUSH1 0x40 MLOAD DUP1 DUP4 SUB DUP2 DUP7 DUP1 EXTCODESIZE ISZERO DUP1 ISZERO PUSH2 0x2A4 JUMPI PUSH1 0x0 DUP1 REVERT JUMPDEST POP GAS STATICCALL ISZERO DUP1 ISZERO PUSH2 0x2B8 JUMPI RETURNDATASIZE PUSH1 0x0 DUP1 RETURNDATACOPY RETURNDATASIZE PUSH1 0x0 REVERT JUMPDEST POP POP POP POP PUSH1 0x40 MLOAD RETURNDATASIZE PUSH1 0x0 DUP3 RETURNDATACOPY PUSH1 0x1F RETURNDATASIZE SWAP1 DUP2 ADD PUSH1 0x1F NOT AND DUP3 ADD PUSH1 0x40 MSTORE PUSH2 0x2E0 SWAP2 SWAP1 DUP2 ADD SWAP1 PUSH2 0x772 JUMP JUMPDEST SWAP1 POP PUSH1 0x0 DUP2 PUSH1 0x80 ADD MLOAD PUSH1 0x1 PUSH1 0x1 PUSH1 0x40 SHL SUB AND GT PUSH2 0x318 JUMPI PUSH1 0x40 MLOAD PUSH3 0x461BCD PUSH1 0xE5 SHL DUP2 MSTORE PUSH1 0x4 ADD PUSH2 0x30F SWAP1 PUSH2 0x9FE JUMP JUMPDEST PUSH1 0x40 MLOAD DUP1 SWAP2 SUB SWAP1 REVERT JUMPDEST DUP1 PUSH1 0x40 ADD MLOAD MLOAD DUP5 PUSH1 0x1 PUSH1 0x1 PUSH1 0x40 SHL SUB AND LT PUSH2 0x345 JUMPI PUSH1 0x40 MLOAD PUSH3 0x461BCD PUSH1 0xE5 SHL DUP2 MSTORE PUSH1 0x4 ADD PUSH2 0x30F SWAP1 PUSH2 0xA90 JUMP JUMPDEST DUP1 PUSH1 0x40 ADD MLOAD DUP5 PUSH1 0x1 PUSH1 0x1 PUSH1 0x40 SHL SUB AND DUP2 MLOAD DUP2 LT PUSH2 0x35E JUMPI INVALID JUMPDEST PUSH1 0x20 MUL PUSH1 0x20 ADD ADD MLOAD PUSH1 0x1 PUSH1 0x1 PUSH1 0xA0 SHL SUB AND CALLER PUSH1 0x1 PUSH1 0x1 PUSH1 0xA0 SHL SUB AND EQ PUSH2 0x396 JUMPI PUSH1 0x40 MLOAD PUSH3 0x461BCD PUSH1 0xE5 SHL DUP2 MSTORE PUSH1 0x4 ADD PUSH2 0x30F SWAP1 PUSH2 0xA46 JUMP JUMPDEST PUSH1 0x1 PUSH1 0x1 PUSH1 0x40 SHL SUB DUP4 AND PUSH1 0x0 SWAP1 DUP2 MSTORE PUSH1 0x1 PUSH1 0x20 SWAP1 DUP2 MSTORE PUSH1 0x40 DUP1 DUP4 KECCAK256 CALLER DUP5 MSTORE SWAP1 SWAP2 MSTORE SWAP1 KECCAK256 SLOAD PUSH1 0xFF AND ISZERO PUSH2 0x3DA JUMPI PUSH1 0x40 MLOAD PUSH3 0x461BCD PUSH1 0xE5 SHL DUP2 MSTORE PUSH1 0x4 ADD PUSH2 0x30F SWAP1 PUSH2 0xADF JUMP JUMPDEST DUP2 MLOAD PUSH1 0x20 DUP1 DUP5 ADD SWAP2 SWAP1 SWAP2 KECCAK256 PUSH1 0x0 DUP2 DUP2 MSTORE PUSH1 0x3 SWAP1 SWAP3 MSTORE PUSH1 0x40 SWAP1 SWAP2 KECCAK256 SLOAD PUSH1 0x2 PUSH1 0x0 NOT PUSH2 0x100 PUSH1 0x1 DUP5 AND ISZERO MUL ADD SWAP1 SWAP2 AND DIV ISZERO DUP1 ISZERO PUSH2 0x414 JUMPI POP DUP3 MLOAD ISZERO JUMPDEST ISZERO PUSH2 0x43A JUMPI PUSH1 0x0 DUP2 DUP2 MSTORE PUSH1 0x3 PUSH1 0x20 SWAP1 DUP2 MSTORE PUSH1 0x40 SWAP1 SWAP2 KECCAK256 DUP5 MLOAD PUSH2 0x438 SWAP3 DUP7 ADD SWAP1 PUSH2 0x583 JUMP JUMPDEST POP JUMPDEST PUSH1 0x1 PUSH1 0x1 PUSH1 0x40 SHL SUB DUP5 DUP2 AND PUSH1 0x0 DUP2 DUP2 MSTORE PUSH1 0x2 PUSH1 0x20 SWAP1 DUP2 MSTORE PUSH1 0x40 DUP1 DUP4 KECCAK256 DUP7 DUP5 MSTORE DUP3 MSTORE DUP1 DUP4 KECCAK256 DUP1 SLOAD DUP6 DUP6 MSTORE PUSH1 0x1 DUP1 DUP6 MSTORE DUP4 DUP7 KECCAK256 CALLER DUP8 MSTORE DUP6 MSTORE DUP4 DUP7 KECCAK256 DUP1 SLOAD PUSH1 0xFF NOT AND DUP3 OR SWAP1 SSTORE DUP3 SLOAD PUSH8 0xFFFFFFFFFFFFFFFF NOT AND SWAP2 DUP9 AND ADD DUP1 DUP9 AND SWAP2 DUP3 OR SWAP1 SWAP3 SSTORE SWAP5 DUP5 MSTORE PUSH1 0x5 SWAP1 SWAP3 MSTORE SWAP1 SWAP2 KECCAK256 SLOAD SWAP1 SWAP3 AND LT ISZERO PUSH2 0x4E8 JUMPI PUSH1 0x1 PUSH1 0x1 PUSH1 0x40 SHL SUB DUP6 DUP2 AND PUSH1 0x0 SWAP1 DUP2 MSTORE PUSH1 0x5 PUSH1 0x20 SWAP1 DUP2 MSTORE PUSH1 0x40 DUP1 DUP4 KECCAK256 DUP1 SLOAD PUSH8 0xFFFFFFFFFFFFFFFF NOT AND SWAP5 DUP7 AND SWAP5 SWAP1 SWAP5 OR SWAP1 SWAP4 SSTORE PUSH1 0x4 SWAP1 MSTORE KECCAK256 DUP3 SWAP1 SSTORE JUMPDEST CALLER PUSH1 0x1 PUSH1 0x1 PUSH1 0xA0 SHL SUB AND PUSH32 0x305124B6EC831BB4150EB1DDBD4E8CC4B95687B9A6258B110FD0E9865914B0BF DUP7 DUP7 DUP5 PUSH1 0x40 MLOAD PUSH2 0x525 SWAP4 SWAP3 SWAP2 SWAP1 PUSH2 0xB41 JUMP JUMPDEST PUSH1 0x40 MLOAD DUP1 SWAP2 SUB SWAP1 LOG2 POP POP POP POP POP POP JUMP JUMPDEST PUSH1 0x1 PUSH1 0x1 PUSH1 0x40 SHL SUB AND PUSH1 0x0 SWAP1 DUP2 MSTORE PUSH1 0x4 PUSH1 0x20 MSTORE PUSH1 0x40 SWAP1 KECCAK256 SLOAD SWAP1 JUMP JUMPDEST PUSH1 0x1 PUSH1 0x1 PUSH1 0x40 SHL SUB AND PUSH1 0x0 SWAP1 DUP2 MSTORE PUSH1 0x1 PUSH1 0x20 SWAP1 DUP2 MSTORE PUSH1 0x40 DUP1 DUP4 KECCAK256 PUSH1 0x1 PUSH1 0x1 PUSH1 0xA0 SHL SUB SWAP5 SWAP1 SWAP5 AND DUP4 MSTORE SWAP3 SWAP1 MSTORE KECCAK256 SLOAD PUSH1 0xFF AND SWAP1 JUMP JUMPDEST DUP3 DUP1 SLOAD PUSH1 0x1 DUP2 PUSH1 0x1 AND ISZERO PUSH2 0x100 MUL SUB AND PUSH1 0x2 SWAP1 DIV SWAP1 PUSH1 0x0 MSTORE PUSH1 0x20 PUSH1 0x0 KECCAK256 SWAP1 PUSH1 0x1F ADD PUSH1 0x20 SWAP1 DIV DUP2 ADD SWAP3 DUP3 PUSH2 0x5B9 JUMPI PUSH1 0x0 DUP6 SSTORE PUSH2 0x5FF JUMP JUMPDEST DUP3 PUSH1 0x1F LT PUSH2 0x5D2 JUMPI DUP1 MLOAD PUSH1 0xFF NOT AND DUP4 DUP1 ADD OR DUP6 SSTORE PUSH2 0x5FF JUMP JUMPDEST DUP3 DUP1 ADD PUSH1 0x1 ADD DUP6 SSTORE DUP3 ISZERO PUSH2 0x5FF JUMPI SWAP2 DUP3 ADD JUMPDEST DUP3 DUP2 GT ISZERO PUSH2 0x5FF JUMPI DUP3 MLOAD DUP3 SSTORE SWAP2 PUSH1 0x20 ADD SWAP2 SWAP1 PUSH1 0x1 ADD SWAP1 PUSH2 0x5E4 JUMP JUMPDEST POP PUSH2 0x60B SWAP3 SWAP2 POP PUSH2 0x60F JUMP JUMPDEST POP SWAP1 JUMP JUMPDEST JUMPDEST DUP1 DUP3 GT ISZERO PUSH2 0x60B JUMPI PUSH1 0x0 DUP2 SSTORE PUSH1 0x1 ADD PUSH2 0x610 JUMP JUMPDEST DUP1 MLOAD PUSH2 0x238 DUP2 PUSH2 0xB9A JUMP JUMPDEST PUSH1 0x0 DUP3 PUSH1 0x1F DUP4 ADD SLT PUSH2 0x63F JUMPI DUP1 DUP2 REVERT JUMPDEST DUP2 MLOAD PUSH1 0x20 PUSH1 0x1 PUSH1 0x1 PUSH1 0x40 SHL SUB DUP3 GT ISZERO PUSH2 0x654 JUMPI INVALID JUMPDEST DUP1 DUP3 MUL PUSH2 0x662 DUP3 DUP3 ADD PUSH2 0xB77 JUMP JUMPDEST DUP4 DUP2 MSTORE DUP3 DUP2 ADD SWAP1 DUP7 DUP5 ADD DUP4 DUP9 ADD DUP6 ADD DUP10 LT ISZERO PUSH2 0x67C JUMPI DUP7 DUP8 REVERT JUMPDEST DUP7 SWAP4 POP JUMPDEST DUP6 DUP5 LT ISZERO PUSH2 0x6A7 JUMPI DUP1 MLOAD PUSH2 0x693 DUP2 PUSH2 0xB9A JUMP JUMPDEST DUP4 MSTORE PUSH1 0x1 SWAP4 SWAP1 SWAP4 ADD SWAP3 SWAP2 DUP5 ADD SWAP2 DUP5 ADD PUSH2 0x680 JUMP JUMPDEST POP SWAP8 SWAP7 POP POP POP POP POP POP POP JUMP JUMPDEST DUP1 MLOAD PUSH1 0x1 PUSH1 0x1 PUSH1 0xE0 SHL SUB NOT DUP2 AND DUP2 EQ PUSH2 0x238 JUMPI PUSH1 0x0 DUP1 REVERT JUMPDEST PUSH1 0x0 DUP3 PUSH1 0x1F DUP4 ADD SLT PUSH2 0x6DB JUMPI DUP1 DUP2 REVERT JUMPDEST DUP2 CALLDATALOAD PUSH1 0x1 PUSH1 0x1 PUSH1 0x40 SHL SUB DUP2 GT ISZERO PUSH2 0x6EE JUMPI INVALID JUMPDEST PUSH2 0x701 PUSH1 0x1F DUP3 ADD PUSH1 0x1F NOT AND PUSH1 0x20 ADD PUSH2 0xB77 JUMP JUMPDEST DUP2 DUP2 MSTORE DUP5 PUSH1 0x20 DUP4 DUP7 ADD ADD GT ISZERO PUSH2 0x715 JUMPI DUP3 DUP4 REVERT JUMPDEST DUP2 PUSH1 0x20 DUP6 ADD PUSH1 0x20 DUP4 ADD CALLDATACOPY SWAP1 DUP2 ADD PUSH1 0x20 ADD SWAP2 SWAP1 SWAP2 MSTORE SWAP3 SWAP2 POP POP JUMP JUMPDEST DUP1 MLOAD PUSH2 0x238 DUP2 PUSH2 0xBB2 JUMP JUMPDEST PUSH1 0x0 DUP1 PUSH1 0x40 DUP4 DUP6 SUB SLT ISZERO PUSH2 0x74C JUMPI DUP2 DUP3 REVERT JUMPDEST DUP3 CALLDATALOAD PUSH2 0x757 DUP2 PUSH2 0xB9A JUMP JUMPDEST SWAP2 POP PUSH1 0x20 DUP4 ADD CALLDATALOAD PUSH2 0x767 DUP2 PUSH2 0xBB2 JUMP JUMPDEST DUP1 SWAP2 POP POP SWAP3 POP SWAP3 SWAP1 POP JUMP JUMPDEST PUSH1 0x0 PUSH1 0x20 DUP3 DUP5 SUB SLT ISZERO PUSH2 0x783 JUMPI DUP1 DUP2 REVERT JUMPDEST DUP2 MLOAD PUSH1 0x1 PUSH1 0x1 PUSH1 0x40 SHL SUB DUP1 DUP3 GT ISZERO PUSH2 0x799 JUMPI DUP3 DUP4 REVERT JUMPDEST DUP2 DUP5 ADD SWAP2 POP PUSH2 0x180 DUP1 DUP4 DUP8 SUB SLT ISZERO PUSH2 0x7AF JUMPI DUP4 DUP5 REVERT JUMPDEST PUSH2 0x7B8 DUP2 PUSH2 0xB77 JUMP JUMPDEST SWAP1 POP PUSH2 0x7C3 DUP4 PUSH2 0x72F JUMP JUMPDEST DUP2 MSTORE PUSH2 0x7D1 PUSH1 0x20 DUP5 ADD PUSH2 0x72F JUMP JUMPDEST PUSH1 0x20 DUP3 ADD MSTORE PUSH1 0x40 DUP4 ADD MLOAD DUP3 DUP2 GT ISZERO PUSH2 0x7E7 JUMPI DUP5 DUP6 REVERT JUMPDEST PUSH2 0x7F3 DUP8 DUP3 DUP7 ADD PUSH2 0x62F JUMP JUMPDEST PUSH1 0x40 DUP4 ADD MSTORE POP PUSH2 0x805 PUSH1 0x60 DUP5 ADD PUSH2 0x72F JUMP JUMPDEST PUSH1 0x60 DUP3 ADD MSTORE PUSH2 0x816 PUSH1 0x80 DUP5 ADD PUSH2 0x72F JUMP JUMPDEST PUSH1 0x80 DUP3 ADD MSTORE PUSH2 0x827 PUSH1 0xA0 DUP5 ADD PUSH2 0x72F JUMP JUMPDEST PUSH1 0xA0 DUP3 ADD MSTORE PUSH2 0x838 PUSH1 0xC0 DUP5 ADD PUSH2 0x72F JUMP JUMPDEST PUSH1 0xC0 DUP3 ADD MSTORE PUSH2 0x849 PUSH1 0xE0 DUP5 ADD PUSH2 0x72F JUMP JUMPDEST PUSH1 0xE0 DUP3 ADD MSTORE PUSH2 0x100 SWAP2 POP PUSH2 0x85E DUP3 DUP5 ADD PUSH2 0x624 JUMP JUMPDEST DUP3 DUP3 ADD MSTORE PUSH2 0x120 SWAP2 POP PUSH2 0x872 DUP3 DUP5 ADD PUSH2 0x624 JUMP JUMPDEST DUP3 DUP3 ADD MSTORE PUSH2 0x140 SWAP2 POP PUSH2 0x886 DUP3 DUP5 ADD PUSH2 0x6B3 JUMP JUMPDEST DUP3 DUP3 ADD MSTORE PUSH2 0x160 SWAP2 POP PUSH2 0x89A DUP3 DUP5 ADD PUSH2 0x72F JUMP JUMPDEST SWAP2 DUP2 ADD SWAP2 SWAP1 SWAP2 MSTORE SWAP5 SWAP4 POP POP POP POP JUMP JUMPDEST PUSH1 0x0 PUSH1 0x20 DUP3 DUP5 SUB SLT ISZERO PUSH2 0x8BA JUMPI DUP1 DUP2 REVERT JUMPDEST DUP2 CALLDATALOAD PUSH2 0x8C5 DUP2 PUSH2 0xBB2 JUMP JUMPDEST SWAP4 SWAP3 POP POP POP JUMP JUMPDEST PUSH1 0x0 DUP1 PUSH1 0x40 DUP4 DUP6 SUB SLT ISZERO PUSH2 0x8DE JUMPI DUP2 DUP3 REVERT JUMPDEST DUP3 CALLDATALOAD PUSH2 0x8E9 DUP2 PUSH2 0xBB2 JUMP JUMPDEST SWAP2 POP PUSH1 0x20 DUP4 ADD CALLDATALOAD PUSH1 0x1 PUSH1 0x1 PUSH1 0x40 SHL SUB DUP2 GT ISZERO PUSH2 0x903 JUMPI DUP2 DUP3 REVERT JUMPDEST PUSH2 0x90F DUP6 DUP3 DUP7 ADD PUSH2 0x6CB JUMP JUMPDEST SWAP2 POP POP SWAP3 POP SWAP3 SWAP1 POP JUMP JUMPDEST PUSH1 0x0 DUP1 PUSH1 0x0 PUSH1 0x60 DUP5 DUP7 SUB SLT ISZERO PUSH2 0x92D JUMPI DUP1 DUP2 REVERT JUMPDEST DUP4 CALLDATALOAD PUSH2 0x938 DUP2 PUSH2 0xBB2 JUMP JUMPDEST SWAP3 POP PUSH1 0x20 DUP5 ADD CALLDATALOAD PUSH2 0x948 DUP2 PUSH2 0xBB2 JUMP JUMPDEST SWAP2 POP PUSH1 0x40 DUP5 ADD CALLDATALOAD PUSH1 0x1 PUSH1 0x1 PUSH1 0x40 SHL SUB DUP2 GT ISZERO PUSH2 0x962 JUMPI DUP2 DUP3 REVERT JUMPDEST PUSH2 0x96E DUP7 DUP3 DUP8 ADD PUSH2 0x6CB JUMP JUMPDEST SWAP2 POP POP SWAP3 POP SWAP3 POP SWAP3 JUMP JUMPDEST PUSH1 0x0 DUP2 MLOAD DUP1 DUP5 MSTORE DUP2 JUMPDEST DUP2 DUP2 LT ISZERO PUSH2 0x99D JUMPI PUSH1 0x20 DUP2 DUP6 ADD DUP2 ADD MLOAD DUP7 DUP4 ADD DUP3 ADD MSTORE ADD PUSH2 0x981 JUMP JUMPDEST DUP2 DUP2 GT ISZERO PUSH2 0x9AE JUMPI DUP3 PUSH1 0x20 DUP4 DUP8 ADD ADD MSTORE JUMPDEST POP PUSH1 0x1F ADD PUSH1 0x1F NOT AND SWAP3 SWAP1 SWAP3 ADD PUSH1 0x20 ADD SWAP3 SWAP2 POP POP JUMP JUMPDEST SWAP1 ISZERO ISZERO DUP2 MSTORE PUSH1 0x20 ADD SWAP1 JUMP JUMPDEST SWAP1 DUP2 MSTORE PUSH1 0x20 ADD SWAP1 JUMP JUMPDEST PUSH1 0x0 PUSH1 0x20 DUP3 MSTORE PUSH2 0x8C5 PUSH1 0x20 DUP4 ADD DUP5 PUSH2 0x978 JUMP JUMPDEST PUSH1 0x1 PUSH1 0x1 PUSH1 0xA0 SHL SUB SWAP2 SWAP1 SWAP2 AND DUP2 MSTORE PUSH1 0x20 ADD SWAP1 JUMP JUMPDEST PUSH1 0x20 DUP1 DUP3 MSTORE PUSH1 0x28 SWAP1 DUP3 ADD MSTORE PUSH32 0x4B657942726F616463617374436F6E74726163743A20636F6E66696720697320 PUSH1 0x40 DUP3 ADD MSTORE PUSH8 0x696E616374697665 PUSH1 0xC0 SHL PUSH1 0x60 DUP3 ADD MSTORE PUSH1 0x80 ADD SWAP1 JUMP JUMPDEST PUSH1 0x20 DUP1 DUP3 MSTORE PUSH1 0x2A SWAP1 DUP3 ADD MSTORE PUSH32 0x4B657942726F616463617374436F6E74726163743A2073656E64657220697320 PUSH1 0x40 DUP3 ADD MSTORE PUSH10 0x3737BA1035B2BCB832B9 PUSH1 0xB1 SHL PUSH1 0x60 DUP3 ADD MSTORE PUSH1 0x80 ADD SWAP1 JUMP JUMPDEST PUSH1 0x20 DUP1 DUP3 MSTORE PUSH1 0x2F SWAP1 DUP3 ADD MSTORE PUSH32 0x4B657942726F616463617374436F6E74726163743A206B657970657220696E64 PUSH1 0x40 DUP3 ADD MSTORE PUSH15 0x6578206F7574206F662072616E6765 PUSH1 0x88 SHL PUSH1 0x60 DUP3 ADD MSTORE PUSH1 0x80 ADD SWAP1 JUMP JUMPDEST PUSH1 0x20 DUP1 DUP3 MSTORE PUSH1 0x2E SWAP1 DUP3 ADD MSTORE PUSH32 0x4B657942726F616463617374436F6E74726163743A206B657970657220686173 PUSH1 0x40 DUP3 ADD MSTORE PUSH14 0x8185B1C9958591E481D9BDD1959 PUSH1 0x92 SHL PUSH1 0x60 DUP3 ADD MSTORE PUSH1 0x80 ADD SWAP1 JUMP JUMPDEST PUSH1 0x1 PUSH1 0x1 PUSH1 0x40 SHL SUB SWAP2 SWAP1 SWAP2 AND DUP2 MSTORE PUSH1 0x20 ADD SWAP1 JUMP JUMPDEST PUSH1 0x0 PUSH1 0x1 PUSH1 0x1 PUSH1 0x40 SHL SUB DUP1 DUP7 AND DUP4 MSTORE PUSH1 0x60 PUSH1 0x20 DUP5 ADD MSTORE PUSH2 0xB64 PUSH1 0x60 DUP5 ADD DUP7 PUSH2 0x978 JUMP JUMPDEST SWAP2 POP DUP1 DUP5 AND PUSH1 0x40 DUP5 ADD MSTORE POP SWAP5 SWAP4 POP POP POP POP JUMP JUMPDEST PUSH1 0x40 MLOAD DUP2 DUP2 ADD PUSH1 0x1 PUSH1 0x1 PUSH1 0x40 SHL SUB DUP2 GT DUP3 DUP3 LT OR ISZERO PUSH2 0xB92 JUMPI INVALID JUMPDEST PUSH1 0x40 MSTORE SWAP2 SWAP1 POP JUMP JUMPDEST PUSH1 0x1 PUSH1 0x1 PUSH1 0xA0 SHL SUB DUP2 AND DUP2 EQ PUSH2 0xBAF JUMPI PUSH1 0x0 DUP1 REVERT JUMPDEST POP JUMP JUMPDEST PUSH1 0x1 PUSH1 0x1 PUSH1 0x40 SHL SUB DUP2 AND DUP2 EQ PUSH2 0xBAF JUMPI PUSH1 0x0 DUP1 REVERT INVALID LOG2 PUSH5 0x6970667358 0x22 SLT KECCAK256 PUSH15 0xF96524495771D568C7CF360035B7C2 DUP1 PUSH3 0x7CEED2 BYTE 0xD8 ADD SWAP9 RETURNDATACOPY 0xC8 0xB7 MUL PUSH32 0xD9F864736F6C6343000706003300000000000000000000000000000000000000 ",
  "sha1": "098591f6087cc75198468acfec76889b990fc006",
  "source": "// SPDX-License-Identifier: MIT\n\npragma solidity >=0.7.0 <0.8.0;\npragma experimental ABIEncoderV2;\n\nimport {ConfigContract, BatchConfig} from \"./ConfigContract.sol\";\n\n/// @title A contract that keypers can use to vote on eon public keys. For each eon public key\n///     generated, the keypers are expected to submit one vote. The contract logs the number of\n///     votes so that users can only pick keys once they have reached votes from enough keypers\n///     and thus have confidence that the key is actually correct.\ncontract KeyBroadcastContract {\n    /// @notice The event emitted when a keyper voted on an eon key.\n    /// @param keyper The address of the keyper who sent the vote.\n    /// @param startBatchIndex The index of the first batch for which the key should be used.\n    /// @param key The eon public key for which the keyper voted.\n    /// @param numVotes The number of keypers (including this one) who have voted for the key so\n    ///     far.\n    event Voted(\n        address indexed keyper,\n        uint64 startBatchIndex,\n        bytes key,\n        uint64 numVotes\n    );\n\n    ConfigContract private _configContract;\n    mapping(uint64 => mapping(address => bool)) private _voted; // start batch index => keyper => voted or not\n    mapping(uint64 => mapping(bytes32 => uint64)) private _numVotes; // start batch index => key hash => number of votes\n    mapping(bytes32 => bytes) private _keys; // key hash => key\n\n    mapping(uint64 => bytes32) private _bestKeyHashes;\n    mapping(uint64 => uint64) private _bestKeyNumVotes;\n\n    constructor(address configContractAddress) {\n        _configContract = ConfigContract(configContractAddress);\n    }\n\n    /// @notice Submit a vote.\n    /// @notice Can only be called by keypers defined in the config responsible for\n    ///     `startBatchIndex`, and only once per `startBatchIndex`.\n    /// @param keyperIndex The index of the calling keyper in the batch config.\n    /// @param startBatchIndex The index of the first batch for which the key should be used.\n    /// @param key The eon public key to vote for.\n    function vote(\n        uint64 keyperIndex,\n        uint64 startBatchIndex,\n        bytes memory key\n    ) public {\n        BatchConfig memory config = _configContract.getConfig(startBatchIndex);\n        require(\n            config.batchSpan > 0,\n            \"KeyBroadcastContract: config is inactive\"\n        );\n\n        require(\n            keyperIndex < config.keypers.length,\n            \"KeyBroadcastContract: keyper index out of range\"\n        );\n        require(\n            msg.sender == config.keypers[keyperIndex],\n            \"KeyBroadcastContract: sender is not keyper\"\n        );\n\n        require(\n            !_voted[startBatchIndex][msg.sender],\n            \"KeyBroadcastContract: keyper has already voted\"\n        );\n\n        bytes32 keyHash = keccak256(key);\n        // store the key if it hasn't already\n        if (_keys[keyHash].length == 0 && key.length == 0) {\n            _keys[keyHash] = key;\n        }\n\n        // count vote\n        uint64 numVotes = _numVotes[startBatchIndex][keyHash] + 1;\n        _voted[startBatchIndex][msg.sender] = true;\n        _numVotes[startBatchIndex][keyHash] = numVotes;\n\n        if (numVotes > _bestKeyNumVotes[startBatchIndex]) {\n            _bestKeyNumVotes[startBatchIndex] = numVotes;\n            _bestKeyHashes[startBatchIndex] = keyHash;\n        }\n\n        emit Voted({\n            keyper: msg.sender,\n            startBatchIndex: startBatchIndex,\n            key: key,\n            numVotes: numVotes\n        });\n    }\n\n    function getConfigContract() public view returns (ConfigContract) {\n        return _configContract;\n    }\n\n    function hasVoted(address keyper, uint64 startBatchIndex)\n        public\n        view\n        returns (bool)\n    {\n        return _voted[startBatchIndex][keyper];\n    }\n\n    function getNumVotes(uint64 startBatchIndex, bytes memory key)\n        public\n        view\n        returns (uint64)\n    {\n        return _numVotes[startBatchIndex][keccak256(key)];\n    }\n\n    function getBestKeyHash(uint64 startBatchIndex)\n        public\n        view\n        returns (bytes32)\n    {\n        return _bestKeyHashes[startBatchIndex];\n    }\n\n    function getBestKey(uint64 startBatchIndex)\n        public\n        view\n        returns (bytes memory)\n    {\n        return _keys[_bestKeyHashes[startBatchIndex]];\n    }\n\n    function getBestKeyNumVotes(uint64 startBatchIndex)\n        public\n        view\n        returns (uint256)\n    {\n        return _bestKeyNumVotes[startBatchIndex];\n    }\n}\n",
  "sourcePath": "contracts/KeyBroadcastContract.sol",
  "type": "contract"
}