{
  "abi": [
    {
      "inputs": [
        {
          "internalType": "address",
          "name": "configContractAddress",
          "type": "address"
        }
      ],
      "stateMutability": "nonpayable",
      "type": "constructor"
    },
    {
      "anonymous": false,
      "inputs": [
        {
          "indexed": true,
          "internalType": "address",
          "name": "keyper",
          "type": "address"
        },
        {
          "indexed": false,
          "internalType": "uint64",
          "name": "startBatchIndex",
          "type": "uint64"
        },
        {
          "indexed": false,
          "internalType": "bytes",
          "name": "key",
          "type": "bytes"
        },
        {
          "indexed": false,
          "internalType": "uint64",
          "name": "numVotes",
          "type": "uint64"
        }
      ],
      "name": "Voted",
      "type": "event"
    },
    {
      "inputs": [
        {
          "internalType": "uint64",
          "name": "startBatchIndex",
          "type": "uint64"
        }
      ],
      "name": "getBestKey",
      "outputs": [
        {
          "internalType": "bytes",
          "name": "",
          "type": "bytes"
        }
      ],
      "stateMutability": "view",
      "type": "function"
    },
    {
      "inputs": [
        {
          "internalType": "uint64",
          "name": "startBatchIndex",
          "type": "uint64"
        }
      ],
      "name": "getBestKeyNumVotes",
      "outputs": [
        {
          "internalType": "uint256",
          "name": "",
          "type": "uint256"
        }
      ],
      "stateMutability": "view",
      "type": "function"
    },
    {
      "inputs": [],
      "name": "getConfigContract",
      "outputs": [
        {
          "internalType": "contract ConfigContract",
          "name": "",
          "type": "address"
        }
      ],
      "stateMutability": "view",
      "type": "function"
    },
    {
      "inputs": [
        {
          "internalType": "uint64",
          "name": "startBatchIndex",
          "type": "uint64"
        },
        {
          "internalType": "bytes",
          "name": "key",
          "type": "bytes"
        }
      ],
      "name": "getNumVotes",
      "outputs": [
        {
          "internalType": "uint64",
          "name": "",
          "type": "uint64"
        }
      ],
      "stateMutability": "view",
      "type": "function"
    },
    {
      "inputs": [
        {
          "internalType": "address",
          "name": "keyper",
          "type": "address"
        },
        {
          "internalType": "uint64",
          "name": "startBatchIndex",
          "type": "uint64"
        }
      ],
      "name": "hasVoted",
      "outputs": [
        {
          "internalType": "bool",
          "name": "",
          "type": "bool"
        }
      ],
      "stateMutability": "view",
      "type": "function"
    },
    {
      "inputs": [
        {
          "internalType": "uint64",
          "name": "keyperIndex",
          "type": "uint64"
        },
        {
          "internalType": "uint64",
          "name": "startBatchIndex",
          "type": "uint64"
        },
        {
          "internalType": "bytes",
          "name": "key",
          "type": "bytes"
        }
      ],
      "name": "vote",
      "outputs": [],
      "stateMutability": "nonpayable",
      "type": "function"
    }
  ],
  "bytecode": "608060405234801561001057600080fd5b50604051610c45380380610c4583398101604081905261002f91610054565b600080546001600160a01b0319166001600160a01b0392909216919091179055610082565b600060208284031215610065578081fd5b81516001600160a01b038116811461007b578182fd5b9392505050565b610bb4806100916000396000f3fe608060405234801561001057600080fd5b50600436106100625760003560e01c80630e1c3a4a146100675780631845bf5c146100855780632553600e146100a557806341ecda09146100c55780636b32c795146100e5578063cf1d7a0a146100fa575b600080fd5b61006f61011a565b60405161007c9190610998565b60405180910390f35b610098610093366004610883565b610129565b60405161007c9190610ae4565b6100b86100b3366004610860565b610159565b60405161007c9190610985565b6100d86100d3366004610860565b61020f565b60405161007c9190610adb565b6100f86100f33660046108d0565b61022d565b005b61010d6101083660046106f1565b610507565b60405161007c919061097a565b6000546001600160a01b031690565b6001600160401b039182166000908152600260209081526040808320845194830194909420835292905220541690565b6001600160401b0381166000908152600460209081526040808320548352600382529182902080548351601f60026000196101006001861615020190931692909204918201849004840281018401909452808452606093928301828280156102025780601f106101d757610100808354040283529160200191610202565b820191906000526020600020905b8154815290600101906020018083116101e557829003601f168201915b505050505090505b919050565b6001600160401b039081166000908152600560205260409020541690565b6000805460405163700465b160e11b81526001600160a01b039091169063e008cb629061025e908690600401610ae4565b60006040518083038186803b15801561027657600080fd5b505afa15801561028a573d6000803e3d6000fd5b505050506040513d6000823e601f3d908101601f191682016040526102b29190810190610729565b9050600081608001516001600160401b0316116102ea5760405162461bcd60e51b81526004016102e1906109ac565b60405180910390fd5b806040015151846001600160401b0316106103175760405162461bcd60e51b81526004016102e190610a3e565b8060400151846001600160401b03168151811061033057fe5b60200260200101516001600160a01b0316336001600160a01b0316146103685760405162461bcd60e51b81526004016102e1906109f4565b6001600160401b038316600090815260016020908152604080832033845290915290205460ff16156103ac5760405162461bcd60e51b81526004016102e190610a8d565b815160208084019190912060008181526003909252604090912054600260001961010060018416150201909116041580156103e657508251155b1561040c576000818152600360209081526040909120845161040a9286019061053a565b505b6001600160401b0384811660008181526002602090815260408083208684528252808320805485855260018085528386203387528552838620805460ff191682179055825467ffffffffffffffff19169188160180881691821790925594845260059092529091205490921610156104ba576001600160401b038581166000908152600560209081526040808320805467ffffffffffffffff19169486169490941790935560049052208290555b336001600160a01b03167f305124b6ec831bb4150eb1ddbd4e8cc4b95687b9a6258b110fd0e9865914b0bf8686846040516104f793929190610af8565b60405180910390a2505050505050565b6001600160401b031660009081526001602090815260408083206001600160a01b03949094168352929052205460ff1690565b828054600181600116156101000203166002900490600052602060002090601f01602090048101928261057057600085556105b6565b82601f1061058957805160ff19168380011785556105b6565b828001600101855582156105b6579182015b828111156105b657825182559160200191906001019061059b565b506105c29291506105c6565b5090565b5b808211156105c257600081556001016105c7565b805161020a81610b51565b600082601f8301126105f6578081fd5b815160206001600160401b0382111561060b57fe5b808202610619828201610b2e565b838152828101908684018388018501891015610633578687fd5b8693505b8584101561065e57805161064a81610b51565b835260019390930192918401918401610637565b50979650505050505050565b80516001600160e01b03198116811461020a57600080fd5b600082601f830112610692578081fd5b81356001600160401b038111156106a557fe5b6106b8601f8201601f1916602001610b2e565b8181528460208386010111156106cc578283fd5b816020850160208301379081016020019190915292915050565b805161020a81610b69565b60008060408385031215610703578182fd5b823561070e81610b51565b9150602083013561071e81610b69565b809150509250929050565b60006020828403121561073a578081fd5b81516001600160401b0380821115610750578283fd5b8184019150610180808387031215610766578384fd5b61076f81610b2e565b905061077a836106e6565b8152610788602084016106e6565b602082015260408301518281111561079e578485fd5b6107aa878286016105e6565b6040830152506107bc606084016106e6565b60608201526107cd608084016106e6565b60808201526107de60a084016106e6565b60a08201526107ef60c084016106e6565b60c082015261080060e084016106e6565b60e082015261010091506108158284016105db565b8282015261012091506108298284016105db565b82820152610140915061083d82840161066a565b8282015261016091506108518284016106e6565b91810191909152949350505050565b600060208284031215610871578081fd5b813561087c81610b69565b9392505050565b60008060408385031215610895578182fd5b82356108a081610b69565b915060208301356001600160401b038111156108ba578182fd5b6108c685828601610682565b9150509250929050565b6000806000606084860312156108e4578081fd5b83356108ef81610b69565b925060208401356108ff81610b69565b915060408401356001600160401b03811115610919578182fd5b61092586828701610682565b9150509250925092565b60008151808452815b8181101561095457602081850181015186830182015201610938565b818111156109655782602083870101525b50601f01601f19169290920160200192915050565b901515815260200190565b60006020825261087c602083018461092f565b6001600160a01b0391909116815260200190565b60208082526028908201527f4b657942726f616463617374436f6e74726163743a20636f6e66696720697320604082015267696e61637469766560c01b606082015260800190565b6020808252602a908201527f4b657942726f616463617374436f6e74726163743a2073656e646572206973206040820152693737ba1035b2bcb832b960b11b606082015260800190565b6020808252602f908201527f4b657942726f616463617374436f6e74726163743a206b657970657220696e6460408201526e6578206f7574206f662072616e676560881b606082015260800190565b6020808252602e908201527f4b657942726f616463617374436f6e74726163743a206b65797065722068617360408201526d08185b1c9958591e481d9bdd195960921b606082015260800190565b90815260200190565b6001600160401b0391909116815260200190565b60006001600160401b03808616835260606020840152610b1b606084018661092f565b9150808416604084015250949350505050565b6040518181016001600160401b0381118282101715610b4957fe5b604052919050565b6001600160a01b0381168114610b6657600080fd5b50565b6001600160401b0381168114610b6657600080fdfea264697066735822122091bcfcf1bbbeefc02e35083aee87b77f89114eb432675de00c85821ab05d5fb264736f6c63430007060033",
  "bytecodeSha1": "bb31dad50dd125001d4aa7cfa69e6de18349a176",
  "compiler": {
    "evm_version": "istanbul",
    "optimizer": {
      "enabled": true,
      "runs": 200
    },
    "version": "0.7.6+commit.7338295f"
  },
  "contractName": "KeyBroadcastContract",
  "language": "Solidity",
  "natspec": {
    "kind": "dev",
    "methods": {
      "vote(uint64,uint64,bytes)": {
        "notice": "Submit a vote.Can only be called by keypers defined in the config responsible for     `startBatchIndex`, and only once per `startBatchIndex`.",
        "params": {
          "key": "The eon public key to vote for.",
          "keyperIndex": "The index of the calling keyper in the batch config.",
          "startBatchIndex": "The index of the first batch for which the key should be used."
        }
      }
    },
    "title": "A contract that keypers can use to vote on eon public keys. For each eon public key     generated, the keypers are expected to submit one vote. The contract logs the number of     votes so that users can only pick keys once they have reached votes from enough keypers     and thus have confidence that the key is actually correct.",
    "version": 1
  },
  "opcodes": "PUSH1 0x80 PUSH1 0x40 MSTORE CALLVALUE DUP1 ISZERO PUSH2 0x10 JUMPI PUSH1 0x0 DUP1 REVERT JUMPDEST POP PUSH1 0x4 CALLDATASIZE LT PUSH2 0x62 JUMPI PUSH1 0x0 CALLDATALOAD PUSH1 0xE0 SHR DUP1 PUSH4 0xE1C3A4A EQ PUSH2 0x67 JUMPI DUP1 PUSH4 0x1845BF5C EQ PUSH2 0x85 JUMPI DUP1 PUSH4 0x2553600E EQ PUSH2 0xA5 JUMPI DUP1 PUSH4 0x41ECDA09 EQ PUSH2 0xC5 JUMPI DUP1 PUSH4 0x6B32C795 EQ PUSH2 0xE5 JUMPI DUP1 PUSH4 0xCF1D7A0A EQ PUSH2 0xFA JUMPI JUMPDEST PUSH1 0x0 DUP1 REVERT JUMPDEST PUSH2 0x6F PUSH2 0x11A JUMP JUMPDEST PUSH1 0x40 MLOAD PUSH2 0x7C SWAP2 SWAP1 PUSH2 0x998 JUMP JUMPDEST PUSH1 0x40 MLOAD DUP1 SWAP2 SUB SWAP1 RETURN JUMPDEST PUSH2 0x98 PUSH2 0x93 CALLDATASIZE PUSH1 0x4 PUSH2 0x883 JUMP JUMPDEST PUSH2 0x129 JUMP JUMPDEST PUSH1 0x40 MLOAD PUSH2 0x7C SWAP2 SWAP1 PUSH2 0xAE4 JUMP JUMPDEST PUSH2 0xB8 PUSH2 0xB3 CALLDATASIZE PUSH1 0x4 PUSH2 0x860 JUMP JUMPDEST PUSH2 0x159 JUMP JUMPDEST PUSH1 0x40 MLOAD PUSH2 0x7C SWAP2 SWAP1 PUSH2 0x985 JUMP JUMPDEST PUSH2 0xD8 PUSH2 0xD3 CALLDATASIZE PUSH1 0x4 PUSH2 0x860 JUMP JUMPDEST PUSH2 0x20F JUMP JUMPDEST PUSH1 0x40 MLOAD PUSH2 0x7C SWAP2 SWAP1 PUSH2 0xADB JUMP JUMPDEST PUSH2 0xF8 PUSH2 0xF3 CALLDATASIZE PUSH1 0x4 PUSH2 0x8D0 JUMP JUMPDEST PUSH2 0x22D JUMP JUMPDEST STOP JUMPDEST PUSH2 0x10D PUSH2 0x108 CALLDATASIZE PUSH1 0x4 PUSH2 0x6F1 JUMP JUMPDEST PUSH2 0x507 JUMP JUMPDEST PUSH1 0x40 MLOAD PUSH2 0x7C SWAP2 SWAP1 PUSH2 0x97A JUMP JUMPDEST PUSH1 0x0 SLOAD PUSH1 0x1 PUSH1 0x1 PUSH1 0xA0 SHL SUB AND SWAP1 JUMP JUMPDEST PUSH1 0x1 PUSH1 0x1 PUSH1 0x40 SHL SUB SWAP2 DUP3 AND PUSH1 0x0 SWAP1 DUP2 MSTORE PUSH1 0x2 PUSH1 0x20 SWAP1 DUP2 MSTORE PUSH1 0x40 DUP1 DUP4 KECCAK256 DUP5 MLOAD SWAP5 DUP4 ADD SWAP5 SWAP1 SWAP5 KECCAK256 DUP4 MSTORE SWAP3 SWAP1 MSTORE KECCAK256 SLOAD AND SWAP1 JUMP JUMPDEST PUSH1 0x1 PUSH1 0x1 PUSH1 0x40 SHL SUB DUP2 AND PUSH1 0x0 SWAP1 DUP2 MSTORE PUSH1 0x4 PUSH1 0x20 SWAP1 DUP2 MSTORE PUSH1 0x40 DUP1 DUP4 KECCAK256 SLOAD DUP4 MSTORE PUSH1 0x3 DUP3 MSTORE SWAP2 DUP3 SWAP1 KECCAK256 DUP1 SLOAD DUP4 MLOAD PUSH1 0x1F PUSH1 0x2 PUSH1 0x0 NOT PUSH2 0x100 PUSH1 0x1 DUP7 AND ISZERO MUL ADD SWAP1 SWAP4 AND SWAP3 SWAP1 SWAP3 DIV SWAP2 DUP3 ADD DUP5 SWAP1 DIV DUP5 MUL DUP2 ADD DUP5 ADD SWAP1 SWAP5 MSTORE DUP1 DUP5 MSTORE PUSH1 0x60 SWAP4 SWAP3 DUP4 ADD DUP3 DUP3 DUP1 ISZERO PUSH2 0x202 JUMPI DUP1 PUSH1 0x1F LT PUSH2 0x1D7 JUMPI PUSH2 0x100 DUP1 DUP4 SLOAD DIV MUL DUP4 MSTORE SWAP2 PUSH1 0x20 ADD SWAP2 PUSH2 0x202 JUMP JUMPDEST DUP3 ADD SWAP2 SWAP1 PUSH1 0x0 MSTORE PUSH1 0x20 PUSH1 0x0 KECCAK256 SWAP1 JUMPDEST DUP2 SLOAD DUP2 MSTORE SWAP1 PUSH1 0x1 ADD SWAP1 PUSH1 0x20 ADD DUP1 DUP4 GT PUSH2 0x1E5 JUMPI DUP3 SWAP1 SUB PUSH1 0x1F AND DUP3 ADD SWAP2 JUMPDEST POP POP POP POP POP SWAP1 POP JUMPDEST SWAP2 SWAP1 POP JUMP JUMPDEST PUSH1 0x1 PUSH1 0x1 PUSH1 0x40 SHL SUB SWAP1 DUP2 AND PUSH1 0x0 SWAP1 DUP2 MSTORE PUSH1 0x5 PUSH1 0x20 MSTORE PUSH1 0x40 SWAP1 KECCAK256 SLOAD AND SWAP1 JUMP JUMPDEST PUSH1 0x0 DUP1 SLOAD PUSH1 0x40 MLOAD PUSH4 0x700465B1 PUSH1 0xE1 SHL DUP2 MSTORE PUSH1 0x1 PUSH1 0x1 PUSH1 0xA0 SHL SUB SWAP1 SWAP2 AND SWAP1 PUSH4 0xE008CB62 SWAP1 PUSH2 0x25E SWAP1 DUP7 SWAP1 PUSH1 0x4 ADD PUSH2 0xAE4 JUMP JUMPDEST PUSH1 0x0 PUSH1 0x40 MLOAD DUP1 DUP4 SUB DUP2 DUP7 DUP1 EXTCODESIZE ISZERO DUP1 ISZERO PUSH2 0x276 JUMPI PUSH1 0x0 DUP1 REVERT JUMPDEST POP GAS STATICCALL ISZERO DUP1 ISZERO PUSH2 0x28A JUMPI RETURNDATASIZE PUSH1 0x0 DUP1 RETURNDATACOPY RETURNDATASIZE PUSH1 0x0 REVERT JUMPDEST POP POP POP POP PUSH1 0x40 MLOAD RETURNDATASIZE PUSH1 0x0 DUP3 RETURNDATACOPY PUSH1 0x1F RETURNDATASIZE SWAP1 DUP2 ADD PUSH1 0x1F NOT AND DUP3 ADD PUSH1 0x40 MSTORE PUSH2 0x2B2 SWAP2 SWAP1 DUP2 ADD SWAP1 PUSH2 0x729 JUMP JUMPDEST SWAP1 POP PUSH1 0x0 DUP2 PUSH1 0x80 ADD MLOAD PUSH1 0x1 PUSH1 0x1 PUSH1 0x40 SHL SUB AND GT PUSH2 0x2EA JUMPI PUSH1 0x40 MLOAD PUSH3 0x461BCD PUSH1 0xE5 SHL DUP2 MSTORE PUSH1 0x4 ADD PUSH2 0x2E1 SWAP1 PUSH2 0x9AC JUMP JUMPDEST PUSH1 0x40 MLOAD DUP1 SWAP2 SUB SWAP1 REVERT JUMPDEST DUP1 PUSH1 0x40 ADD MLOAD MLOAD DUP5 PUSH1 0x1 PUSH1 0x1 PUSH1 0x40 SHL SUB AND LT PUSH2 0x317 JUMPI PUSH1 0x40 MLOAD PUSH3 0x461BCD PUSH1 0xE5 SHL DUP2 MSTORE PUSH1 0x4 ADD PUSH2 0x2E1 SWAP1 PUSH2 0xA3E JUMP JUMPDEST DUP1 PUSH1 0x40 ADD MLOAD DUP5 PUSH1 0x1 PUSH1 0x1 PUSH1 0x40 SHL SUB AND DUP2 MLOAD DUP2 LT PUSH2 0x330 JUMPI INVALID JUMPDEST PUSH1 0x20 MUL PUSH1 0x20 ADD ADD MLOAD PUSH1 0x1 PUSH1 0x1 PUSH1 0xA0 SHL SUB AND CALLER PUSH1 0x1 PUSH1 0x1 PUSH1 0xA0 SHL SUB AND EQ PUSH2 0x368 JUMPI PUSH1 0x40 MLOAD PUSH3 0x461BCD PUSH1 0xE5 SHL DUP2 MSTORE PUSH1 0x4 ADD PUSH2 0x2E1 SWAP1 PUSH2 0x9F4 JUMP JUMPDEST PUSH1 0x1 PUSH1 0x1 PUSH1 0x40 SHL SUB DUP4 AND PUSH1 0x0 SWAP1 DUP2 MSTORE PUSH1 0x1 PUSH1 0x20 SWAP1 DUP2 MSTORE PUSH1 0x40 DUP1 DUP4 KECCAK256 CALLER DUP5 MSTORE SWAP1 SWAP2 MSTORE SWAP1 KECCAK256 SLOAD PUSH1 0xFF AND ISZERO PUSH2 0x3AC JUMPI PUSH1 0x40 MLOAD PUSH3 0x461BCD PUSH1 0xE5 SHL DUP2 MSTORE PUSH1 0x4 ADD PUSH2 0x2E1 SWAP1 PUSH2 0xA8D JUMP JUMPDEST DUP2 MLOAD PUSH1 0x20 DUP1 DUP5 ADD SWAP2 SWAP1 SWAP2 KECCAK256 PUSH1 0x0 DUP2 DUP2 MSTORE PUSH1 0x3 SWAP1 SWAP3 MSTORE PUSH1 0x40 SWAP1 SWAP2 KECCAK256 SLOAD PUSH1 0x2 PUSH1 0x0 NOT PUSH2 0x100 PUSH1 0x1 DUP5 AND ISZERO MUL ADD SWAP1 SWAP2 AND DIV ISZERO DUP1 ISZERO PUSH2 0x3E6 JUMPI POP DUP3 MLOAD ISZERO JUMPDEST ISZERO PUSH2 0x40C JUMPI PUSH1 0x0 DUP2 DUP2 MSTORE PUSH1 0x3 PUSH1 0x20 SWAP1 DUP2 MSTORE PUSH1 0x40 SWAP1 SWAP2 KECCAK256 DUP5 MLOAD PUSH2 0x40A SWAP3 DUP7 ADD SWAP1 PUSH2 0x53A JUMP JUMPDEST POP JUMPDEST PUSH1 0x1 PUSH1 0x1 PUSH1 0x40 SHL SUB DUP5 DUP2 AND PUSH1 0x0 DUP2 DUP2 MSTORE PUSH1 0x2 PUSH1 0x20 SWAP1 DUP2 MSTORE PUSH1 0x40 DUP1 DUP4 KECCAK256 DUP7 DUP5 MSTORE DUP3 MSTORE DUP1 DUP4 KECCAK256 DUP1 SLOAD DUP6 DUP6 MSTORE PUSH1 0x1 DUP1 DUP6 MSTORE DUP4 DUP7 KECCAK256 CALLER DUP8 MSTORE DUP6 MSTORE DUP4 DUP7 KECCAK256 DUP1 SLOAD PUSH1 0xFF NOT AND DUP3 OR SWAP1 SSTORE DUP3 SLOAD PUSH8 0xFFFFFFFFFFFFFFFF NOT AND SWAP2 DUP9 AND ADD DUP1 DUP9 AND SWAP2 DUP3 OR SWAP1 SWAP3 SSTORE SWAP5 DUP5 MSTORE PUSH1 0x5 SWAP1 SWAP3 MSTORE SWAP1 SWAP2 KECCAK256 SLOAD SWAP1 SWAP3 AND LT ISZERO PUSH2 0x4BA JUMPI PUSH1 0x1 PUSH1 0x1 PUSH1 0x40 SHL SUB DUP6 DUP2 AND PUSH1 0x0 SWAP1 DUP2 MSTORE PUSH1 0x5 PUSH1 0x20 SWAP1 DUP2 MSTORE PUSH1 0x40 DUP1 DUP4 KECCAK256 DUP1 SLOAD PUSH8 0xFFFFFFFFFFFFFFFF NOT AND SWAP5 DUP7 AND SWAP5 SWAP1 SWAP5 OR SWAP1 SWAP4 SSTORE PUSH1 0x4 SWAP1 MSTORE KECCAK256 DUP3 SWAP1 SSTORE JUMPDEST CALLER PUSH1 0x1 PUSH1 0x1 PUSH1 0xA0 SHL SUB AND PUSH32 0x305124B6EC831BB4150EB1DDBD4E8CC4B95687B9A6258B110FD0E9865914B0BF DUP7 DUP7 DUP5 PUSH1 0x40 MLOAD PUSH2 0x4F7 SWAP4 SWAP3 SWAP2 SWAP1 PUSH2 0xAF8 JUMP JUMPDEST PUSH1 0x40 MLOAD DUP1 SWAP2 SUB SWAP1 LOG2 POP POP POP POP POP POP JUMP JUMPDEST PUSH1 0x1 PUSH1 0x1 PUSH1 0x40 SHL SUB AND PUSH1 0x0 SWAP1 DUP2 MSTORE PUSH1 0x1 PUSH1 0x20 SWAP1 DUP2 MSTORE PUSH1 0x40 DUP1 DUP4 KECCAK256 PUSH1 0x1 PUSH1 0x1 PUSH1 0xA0 SHL SUB SWAP5 SWAP1 SWAP5 AND DUP4 MSTORE SWAP3 SWAP1 MSTORE KECCAK256 SLOAD PUSH1 0xFF AND SWAP1 JUMP JUMPDEST DUP3 DUP1 SLOAD PUSH1 0x1 DUP2 PUSH1 0x1 AND ISZERO PUSH2 0x100 MUL SUB AND PUSH1 0x2 SWAP1 DIV SWAP1 PUSH1 0x0 MSTORE PUSH1 0x20 PUSH1 0x0 KECCAK256 SWAP1 PUSH1 0x1F ADD PUSH1 0x20 SWAP1 DIV DUP2 ADD SWAP3 DUP3 PUSH2 0x570 JUMPI PUSH1 0x0 DUP6 SSTORE PUSH2 0x5B6 JUMP JUMPDEST DUP3 PUSH1 0x1F LT PUSH2 0x589 JUMPI DUP1 MLOAD PUSH1 0xFF NOT AND DUP4 DUP1 ADD OR DUP6 SSTORE PUSH2 0x5B6 JUMP JUMPDEST DUP3 DUP1 ADD PUSH1 0x1 ADD DUP6 SSTORE DUP3 ISZERO PUSH2 0x5B6 JUMPI SWAP2 DUP3 ADD JUMPDEST DUP3 DUP2 GT ISZERO PUSH2 0x5B6 JUMPI DUP3 MLOAD DUP3 SSTORE SWAP2 PUSH1 0x20 ADD SWAP2 SWAP1 PUSH1 0x1 ADD SWAP1 PUSH2 0x59B JUMP JUMPDEST POP PUSH2 0x5C2 SWAP3 SWAP2 POP PUSH2 0x5C6 JUMP JUMPDEST POP SWAP1 JUMP JUMPDEST JUMPDEST DUP1 DUP3 GT ISZERO PUSH2 0x5C2 JUMPI PUSH1 0x0 DUP2 SSTORE PUSH1 0x1 ADD PUSH2 0x5C7 JUMP JUMPDEST DUP1 MLOAD PUSH2 0x20A DUP2 PUSH2 0xB51 JUMP JUMPDEST PUSH1 0x0 DUP3 PUSH1 0x1F DUP4 ADD SLT PUSH2 0x5F6 JUMPI DUP1 DUP2 REVERT JUMPDEST DUP2 MLOAD PUSH1 0x20 PUSH1 0x1 PUSH1 0x1 PUSH1 0x40 SHL SUB DUP3 GT ISZERO PUSH2 0x60B JUMPI INVALID JUMPDEST DUP1 DUP3 MUL PUSH2 0x619 DUP3 DUP3 ADD PUSH2 0xB2E JUMP JUMPDEST DUP4 DUP2 MSTORE DUP3 DUP2 ADD SWAP1 DUP7 DUP5 ADD DUP4 DUP9 ADD DUP6 ADD DUP10 LT ISZERO PUSH2 0x633 JUMPI DUP7 DUP8 REVERT JUMPDEST DUP7 SWAP4 POP JUMPDEST DUP6 DUP5 LT ISZERO PUSH2 0x65E JUMPI DUP1 MLOAD PUSH2 0x64A DUP2 PUSH2 0xB51 JUMP JUMPDEST DUP4 MSTORE PUSH1 0x1 SWAP4 SWAP1 SWAP4 ADD SWAP3 SWAP2 DUP5 ADD SWAP2 DUP5 ADD PUSH2 0x637 JUMP JUMPDEST POP SWAP8 SWAP7 POP POP POP POP POP POP POP JUMP JUMPDEST DUP1 MLOAD PUSH1 0x1 PUSH1 0x1 PUSH1 0xE0 SHL SUB NOT DUP2 AND DUP2 EQ PUSH2 0x20A JUMPI PUSH1 0x0 DUP1 REVERT JUMPDEST PUSH1 0x0 DUP3 PUSH1 0x1F DUP4 ADD SLT PUSH2 0x692 JUMPI DUP1 DUP2 REVERT JUMPDEST DUP2 CALLDATALOAD PUSH1 0x1 PUSH1 0x1 PUSH1 0x40 SHL SUB DUP2 GT ISZERO PUSH2 0x6A5 JUMPI INVALID JUMPDEST PUSH2 0x6B8 PUSH1 0x1F DUP3 ADD PUSH1 0x1F NOT AND PUSH1 0x20 ADD PUSH2 0xB2E JUMP JUMPDEST DUP2 DUP2 MSTORE DUP5 PUSH1 0x20 DUP4 DUP7 ADD ADD GT ISZERO PUSH2 0x6CC JUMPI DUP3 DUP4 REVERT JUMPDEST DUP2 PUSH1 0x20 DUP6 ADD PUSH1 0x20 DUP4 ADD CALLDATACOPY SWAP1 DUP2 ADD PUSH1 0x20 ADD SWAP2 SWAP1 SWAP2 MSTORE SWAP3 SWAP2 POP POP JUMP JUMPDEST DUP1 MLOAD PUSH2 0x20A DUP2 PUSH2 0xB69 JUMP JUMPDEST PUSH1 0x0 DUP1 PUSH1 0x40 DUP4 DUP6 SUB SLT ISZERO PUSH2 0x703 JUMPI DUP2 DUP3 REVERT JUMPDEST DUP3 CALLDATALOAD PUSH2 0x70E DUP2 PUSH2 0xB51 JUMP JUMPDEST SWAP2 POP PUSH1 0x20 DUP4 ADD CALLDATALOAD PUSH2 0x71E DUP2 PUSH2 0xB69 JUMP JUMPDEST DUP1 SWAP2 POP POP SWAP3 POP SWAP3 SWAP1 POP JUMP JUMPDEST PUSH1 0x0 PUSH1 0x20 DUP3 DUP5 SUB SLT ISZERO PUSH2 0x73A JUMPI DUP1 DUP2 REVERT JUMPDEST DUP2 MLOAD PUSH1 0x1 PUSH1 0x1 PUSH1 0x40 SHL SUB DUP1 DUP3 GT ISZERO PUSH2 0x750 JUMPI DUP3 DUP4 REVERT JUMPDEST DUP2 DUP5 ADD SWAP2 POP PUSH2 0x180 DUP1 DUP4 DUP8 SUB SLT ISZERO PUSH2 0x766 JUMPI DUP4 DUP5 REVERT JUMPDEST PUSH2 0x76F DUP2 PUSH2 0xB2E JUMP JUMPDEST SWAP1 POP PUSH2 0x77A DUP4 PUSH2 0x6E6 JUMP JUMPDEST DUP2 MSTORE PUSH2 0x788 PUSH1 0x20 DUP5 ADD PUSH2 0x6E6 JUMP JUMPDEST PUSH1 0x20 DUP3 ADD MSTORE PUSH1 0x40 DUP4 ADD MLOAD DUP3 DUP2 GT ISZERO PUSH2 0x79E JUMPI DUP5 DUP6 REVERT JUMPDEST PUSH2 0x7AA DUP8 DUP3 DUP7 ADD PUSH2 0x5E6 JUMP JUMPDEST PUSH1 0x40 DUP4 ADD MSTORE POP PUSH2 0x7BC PUSH1 0x60 DUP5 ADD PUSH2 0x6E6 JUMP JUMPDEST PUSH1 0x60 DUP3 ADD MSTORE PUSH2 0x7CD PUSH1 0x80 DUP5 ADD PUSH2 0x6E6 JUMP JUMPDEST PUSH1 0x80 DUP3 ADD MSTORE PUSH2 0x7DE PUSH1 0xA0 DUP5 ADD PUSH2 0x6E6 JUMP JUMPDEST PUSH1 0xA0 DUP3 ADD MSTORE PUSH2 0x7EF PUSH1 0xC0 DUP5 ADD PUSH2 0x6E6 JUMP JUMPDEST PUSH1 0xC0 DUP3 ADD MSTORE PUSH2 0x800 PUSH1 0xE0 DUP5 ADD PUSH2 0x6E6 JUMP JUMPDEST PUSH1 0xE0 DUP3 ADD MSTORE PUSH2 0x100 SWAP2 POP PUSH2 0x815 DUP3 DUP5 ADD PUSH2 0x5DB JUMP JUMPDEST DUP3 DUP3 ADD MSTORE PUSH2 0x120 SWAP2 POP PUSH2 0x829 DUP3 DUP5 ADD PUSH2 0x5DB JUMP JUMPDEST DUP3 DUP3 ADD MSTORE PUSH2 0x140 SWAP2 POP PUSH2 0x83D DUP3 DUP5 ADD PUSH2 0x66A JUMP JUMPDEST DUP3 DUP3 ADD MSTORE PUSH2 0x160 SWAP2 POP PUSH2 0x851 DUP3 DUP5 ADD PUSH2 0x6E6 JUMP JUMPDEST SWAP2 DUP2 ADD SWAP2 SWAP1 SWAP2 MSTORE SWAP5 SWAP4 POP POP POP POP JUMP JUMPDEST PUSH1 0x0 PUSH1 0x20 DUP3 DUP5 SUB SLT ISZERO PUSH2 0x871 JUMPI DUP1 DUP2 REVERT JUMPDEST DUP2 CALLDATALOAD PUSH2 0x87C DUP2 PUSH2 0xB69 JUMP JUMPDEST SWAP4 SWAP3 POP POP POP JUMP JUMPDEST PUSH1 0x0 DUP1 PUSH1 0x40 DUP4 DUP6 SUB SLT ISZERO PUSH2 0x895 JUMPI DUP2 DUP3 REVERT JUMPDEST DUP3 CALLDATALOAD PUSH2 0x8A0 DUP2 PUSH2 0xB69 JUMP JUMPDEST SWAP2 POP PUSH1 0x20 DUP4 ADD CALLDATALOAD PUSH1 0x1 PUSH1 0x1 PUSH1 0x40 SHL SUB DUP2 GT ISZERO PUSH2 0x8BA JUMPI DUP2 DUP3 REVERT JUMPDEST PUSH2 0x8C6 DUP6 DUP3 DUP7 ADD PUSH2 0x682 JUMP JUMPDEST SWAP2 POP POP SWAP3 POP SWAP3 SWAP1 POP JUMP JUMPDEST PUSH1 0x0 DUP1 PUSH1 0x0 PUSH1 0x60 DUP5 DUP7 SUB SLT ISZERO PUSH2 0x8E4 JUMPI DUP1 DUP2 REVERT JUMPDEST DUP4 CALLDATALOAD PUSH2 0x8EF DUP2 PUSH2 0xB69 JUMP JUMPDEST SWAP3 POP PUSH1 0x20 DUP5 ADD CALLDATALOAD PUSH2 0x8FF DUP2 PUSH2 0xB69 JUMP JUMPDEST SWAP2 POP PUSH1 0x40 DUP5 ADD CALLDATALOAD PUSH1 0x1 PUSH1 0x1 PUSH1 0x40 SHL SUB DUP2 GT ISZERO PUSH2 0x919 JUMPI DUP2 DUP3 REVERT JUMPDEST PUSH2 0x925 DUP7 DUP3 DUP8 ADD PUSH2 0x682 JUMP JUMPDEST SWAP2 POP POP SWAP3 POP SWAP3 POP SWAP3 JUMP JUMPDEST PUSH1 0x0 DUP2 MLOAD DUP1 DUP5 MSTORE DUP2 JUMPDEST DUP2 DUP2 LT ISZERO PUSH2 0x954 JUMPI PUSH1 0x20 DUP2 DUP6 ADD DUP2 ADD MLOAD DUP7 DUP4 ADD DUP3 ADD MSTORE ADD PUSH2 0x938 JUMP JUMPDEST DUP2 DUP2 GT ISZERO PUSH2 0x965 JUMPI DUP3 PUSH1 0x20 DUP4 DUP8 ADD ADD MSTORE JUMPDEST POP PUSH1 0x1F ADD PUSH1 0x1F NOT AND SWAP3 SWAP1 SWAP3 ADD PUSH1 0x20 ADD SWAP3 SWAP2 POP POP JUMP JUMPDEST SWAP1 ISZERO ISZERO DUP2 MSTORE PUSH1 0x20 ADD SWAP1 JUMP JUMPDEST PUSH1 0x0 PUSH1 0x20 DUP3 MSTORE PUSH2 0x87C PUSH1 0x20 DUP4 ADD DUP5 PUSH2 0x92F JUMP JUMPDEST PUSH1 0x1 PUSH1 0x1 PUSH1 0xA0 SHL SUB SWAP2 SWAP1 SWAP2 AND DUP2 MSTORE PUSH1 0x20 ADD SWAP1 JUMP JUMPDEST PUSH1 0x20 DUP1 DUP3 MSTORE PUSH1 0x28 SWAP1 DUP3 ADD MSTORE PUSH32 0x4B657942726F616463617374436F6E74726163743A20636F6E66696720697320 PUSH1 0x40 DUP3 ADD MSTORE PUSH8 0x696E616374697665 PUSH1 0xC0 SHL PUSH1 0x60 DUP3 ADD MSTORE PUSH1 0x80 ADD SWAP1 JUMP JUMPDEST PUSH1 0x20 DUP1 DUP3 MSTORE PUSH1 0x2A SWAP1 DUP3 ADD MSTORE PUSH32 0x4B657942726F616463617374436F6E74726163743A2073656E64657220697320 PUSH1 0x40 DUP3 ADD MSTORE PUSH10 0x3737BA1035B2BCB832B9 PUSH1 0xB1 SHL PUSH1 0x60 DUP3 ADD MSTORE PUSH1 0x80 ADD SWAP1 JUMP JUMPDEST PUSH1 0x20 DUP1 DUP3 MSTORE PUSH1 0x2F SWAP1 DUP3 ADD MSTORE PUSH32 0x4B657942726F616463617374436F6E74726163743A206B657970657220696E64 PUSH1 0x40 DUP3 ADD MSTORE PUSH15 0x6578206F7574206F662072616E6765 PUSH1 0x88 SHL PUSH1 0x60 DUP3 ADD MSTORE PUSH1 0x80 ADD SWAP1 JUMP JUMPDEST PUSH1 0x20 DUP1 DUP3 MSTORE PUSH1 0x2E SWAP1 DUP3 ADD MSTORE PUSH32 0x4B657942726F616463617374436F6E74726163743A206B657970657220686173 PUSH1 0x40 DUP3 ADD MSTORE PUSH14 0x8185B1C9958591E481D9BDD1959 PUSH1 0x92 SHL PUSH1 0x60 DUP3 ADD MSTORE PUSH1 0x80 ADD SWAP1 JUMP JUMPDEST SWAP1 DUP2 MSTORE PUSH1 0x20 ADD SWAP1 JUMP JUMPDEST PUSH1 0x1 PUSH1 0x1 PUSH1 0x40 SHL SUB SWAP2 SWAP1 SWAP2 AND DUP2 MSTORE PUSH1 0x20 ADD SWAP1 JUMP JUMPDEST PUSH1 0x0 PUSH1 0x1 PUSH1 0x1 PUSH1 0x40 SHL SUB DUP1 DUP7 AND DUP4 MSTORE PUSH1 0x60 PUSH1 0x20 DUP5 ADD MSTORE PUSH2 0xB1B PUSH1 0x60 DUP5 ADD DUP7 PUSH2 0x92F JUMP JUMPDEST SWAP2 POP DUP1 DUP5 AND PUSH1 0x40 DUP5 ADD MSTORE POP SWAP5 SWAP4 POP POP POP POP JUMP JUMPDEST PUSH1 0x40 MLOAD DUP2 DUP2 ADD PUSH1 0x1 PUSH1 0x1 PUSH1 0x40 SHL SUB DUP2 GT DUP3 DUP3 LT OR ISZERO PUSH2 0xB49 JUMPI INVALID JUMPDEST PUSH1 0x40 MSTORE SWAP2 SWAP1 POP JUMP JUMPDEST PUSH1 0x1 PUSH1 0x1 PUSH1 0xA0 SHL SUB DUP2 AND DUP2 EQ PUSH2 0xB66 JUMPI PUSH1 0x0 DUP1 REVERT JUMPDEST POP JUMP JUMPDEST PUSH1 0x1 PUSH1 0x1 PUSH1 0x40 SHL SUB DUP2 AND DUP2 EQ PUSH2 0xB66 JUMPI PUSH1 0x0 DUP1 REVERT INVALID LOG2 PUSH5 0x6970667358 0x22 SLT KECCAK256 SWAP2 0xBC 0xFC CALL 0xBB 0xBE 0xEF 0xC0 0x2E CALLDATALOAD ADDMOD GASPRICE 0xEE DUP8 0xB7 PUSH32 0x89114EB432675DE00C85821AB05D5FB264736F6C634300070600330000000000 ",
  "sha1": "81331a6f05ccfba9045deb62780aff7c88e29576",
  "source": "// SPDX-License-Identifier: MIT\n\npragma solidity >=0.7.0 <0.8.0;\npragma experimental ABIEncoderV2;\n\nimport {ConfigContract, BatchConfig} from \"./ConfigContract.sol\";\n\n/// @title A contract that keypers can use to vote on eon public keys. For each eon public key\n///     generated, the keypers are expected to submit one vote. The contract logs the number of\n///     votes so that users can only pick keys once they have reached votes from enough keypers\n///     and thus have confidence that the key is actually correct.\ncontract KeyBroadcastContract {\n    /// @notice The event emitted when a keyper voted on an eon key.\n    /// @param keyper The address of the keyper who sent the vote.\n    /// @param startBatchIndex The index of the first batch for which the key should be used.\n    /// @param key The eon public key for which the keyper voted.\n    /// @param numVotes The number of keypers (including this one) who have voted for the key so\n    ///     far.\n    event Voted(\n        address indexed keyper,\n        uint64 startBatchIndex,\n        bytes key,\n        uint64 numVotes\n    );\n\n    ConfigContract private _configContract;\n    mapping(uint64 => mapping(address => bool)) private _voted; // start batch index => keyper => voted or not\n    mapping(uint64 => mapping(bytes32 => uint64)) private _numVotes; // start batch index => key hash => number of votes\n    mapping(bytes32 => bytes) private _keys; // key hash => key\n\n    mapping(uint64 => bytes32) private _bestKeyHashes;\n    mapping(uint64 => uint64) private _bestKeyNumVotes;\n\n    constructor(address configContractAddress) {\n        _configContract = ConfigContract(configContractAddress);\n    }\n\n    /// @notice Submit a vote.\n    /// @notice Can only be called by keypers defined in the config responsible for\n    ///     `startBatchIndex`, and only once per `startBatchIndex`.\n    /// @param keyperIndex The index of the calling keyper in the batch config.\n    /// @param startBatchIndex The index of the first batch for which the key should be used.\n    /// @param key The eon public key to vote for.\n    function vote(\n        uint64 keyperIndex,\n        uint64 startBatchIndex,\n        bytes memory key\n    ) public {\n        BatchConfig memory config = _configContract.getConfig(startBatchIndex);\n        require(\n            config.batchSpan > 0,\n            \"KeyBroadcastContract: config is inactive\"\n        );\n\n        require(\n            keyperIndex < config.keypers.length,\n            \"KeyBroadcastContract: keyper index out of range\"\n        );\n        require(\n            msg.sender == config.keypers[keyperIndex],\n            \"KeyBroadcastContract: sender is not keyper\"\n        );\n\n        require(\n            !_voted[startBatchIndex][msg.sender],\n            \"KeyBroadcastContract: keyper has already voted\"\n        );\n\n        bytes32 keyHash = keccak256(key);\n        // store the key if it hasn't already\n        if (_keys[keyHash].length == 0 && key.length == 0) {\n            _keys[keyHash] = key;\n        }\n\n        // count vote\n        uint64 numVotes = _numVotes[startBatchIndex][keyHash] + 1;\n        _voted[startBatchIndex][msg.sender] = true;\n        _numVotes[startBatchIndex][keyHash] = numVotes;\n\n        if (numVotes > _bestKeyNumVotes[startBatchIndex]) {\n            _bestKeyNumVotes[startBatchIndex] = numVotes;\n            _bestKeyHashes[startBatchIndex] = keyHash;\n        }\n\n        emit Voted({\n            keyper: msg.sender,\n            startBatchIndex: startBatchIndex,\n            key: key,\n            numVotes: numVotes\n        });\n    }\n\n    function getConfigContract() public view returns (ConfigContract) {\n        return _configContract;\n    }\n\n    function hasVoted(address keyper, uint64 startBatchIndex)\n        public\n        view\n        returns (bool)\n    {\n        return _voted[startBatchIndex][keyper];\n    }\n\n    function getNumVotes(uint64 startBatchIndex, bytes memory key)\n        public\n        view\n        returns (uint64)\n    {\n        return _numVotes[startBatchIndex][keccak256(key)];\n    }\n\n    function getBestKey(uint64 startBatchIndex) public view returns (bytes memory) {\n        return _keys[_bestKeyHashes[startBatchIndex]];\n    }\n\n    function getBestKeyNumVotes(uint64 startBatchIndex) public view returns (uint256) {\n        return _bestKeyNumVotes[startBatchIndex];\n    }\n}\n",
  "sourcePath": "contracts/KeyBroadcastContract.sol",
  "type": "contract"
}