{
  "abi": [
    {
      "inputs": [
        {
          "internalType": "address",
          "name": "configContractAddress",
          "type": "address"
        }
      ],
      "stateMutability": "nonpayable",
      "type": "constructor"
    },
    {
      "anonymous": false,
      "inputs": [
        {
          "indexed": true,
          "internalType": "address",
          "name": "keyper",
          "type": "address"
        },
        {
          "indexed": false,
          "internalType": "uint64",
          "name": "startBatchIndex",
          "type": "uint64"
        },
        {
          "indexed": false,
          "internalType": "bytes",
          "name": "key",
          "type": "bytes"
        },
        {
          "indexed": false,
          "internalType": "uint64",
          "name": "numVotes",
          "type": "uint64"
        }
      ],
      "name": "Voted",
      "type": "event"
    },
    {
      "inputs": [],
      "name": "configContract",
      "outputs": [
        {
          "internalType": "contract ConfigContract",
          "name": "",
          "type": "address"
        }
      ],
      "stateMutability": "view",
      "type": "function"
    },
    {
      "inputs": [
        {
          "internalType": "uint64",
          "name": "startBatchIndex",
          "type": "uint64"
        }
      ],
      "name": "getBestKey",
      "outputs": [
        {
          "internalType": "bytes",
          "name": "",
          "type": "bytes"
        }
      ],
      "stateMutability": "view",
      "type": "function"
    },
    {
      "inputs": [
        {
          "internalType": "uint64",
          "name": "startBatchIndex",
          "type": "uint64"
        }
      ],
      "name": "getBestKeyHash",
      "outputs": [
        {
          "internalType": "bytes32",
          "name": "",
          "type": "bytes32"
        }
      ],
      "stateMutability": "view",
      "type": "function"
    },
    {
      "inputs": [
        {
          "internalType": "uint64",
          "name": "startBatchIndex",
          "type": "uint64"
        }
      ],
      "name": "getBestKeyNumVotes",
      "outputs": [
        {
          "internalType": "uint256",
          "name": "",
          "type": "uint256"
        }
      ],
      "stateMutability": "view",
      "type": "function"
    },
    {
      "inputs": [
        {
          "internalType": "uint64",
          "name": "startBatchIndex",
          "type": "uint64"
        },
        {
          "internalType": "bytes",
          "name": "key",
          "type": "bytes"
        }
      ],
      "name": "getNumVotes",
      "outputs": [
        {
          "internalType": "uint64",
          "name": "",
          "type": "uint64"
        }
      ],
      "stateMutability": "view",
      "type": "function"
    },
    {
      "inputs": [
        {
          "internalType": "address",
          "name": "keyper",
          "type": "address"
        },
        {
          "internalType": "uint64",
          "name": "startBatchIndex",
          "type": "uint64"
        }
      ],
      "name": "hasVoted",
      "outputs": [
        {
          "internalType": "bool",
          "name": "",
          "type": "bool"
        }
      ],
      "stateMutability": "view",
      "type": "function"
    },
    {
      "inputs": [
        {
          "internalType": "uint64",
          "name": "keyperIndex",
          "type": "uint64"
        },
        {
          "internalType": "uint64",
          "name": "startBatchIndex",
          "type": "uint64"
        },
        {
          "internalType": "bytes",
          "name": "key",
          "type": "bytes"
        }
      ],
      "name": "vote",
      "outputs": [],
      "stateMutability": "nonpayable",
      "type": "function"
    }
  ],
  "bytecode": "608060405234801561001057600080fd5b50604051610ca0380380610ca083398101604081905261002f91610054565b600080546001600160a01b0319166001600160a01b0392909216919091179055610082565b600060208284031215610065578081fd5b81516001600160a01b038116811461007b578182fd5b9392505050565b610c0f806100916000396000f3fe608060405234801561001057600080fd5b506004361061007d5760003560e01c80636b32c7951161005b5780636b32c79514610137578063ab0a3ffe1461014c578063bf66a18214610175578063cf1d7a0a146101a057600080fd5b80631845bf5c146100825780632553600e146100dd57806341ecda09146100fd575b600080fd5b6100c06100903660046109e4565b6001600160401b039182166000908152600260209081526040808320845194830194909420835292905220541690565b6040516001600160401b0390911681526020015b60405180910390f35b6100f06100eb3660046109ac565b6101f1565b6040516100d49190610adb565b61012961010b3660046109ac565b6001600160401b039081166000908152600560205260409020541690565b6040519081526020016100d4565b61014a610145366004610a31565b6102aa565b005b61012961015a3660046109ac565b6001600160401b031660009081526004602052604090205490565b600054610188906001600160a01b031681565b6040516001600160a01b0390911681526020016100d4565b6101e16101ae366004610974565b6001600160401b031660009081526001602090815260408083206001600160a01b03949094168352929052205460ff1690565b60405190151581526020016100d4565b6001600160401b03811660009081526004602090815260408083205483526003909152902080546060919061022590610b5b565b80601f016020809104026020016040519081016040528092919081815260200182805461025190610b5b565b801561029e5780601f106102735761010080835404028352916020019161029e565b820191906000526020600020905b81548152906001019060200180831161028157829003601f168201915b50505050509050919050565b60008054604051632e37abf360e21b81526001600160401b03851660048201526001600160a01b039091169063b8deafcc9060240160206040518083038186803b1580156102f757600080fd5b505afa15801561030b573d6000803e3d6000fd5b505050506040513d601f19601f8201168201806040525081019061032f91906109c8565b6000805460405163017109f560e31b81526001600160401b038416600482015292935090916001600160a01b0390911690630b884fa89060240160206040518083038186803b15801561038157600080fd5b505afa158015610395573d6000803e3d6000fd5b505050506040513d601f19601f820116820180604052508101906103b991906109c8565b90506000816001600160401b03161161042a5760405162461bcd60e51b815260206004820152602860248201527f4b657942726f616463617374436f6e74726163743a20636f6e66696720697320604482015267696e61637469766560c01b60648201526084015b60405180910390fd5b60005460405163366963c960e21b81526001600160401b03841660048201526001600160a01b039091169063d9a58f249060240160206040518083038186803b15801561047657600080fd5b505afa15801561048a573d6000803e3d6000fd5b505050506040513d601f19601f820116820180604052508101906104ae91906109c8565b6001600160401b0316856001600160401b0316106105265760405162461bcd60e51b815260206004820152602f60248201527f4b657942726f616463617374436f6e74726163743a206b657970657220696e6460448201526e6578206f7574206f662072616e676560881b6064820152608401610421565b600054604051637d42750160e11b81526001600160401b038085166004830152871660248201526001600160a01b039091169063fa84ea029060440160206040518083038186803b15801561057a57600080fd5b505afa15801561058e573d6000803e3d6000fd5b505050506040513d601f19601f820116820180604052508101906105b29190610951565b6001600160a01b0316336001600160a01b0316146106255760405162461bcd60e51b815260206004820152602a60248201527f4b657942726f616463617374436f6e74726163743a2073656e646572206973206044820152693737ba1035b2bcb832b960b11b6064820152608401610421565b6001600160401b038416600090815260016020908152604080832033845290915290205460ff16156106b05760405162461bcd60e51b815260206004820152602e60248201527f4b657942726f616463617374436f6e74726163743a206b65797065722068617360448201526d08185b1c9958591e481d9bdd195960921b6064820152608401610421565b825160208085019190912060008181526003909252604090912080546106d590610b5b565b15905080156106e2575060015b15610708576000818152600360209081526040909120855161070692870190610832565b505b6001600160401b038086166000908152600260209081526040808320858452909152812054909161073b91166001610b24565b6001600160401b0387811660008181526001602081815260408084203385528252808420805460ff1916909317909255838352600281528183208884528152818320805467ffffffffffffffff191687871690811790915593835260059052902054929350911610156107e4576001600160401b038681166000908152600560209081526040808320805467ffffffffffffffff19169486169490941790935560049052208290555b336001600160a01b03167f305124b6ec831bb4150eb1ddbd4e8cc4b95687b9a6258b110fd0e9865914b0bf87878460405161082193929190610aee565b60405180910390a250505050505050565b82805461083e90610b5b565b90600052602060002090601f01602090048101928261086057600085556108a6565b82601f1061087957805160ff19168380011785556108a6565b828001600101855582156108a6579182015b828111156108a657825182559160200191906001019061088b565b506108b29291506108b6565b5090565b5b808211156108b257600081556001016108b7565b600082601f8301126108db578081fd5b81356001600160401b03808211156108f5576108f5610b96565b604051601f8301601f19908116603f0116810190828211818310171561091d5761091d610b96565b81604052838152866020858801011115610935578485fd5b8360208701602083013792830160200193909352509392505050565b600060208284031215610962578081fd5b815161096d81610bac565b9392505050565b60008060408385031215610986578081fd5b823561099181610bac565b915060208301356109a181610bc4565b809150509250929050565b6000602082840312156109bd578081fd5b813561096d81610bc4565b6000602082840312156109d9578081fd5b815161096d81610bc4565b600080604083850312156109f6578182fd5b8235610a0181610bc4565b915060208301356001600160401b03811115610a1b578182fd5b610a27858286016108cb565b9150509250929050565b600080600060608486031215610a45578081fd5b8335610a5081610bc4565b92506020840135610a6081610bc4565b915060408401356001600160401b03811115610a7a578182fd5b610a86868287016108cb565b9150509250925092565b60008151808452815b81811015610ab557602081850181015186830182015201610a99565b81811115610ac65782602083870101525b50601f01601f19169290920160200192915050565b60208152600061096d6020830184610a90565b60006001600160401b03808616835260606020840152610b116060840186610a90565b9150808416604084015250949350505050565b60006001600160401b03808316818516808303821115610b5257634e487b7160e01b84526011600452602484fd5b01949350505050565b600181811c90821680610b6f57607f821691505b60208210811415610b9057634e487b7160e01b600052602260045260246000fd5b50919050565b634e487b7160e01b600052604160045260246000fd5b6001600160a01b0381168114610bc157600080fd5b50565b6001600160401b0381168114610bc157600080fdfea26469706673582212201f321858e1261d1225d21ec7793cc38d54062f75e6ead3c5501486cbca6c549564736f6c63430008040033",
  "bytecodeSha1": "7d3a6eb425f01f9bece3a4d4257150114ae8e804",
  "compiler": {
    "evm_version": "istanbul",
    "optimizer": {
      "enabled": true,
      "runs": 200
    },
    "version": "0.8.4+commit.c7e474f2"
  },
  "contractName": "KeyBroadcastContract",
  "language": "Solidity",
  "natspec": {
    "kind": "dev",
    "methods": {
      "vote(uint64,uint64,bytes)": {
        "notice": "Submit a vote.Can only be called by keypers defined in the config responsible for     `startBatchIndex`, and only once per `startBatchIndex`.",
        "params": {
          "key": "The eon public key to vote for.",
          "keyperIndex": "The index of the calling keyper in the batch config.",
          "startBatchIndex": "The index of the first batch for which the key should be used."
        }
      }
    },
    "title": "A contract that keypers can use to vote on eon public keys. For each eon public key     generated, the keypers are expected to submit one vote. The contract logs the number of     votes so that users can only pick keys once they have reached votes from enough keypers     and thus have confidence that the key is actually correct.",
    "version": 1
  },
  "opcodes": "PUSH1 0x80 PUSH1 0x40 MSTORE CALLVALUE DUP1 ISZERO PUSH2 0x10 JUMPI PUSH1 0x0 DUP1 REVERT JUMPDEST POP PUSH1 0x4 CALLDATASIZE LT PUSH2 0x7D JUMPI PUSH1 0x0 CALLDATALOAD PUSH1 0xE0 SHR DUP1 PUSH4 0x6B32C795 GT PUSH2 0x5B JUMPI DUP1 PUSH4 0x6B32C795 EQ PUSH2 0x137 JUMPI DUP1 PUSH4 0xAB0A3FFE EQ PUSH2 0x14C JUMPI DUP1 PUSH4 0xBF66A182 EQ PUSH2 0x175 JUMPI DUP1 PUSH4 0xCF1D7A0A EQ PUSH2 0x1A0 JUMPI PUSH1 0x0 DUP1 REVERT JUMPDEST DUP1 PUSH4 0x1845BF5C EQ PUSH2 0x82 JUMPI DUP1 PUSH4 0x2553600E EQ PUSH2 0xDD JUMPI DUP1 PUSH4 0x41ECDA09 EQ PUSH2 0xFD JUMPI JUMPDEST PUSH1 0x0 DUP1 REVERT JUMPDEST PUSH2 0xC0 PUSH2 0x90 CALLDATASIZE PUSH1 0x4 PUSH2 0x9E4 JUMP JUMPDEST PUSH1 0x1 PUSH1 0x1 PUSH1 0x40 SHL SUB SWAP2 DUP3 AND PUSH1 0x0 SWAP1 DUP2 MSTORE PUSH1 0x2 PUSH1 0x20 SWAP1 DUP2 MSTORE PUSH1 0x40 DUP1 DUP4 KECCAK256 DUP5 MLOAD SWAP5 DUP4 ADD SWAP5 SWAP1 SWAP5 KECCAK256 DUP4 MSTORE SWAP3 SWAP1 MSTORE KECCAK256 SLOAD AND SWAP1 JUMP JUMPDEST PUSH1 0x40 MLOAD PUSH1 0x1 PUSH1 0x1 PUSH1 0x40 SHL SUB SWAP1 SWAP2 AND DUP2 MSTORE PUSH1 0x20 ADD JUMPDEST PUSH1 0x40 MLOAD DUP1 SWAP2 SUB SWAP1 RETURN JUMPDEST PUSH2 0xF0 PUSH2 0xEB CALLDATASIZE PUSH1 0x4 PUSH2 0x9AC JUMP JUMPDEST PUSH2 0x1F1 JUMP JUMPDEST PUSH1 0x40 MLOAD PUSH2 0xD4 SWAP2 SWAP1 PUSH2 0xADB JUMP JUMPDEST PUSH2 0x129 PUSH2 0x10B CALLDATASIZE PUSH1 0x4 PUSH2 0x9AC JUMP JUMPDEST PUSH1 0x1 PUSH1 0x1 PUSH1 0x40 SHL SUB SWAP1 DUP2 AND PUSH1 0x0 SWAP1 DUP2 MSTORE PUSH1 0x5 PUSH1 0x20 MSTORE PUSH1 0x40 SWAP1 KECCAK256 SLOAD AND SWAP1 JUMP JUMPDEST PUSH1 0x40 MLOAD SWAP1 DUP2 MSTORE PUSH1 0x20 ADD PUSH2 0xD4 JUMP JUMPDEST PUSH2 0x14A PUSH2 0x145 CALLDATASIZE PUSH1 0x4 PUSH2 0xA31 JUMP JUMPDEST PUSH2 0x2AA JUMP JUMPDEST STOP JUMPDEST PUSH2 0x129 PUSH2 0x15A CALLDATASIZE PUSH1 0x4 PUSH2 0x9AC JUMP JUMPDEST PUSH1 0x1 PUSH1 0x1 PUSH1 0x40 SHL SUB AND PUSH1 0x0 SWAP1 DUP2 MSTORE PUSH1 0x4 PUSH1 0x20 MSTORE PUSH1 0x40 SWAP1 KECCAK256 SLOAD SWAP1 JUMP JUMPDEST PUSH1 0x0 SLOAD PUSH2 0x188 SWAP1 PUSH1 0x1 PUSH1 0x1 PUSH1 0xA0 SHL SUB AND DUP2 JUMP JUMPDEST PUSH1 0x40 MLOAD PUSH1 0x1 PUSH1 0x1 PUSH1 0xA0 SHL SUB SWAP1 SWAP2 AND DUP2 MSTORE PUSH1 0x20 ADD PUSH2 0xD4 JUMP JUMPDEST PUSH2 0x1E1 PUSH2 0x1AE CALLDATASIZE PUSH1 0x4 PUSH2 0x974 JUMP JUMPDEST PUSH1 0x1 PUSH1 0x1 PUSH1 0x40 SHL SUB AND PUSH1 0x0 SWAP1 DUP2 MSTORE PUSH1 0x1 PUSH1 0x20 SWAP1 DUP2 MSTORE PUSH1 0x40 DUP1 DUP4 KECCAK256 PUSH1 0x1 PUSH1 0x1 PUSH1 0xA0 SHL SUB SWAP5 SWAP1 SWAP5 AND DUP4 MSTORE SWAP3 SWAP1 MSTORE KECCAK256 SLOAD PUSH1 0xFF AND SWAP1 JUMP JUMPDEST PUSH1 0x40 MLOAD SWAP1 ISZERO ISZERO DUP2 MSTORE PUSH1 0x20 ADD PUSH2 0xD4 JUMP JUMPDEST PUSH1 0x1 PUSH1 0x1 PUSH1 0x40 SHL SUB DUP2 AND PUSH1 0x0 SWAP1 DUP2 MSTORE PUSH1 0x4 PUSH1 0x20 SWAP1 DUP2 MSTORE PUSH1 0x40 DUP1 DUP4 KECCAK256 SLOAD DUP4 MSTORE PUSH1 0x3 SWAP1 SWAP2 MSTORE SWAP1 KECCAK256 DUP1 SLOAD PUSH1 0x60 SWAP2 SWAP1 PUSH2 0x225 SWAP1 PUSH2 0xB5B JUMP JUMPDEST DUP1 PUSH1 0x1F ADD PUSH1 0x20 DUP1 SWAP2 DIV MUL PUSH1 0x20 ADD PUSH1 0x40 MLOAD SWAP1 DUP2 ADD PUSH1 0x40 MSTORE DUP1 SWAP3 SWAP2 SWAP1 DUP2 DUP2 MSTORE PUSH1 0x20 ADD DUP3 DUP1 SLOAD PUSH2 0x251 SWAP1 PUSH2 0xB5B JUMP JUMPDEST DUP1 ISZERO PUSH2 0x29E JUMPI DUP1 PUSH1 0x1F LT PUSH2 0x273 JUMPI PUSH2 0x100 DUP1 DUP4 SLOAD DIV MUL DUP4 MSTORE SWAP2 PUSH1 0x20 ADD SWAP2 PUSH2 0x29E JUMP JUMPDEST DUP3 ADD SWAP2 SWAP1 PUSH1 0x0 MSTORE PUSH1 0x20 PUSH1 0x0 KECCAK256 SWAP1 JUMPDEST DUP2 SLOAD DUP2 MSTORE SWAP1 PUSH1 0x1 ADD SWAP1 PUSH1 0x20 ADD DUP1 DUP4 GT PUSH2 0x281 JUMPI DUP3 SWAP1 SUB PUSH1 0x1F AND DUP3 ADD SWAP2 JUMPDEST POP POP POP POP POP SWAP1 POP SWAP2 SWAP1 POP JUMP JUMPDEST PUSH1 0x0 DUP1 SLOAD PUSH1 0x40 MLOAD PUSH4 0x2E37ABF3 PUSH1 0xE2 SHL DUP2 MSTORE PUSH1 0x1 PUSH1 0x1 PUSH1 0x40 SHL SUB DUP6 AND PUSH1 0x4 DUP3 ADD MSTORE PUSH1 0x1 PUSH1 0x1 PUSH1 0xA0 SHL SUB SWAP1 SWAP2 AND SWAP1 PUSH4 0xB8DEAFCC SWAP1 PUSH1 0x24 ADD PUSH1 0x20 PUSH1 0x40 MLOAD DUP1 DUP4 SUB DUP2 DUP7 DUP1 EXTCODESIZE ISZERO DUP1 ISZERO PUSH2 0x2F7 JUMPI PUSH1 0x0 DUP1 REVERT JUMPDEST POP GAS STATICCALL ISZERO DUP1 ISZERO PUSH2 0x30B JUMPI RETURNDATASIZE PUSH1 0x0 DUP1 RETURNDATACOPY RETURNDATASIZE PUSH1 0x0 REVERT JUMPDEST POP POP POP POP PUSH1 0x40 MLOAD RETURNDATASIZE PUSH1 0x1F NOT PUSH1 0x1F DUP3 ADD AND DUP3 ADD DUP1 PUSH1 0x40 MSTORE POP DUP2 ADD SWAP1 PUSH2 0x32F SWAP2 SWAP1 PUSH2 0x9C8 JUMP JUMPDEST PUSH1 0x0 DUP1 SLOAD PUSH1 0x40 MLOAD PUSH4 0x17109F5 PUSH1 0xE3 SHL DUP2 MSTORE PUSH1 0x1 PUSH1 0x1 PUSH1 0x40 SHL SUB DUP5 AND PUSH1 0x4 DUP3 ADD MSTORE SWAP3 SWAP4 POP SWAP1 SWAP2 PUSH1 0x1 PUSH1 0x1 PUSH1 0xA0 SHL SUB SWAP1 SWAP2 AND SWAP1 PUSH4 0xB884FA8 SWAP1 PUSH1 0x24 ADD PUSH1 0x20 PUSH1 0x40 MLOAD DUP1 DUP4 SUB DUP2 DUP7 DUP1 EXTCODESIZE ISZERO DUP1 ISZERO PUSH2 0x381 JUMPI PUSH1 0x0 DUP1 REVERT JUMPDEST POP GAS STATICCALL ISZERO DUP1 ISZERO PUSH2 0x395 JUMPI RETURNDATASIZE PUSH1 0x0 DUP1 RETURNDATACOPY RETURNDATASIZE PUSH1 0x0 REVERT JUMPDEST POP POP POP POP PUSH1 0x40 MLOAD RETURNDATASIZE PUSH1 0x1F NOT PUSH1 0x1F DUP3 ADD AND DUP3 ADD DUP1 PUSH1 0x40 MSTORE POP DUP2 ADD SWAP1 PUSH2 0x3B9 SWAP2 SWAP1 PUSH2 0x9C8 JUMP JUMPDEST SWAP1 POP PUSH1 0x0 DUP2 PUSH1 0x1 PUSH1 0x1 PUSH1 0x40 SHL SUB AND GT PUSH2 0x42A JUMPI PUSH1 0x40 MLOAD PUSH3 0x461BCD PUSH1 0xE5 SHL DUP2 MSTORE PUSH1 0x20 PUSH1 0x4 DUP3 ADD MSTORE PUSH1 0x28 PUSH1 0x24 DUP3 ADD MSTORE PUSH32 0x4B657942726F616463617374436F6E74726163743A20636F6E66696720697320 PUSH1 0x44 DUP3 ADD MSTORE PUSH8 0x696E616374697665 PUSH1 0xC0 SHL PUSH1 0x64 DUP3 ADD MSTORE PUSH1 0x84 ADD JUMPDEST PUSH1 0x40 MLOAD DUP1 SWAP2 SUB SWAP1 REVERT JUMPDEST PUSH1 0x0 SLOAD PUSH1 0x40 MLOAD PUSH4 0x366963C9 PUSH1 0xE2 SHL DUP2 MSTORE PUSH1 0x1 PUSH1 0x1 PUSH1 0x40 SHL SUB DUP5 AND PUSH1 0x4 DUP3 ADD MSTORE PUSH1 0x1 PUSH1 0x1 PUSH1 0xA0 SHL SUB SWAP1 SWAP2 AND SWAP1 PUSH4 0xD9A58F24 SWAP1 PUSH1 0x24 ADD PUSH1 0x20 PUSH1 0x40 MLOAD DUP1 DUP4 SUB DUP2 DUP7 DUP1 EXTCODESIZE ISZERO DUP1 ISZERO PUSH2 0x476 JUMPI PUSH1 0x0 DUP1 REVERT JUMPDEST POP GAS STATICCALL ISZERO DUP1 ISZERO PUSH2 0x48A JUMPI RETURNDATASIZE PUSH1 0x0 DUP1 RETURNDATACOPY RETURNDATASIZE PUSH1 0x0 REVERT JUMPDEST POP POP POP POP PUSH1 0x40 MLOAD RETURNDATASIZE PUSH1 0x1F NOT PUSH1 0x1F DUP3 ADD AND DUP3 ADD DUP1 PUSH1 0x40 MSTORE POP DUP2 ADD SWAP1 PUSH2 0x4AE SWAP2 SWAP1 PUSH2 0x9C8 JUMP JUMPDEST PUSH1 0x1 PUSH1 0x1 PUSH1 0x40 SHL SUB AND DUP6 PUSH1 0x1 PUSH1 0x1 PUSH1 0x40 SHL SUB AND LT PUSH2 0x526 JUMPI PUSH1 0x40 MLOAD PUSH3 0x461BCD PUSH1 0xE5 SHL DUP2 MSTORE PUSH1 0x20 PUSH1 0x4 DUP3 ADD MSTORE PUSH1 0x2F PUSH1 0x24 DUP3 ADD MSTORE PUSH32 0x4B657942726F616463617374436F6E74726163743A206B657970657220696E64 PUSH1 0x44 DUP3 ADD MSTORE PUSH15 0x6578206F7574206F662072616E6765 PUSH1 0x88 SHL PUSH1 0x64 DUP3 ADD MSTORE PUSH1 0x84 ADD PUSH2 0x421 JUMP JUMPDEST PUSH1 0x0 SLOAD PUSH1 0x40 MLOAD PUSH4 0x7D427501 PUSH1 0xE1 SHL DUP2 MSTORE PUSH1 0x1 PUSH1 0x1 PUSH1 0x40 SHL SUB DUP1 DUP6 AND PUSH1 0x4 DUP4 ADD MSTORE DUP8 AND PUSH1 0x24 DUP3 ADD MSTORE PUSH1 0x1 PUSH1 0x1 PUSH1 0xA0 SHL SUB SWAP1 SWAP2 AND SWAP1 PUSH4 0xFA84EA02 SWAP1 PUSH1 0x44 ADD PUSH1 0x20 PUSH1 0x40 MLOAD DUP1 DUP4 SUB DUP2 DUP7 DUP1 EXTCODESIZE ISZERO DUP1 ISZERO PUSH2 0x57A JUMPI PUSH1 0x0 DUP1 REVERT JUMPDEST POP GAS STATICCALL ISZERO DUP1 ISZERO PUSH2 0x58E JUMPI RETURNDATASIZE PUSH1 0x0 DUP1 RETURNDATACOPY RETURNDATASIZE PUSH1 0x0 REVERT JUMPDEST POP POP POP POP PUSH1 0x40 MLOAD RETURNDATASIZE PUSH1 0x1F NOT PUSH1 0x1F DUP3 ADD AND DUP3 ADD DUP1 PUSH1 0x40 MSTORE POP DUP2 ADD SWAP1 PUSH2 0x5B2 SWAP2 SWAP1 PUSH2 0x951 JUMP JUMPDEST PUSH1 0x1 PUSH1 0x1 PUSH1 0xA0 SHL SUB AND CALLER PUSH1 0x1 PUSH1 0x1 PUSH1 0xA0 SHL SUB AND EQ PUSH2 0x625 JUMPI PUSH1 0x40 MLOAD PUSH3 0x461BCD PUSH1 0xE5 SHL DUP2 MSTORE PUSH1 0x20 PUSH1 0x4 DUP3 ADD MSTORE PUSH1 0x2A PUSH1 0x24 DUP3 ADD MSTORE PUSH32 0x4B657942726F616463617374436F6E74726163743A2073656E64657220697320 PUSH1 0x44 DUP3 ADD MSTORE PUSH10 0x3737BA1035B2BCB832B9 PUSH1 0xB1 SHL PUSH1 0x64 DUP3 ADD MSTORE PUSH1 0x84 ADD PUSH2 0x421 JUMP JUMPDEST PUSH1 0x1 PUSH1 0x1 PUSH1 0x40 SHL SUB DUP5 AND PUSH1 0x0 SWAP1 DUP2 MSTORE PUSH1 0x1 PUSH1 0x20 SWAP1 DUP2 MSTORE PUSH1 0x40 DUP1 DUP4 KECCAK256 CALLER DUP5 MSTORE SWAP1 SWAP2 MSTORE SWAP1 KECCAK256 SLOAD PUSH1 0xFF AND ISZERO PUSH2 0x6B0 JUMPI PUSH1 0x40 MLOAD PUSH3 0x461BCD PUSH1 0xE5 SHL DUP2 MSTORE PUSH1 0x20 PUSH1 0x4 DUP3 ADD MSTORE PUSH1 0x2E PUSH1 0x24 DUP3 ADD MSTORE PUSH32 0x4B657942726F616463617374436F6E74726163743A206B657970657220686173 PUSH1 0x44 DUP3 ADD MSTORE PUSH14 0x8185B1C9958591E481D9BDD1959 PUSH1 0x92 SHL PUSH1 0x64 DUP3 ADD MSTORE PUSH1 0x84 ADD PUSH2 0x421 JUMP JUMPDEST DUP3 MLOAD PUSH1 0x20 DUP1 DUP6 ADD SWAP2 SWAP1 SWAP2 KECCAK256 PUSH1 0x0 DUP2 DUP2 MSTORE PUSH1 0x3 SWAP1 SWAP3 MSTORE PUSH1 0x40 SWAP1 SWAP2 KECCAK256 DUP1 SLOAD PUSH2 0x6D5 SWAP1 PUSH2 0xB5B JUMP JUMPDEST ISZERO SWAP1 POP DUP1 ISZERO PUSH2 0x6E2 JUMPI POP PUSH1 0x1 JUMPDEST ISZERO PUSH2 0x708 JUMPI PUSH1 0x0 DUP2 DUP2 MSTORE PUSH1 0x3 PUSH1 0x20 SWAP1 DUP2 MSTORE PUSH1 0x40 SWAP1 SWAP2 KECCAK256 DUP6 MLOAD PUSH2 0x706 SWAP3 DUP8 ADD SWAP1 PUSH2 0x832 JUMP JUMPDEST POP JUMPDEST PUSH1 0x1 PUSH1 0x1 PUSH1 0x40 SHL SUB DUP1 DUP7 AND PUSH1 0x0 SWAP1 DUP2 MSTORE PUSH1 0x2 PUSH1 0x20 SWAP1 DUP2 MSTORE PUSH1 0x40 DUP1 DUP4 KECCAK256 DUP6 DUP5 MSTORE SWAP1 SWAP2 MSTORE DUP2 KECCAK256 SLOAD SWAP1 SWAP2 PUSH2 0x73B SWAP2 AND PUSH1 0x1 PUSH2 0xB24 JUMP JUMPDEST PUSH1 0x1 PUSH1 0x1 PUSH1 0x40 SHL SUB DUP8 DUP2 AND PUSH1 0x0 DUP2 DUP2 MSTORE PUSH1 0x1 PUSH1 0x20 DUP2 DUP2 MSTORE PUSH1 0x40 DUP1 DUP5 KECCAK256 CALLER DUP6 MSTORE DUP3 MSTORE DUP1 DUP5 KECCAK256 DUP1 SLOAD PUSH1 0xFF NOT AND SWAP1 SWAP4 OR SWAP1 SWAP3 SSTORE DUP4 DUP4 MSTORE PUSH1 0x2 DUP2 MSTORE DUP2 DUP4 KECCAK256 DUP9 DUP5 MSTORE DUP2 MSTORE DUP2 DUP4 KECCAK256 DUP1 SLOAD PUSH8 0xFFFFFFFFFFFFFFFF NOT AND DUP8 DUP8 AND SWAP1 DUP2 OR SWAP1 SWAP2 SSTORE SWAP4 DUP4 MSTORE PUSH1 0x5 SWAP1 MSTORE SWAP1 KECCAK256 SLOAD SWAP3 SWAP4 POP SWAP2 AND LT ISZERO PUSH2 0x7E4 JUMPI PUSH1 0x1 PUSH1 0x1 PUSH1 0x40 SHL SUB DUP7 DUP2 AND PUSH1 0x0 SWAP1 DUP2 MSTORE PUSH1 0x5 PUSH1 0x20 SWAP1 DUP2 MSTORE PUSH1 0x40 DUP1 DUP4 KECCAK256 DUP1 SLOAD PUSH8 0xFFFFFFFFFFFFFFFF NOT AND SWAP5 DUP7 AND SWAP5 SWAP1 SWAP5 OR SWAP1 SWAP4 SSTORE PUSH1 0x4 SWAP1 MSTORE KECCAK256 DUP3 SWAP1 SSTORE JUMPDEST CALLER PUSH1 0x1 PUSH1 0x1 PUSH1 0xA0 SHL SUB AND PUSH32 0x305124B6EC831BB4150EB1DDBD4E8CC4B95687B9A6258B110FD0E9865914B0BF DUP8 DUP8 DUP5 PUSH1 0x40 MLOAD PUSH2 0x821 SWAP4 SWAP3 SWAP2 SWAP1 PUSH2 0xAEE JUMP JUMPDEST PUSH1 0x40 MLOAD DUP1 SWAP2 SUB SWAP1 LOG2 POP POP POP POP POP POP POP JUMP JUMPDEST DUP3 DUP1 SLOAD PUSH2 0x83E SWAP1 PUSH2 0xB5B JUMP JUMPDEST SWAP1 PUSH1 0x0 MSTORE PUSH1 0x20 PUSH1 0x0 KECCAK256 SWAP1 PUSH1 0x1F ADD PUSH1 0x20 SWAP1 DIV DUP2 ADD SWAP3 DUP3 PUSH2 0x860 JUMPI PUSH1 0x0 DUP6 SSTORE PUSH2 0x8A6 JUMP JUMPDEST DUP3 PUSH1 0x1F LT PUSH2 0x879 JUMPI DUP1 MLOAD PUSH1 0xFF NOT AND DUP4 DUP1 ADD OR DUP6 SSTORE PUSH2 0x8A6 JUMP JUMPDEST DUP3 DUP1 ADD PUSH1 0x1 ADD DUP6 SSTORE DUP3 ISZERO PUSH2 0x8A6 JUMPI SWAP2 DUP3 ADD JUMPDEST DUP3 DUP2 GT ISZERO PUSH2 0x8A6 JUMPI DUP3 MLOAD DUP3 SSTORE SWAP2 PUSH1 0x20 ADD SWAP2 SWAP1 PUSH1 0x1 ADD SWAP1 PUSH2 0x88B JUMP JUMPDEST POP PUSH2 0x8B2 SWAP3 SWAP2 POP PUSH2 0x8B6 JUMP JUMPDEST POP SWAP1 JUMP JUMPDEST JUMPDEST DUP1 DUP3 GT ISZERO PUSH2 0x8B2 JUMPI PUSH1 0x0 DUP2 SSTORE PUSH1 0x1 ADD PUSH2 0x8B7 JUMP JUMPDEST PUSH1 0x0 DUP3 PUSH1 0x1F DUP4 ADD SLT PUSH2 0x8DB JUMPI DUP1 DUP2 REVERT JUMPDEST DUP2 CALLDATALOAD PUSH1 0x1 PUSH1 0x1 PUSH1 0x40 SHL SUB DUP1 DUP3 GT ISZERO PUSH2 0x8F5 JUMPI PUSH2 0x8F5 PUSH2 0xB96 JUMP JUMPDEST PUSH1 0x40 MLOAD PUSH1 0x1F DUP4 ADD PUSH1 0x1F NOT SWAP1 DUP2 AND PUSH1 0x3F ADD AND DUP2 ADD SWAP1 DUP3 DUP3 GT DUP2 DUP4 LT OR ISZERO PUSH2 0x91D JUMPI PUSH2 0x91D PUSH2 0xB96 JUMP JUMPDEST DUP2 PUSH1 0x40 MSTORE DUP4 DUP2 MSTORE DUP7 PUSH1 0x20 DUP6 DUP9 ADD ADD GT ISZERO PUSH2 0x935 JUMPI DUP5 DUP6 REVERT JUMPDEST DUP4 PUSH1 0x20 DUP8 ADD PUSH1 0x20 DUP4 ADD CALLDATACOPY SWAP3 DUP4 ADD PUSH1 0x20 ADD SWAP4 SWAP1 SWAP4 MSTORE POP SWAP4 SWAP3 POP POP POP JUMP JUMPDEST PUSH1 0x0 PUSH1 0x20 DUP3 DUP5 SUB SLT ISZERO PUSH2 0x962 JUMPI DUP1 DUP2 REVERT JUMPDEST DUP2 MLOAD PUSH2 0x96D DUP2 PUSH2 0xBAC JUMP JUMPDEST SWAP4 SWAP3 POP POP POP JUMP JUMPDEST PUSH1 0x0 DUP1 PUSH1 0x40 DUP4 DUP6 SUB SLT ISZERO PUSH2 0x986 JUMPI DUP1 DUP2 REVERT JUMPDEST DUP3 CALLDATALOAD PUSH2 0x991 DUP2 PUSH2 0xBAC JUMP JUMPDEST SWAP2 POP PUSH1 0x20 DUP4 ADD CALLDATALOAD PUSH2 0x9A1 DUP2 PUSH2 0xBC4 JUMP JUMPDEST DUP1 SWAP2 POP POP SWAP3 POP SWAP3 SWAP1 POP JUMP JUMPDEST PUSH1 0x0 PUSH1 0x20 DUP3 DUP5 SUB SLT ISZERO PUSH2 0x9BD JUMPI DUP1 DUP2 REVERT JUMPDEST DUP2 CALLDATALOAD PUSH2 0x96D DUP2 PUSH2 0xBC4 JUMP JUMPDEST PUSH1 0x0 PUSH1 0x20 DUP3 DUP5 SUB SLT ISZERO PUSH2 0x9D9 JUMPI DUP1 DUP2 REVERT JUMPDEST DUP2 MLOAD PUSH2 0x96D DUP2 PUSH2 0xBC4 JUMP JUMPDEST PUSH1 0x0 DUP1 PUSH1 0x40 DUP4 DUP6 SUB SLT ISZERO PUSH2 0x9F6 JUMPI DUP2 DUP3 REVERT JUMPDEST DUP3 CALLDATALOAD PUSH2 0xA01 DUP2 PUSH2 0xBC4 JUMP JUMPDEST SWAP2 POP PUSH1 0x20 DUP4 ADD CALLDATALOAD PUSH1 0x1 PUSH1 0x1 PUSH1 0x40 SHL SUB DUP2 GT ISZERO PUSH2 0xA1B JUMPI DUP2 DUP3 REVERT JUMPDEST PUSH2 0xA27 DUP6 DUP3 DUP7 ADD PUSH2 0x8CB JUMP JUMPDEST SWAP2 POP POP SWAP3 POP SWAP3 SWAP1 POP JUMP JUMPDEST PUSH1 0x0 DUP1 PUSH1 0x0 PUSH1 0x60 DUP5 DUP7 SUB SLT ISZERO PUSH2 0xA45 JUMPI DUP1 DUP2 REVERT JUMPDEST DUP4 CALLDATALOAD PUSH2 0xA50 DUP2 PUSH2 0xBC4 JUMP JUMPDEST SWAP3 POP PUSH1 0x20 DUP5 ADD CALLDATALOAD PUSH2 0xA60 DUP2 PUSH2 0xBC4 JUMP JUMPDEST SWAP2 POP PUSH1 0x40 DUP5 ADD CALLDATALOAD PUSH1 0x1 PUSH1 0x1 PUSH1 0x40 SHL SUB DUP2 GT ISZERO PUSH2 0xA7A JUMPI DUP2 DUP3 REVERT JUMPDEST PUSH2 0xA86 DUP7 DUP3 DUP8 ADD PUSH2 0x8CB JUMP JUMPDEST SWAP2 POP POP SWAP3 POP SWAP3 POP SWAP3 JUMP JUMPDEST PUSH1 0x0 DUP2 MLOAD DUP1 DUP5 MSTORE DUP2 JUMPDEST DUP2 DUP2 LT ISZERO PUSH2 0xAB5 JUMPI PUSH1 0x20 DUP2 DUP6 ADD DUP2 ADD MLOAD DUP7 DUP4 ADD DUP3 ADD MSTORE ADD PUSH2 0xA99 JUMP JUMPDEST DUP2 DUP2 GT ISZERO PUSH2 0xAC6 JUMPI DUP3 PUSH1 0x20 DUP4 DUP8 ADD ADD MSTORE JUMPDEST POP PUSH1 0x1F ADD PUSH1 0x1F NOT AND SWAP3 SWAP1 SWAP3 ADD PUSH1 0x20 ADD SWAP3 SWAP2 POP POP JUMP JUMPDEST PUSH1 0x20 DUP2 MSTORE PUSH1 0x0 PUSH2 0x96D PUSH1 0x20 DUP4 ADD DUP5 PUSH2 0xA90 JUMP JUMPDEST PUSH1 0x0 PUSH1 0x1 PUSH1 0x1 PUSH1 0x40 SHL SUB DUP1 DUP7 AND DUP4 MSTORE PUSH1 0x60 PUSH1 0x20 DUP5 ADD MSTORE PUSH2 0xB11 PUSH1 0x60 DUP5 ADD DUP7 PUSH2 0xA90 JUMP JUMPDEST SWAP2 POP DUP1 DUP5 AND PUSH1 0x40 DUP5 ADD MSTORE POP SWAP5 SWAP4 POP POP POP POP JUMP JUMPDEST PUSH1 0x0 PUSH1 0x1 PUSH1 0x1 PUSH1 0x40 SHL SUB DUP1 DUP4 AND DUP2 DUP6 AND DUP1 DUP4 SUB DUP3 GT ISZERO PUSH2 0xB52 JUMPI PUSH4 0x4E487B71 PUSH1 0xE0 SHL DUP5 MSTORE PUSH1 0x11 PUSH1 0x4 MSTORE PUSH1 0x24 DUP5 REVERT JUMPDEST ADD SWAP5 SWAP4 POP POP POP POP JUMP JUMPDEST PUSH1 0x1 DUP2 DUP2 SHR SWAP1 DUP3 AND DUP1 PUSH2 0xB6F JUMPI PUSH1 0x7F DUP3 AND SWAP2 POP JUMPDEST PUSH1 0x20 DUP3 LT DUP2 EQ ISZERO PUSH2 0xB90 JUMPI PUSH4 0x4E487B71 PUSH1 0xE0 SHL PUSH1 0x0 MSTORE PUSH1 0x22 PUSH1 0x4 MSTORE PUSH1 0x24 PUSH1 0x0 REVERT JUMPDEST POP SWAP2 SWAP1 POP JUMP JUMPDEST PUSH4 0x4E487B71 PUSH1 0xE0 SHL PUSH1 0x0 MSTORE PUSH1 0x41 PUSH1 0x4 MSTORE PUSH1 0x24 PUSH1 0x0 REVERT JUMPDEST PUSH1 0x1 PUSH1 0x1 PUSH1 0xA0 SHL SUB DUP2 AND DUP2 EQ PUSH2 0xBC1 JUMPI PUSH1 0x0 DUP1 REVERT JUMPDEST POP JUMP JUMPDEST PUSH1 0x1 PUSH1 0x1 PUSH1 0x40 SHL SUB DUP2 AND DUP2 EQ PUSH2 0xBC1 JUMPI PUSH1 0x0 DUP1 REVERT INVALID LOG2 PUSH5 0x6970667358 0x22 SLT KECCAK256 0x1F ORIGIN XOR PC 0xE1 0x26 SAR SLT 0x25 0xD2 0x1E 0xC7 PUSH26 0x3CC38D54062F75E6EAD3C5501486CBCA6C549564736F6C634300 ADDMOD DIV STOP CALLER ",
  "sha1": "e41a9d99b7ca3010af7df82f26b04749fe36ec9f",
  "source": "// SPDX-License-Identifier: MIT\n\npragma solidity =0.8.4;\n\nimport {ConfigContract, BatchConfig} from \"./ConfigContract.sol\";\n\n/// @title A contract that keypers can use to vote on eon public keys. For each eon public key\n///     generated, the keypers are expected to submit one vote. The contract logs the number of\n///     votes so that users can only pick keys once they have reached votes from enough keypers\n///     and thus have confidence that the key is actually correct.\ncontract KeyBroadcastContract {\n    /// @notice The event emitted when a keyper voted on an eon key.\n    /// @param keyper The address of the keyper who sent the vote.\n    /// @param startBatchIndex The index of the first batch for which the key should be used.\n    /// @param key The eon public key for which the keyper voted.\n    /// @param numVotes The number of keypers (including this one) who have voted for the key so\n    ///     far.\n    event Voted(\n        address indexed keyper,\n        uint64 startBatchIndex,\n        bytes key,\n        uint64 numVotes\n    );\n\n    ConfigContract public configContract;\n    mapping(uint64 => mapping(address => bool)) private _voted; // start batch index => keyper => voted or not\n    mapping(uint64 => mapping(bytes32 => uint64)) private _numVotes; // start batch index => key hash => number of votes\n    mapping(bytes32 => bytes) private _keys; // key hash => key\n\n    mapping(uint64 => bytes32) private _bestKeyHashes;\n    mapping(uint64 => uint64) private _bestKeyNumVotes;\n\n    constructor(address configContractAddress) {\n        configContract = ConfigContract(configContractAddress);\n    }\n\n    /// @notice Submit a vote.\n    /// @notice Can only be called by keypers defined in the config responsible for\n    ///     `startBatchIndex`, and only once per `startBatchIndex`.\n    /// @param keyperIndex The index of the calling keyper in the batch config.\n    /// @param startBatchIndex The index of the first batch for which the key should be used.\n    /// @param key The eon public key to vote for.\n    function vote(\n        uint64 keyperIndex,\n        uint64 startBatchIndex,\n        bytes memory key\n    ) public {\n        uint64 configIndex =\n            configContract.configIndexForBatchIndex(startBatchIndex);\n        uint64 batchSpan = configContract.configBatchSpan(configIndex);\n\n        require(batchSpan > 0, \"KeyBroadcastContract: config is inactive\");\n\n        require(\n            keyperIndex < configContract.configNumKeypers(configIndex),\n            \"KeyBroadcastContract: keyper index out of range\"\n        );\n        require(\n            msg.sender ==\n                configContract.configKeypers(configIndex, keyperIndex),\n            \"KeyBroadcastContract: sender is not keyper\"\n        );\n\n        require(\n            !_voted[startBatchIndex][msg.sender],\n            \"KeyBroadcastContract: keyper has already voted\"\n        );\n\n        bytes32 keyHash = keccak256(key);\n        // store the key if it hasn't already\n        if (_keys[keyHash].length == 0 && key.length >= 0) {\n            _keys[keyHash] = key;\n        }\n\n        // count vote\n        uint64 numVotes = _numVotes[startBatchIndex][keyHash] + 1;\n        _voted[startBatchIndex][msg.sender] = true;\n        _numVotes[startBatchIndex][keyHash] = numVotes;\n\n        if (numVotes > _bestKeyNumVotes[startBatchIndex]) {\n            _bestKeyNumVotes[startBatchIndex] = numVotes;\n            _bestKeyHashes[startBatchIndex] = keyHash;\n        }\n\n        emit Voted({\n            keyper: msg.sender,\n            startBatchIndex: startBatchIndex,\n            key: key,\n            numVotes: numVotes\n        });\n    }\n\n    function hasVoted(address keyper, uint64 startBatchIndex)\n        public\n        view\n        returns (bool)\n    {\n        return _voted[startBatchIndex][keyper];\n    }\n\n    function getNumVotes(uint64 startBatchIndex, bytes memory key)\n        public\n        view\n        returns (uint64)\n    {\n        return _numVotes[startBatchIndex][keccak256(key)];\n    }\n\n    function getBestKeyHash(uint64 startBatchIndex)\n        public\n        view\n        returns (bytes32)\n    {\n        return _bestKeyHashes[startBatchIndex];\n    }\n\n    function getBestKey(uint64 startBatchIndex)\n        public\n        view\n        returns (bytes memory)\n    {\n        return _keys[_bestKeyHashes[startBatchIndex]];\n    }\n\n    function getBestKeyNumVotes(uint64 startBatchIndex)\n        public\n        view\n        returns (uint256)\n    {\n        return _bestKeyNumVotes[startBatchIndex];\n    }\n}\n",
  "sourcePath": "contracts/KeyBroadcastContract.sol",
  "type": "contract"
}