{
  "abi": [
    {
      "inputs": [
        {
          "internalType": "address",
          "name": "executor",
          "type": "address"
        }
      ],
      "stateMutability": "nonpayable",
      "type": "constructor"
    },
    {
      "anonymous": false,
      "inputs": [
        {
          "indexed": false,
          "internalType": "address",
          "name": "sender",
          "type": "address"
        },
        {
          "indexed": false,
          "internalType": "bytes",
          "name": "data",
          "type": "bytes"
        },
        {
          "indexed": false,
          "internalType": "uint64",
          "name": "nonce",
          "type": "uint64"
        }
      ],
      "name": "ExecutedTransaction",
      "type": "event"
    },
    {
      "inputs": [
        {
          "internalType": "bytes",
          "name": "txData",
          "type": "bytes"
        }
      ],
      "name": "executeTransaction",
      "outputs": [],
      "stateMutability": "nonpayable",
      "type": "function"
    },
    {
      "inputs": [],
      "name": "getExecutor",
      "outputs": [
        {
          "internalType": "address",
          "name": "",
          "type": "address"
        }
      ],
      "stateMutability": "view",
      "type": "function"
    },
    {
      "inputs": [
        {
          "internalType": "address",
          "name": "account",
          "type": "address"
        }
      ],
      "name": "getNonce",
      "outputs": [
        {
          "internalType": "uint64",
          "name": "",
          "type": "uint64"
        }
      ],
      "stateMutability": "view",
      "type": "function"
    }
  ],
  "bytecode": "608060405234801561001057600080fd5b5060405161066838038061066883398101604081905261002f91610054565b600080546001600160a01b0319166001600160a01b0392909216919091179055610082565b600060208284031215610065578081fd5b81516001600160a01b038116811461007b578182fd5b9392505050565b6105d7806100916000396000f3fe608060405234801561001057600080fd5b50600436106100415760003560e01c80632d0335ab146100465780636c1032af1461006f578063943d720914610084575b600080fd5b6100596100543660046102b2565b610099565b6040516100669190610516565b60405180910390f35b6100776100be565b604051610066919061040c565b6100976100923660046102e0565b6100cd565b005b6001600160a01b031660009081526001602052604090205467ffffffffffffffff1690565b6000546001600160a01b031690565b6000546001600160a01b031633146101005760405162461bcd60e51b81526004016100f7906104c9565b60405180910390fd5b6000806000808480602001905181019061011a9190610354565b93509350935093506000848051906020012090506000600182868686604051600081526020016040526040516101539493929190610474565b6020604051602081039080840390855afa158015610175573d6000803e3d6000fd5b5050506020604051035190506000808780602001905181019061019891906103b7565b6001600160a01b038516600090815260016020526040902054919350915067ffffffffffffffff8084169116146101e15760405162461bcd60e51b81526004016100f790610492565b6001600160a01b038316600090815260016020819052604091829020805467ffffffffffffffff191691850167ffffffffffffffff16919091179055517f5932d06f5fe39d60725112950a65a5591f5cb869ce6bc5d90fd188fb255491d49061024f90859084908690610420565b60405180910390a1505050505050505050565b600082601f830112610272578081fd5b81516102856102808261054f565b61052b565b818152846020838601011115610299578283fd5b6102aa826020830160208701610571565b949350505050565b6000602082840312156102c3578081fd5b81356001600160a01b03811681146102d9578182fd5b9392505050565b6000602082840312156102f1578081fd5b813567ffffffffffffffff811115610307578182fd5b8201601f81018413610317578182fd5b80356103256102808261054f565b818152856020838501011115610339578384fd5b81602084016020830137908101602001929092525092915050565b60008060008060808587031215610369578283fd5b845167ffffffffffffffff81111561037f578384fd5b61038b87828801610262565b945050602085015160ff811681146103a1578384fd5b6040860151606090960151949790965092505050565b600080604083850312156103c9578182fd5b825167ffffffffffffffff80821682146103e1578384fd5b6020850151919350808211156103f5578283fd5b5061040285828601610262565b9150509250929050565b6001600160a01b0391909116815260200190565b600060018060a01b038516825260606020830152835180606084015261044d816080850160208801610571565b67ffffffffffffffff93909316604083015250601f91909101601f19160160800192915050565b93845260ff9290921660208401526040830152606082015260800190565b6020808252601f908201527f54657374546172676574436f6e74726163743a2077726f6e67206e6f6e636500604082015260600190565b6020808252602d908201527f54657374546172676574436f6e74726163743a206f6e6c79206578656375746f60408201526c722063616e206578656375746560981b606082015260800190565b67ffffffffffffffff91909116815260200190565b60405181810167ffffffffffffffff8111828210171561054757fe5b604052919050565b600067ffffffffffffffff82111561056357fe5b50601f01601f191660200190565b60005b8381101561058c578181015183820152602001610574565b8381111561059b576000848401525b5050505056fea26469706673582212206eca84be18788795725c7d8f67e8f11fe556a2f04318db627671f87ff0ff8e9564736f6c63430007060033",
  "bytecodeSha1": "629f3716b3f338fbcf87d0cd82e593d6db879a82",
  "compiler": {
    "evm_version": "istanbul",
    "optimizer": {
      "enabled": true,
      "runs": 200
    },
    "version": "0.7.6+commit.7338295f"
  },
  "contractName": "TestTargetContract",
  "language": "Solidity",
  "natspec": {
    "kind": "dev",
    "methods": {},
    "version": 1
  },
  "opcodes": "PUSH1 0x80 PUSH1 0x40 MSTORE CALLVALUE DUP1 ISZERO PUSH2 0x10 JUMPI PUSH1 0x0 DUP1 REVERT JUMPDEST POP PUSH1 0x4 CALLDATASIZE LT PUSH2 0x41 JUMPI PUSH1 0x0 CALLDATALOAD PUSH1 0xE0 SHR DUP1 PUSH4 0x2D0335AB EQ PUSH2 0x46 JUMPI DUP1 PUSH4 0x6C1032AF EQ PUSH2 0x6F JUMPI DUP1 PUSH4 0x943D7209 EQ PUSH2 0x84 JUMPI JUMPDEST PUSH1 0x0 DUP1 REVERT JUMPDEST PUSH2 0x59 PUSH2 0x54 CALLDATASIZE PUSH1 0x4 PUSH2 0x2B2 JUMP JUMPDEST PUSH2 0x99 JUMP JUMPDEST PUSH1 0x40 MLOAD PUSH2 0x66 SWAP2 SWAP1 PUSH2 0x516 JUMP JUMPDEST PUSH1 0x40 MLOAD DUP1 SWAP2 SUB SWAP1 RETURN JUMPDEST PUSH2 0x77 PUSH2 0xBE JUMP JUMPDEST PUSH1 0x40 MLOAD PUSH2 0x66 SWAP2 SWAP1 PUSH2 0x40C JUMP JUMPDEST PUSH2 0x97 PUSH2 0x92 CALLDATASIZE PUSH1 0x4 PUSH2 0x2E0 JUMP JUMPDEST PUSH2 0xCD JUMP JUMPDEST STOP JUMPDEST PUSH1 0x1 PUSH1 0x1 PUSH1 0xA0 SHL SUB AND PUSH1 0x0 SWAP1 DUP2 MSTORE PUSH1 0x1 PUSH1 0x20 MSTORE PUSH1 0x40 SWAP1 KECCAK256 SLOAD PUSH8 0xFFFFFFFFFFFFFFFF AND SWAP1 JUMP JUMPDEST PUSH1 0x0 SLOAD PUSH1 0x1 PUSH1 0x1 PUSH1 0xA0 SHL SUB AND SWAP1 JUMP JUMPDEST PUSH1 0x0 SLOAD PUSH1 0x1 PUSH1 0x1 PUSH1 0xA0 SHL SUB AND CALLER EQ PUSH2 0x100 JUMPI PUSH1 0x40 MLOAD PUSH3 0x461BCD PUSH1 0xE5 SHL DUP2 MSTORE PUSH1 0x4 ADD PUSH2 0xF7 SWAP1 PUSH2 0x4C9 JUMP JUMPDEST PUSH1 0x40 MLOAD DUP1 SWAP2 SUB SWAP1 REVERT JUMPDEST PUSH1 0x0 DUP1 PUSH1 0x0 DUP1 DUP5 DUP1 PUSH1 0x20 ADD SWAP1 MLOAD DUP2 ADD SWAP1 PUSH2 0x11A SWAP2 SWAP1 PUSH2 0x354 JUMP JUMPDEST SWAP4 POP SWAP4 POP SWAP4 POP SWAP4 POP PUSH1 0x0 DUP5 DUP1 MLOAD SWAP1 PUSH1 0x20 ADD KECCAK256 SWAP1 POP PUSH1 0x0 PUSH1 0x1 DUP3 DUP7 DUP7 DUP7 PUSH1 0x40 MLOAD PUSH1 0x0 DUP2 MSTORE PUSH1 0x20 ADD PUSH1 0x40 MSTORE PUSH1 0x40 MLOAD PUSH2 0x153 SWAP5 SWAP4 SWAP3 SWAP2 SWAP1 PUSH2 0x474 JUMP JUMPDEST PUSH1 0x20 PUSH1 0x40 MLOAD PUSH1 0x20 DUP2 SUB SWAP1 DUP1 DUP5 SUB SWAP1 DUP6 GAS STATICCALL ISZERO DUP1 ISZERO PUSH2 0x175 JUMPI RETURNDATASIZE PUSH1 0x0 DUP1 RETURNDATACOPY RETURNDATASIZE PUSH1 0x0 REVERT JUMPDEST POP POP POP PUSH1 0x20 PUSH1 0x40 MLOAD SUB MLOAD SWAP1 POP PUSH1 0x0 DUP1 DUP8 DUP1 PUSH1 0x20 ADD SWAP1 MLOAD DUP2 ADD SWAP1 PUSH2 0x198 SWAP2 SWAP1 PUSH2 0x3B7 JUMP JUMPDEST PUSH1 0x1 PUSH1 0x1 PUSH1 0xA0 SHL SUB DUP6 AND PUSH1 0x0 SWAP1 DUP2 MSTORE PUSH1 0x1 PUSH1 0x20 MSTORE PUSH1 0x40 SWAP1 KECCAK256 SLOAD SWAP2 SWAP4 POP SWAP2 POP PUSH8 0xFFFFFFFFFFFFFFFF DUP1 DUP5 AND SWAP2 AND EQ PUSH2 0x1E1 JUMPI PUSH1 0x40 MLOAD PUSH3 0x461BCD PUSH1 0xE5 SHL DUP2 MSTORE PUSH1 0x4 ADD PUSH2 0xF7 SWAP1 PUSH2 0x492 JUMP JUMPDEST PUSH1 0x1 PUSH1 0x1 PUSH1 0xA0 SHL SUB DUP4 AND PUSH1 0x0 SWAP1 DUP2 MSTORE PUSH1 0x1 PUSH1 0x20 DUP2 SWAP1 MSTORE PUSH1 0x40 SWAP2 DUP3 SWAP1 KECCAK256 DUP1 SLOAD PUSH8 0xFFFFFFFFFFFFFFFF NOT AND SWAP2 DUP6 ADD PUSH8 0xFFFFFFFFFFFFFFFF AND SWAP2 SWAP1 SWAP2 OR SWAP1 SSTORE MLOAD PUSH32 0x5932D06F5FE39D60725112950A65A5591F5CB869CE6BC5D90FD188FB255491D4 SWAP1 PUSH2 0x24F SWAP1 DUP6 SWAP1 DUP5 SWAP1 DUP7 SWAP1 PUSH2 0x420 JUMP JUMPDEST PUSH1 0x40 MLOAD DUP1 SWAP2 SUB SWAP1 LOG1 POP POP POP POP POP POP POP POP POP JUMP JUMPDEST PUSH1 0x0 DUP3 PUSH1 0x1F DUP4 ADD SLT PUSH2 0x272 JUMPI DUP1 DUP2 REVERT JUMPDEST DUP2 MLOAD PUSH2 0x285 PUSH2 0x280 DUP3 PUSH2 0x54F JUMP JUMPDEST PUSH2 0x52B JUMP JUMPDEST DUP2 DUP2 MSTORE DUP5 PUSH1 0x20 DUP4 DUP7 ADD ADD GT ISZERO PUSH2 0x299 JUMPI DUP3 DUP4 REVERT JUMPDEST PUSH2 0x2AA DUP3 PUSH1 0x20 DUP4 ADD PUSH1 0x20 DUP8 ADD PUSH2 0x571 JUMP JUMPDEST SWAP5 SWAP4 POP POP POP POP JUMP JUMPDEST PUSH1 0x0 PUSH1 0x20 DUP3 DUP5 SUB SLT ISZERO PUSH2 0x2C3 JUMPI DUP1 DUP2 REVERT JUMPDEST DUP2 CALLDATALOAD PUSH1 0x1 PUSH1 0x1 PUSH1 0xA0 SHL SUB DUP2 AND DUP2 EQ PUSH2 0x2D9 JUMPI DUP2 DUP3 REVERT JUMPDEST SWAP4 SWAP3 POP POP POP JUMP JUMPDEST PUSH1 0x0 PUSH1 0x20 DUP3 DUP5 SUB SLT ISZERO PUSH2 0x2F1 JUMPI DUP1 DUP2 REVERT JUMPDEST DUP2 CALLDATALOAD PUSH8 0xFFFFFFFFFFFFFFFF DUP2 GT ISZERO PUSH2 0x307 JUMPI DUP2 DUP3 REVERT JUMPDEST DUP3 ADD PUSH1 0x1F DUP2 ADD DUP5 SGT PUSH2 0x317 JUMPI DUP2 DUP3 REVERT JUMPDEST DUP1 CALLDATALOAD PUSH2 0x325 PUSH2 0x280 DUP3 PUSH2 0x54F JUMP JUMPDEST DUP2 DUP2 MSTORE DUP6 PUSH1 0x20 DUP4 DUP6 ADD ADD GT ISZERO PUSH2 0x339 JUMPI DUP4 DUP5 REVERT JUMPDEST DUP2 PUSH1 0x20 DUP5 ADD PUSH1 0x20 DUP4 ADD CALLDATACOPY SWAP1 DUP2 ADD PUSH1 0x20 ADD SWAP3 SWAP1 SWAP3 MSTORE POP SWAP3 SWAP2 POP POP JUMP JUMPDEST PUSH1 0x0 DUP1 PUSH1 0x0 DUP1 PUSH1 0x80 DUP6 DUP8 SUB SLT ISZERO PUSH2 0x369 JUMPI DUP3 DUP4 REVERT JUMPDEST DUP5 MLOAD PUSH8 0xFFFFFFFFFFFFFFFF DUP2 GT ISZERO PUSH2 0x37F JUMPI DUP4 DUP5 REVERT JUMPDEST PUSH2 0x38B DUP8 DUP3 DUP9 ADD PUSH2 0x262 JUMP JUMPDEST SWAP5 POP POP PUSH1 0x20 DUP6 ADD MLOAD PUSH1 0xFF DUP2 AND DUP2 EQ PUSH2 0x3A1 JUMPI DUP4 DUP5 REVERT JUMPDEST PUSH1 0x40 DUP7 ADD MLOAD PUSH1 0x60 SWAP1 SWAP7 ADD MLOAD SWAP5 SWAP8 SWAP1 SWAP7 POP SWAP3 POP POP POP JUMP JUMPDEST PUSH1 0x0 DUP1 PUSH1 0x40 DUP4 DUP6 SUB SLT ISZERO PUSH2 0x3C9 JUMPI DUP2 DUP3 REVERT JUMPDEST DUP3 MLOAD PUSH8 0xFFFFFFFFFFFFFFFF DUP1 DUP3 AND DUP3 EQ PUSH2 0x3E1 JUMPI DUP4 DUP5 REVERT JUMPDEST PUSH1 0x20 DUP6 ADD MLOAD SWAP2 SWAP4 POP DUP1 DUP3 GT ISZERO PUSH2 0x3F5 JUMPI DUP3 DUP4 REVERT JUMPDEST POP PUSH2 0x402 DUP6 DUP3 DUP7 ADD PUSH2 0x262 JUMP JUMPDEST SWAP2 POP POP SWAP3 POP SWAP3 SWAP1 POP JUMP JUMPDEST PUSH1 0x1 PUSH1 0x1 PUSH1 0xA0 SHL SUB SWAP2 SWAP1 SWAP2 AND DUP2 MSTORE PUSH1 0x20 ADD SWAP1 JUMP JUMPDEST PUSH1 0x0 PUSH1 0x1 DUP1 PUSH1 0xA0 SHL SUB DUP6 AND DUP3 MSTORE PUSH1 0x60 PUSH1 0x20 DUP4 ADD MSTORE DUP4 MLOAD DUP1 PUSH1 0x60 DUP5 ADD MSTORE PUSH2 0x44D DUP2 PUSH1 0x80 DUP6 ADD PUSH1 0x20 DUP9 ADD PUSH2 0x571 JUMP JUMPDEST PUSH8 0xFFFFFFFFFFFFFFFF SWAP4 SWAP1 SWAP4 AND PUSH1 0x40 DUP4 ADD MSTORE POP PUSH1 0x1F SWAP2 SWAP1 SWAP2 ADD PUSH1 0x1F NOT AND ADD PUSH1 0x80 ADD SWAP3 SWAP2 POP POP JUMP JUMPDEST SWAP4 DUP5 MSTORE PUSH1 0xFF SWAP3 SWAP1 SWAP3 AND PUSH1 0x20 DUP5 ADD MSTORE PUSH1 0x40 DUP4 ADD MSTORE PUSH1 0x60 DUP3 ADD MSTORE PUSH1 0x80 ADD SWAP1 JUMP JUMPDEST PUSH1 0x20 DUP1 DUP3 MSTORE PUSH1 0x1F SWAP1 DUP3 ADD MSTORE PUSH32 0x54657374546172676574436F6E74726163743A2077726F6E67206E6F6E636500 PUSH1 0x40 DUP3 ADD MSTORE PUSH1 0x60 ADD SWAP1 JUMP JUMPDEST PUSH1 0x20 DUP1 DUP3 MSTORE PUSH1 0x2D SWAP1 DUP3 ADD MSTORE PUSH32 0x54657374546172676574436F6E74726163743A206F6E6C79206578656375746F PUSH1 0x40 DUP3 ADD MSTORE PUSH13 0x722063616E2065786563757465 PUSH1 0x98 SHL PUSH1 0x60 DUP3 ADD MSTORE PUSH1 0x80 ADD SWAP1 JUMP JUMPDEST PUSH8 0xFFFFFFFFFFFFFFFF SWAP2 SWAP1 SWAP2 AND DUP2 MSTORE PUSH1 0x20 ADD SWAP1 JUMP JUMPDEST PUSH1 0x40 MLOAD DUP2 DUP2 ADD PUSH8 0xFFFFFFFFFFFFFFFF DUP2 GT DUP3 DUP3 LT OR ISZERO PUSH2 0x547 JUMPI INVALID JUMPDEST PUSH1 0x40 MSTORE SWAP2 SWAP1 POP JUMP JUMPDEST PUSH1 0x0 PUSH8 0xFFFFFFFFFFFFFFFF DUP3 GT ISZERO PUSH2 0x563 JUMPI INVALID JUMPDEST POP PUSH1 0x1F ADD PUSH1 0x1F NOT AND PUSH1 0x20 ADD SWAP1 JUMP JUMPDEST PUSH1 0x0 JUMPDEST DUP4 DUP2 LT ISZERO PUSH2 0x58C JUMPI DUP2 DUP2 ADD MLOAD DUP4 DUP3 ADD MSTORE PUSH1 0x20 ADD PUSH2 0x574 JUMP JUMPDEST DUP4 DUP2 GT ISZERO PUSH2 0x59B JUMPI PUSH1 0x0 DUP5 DUP5 ADD MSTORE JUMPDEST POP POP POP POP JUMP INVALID LOG2 PUSH5 0x6970667358 0x22 SLT KECCAK256 PUSH15 0xCA84BE18788795725C7D8F67E8F11F 0xE5 JUMP LOG2 CREATE NUMBER XOR 0xDB PUSH3 0x7671F8 PUSH32 0xF0FF8E9564736F6C634300070600330000000000000000000000000000000000 ",
  "sha1": "7c9b509d2e881d177726f7861c138e205d3ff439",
  "source": "// SPDX-License-Identifier: MIT\n\npragma solidity >=0.7.0 <0.8.0;\npragma experimental ABIEncoderV2;\n\ncontract TestTargetContract {\n\n    event ExecutedTransaction(\n        address sender,\n        bytes data,\n        uint64 nonce\n    );\n\n    address private _executor;\n    mapping(address => uint64) private _nonces;\n\n\n    constructor (address executor) {\n        _executor = executor;\n    }\n\n    function executeTransaction(bytes memory txData) external {\n        require(msg.sender == _executor, \"TestTargetContract: only executor can execute\");\n\n        (bytes memory payload, uint8 v, bytes32 r, bytes32 s) = abi.decode(txData, (bytes, uint8, bytes32, bytes32));\n        bytes32 payloadHash = keccak256(payload);\n        address sender = ecrecover(payloadHash, v, r, s);\n        (uint64 nonce, bytes memory data) = abi.decode(payload, (uint64, bytes));\n\n        require(nonce == _nonces[sender], \"TestTargetContract: wrong nonce\");\n        _nonces[sender] = nonce + 1;\n\n        emit ExecutedTransaction({\n            sender: sender,\n            data: data,\n            nonce: nonce\n        });\n    }\n\n    function getNonce(address account) view public returns (uint64) {\n        return _nonces[account];\n    }\n\n    function getExecutor() view public returns (address) {\n        return _executor;\n    }\n\n}",
  "sourcePath": "contracts/TestTargetContract.sol",
  "type": "contract"
}